{
  "_format": "hh-sol-artifact-1",
  "contractName": "Feedbase",
  "sourceName": "lib/feedbase/src/Feedbase.sol",
  "abi": [
    {
      "inputs": [],
      "name": "ErrTTL",
      "type": "error"
    },
    {
      "anonymous": false,
      "inputs": [
        {
          "indexed": true,
          "internalType": "address",
          "name": "src",
          "type": "address"
        },
        {
          "indexed": true,
          "internalType": "bytes32",
          "name": "tag",
          "type": "bytes32"
        },
        {
          "indexed": false,
          "internalType": "bytes32",
          "name": "val",
          "type": "bytes32"
        },
        {
          "indexed": false,
          "internalType": "uint256",
          "name": "ttl",
          "type": "uint256"
        }
      ],
      "name": "Push",
      "type": "event"
    },
    {
      "inputs": [
        {
          "internalType": "address",
          "name": "src",
          "type": "address"
        },
        {
          "internalType": "bytes32",
          "name": "tag",
          "type": "bytes32"
        }
      ],
      "name": "pull",
      "outputs": [
        {
          "internalType": "bytes32",
          "name": "val",
          "type": "bytes32"
        },
        {
          "internalType": "uint256",
          "name": "ttl",
          "type": "uint256"
        }
      ],
      "stateMutability": "view",
      "type": "function"
    },
    {
      "inputs": [
        {
          "internalType": "bytes32",
          "name": "tag",
          "type": "bytes32"
        },
        {
          "internalType": "bytes32",
          "name": "val",
          "type": "bytes32"
        },
        {
          "internalType": "uint256",
          "name": "ttl",
          "type": "uint256"
        }
      ],
      "name": "push",
      "outputs": [],
      "stateMutability": "nonpayable",
      "type": "function"
    }
  ],
  "bytecode": "0x608060405234801561001057600080fd5b506102d0806100206000396000f3fe608060405234801561001057600080fd5b50600436106100365760003560e01c806332e139471461003b57806352ba849114610050575b600080fd5b61004e610049366004610205565b61007c565b005b61006361005e366004610231565b610127565b6040805192835260208301919091520160405180910390f35b806100b3576040517f588323c100000000000000000000000000000000000000000000000000000000815260040160405180910390fd5b60408051808201825283815260208082018481523360008181528084528581208982528452859020935184559051600190930192909255825185815290810184905285927ff9a9a963dd46a3521e1237022ef6afffe7d83ba7c89026214f29495127b0216c910160405180910390a3505050565b73ffffffffffffffffffffffffffffffffffffffff82166000908152602081815260408083208484529091528120600181015490816101f8576040517f61da14390000000000000000000000000000000000000000000000000000000081526004810185905273ffffffffffffffffffffffffffffffffffffffff8616906361da1439906024016040805180830381865afa1580156101ca573d6000803e3d6000fd5b505050506040513d601f19601f820116820180604052508101906101ee9190610276565b90935091506101fd565b805492505b509250929050565b60008060006060848603121561021a57600080fd5b505081359360208301359350604090920135919050565b6000806040838503121561024457600080fd5b823573ffffffffffffffffffffffffffffffffffffffff8116811461026857600080fd5b946020939093013593505050565b6000806040838503121561028957600080fd5b50508051602090910151909290915056fea2646970667358221220d68d7e301386650ee4ad02457cb9383db7a00523a8c9f63c89d54f7f237a798564736f6c63430008130033",
  "linkReferences": {},
  "deployedLinkReferences": {}
}