{
  "_format": "hh-sol-artifact-1",
  "contractName": "ChainlinkAdapter",
  "sourceName": "lib/feedbase/src/adapters/ChainlinkAdapter.sol",
  "abi": [
    {
      "inputs": [
        {
          "internalType": "address",
          "name": "_fb",
          "type": "address"
        }
      ],
      "stateMutability": "nonpayable",
      "type": "constructor"
    },
    {
      "inputs": [],
      "name": "ErrNegPrice",
      "type": "error"
    },
    {
      "inputs": [
        {
          "internalType": "address",
          "name": "caller",
          "type": "address"
        },
        {
          "internalType": "address",
          "name": "object",
          "type": "address"
        },
        {
          "internalType": "bytes4",
          "name": "sig",
          "type": "bytes4"
        }
      ],
      "name": "ErrWard",
      "type": "error"
    },
    {
      "anonymous": false,
      "inputs": [
        {
          "indexed": true,
          "internalType": "address",
          "name": "caller",
          "type": "address"
        },
        {
          "indexed": true,
          "internalType": "address",
          "name": "trusts",
          "type": "address"
        },
        {
          "indexed": false,
          "internalType": "bool",
          "name": "bit",
          "type": "bool"
        }
      ],
      "name": "SetWard",
      "type": "event"
    },
    {
      "inputs": [
        {
          "internalType": "bytes32",
          "name": "",
          "type": "bytes32"
        }
      ],
      "name": "configs",
      "outputs": [
        {
          "internalType": "address",
          "name": "agg",
          "type": "address"
        },
        {
          "internalType": "uint256",
          "name": "ttl",
          "type": "uint256"
        },
        {
          "internalType": "uint256",
          "name": "precision",
          "type": "uint256"
        }
      ],
      "stateMutability": "view",
      "type": "function"
    },
    {
      "inputs": [],
      "name": "fb",
      "outputs": [
        {
          "internalType": "contract Feedbase",
          "name": "",
          "type": "address"
        }
      ],
      "stateMutability": "view",
      "type": "function"
    },
    {
      "inputs": [
        {
          "internalType": "address",
          "name": "usr",
          "type": "address"
        }
      ],
      "name": "give",
      "outputs": [],
      "stateMutability": "nonpayable",
      "type": "function"
    },
    {
      "inputs": [
        {
          "internalType": "bytes32",
          "name": "tag",
          "type": "bytes32"
        }
      ],
      "name": "read",
      "outputs": [
        {
          "internalType": "bytes32",
          "name": "val",
          "type": "bytes32"
        },
        {
          "internalType": "uint256",
          "name": "minttl",
          "type": "uint256"
        }
      ],
      "stateMutability": "view",
      "type": "function"
    },
    {
      "inputs": [
        {
          "internalType": "bytes32",
          "name": "tag",
          "type": "bytes32"
        },
        {
          "components": [
            {
              "internalType": "address",
              "name": "agg",
              "type": "address"
            },
            {
              "internalType": "uint256",
              "name": "ttl",
              "type": "uint256"
            },
            {
              "internalType": "uint256",
              "name": "precision",
              "type": "uint256"
            }
          ],
          "internalType": "struct ChainlinkAdapter.Config",
          "name": "config",
          "type": "tuple"
        }
      ],
      "name": "setConfig",
      "outputs": [],
      "stateMutability": "nonpayable",
      "type": "function"
    },
    {
      "inputs": [
        {
          "internalType": "address",
          "name": "usr",
          "type": "address"
        },
        {
          "internalType": "bool",
          "name": "bit",
          "type": "bool"
        }
      ],
      "name": "ward",
      "outputs": [],
      "stateMutability": "nonpayable",
      "type": "function"
    },
    {
      "inputs": [
        {
          "internalType": "address",
          "name": "usr",
          "type": "address"
        }
      ],
      "name": "wards",
      "outputs": [
        {
          "internalType": "bool",
          "name": "",
          "type": "bool"
        }
      ],
      "stateMutability": "view",
      "type": "function"
    }
  ],
  "bytecode": "0x608060405234801561001057600080fd5b50604051610b46380380610b4683398101604081905261002f916100a5565b3360008181526020818152604091829020805460ff19166001908117909155915191825230917f353b799ee5ce93aec9eee231e1301e94df3270c64f0dd606ea6823532e1d0b5d910160405180910390a3600180546001600160a01b0319166001600160a01b03929092169190911790556100d5565b6000602082840312156100b757600080fd5b81516001600160a01b03811681146100ce57600080fd5b9392505050565b610a62806100e46000396000f3fe608060405234801561001057600080fd5b506004361061007d5760003560e01c8063bdf86a661161005b578063bdf86a66146100d7578063bf353dbb146100ea578063ce8f60781461011d578063eb6664751461019657600080fd5b806361da143914610082578063798218d5146100af578063a7b97e60146100c4575b600080fd5b6100956100903660046106ac565b6101db565b604080519283526020830191909152015b60405180910390f35b6100c26100bd3660046106c5565b610382565b005b6100c26100d2366004610740565b610422565b6100c26100e536600461077e565b610542565b61010d6100f836600461077e565b60006020819052908152604090205460ff1681565b60405190151581526020016100a6565b61016461012b3660046106ac565b600260208190526000918252604090912080546001820154919092015473ffffffffffffffffffffffffffffffffffffffff9092169183565b6040805173ffffffffffffffffffffffffffffffffffffffff90941684526020840192909252908201526060016100a6565b6001546101b69073ffffffffffffffffffffffffffffffffffffffff1681565b60405173ffffffffffffffffffffffffffffffffffffffff90911681526020016100a6565b600081815260026020526040808220805482517ffeaf968c0000000000000000000000000000000000000000000000000000000081529251849373ffffffffffffffffffffffffffffffffffffffff9092169184918291849163feaf968c9160048082019260a0929091908290030181865afa15801561025f573d6000803e3d6000fd5b505050506040513d601f19601f8201168201806040525081019061028391906107a2565b5093505092505060008212156102c5576040517fd05aa62600000000000000000000000000000000000000000000000000000000815260040160405180910390fd5b600082905060008473ffffffffffffffffffffffffffffffffffffffff1663313ce5676040518163ffffffff1660e01b8152600401602060405180830381865afa158015610317573d6000803e3d6000fd5b505050506040513d601f19601f8201168201806040525081019061033b91906107e2565b61034690600a610956565b9050808660020154836103599190610965565b610363919061097c565b600187015490985061037590846109b7565b9650505050505050915091565b3360009081526020819052604090205460ff16610402576040517f609f9a230000000000000000000000000000000000000000000000000000000081523360048201523060248201527fffffffff000000000000000000000000000000000000000000000000000000006000351660448201526064015b60405180910390fd5b6000828152600260205260409020819061041c82826109ca565b50505050565b3360009081526020819052604090205460ff1661049d576040517f609f9a230000000000000000000000000000000000000000000000000000000081523360048201523060248201527fffffffff000000000000000000000000000000000000000000000000000000006000351660448201526064016103f9565b604051811515815273ffffffffffffffffffffffffffffffffffffffff83169033907f353b799ee5ce93aec9eee231e1301e94df3270c64f0dd606ea6823532e1d0b5d9060200160405180910390a373ffffffffffffffffffffffffffffffffffffffff91909116600090815260208190526040902080547fffffffffffffffffffffffffffffffffffffffffffffffffffffffffffffff0016911515919091179055565b3360009081526020819052604090205460ff166105bd576040517f609f9a230000000000000000000000000000000000000000000000000000000081523360048201523060248201527fffffffff000000000000000000000000000000000000000000000000000000006000351660448201526064016103f9565b73ffffffffffffffffffffffffffffffffffffffff81166000818152602081815260409182902080547fffffffffffffffffffffffffffffffffffffffffffffffffffffffffffffff00166001908117909155915191825233917f353b799ee5ce93aec9eee231e1301e94df3270c64f0dd606ea6823532e1d0b5d910160405180910390a33360008181526020818152604080832080547fffffffffffffffffffffffffffffffffffffffffffffffffffffffffffffff001690555191825282917f353b799ee5ce93aec9eee231e1301e94df3270c64f0dd606ea6823532e1d0b5d910160405180910390a350565b6000602082840312156106be57600080fd5b5035919050565b60008082840360808112156106d957600080fd5b8335925060607fffffffffffffffffffffffffffffffffffffffffffffffffffffffffffffffe08201121561070d57600080fd5b506020830190509250929050565b73ffffffffffffffffffffffffffffffffffffffff8116811461073d57600080fd5b50565b6000806040838503121561075357600080fd5b823561075e8161071b565b91506020830135801515811461077357600080fd5b809150509250929050565b60006020828403121561079057600080fd5b813561079b8161071b565b9392505050565b600080600080600060a086880312156107ba57600080fd5b5050835160208501516040860151606087015160809097015192989197509594509092509050565b6000602082840312156107f457600080fd5b815160ff8116811461079b57600080fd5b7f4e487b7100000000000000000000000000000000000000000000000000000000600052601160045260246000fd5b600181815b8085111561088d57817fffffffffffffffffffffffffffffffffffffffffffffffffffffffffffffffff0482111561087357610873610805565b8085161561088057918102915b93841c9390800290610839565b509250929050565b6000826108a457506001610950565b816108b157506000610950565b81600181146108c757600281146108d1576108ed565b6001915050610950565b60ff8411156108e2576108e2610805565b50506001821b610950565b5060208310610133831016604e8410600b8410161715610910575081810a610950565b61091a8383610834565b807fffffffffffffffffffffffffffffffffffffffffffffffffffffffffffffffff0482111561094c5761094c610805565b0290505b92915050565b600061079b60ff841683610895565b808202811582820484141761095057610950610805565b6000826109b2577f4e487b7100000000000000000000000000000000000000000000000000000000600052601260045260246000fd5b500490565b8082018082111561095057610950610805565b81356109d58161071b565b73ffffffffffffffffffffffffffffffffffffffff81167fffffffffffffffffffffffff0000000000000000000000000000000000000000835416178255506020820135600182015560408201356002820155505056fea2646970667358221220736df697a227ef31e84f2623041d668f78fe12643e1c7d1dd2ad75f6659d268b64736f6c63430008130033",
  "linkReferences": {},
  "deployedLinkReferences": {}
}