{
  "_format": "hh-sol-artifact-1",
  "contractName": "Multiplier",
  "sourceName": "lib/feedbase/src/combinators/Multiplier.sol",
  "abi": [
    {
      "inputs": [
        {
          "internalType": "address",
          "name": "fb",
          "type": "address"
        }
      ],
      "stateMutability": "nonpayable",
      "type": "constructor"
    },
    {
      "inputs": [],
      "name": "ErrMatch",
      "type": "error"
    },
    {
      "inputs": [],
      "name": "ErrShort",
      "type": "error"
    },
    {
      "inputs": [
        {
          "internalType": "address",
          "name": "caller",
          "type": "address"
        },
        {
          "internalType": "address",
          "name": "object",
          "type": "address"
        },
        {
          "internalType": "bytes4",
          "name": "sig",
          "type": "bytes4"
        }
      ],
      "name": "ErrWard",
      "type": "error"
    },
    {
      "anonymous": false,
      "inputs": [
        {
          "indexed": true,
          "internalType": "address",
          "name": "caller",
          "type": "address"
        },
        {
          "indexed": true,
          "internalType": "address",
          "name": "trusts",
          "type": "address"
        },
        {
          "indexed": false,
          "internalType": "bool",
          "name": "bit",
          "type": "bool"
        }
      ],
      "name": "SetWard",
      "type": "event"
    },
    {
      "inputs": [],
      "name": "feedbase",
      "outputs": [
        {
          "internalType": "contract Feedbase",
          "name": "",
          "type": "address"
        }
      ],
      "stateMutability": "view",
      "type": "function"
    },
    {
      "inputs": [
        {
          "internalType": "bytes32",
          "name": "tag",
          "type": "bytes32"
        }
      ],
      "name": "getConfig",
      "outputs": [
        {
          "components": [
            {
              "internalType": "address[]",
              "name": "sources",
              "type": "address[]"
            },
            {
              "internalType": "bytes32[]",
              "name": "tags",
              "type": "bytes32[]"
            }
          ],
          "internalType": "struct Block.Config",
          "name": "",
          "type": "tuple"
        }
      ],
      "stateMutability": "view",
      "type": "function"
    },
    {
      "inputs": [
        {
          "internalType": "address",
          "name": "usr",
          "type": "address"
        }
      ],
      "name": "give",
      "outputs": [],
      "stateMutability": "nonpayable",
      "type": "function"
    },
    {
      "inputs": [
        {
          "internalType": "bytes32",
          "name": "tag",
          "type": "bytes32"
        }
      ],
      "name": "read",
      "outputs": [
        {
          "internalType": "bytes32",
          "name": "val",
          "type": "bytes32"
        },
        {
          "internalType": "uint256",
          "name": "minttl",
          "type": "uint256"
        }
      ],
      "stateMutability": "view",
      "type": "function"
    },
    {
      "inputs": [
        {
          "internalType": "bytes32",
          "name": "tag",
          "type": "bytes32"
        },
        {
          "components": [
            {
              "internalType": "address[]",
              "name": "sources",
              "type": "address[]"
            },
            {
              "internalType": "bytes32[]",
              "name": "tags",
              "type": "bytes32[]"
            }
          ],
          "internalType": "struct Block.Config",
          "name": "_config",
          "type": "tuple"
        }
      ],
      "name": "setConfig",
      "outputs": [],
      "stateMutability": "nonpayable",
      "type": "function"
    },
    {
      "inputs": [
        {
          "internalType": "address",
          "name": "usr",
          "type": "address"
        },
        {
          "internalType": "bool",
          "name": "bit",
          "type": "bool"
        }
      ],
      "name": "ward",
      "outputs": [],
      "stateMutability": "nonpayable",
      "type": "function"
    },
    {
      "inputs": [
        {
          "internalType": "address",
          "name": "usr",
          "type": "address"
        }
      ],
      "name": "wards",
      "outputs": [
        {
          "internalType": "bool",
          "name": "",
          "type": "bool"
        }
      ],
      "stateMutability": "view",
      "type": "function"
    }
  ],
  "bytecode": "0x60a060405234801561001057600080fd5b50604051610e9b380380610e9b83398101604081905261002f91610095565b3360008181526020818152604091829020805460ff19166001908117909155915191825283929130917f353b799ee5ce93aec9eee231e1301e94df3270c64f0dd606ea6823532e1d0b5d910160405180910390a36001600160a01b0316608052506100c5565b6000602082840312156100a757600080fd5b81516001600160a01b03811681146100be57600080fd5b9392505050565b608051610dad6100ee60003960008181610142015281816102e501526104040152610dad6000f3fe608060405234801561001057600080fd5b506004361061007d5760003560e01c8063a7b97e601161005b578063a7b97e60146100e4578063bdf86a66146100f7578063bf353dbb1461010a578063c26a51661461013d57600080fd5b8063162789b51461008257806361da1439146100975780636dd5b69d146100c4575b600080fd5b6100956100903660046108ed565b610189565b005b6100aa6100a536600461093b565b6102bb565b604080519283526020830191909152015b60405180910390f35b6100d76100d236600461093b565b610577565b6040516100bb9190610954565b6100956100f2366004610a42565b610663565b610095610105366004610a75565b610783565b61012d610118366004610a75565b60006020819052908152604090205460ff1681565b60405190151581526020016100bb565b6101647f000000000000000000000000000000000000000000000000000000000000000081565b60405173ffffffffffffffffffffffffffffffffffffffff90911681526020016100bb565b3360009081526020819052604090205460ff16610209576040517f609f9a230000000000000000000000000000000000000000000000000000000081523360048201523060248201527fffffffff000000000000000000000000000000000000000000000000000000006000351660448201526064015b60405180910390fd5b60006102158280610a99565b9150506002811015610253576040517f78366d5200000000000000000000000000000000000000000000000000000000815260040160405180910390fd5b806102616020840184610a99565b90501461029a576040517f3c1cb3a700000000000000000000000000000000000000000000000000000000815260040160405180910390fd5b600083815260016020526040902082906102b48282610c21565b5050505050565b6000818152600160205260408120805482919073ffffffffffffffffffffffffffffffffffffffff7f0000000000000000000000000000000000000000000000000000000000000000166352ba849183858461031957610319610ce9565b600091825260208220015460018601805473ffffffffffffffffffffffffffffffffffffffff90921692909161035157610351610ce9565b6000918252602090912001546040517fffffffff0000000000000000000000000000000000000000000000000000000060e085901b16815273ffffffffffffffffffffffffffffffffffffffff909216600483015260248201526044016040805180830381865afa1580156103ca573d6000803e3d6000fd5b505050506040513d601f19601f820116820180604052508101906103ee9190610d18565b90945092508360015b8281101561056b576000807f000000000000000000000000000000000000000000000000000000000000000073ffffffffffffffffffffffffffffffffffffffff166352ba849187600001858154811061045357610453610ce9565b60009182526020909120015460018901805473ffffffffffffffffffffffffffffffffffffffff909216918790811061048e5761048e610ce9565b6000918252602090912001546040517fffffffff0000000000000000000000000000000000000000000000000000000060e085901b16815273ffffffffffffffffffffffffffffffffffffffff909216600483015260248201526044016040805180830381865afa158015610507573d6000803e3d6000fd5b505050506040513d601f19601f8201168201806040525081019061052b9190610d18565b915091508681101561053b578096505b6b033b2e3c9fd0803ce80000006105528386610b37565b61055c9190610d3c565b935082600101925050506103f7565b50959294509192505050565b60408051808201825260608082526020808301829052600085815260018252849020845181549283028101840186529485018281529394939092849284918401828280156105fb57602002820191906000526020600020905b815473ffffffffffffffffffffffffffffffffffffffff1681526001909101906020018083116105d0575b505050505081526020016001820180548060200260200160405190810160405280929190818152602001828054801561065357602002820191906000526020600020905b81548152602001906001019080831161063f575b5050505050815250509050919050565b3360009081526020819052604090205460ff166106de576040517f609f9a230000000000000000000000000000000000000000000000000000000081523360048201523060248201527fffffffff00000000000000000000000000000000000000000000000000000000600035166044820152606401610200565b604051811515815273ffffffffffffffffffffffffffffffffffffffff83169033907f353b799ee5ce93aec9eee231e1301e94df3270c64f0dd606ea6823532e1d0b5d9060200160405180910390a373ffffffffffffffffffffffffffffffffffffffff91909116600090815260208190526040902080547fffffffffffffffffffffffffffffffffffffffffffffffffffffffffffffff0016911515919091179055565b3360009081526020819052604090205460ff166107fe576040517f609f9a230000000000000000000000000000000000000000000000000000000081523360048201523060248201527fffffffff00000000000000000000000000000000000000000000000000000000600035166044820152606401610200565b73ffffffffffffffffffffffffffffffffffffffff81166000818152602081815260409182902080547fffffffffffffffffffffffffffffffffffffffffffffffffffffffffffffff00166001908117909155915191825233917f353b799ee5ce93aec9eee231e1301e94df3270c64f0dd606ea6823532e1d0b5d910160405180910390a33360008181526020818152604080832080547fffffffffffffffffffffffffffffffffffffffffffffffffffffffffffffff001690555191825282917f353b799ee5ce93aec9eee231e1301e94df3270c64f0dd606ea6823532e1d0b5d910160405180910390a350565b6000806040838503121561090057600080fd5b82359150602083013567ffffffffffffffff81111561091e57600080fd5b83016040818603121561093057600080fd5b809150509250929050565b60006020828403121561094d57600080fd5b5035919050565b6020808252825160408383015280516060840181905260009291820190839060808601905b808310156109af57835173ffffffffffffffffffffffffffffffffffffffff168252928401926001929092019190840190610979565b50868401518682037fffffffffffffffffffffffffffffffffffffffffffffffffffffffffffffffe00160408801528051808352908501935090840191506000905b80821015610a1157835183529284019291840191600191909101906109f1565b50909695505050505050565b73ffffffffffffffffffffffffffffffffffffffff81168114610a3f57600080fd5b50565b60008060408385031215610a5557600080fd5b8235610a6081610a1d565b91506020830135801515811461093057600080fd5b600060208284031215610a8757600080fd5b8135610a9281610a1d565b9392505050565b60008083357fffffffffffffffffffffffffffffffffffffffffffffffffffffffffffffffe1843603018112610ace57600080fd5b83018035915067ffffffffffffffff821115610ae957600080fd5b6020019150600581901b3603821315610b0157600080fd5b9250929050565b7f4e487b7100000000000000000000000000000000000000000000000000000000600052604160045260246000fd5b8082028115828204841417610b75577f4e487b7100000000000000000000000000000000000000000000000000000000600052601160045260246000fd5b92915050565b60008135610b7581610a1d565b67ffffffffffffffff831115610ba057610ba0610b08565b68010000000000000000831115610bb957610bb9610b08565b805483825580841015610bf0576000828152602081208581019083015b80821015610bec57828255600182019150610bd6565b5050505b5060008181526020812083915b85811015610c1957823582820155602090920191600101610bfd565b505050505050565b610c2b8283610a99565b67ffffffffffffffff811115610c4357610c43610b08565b68010000000000000000811115610c5c57610c5c610b08565b825481845580821015610c93576000848152602081208381019083015b80821015610c8f57828255600182019150610c79565b5050505b5060008381526020902060005b82811015610cc457610cb184610b7b565b8282015560209390930192600101610ca0565b50505050610cd56020830183610a99565b610ce3818360018601610b88565b50505050565b7f4e487b7100000000000000000000000000000000000000000000000000000000600052603260045260246000fd5b60008060408385031215610d2b57600080fd5b505080516020909101519092909150565b600082610d72577f4e487b7100000000000000000000000000000000000000000000000000000000600052601260045260246000fd5b50049056fea2646970667358221220a8654247445dd4c12f7fccf898597b393543801798c989aa2ee634afb05769db64736f6c63430008130033",
  "linkReferences": {},
  "deployedLinkReferences": {}
}