{
  "_format": "hh-sol-artifact-1",
  "contractName": "Math",
  "sourceName": "src/mixin/math.sol",
  "abi": [
    {
      "inputs": [],
      "name": "ErrIntOver",
      "type": "error"
    },
    {
      "inputs": [],
      "name": "ErrIntUnder",
      "type": "error"
    },
    {
      "inputs": [],
      "name": "ErrUintOver",
      "type": "error"
    },
    {
      "inputs": [],
      "name": "ErrUintUnder",
      "type": "error"
    },
    {
      "inputs": [
        {
          "internalType": "uint256",
          "name": "x",
          "type": "uint256"
        },
        {
          "internalType": "uint256",
          "name": "n",
          "type": "uint256"
        }
      ],
      "name": "rpow",
      "outputs": [
        {
          "internalType": "uint256",
          "name": "z",
          "type": "uint256"
        }
      ],
      "stateMutability": "pure",
      "type": "function"
    }
  ],
  "bytecode": "0x608060405234801561001057600080fd5b506101a3806100206000396000f3fe608060405234801561001057600080fd5b506004361061002b5760003560e01c80638f90719514610030575b600080fd5b61004361003e36600461014b565b610055565b60405190815260200160405180910390f35b6000818015610134578380156101295760018416801561007757859350610087565b6b033b2e3c9fd0803ce800000093505b506002909304926b019d971e4fe8401e740000005b8415610123578586028660801c156100b357600080fd5b818101818110156100c357600080fd5b6b033b2e3c9fd0803ce8000000900496505060018516156101185785840284878204141587151516156100f557600080fd5b8181018181101561010557600080fd5b6b033b2e3c9fd0803ce800000090049450505b60028504945061009c565b5061012e565b600092505b50610144565b6b033b2e3c9fd0803ce800000091505b5092915050565b6000806040838503121561015e57600080fd5b5050803592602090910135915056fea26469706673582212202f2827bbfeb3862b6de4c24d9d7d662c419261bbfd34a8175b4a586079d5d7da64736f6c63430008130033",
  "linkReferences": {},
  "deployedLinkReferences": {}
}