{
  "_format": "hh-sol-artifact-1",
  "contractName": "UniswapV3Adapter",
  "sourceName": "lib/feedbase/src/adapters/UniswapV3Adapter.sol",
  "abi": [
    {
      "inputs": [
        {
          "internalType": "contract Feedbase",
          "name": "_fb",
          "type": "address"
        },
        {
          "internalType": "contract IUniWrapper",
          "name": "_wrap",
          "type": "address"
        }
      ],
      "stateMutability": "nonpayable",
      "type": "constructor"
    },
    {
      "inputs": [],
      "name": "Err0Range",
      "type": "error"
    },
    {
      "inputs": [],
      "name": "ErrNoPool",
      "type": "error"
    },
    {
      "inputs": [
        {
          "internalType": "address",
          "name": "caller",
          "type": "address"
        },
        {
          "internalType": "address",
          "name": "object",
          "type": "address"
        },
        {
          "internalType": "bytes4",
          "name": "sig",
          "type": "bytes4"
        }
      ],
      "name": "ErrWard",
      "type": "error"
    },
    {
      "anonymous": false,
      "inputs": [
        {
          "indexed": true,
          "internalType": "address",
          "name": "caller",
          "type": "address"
        },
        {
          "indexed": true,
          "internalType": "address",
          "name": "trusts",
          "type": "address"
        },
        {
          "indexed": false,
          "internalType": "bool",
          "name": "bit",
          "type": "bool"
        }
      ],
      "name": "SetWard",
      "type": "event"
    },
    {
      "inputs": [
        {
          "internalType": "bytes32",
          "name": "",
          "type": "bytes32"
        }
      ],
      "name": "configs",
      "outputs": [
        {
          "internalType": "address",
          "name": "pool",
          "type": "address"
        },
        {
          "internalType": "uint256",
          "name": "range",
          "type": "uint256"
        },
        {
          "internalType": "uint256",
          "name": "ttl",
          "type": "uint256"
        },
        {
          "internalType": "bool",
          "name": "reverse",
          "type": "bool"
        }
      ],
      "stateMutability": "view",
      "type": "function"
    },
    {
      "inputs": [],
      "name": "feedbase",
      "outputs": [
        {
          "internalType": "contract Feedbase",
          "name": "",
          "type": "address"
        }
      ],
      "stateMutability": "view",
      "type": "function"
    },
    {
      "inputs": [
        {
          "internalType": "address",
          "name": "usr",
          "type": "address"
        }
      ],
      "name": "give",
      "outputs": [],
      "stateMutability": "nonpayable",
      "type": "function"
    },
    {
      "inputs": [
        {
          "internalType": "bytes32",
          "name": "tag",
          "type": "bytes32"
        }
      ],
      "name": "read",
      "outputs": [
        {
          "internalType": "bytes32",
          "name": "val",
          "type": "bytes32"
        },
        {
          "internalType": "uint256",
          "name": "minttl",
          "type": "uint256"
        }
      ],
      "stateMutability": "view",
      "type": "function"
    },
    {
      "inputs": [
        {
          "internalType": "bytes32",
          "name": "tag",
          "type": "bytes32"
        },
        {
          "components": [
            {
              "internalType": "address",
              "name": "pool",
              "type": "address"
            },
            {
              "internalType": "uint256",
              "name": "range",
              "type": "uint256"
            },
            {
              "internalType": "uint256",
              "name": "ttl",
              "type": "uint256"
            },
            {
              "internalType": "bool",
              "name": "reverse",
              "type": "bool"
            }
          ],
          "internalType": "struct UniswapV3Adapter.Config",
          "name": "config",
          "type": "tuple"
        }
      ],
      "name": "setConfig",
      "outputs": [],
      "stateMutability": "nonpayable",
      "type": "function"
    },
    {
      "inputs": [
        {
          "internalType": "address",
          "name": "usr",
          "type": "address"
        },
        {
          "internalType": "bool",
          "name": "bit",
          "type": "bool"
        }
      ],
      "name": "ward",
      "outputs": [],
      "stateMutability": "nonpayable",
      "type": "function"
    },
    {
      "inputs": [
        {
          "internalType": "address",
          "name": "usr",
          "type": "address"
        }
      ],
      "name": "wards",
      "outputs": [
        {
          "internalType": "bool",
          "name": "",
          "type": "bool"
        }
      ],
      "stateMutability": "view",
      "type": "function"
    },
    {
      "inputs": [],
      "name": "wrap",
      "outputs": [
        {
          "internalType": "contract IUniWrapper",
          "name": "",
          "type": "address"
        }
      ],
      "stateMutability": "view",
      "type": "function"
    }
  ],
  "bytecode": "0x60c060405234801561001057600080fd5b506040516110d53803806110d583398101604081905261002f916100af565b3360008181526020818152604091829020805460ff19166001908117909155915191825230917f353b799ee5ce93aec9eee231e1301e94df3270c64f0dd606ea6823532e1d0b5d910160405180910390a36001600160a01b039182166080521660a0526100e9565b6001600160a01b03811681146100ac57600080fd5b50565b600080604083850312156100c257600080fd5b82516100cd81610097565b60208401519092506100de81610097565b809150509250929050565b60805160a051610fc06101156000396000818161020401526105c90152600061012d0152610fc06000f3fe608060405234801561001057600080fd5b50600436106100885760003560e01c8063bf353dbb1161005b578063bf353dbb146100f5578063c26a516614610128578063ce8f607814610174578063d46eb119146101ff57600080fd5b80631540fbba1461008d57806361da1439146100a2578063a7b97e60146100cf578063bdf86a66146100e2575b600080fd5b6100a061009b366004610a17565b610226565b005b6100b56100b0366004610ac6565b610345565b604080519283526020830191909152015b60405180910390f35b6100a06100dd366004610adf565b6106d5565b6100a06100f0366004610b14565b6107f5565b610118610103366004610b14565b60006020819052908152604090205460ff1681565b60405190151581526020016100c6565b61014f7f000000000000000000000000000000000000000000000000000000000000000081565b60405173ffffffffffffffffffffffffffffffffffffffff90911681526020016100c6565b6101c6610182366004610ac6565b6001602081905260009182526040909120805491810154600282015460039092015473ffffffffffffffffffffffffffffffffffffffff9093169290919060ff1684565b6040805173ffffffffffffffffffffffffffffffffffffffff9095168552602085019390935291830152151560608201526080016100c6565b61014f7f000000000000000000000000000000000000000000000000000000000000000081565b3360009081526020819052604090205460ff166102a6576040517f609f9a230000000000000000000000000000000000000000000000000000000081523360048201523060248201527fffffffff000000000000000000000000000000000000000000000000000000006000351660448201526064015b60405180910390fd5b600091825260016020818152604093849020835181547fffffffffffffffffffffffff00000000000000000000000000000000000000001673ffffffffffffffffffffffffffffffffffffffff909116178155908301519181019190915591810151600283015560600151600390910180547fffffffffffffffffffffffffffffffffffffffffffffffffffffffffffffff0016911515919091179055565b6000818152600160205260408120805482919073ffffffffffffffffffffffffffffffffffffffff168083036103a7576040517f31ae589b00000000000000000000000000000000000000000000000000000000815260040160405180910390fd5b604080516002808252606082018352600092602083019080368337505050600184015490915063ffffffff811660000361040d576040517f1e33e1e600000000000000000000000000000000000000000000000000000000815260040160405180910390fd5b60008260008151811061042257610422610b38565b602002602001019063ffffffff16908163ffffffff1681525050808260018151811061045057610450610b38565b63ffffffff909216602092830291909101909101526040517f883bdbfd00000000000000000000000000000000000000000000000000000000815260009073ffffffffffffffffffffffffffffffffffffffff85169063883bdbfd906104ba908690600401610b67565b600060405180830381865afa1580156104d7573d6000803e3d6000fd5b505050506040513d6000823e601f3d9081017fffffffffffffffffffffffffffffffffffffffffffffffffffffffffffffffe016820160405261051d9190810190610c49565b50905060008160018151811061053557610535610b38565b602002602001015160060b8260008151811061055357610553610b38565b602002602001015160060b6105689190610d44565b9050600061057c63ffffffff851683610d9a565b6040517f986cfba3000000000000000000000000000000000000000000000000000000008152600282900b600482015290915060009073ffffffffffffffffffffffffffffffffffffffff7f0000000000000000000000000000000000000000000000000000000000000000169063986cfba390602401602060405180830381865afa158015610610573d6000803e3d6000fd5b505050506040513d601f19601f820116820180604052508101906106349190610e02565b905060006c010000000000000000000000006b033b2e3c9fd0803ce80000008161065f600286610f3d565b6106699190610f4c565b6106739190610f60565b61067d9190610f4c565b60038a015490915060ff16156106b157806106a46b033b2e3c9fd0803ce800000080610f60565b6106ae9190610f4c565b90505b6002890154909a508a906106c59042610f77565b9950505050505050505050915091565b3360009081526020819052604090205460ff16610750576040517f609f9a230000000000000000000000000000000000000000000000000000000081523360048201523060248201527fffffffff0000000000000000000000000000000000000000000000000000000060003516604482015260640161029d565b604051811515815273ffffffffffffffffffffffffffffffffffffffff83169033907f353b799ee5ce93aec9eee231e1301e94df3270c64f0dd606ea6823532e1d0b5d9060200160405180910390a373ffffffffffffffffffffffffffffffffffffffff91909116600090815260208190526040902080547fffffffffffffffffffffffffffffffffffffffffffffffffffffffffffffff0016911515919091179055565b3360009081526020819052604090205460ff16610870576040517f609f9a230000000000000000000000000000000000000000000000000000000081523360048201523060248201527fffffffff0000000000000000000000000000000000000000000000000000000060003516604482015260640161029d565b73ffffffffffffffffffffffffffffffffffffffff81166000818152602081815260409182902080547fffffffffffffffffffffffffffffffffffffffffffffffffffffffffffffff00166001908117909155915191825233917f353b799ee5ce93aec9eee231e1301e94df3270c64f0dd606ea6823532e1d0b5d910160405180910390a33360008181526020818152604080832080547fffffffffffffffffffffffffffffffffffffffffffffffffffffffffffffff001690555191825282917f353b799ee5ce93aec9eee231e1301e94df3270c64f0dd606ea6823532e1d0b5d910160405180910390a350565b7f4e487b7100000000000000000000000000000000000000000000000000000000600052604160045260246000fd5b604051601f82017fffffffffffffffffffffffffffffffffffffffffffffffffffffffffffffffe016810167ffffffffffffffff811182821017156109d5576109d561095f565b604052919050565b73ffffffffffffffffffffffffffffffffffffffff811681146109ff57600080fd5b50565b80358015158114610a1257600080fd5b919050565b60008082840360a0811215610a2b57600080fd5b8335925060807fffffffffffffffffffffffffffffffffffffffffffffffffffffffffffffffe082011215610a5f57600080fd5b506040516080810181811067ffffffffffffffff82111715610a8357610a8361095f565b6040526020840135610a94816109dd565b81526040848101356020830152606085013590820152610ab660808501610a02565b6060820152809150509250929050565b600060208284031215610ad857600080fd5b5035919050565b60008060408385031215610af257600080fd5b8235610afd816109dd565b9150610b0b60208401610a02565b90509250929050565b600060208284031215610b2657600080fd5b8135610b31816109dd565b9392505050565b7f4e487b7100000000000000000000000000000000000000000000000000000000600052603260045260246000fd5b6020808252825182820181905260009190848201906040850190845b81811015610ba557835163ffffffff1683529284019291840191600101610b83565b50909695505050505050565b600067ffffffffffffffff821115610bcb57610bcb61095f565b5060051b60200190565b600082601f830112610be657600080fd5b81516020610bfb610bf683610bb1565b61098e565b82815260059290921b84018101918181019086841115610c1a57600080fd5b8286015b84811015610c3e578051610c31816109dd565b8352918301918301610c1e565b509695505050505050565b60008060408385031215610c5c57600080fd5b825167ffffffffffffffff80821115610c7457600080fd5b818501915085601f830112610c8857600080fd5b81516020610c98610bf683610bb1565b82815260059290921b84018101918181019089841115610cb757600080fd5b948201945b83861015610ce55785518060060b8114610cd65760008081fd5b82529482019490820190610cbc565b91880151919650909350505080821115610cfe57600080fd5b50610d0b85828601610bd5565b9150509250929050565b7f4e487b7100000000000000000000000000000000000000000000000000000000600052601160045260246000fd5b8181036000831280158383131683831282161715610d6457610d64610d15565b5092915050565b7f4e487b7100000000000000000000000000000000000000000000000000000000600052601260045260246000fd5b600082610da957610da9610d6b565b7fffffffffffffffffffffffffffffffffffffffffffffffffffffffffffffffff83147f800000000000000000000000000000000000000000000000000000000000000083141615610dfd57610dfd610d15565b500590565b600060208284031215610e1457600080fd5b5051919050565b600181815b80851115610e7457817fffffffffffffffffffffffffffffffffffffffffffffffffffffffffffffffff04821115610e5a57610e5a610d15565b80851615610e6757918102915b93841c9390800290610e20565b509250929050565b600082610e8b57506001610f37565b81610e9857506000610f37565b8160018114610eae5760028114610eb857610ed4565b6001915050610f37565b60ff841115610ec957610ec9610d15565b50506001821b610f37565b5060208310610133831016604e8410600b8410161715610ef7575081810a610f37565b610f018383610e1b565b807fffffffffffffffffffffffffffffffffffffffffffffffffffffffffffffffff04821115610f3357610f33610d15565b0290505b92915050565b6000610b3160ff841683610e7c565b600082610f5b57610f5b610d6b565b500490565b8082028115828204841417610f3757610f37610d15565b80820180821115610f3757610f37610d1556fea2646970667358221220b6414429c70a27c3dca5cb2594ef1c178297f6969d12b74af23061d207ef0a5164736f6c63430008130033",
  "linkReferences": {},
  "deployedLinkReferences": {}
}