{
  "_format": "hh-sol-artifact-1",
  "contractName": "MockChainlinkAggregator",
  "sourceName": "src/test/MockChainlinkAggregator.sol",
  "abi": [
    {
      "inputs": [
        {
          "internalType": "contract Feedbase",
          "name": "_fb",
          "type": "address"
        },
        {
          "internalType": "address",
          "name": "_src",
          "type": "address"
        },
        {
          "internalType": "bytes32",
          "name": "_tag",
          "type": "bytes32"
        },
        {
          "internalType": "uint256",
          "name": "_decimals",
          "type": "uint256"
        }
      ],
      "stateMutability": "nonpayable",
      "type": "constructor"
    },
    {
      "inputs": [],
      "name": "decimals",
      "outputs": [
        {
          "internalType": "uint256",
          "name": "",
          "type": "uint256"
        }
      ],
      "stateMutability": "view",
      "type": "function"
    },
    {
      "inputs": [],
      "name": "fb",
      "outputs": [
        {
          "internalType": "contract Feedbase",
          "name": "",
          "type": "address"
        }
      ],
      "stateMutability": "view",
      "type": "function"
    },
    {
      "inputs": [],
      "name": "latestRoundData",
      "outputs": [
        {
          "internalType": "uint80",
          "name": "roundId",
          "type": "uint80"
        },
        {
          "internalType": "int256",
          "name": "answer",
          "type": "int256"
        },
        {
          "internalType": "uint256",
          "name": "startedAt",
          "type": "uint256"
        },
        {
          "internalType": "uint256",
          "name": "updatedAt",
          "type": "uint256"
        },
        {
          "internalType": "uint80",
          "name": "answeredInRound",
          "type": "uint80"
        }
      ],
      "stateMutability": "view",
      "type": "function"
    },
    {
      "inputs": [],
      "name": "src",
      "outputs": [
        {
          "internalType": "address",
          "name": "",
          "type": "address"
        }
      ],
      "stateMutability": "view",
      "type": "function"
    },
    {
      "inputs": [],
      "name": "tag",
      "outputs": [
        {
          "internalType": "bytes32",
          "name": "",
          "type": "bytes32"
        }
      ],
      "stateMutability": "view",
      "type": "function"
    }
  ],
  "bytecode": "0x608060405234801561001057600080fd5b5060405161032c38038061032c83398101604081905261002f91610085565b600080546001600160a01b039586166001600160a01b03199182161790915560018054949095169316929092179092556002919091556003556100cd565b6001600160a01b038116811461008257600080fd5b50565b6000806000806080858703121561009b57600080fd5b84516100a68161006d565b60208601519094506100b78161006d565b6040860151606090960151949790965092505050565b610250806100dc6000396000f3fe608060405234801561001057600080fd5b50600436106100675760003560e01c806351f910661161005057806351f91066146100cd578063eb666475146100d6578063feaf968c146100f657600080fd5b80632e7dc6af1461006c578063313ce567146100b6575b600080fd5b60015461008c9073ffffffffffffffffffffffffffffffffffffffff1681565b60405173ffffffffffffffffffffffffffffffffffffffff90911681526020015b60405180910390f35b6100bf60035481565b6040519081526020016100ad565b6100bf60025481565b60005461008c9073ffffffffffffffffffffffffffffffffffffffff1681565b6100fe610135565b6040805169ffffffffffffffffffff968716815260208101959095528401929092526060830152909116608082015260a0016100ad565b600080546001546002546040517f52ba849100000000000000000000000000000000000000000000000000000000815273ffffffffffffffffffffffffffffffffffffffff928316600482015260248101919091528392839283928392839283929116906352ba8491906044016040805180830381865afa1580156101be573d6000803e3d6000fd5b505050506040513d601f19601f820116820180604052508101906101e291906101f6565b600099919850965086955088945092505050565b6000806040838503121561020957600080fd5b50508051602090910151909290915056fea2646970667358221220f5b78744c6ae82d182a58b6b55c56d15d82f94e8c66da3bbfe45c97742047e7d64736f6c63430008130033",
  "linkReferences": {},
  "deployedLinkReferences": {}
}