{
  "_format": "hh-sol-artifact-1",
  "contractName": "Ball",
  "sourceName": "src/ball.sol",
  "abi": [
    {
      "inputs": [
        {
          "components": [
            {
              "internalType": "address payable",
              "name": "bank",
              "type": "address"
            },
            {
              "internalType": "address",
              "name": "feedbase",
              "type": "address"
            },
            {
              "internalType": "address",
              "name": "rico",
              "type": "address"
            },
            {
              "internalType": "address",
              "name": "risk",
              "type": "address"
            },
            {
              "internalType": "address",
              "name": "ricodai",
              "type": "address"
            },
            {
              "internalType": "address",
              "name": "ricorisk",
              "type": "address"
            },
            {
              "internalType": "address",
              "name": "uniwrapper",
              "type": "address"
            },
            {
              "internalType": "uint256",
              "name": "par",
              "type": "uint256"
            },
            {
              "internalType": "uint256",
              "name": "ceil",
              "type": "uint256"
            },
            {
              "internalType": "uint256",
              "name": "adaptrange",
              "type": "uint256"
            },
            {
              "internalType": "uint256",
              "name": "adaptttl",
              "type": "uint256"
            },
            {
              "internalType": "uint256",
              "name": "daiusdttl",
              "type": "uint256"
            },
            {
              "internalType": "uint256",
              "name": "xauusdttl",
              "type": "uint256"
            },
            {
              "internalType": "uint256",
              "name": "platpep",
              "type": "uint256"
            },
            {
              "internalType": "uint256",
              "name": "platpop",
              "type": "uint256"
            },
            {
              "internalType": "uint256",
              "name": "plotpep",
              "type": "uint256"
            },
            {
              "internalType": "uint256",
              "name": "plotpop",
              "type": "uint256"
            },
            {
              "components": [
                {
                  "internalType": "uint256",
                  "name": "rel",
                  "type": "uint256"
                },
                {
                  "internalType": "uint256",
                  "name": "bel",
                  "type": "uint256"
                },
                {
                  "internalType": "uint256",
                  "name": "cel",
                  "type": "uint256"
                },
                {
                  "internalType": "uint256",
                  "name": "wel",
                  "type": "uint256"
                }
              ],
              "internalType": "struct Bank.Ramp",
              "name": "mintramp",
              "type": "tuple"
            },
            {
              "internalType": "address",
              "name": "DAI",
              "type": "address"
            },
            {
              "internalType": "address",
              "name": "DAI_USD_AGG",
              "type": "address"
            },
            {
              "internalType": "address",
              "name": "XAU_USD_AGG",
              "type": "address"
            }
          ],
          "internalType": "struct Ball.BallArgs",
          "name": "args",
          "type": "tuple"
        }
      ],
      "stateMutability": "nonpayable",
      "type": "constructor"
    },
    {
      "inputs": [],
      "name": "ErrIntOver",
      "type": "error"
    },
    {
      "inputs": [],
      "name": "ErrIntUnder",
      "type": "error"
    },
    {
      "inputs": [],
      "name": "ErrUintOver",
      "type": "error"
    },
    {
      "inputs": [],
      "name": "ErrUintUnder",
      "type": "error"
    },
    {
      "inputs": [
        {
          "internalType": "address",
          "name": "caller",
          "type": "address"
        },
        {
          "internalType": "address",
          "name": "object",
          "type": "address"
        },
        {
          "internalType": "bytes4",
          "name": "sig",
          "type": "bytes4"
        }
      ],
      "name": "ErrWard",
      "type": "error"
    },
    {
      "anonymous": false,
      "inputs": [
        {
          "indexed": true,
          "internalType": "address",
          "name": "caller",
          "type": "address"
        },
        {
          "indexed": true,
          "internalType": "address",
          "name": "trusts",
          "type": "address"
        },
        {
          "indexed": false,
          "internalType": "bool",
          "name": "bit",
          "type": "bool"
        }
      ],
      "name": "SetWard",
      "type": "event"
    },
    {
      "inputs": [
        {
          "internalType": "address",
          "name": "usr",
          "type": "address"
        }
      ],
      "name": "approve",
      "outputs": [],
      "stateMutability": "nonpayable",
      "type": "function"
    },
    {
      "inputs": [],
      "name": "bank",
      "outputs": [
        {
          "internalType": "address payable",
          "name": "",
          "type": "address"
        }
      ],
      "stateMutability": "view",
      "type": "function"
    },
    {
      "inputs": [],
      "name": "cladapt",
      "outputs": [
        {
          "internalType": "contract ChainlinkAdapter",
          "name": "",
          "type": "address"
        }
      ],
      "stateMutability": "view",
      "type": "function"
    },
    {
      "inputs": [],
      "name": "divider",
      "outputs": [
        {
          "internalType": "contract Divider",
          "name": "",
          "type": "address"
        }
      ],
      "stateMutability": "view",
      "type": "function"
    },
    {
      "inputs": [],
      "name": "feedbase",
      "outputs": [
        {
          "internalType": "address",
          "name": "",
          "type": "address"
        }
      ],
      "stateMutability": "view",
      "type": "function"
    },
    {
      "inputs": [],
      "name": "file",
      "outputs": [
        {
          "internalType": "contract File",
          "name": "",
          "type": "address"
        }
      ],
      "stateMutability": "view",
      "type": "function"
    },
    {
      "inputs": [
        {
          "internalType": "address",
          "name": "usr",
          "type": "address"
        }
      ],
      "name": "give",
      "outputs": [],
      "stateMutability": "nonpayable",
      "type": "function"
    },
    {
      "inputs": [],
      "name": "hook",
      "outputs": [
        {
          "internalType": "contract ERC20Hook",
          "name": "",
          "type": "address"
        }
      ],
      "stateMutability": "view",
      "type": "function"
    },
    {
      "inputs": [
        {
          "components": [
            {
              "internalType": "bytes32",
              "name": "ilk",
              "type": "bytes32"
            },
            {
              "internalType": "address",
              "name": "gem",
              "type": "address"
            },
            {
              "internalType": "address",
              "name": "gemethagg",
              "type": "address"
            },
            {
              "internalType": "address",
              "name": "gemusdagg",
              "type": "address"
            },
            {
              "internalType": "uint256",
              "name": "chop",
              "type": "uint256"
            },
            {
              "internalType": "uint256",
              "name": "dust",
              "type": "uint256"
            },
            {
              "internalType": "uint256",
              "name": "fee",
              "type": "uint256"
            },
            {
              "internalType": "uint256",
              "name": "line",
              "type": "uint256"
            },
            {
              "internalType": "uint256",
              "name": "liqr",
              "type": "uint256"
            },
            {
              "internalType": "uint256",
              "name": "ttl",
              "type": "uint256"
            },
            {
              "internalType": "uint256",
              "name": "range",
              "type": "uint256"
            }
          ],
          "internalType": "struct Ball.IlkParams",
          "name": "ilkparams",
          "type": "tuple"
        }
      ],
      "name": "makeilk",
      "outputs": [],
      "stateMutability": "nonpayable",
      "type": "function"
    },
    {
      "inputs": [
        {
          "components": [
            {
              "internalType": "address",
              "name": "nfpm",
              "type": "address"
            },
            {
              "internalType": "bytes32",
              "name": "ilk",
              "type": "bytes32"
            },
            {
              "internalType": "uint256",
              "name": "fee",
              "type": "uint256"
            },
            {
              "internalType": "uint256",
              "name": "chop",
              "type": "uint256"
            },
            {
              "internalType": "uint256",
              "name": "room",
              "type": "uint256"
            },
            {
              "internalType": "address",
              "name": "uniwrapper",
              "type": "address"
            }
          ],
          "internalType": "struct Ball.UniParams",
          "name": "ups",
          "type": "tuple"
        }
      ],
      "name": "makeuni",
      "outputs": [],
      "stateMutability": "nonpayable",
      "type": "function"
    },
    {
      "inputs": [],
      "name": "mdn",
      "outputs": [
        {
          "internalType": "contract Medianizer",
          "name": "",
          "type": "address"
        }
      ],
      "stateMutability": "view",
      "type": "function"
    },
    {
      "inputs": [],
      "name": "multiplier",
      "outputs": [
        {
          "internalType": "contract Multiplier",
          "name": "",
          "type": "address"
        }
      ],
      "stateMutability": "view",
      "type": "function"
    },
    {
      "inputs": [],
      "name": "nfthook",
      "outputs": [
        {
          "internalType": "contract UniNFTHook",
          "name": "",
          "type": "address"
        }
      ],
      "stateMutability": "view",
      "type": "function"
    },
    {
      "inputs": [],
      "name": "rico",
      "outputs": [
        {
          "internalType": "address",
          "name": "",
          "type": "address"
        }
      ],
      "stateMutability": "view",
      "type": "function"
    },
    {
      "inputs": [],
      "name": "risk",
      "outputs": [
        {
          "internalType": "address",
          "name": "",
          "type": "address"
        }
      ],
      "stateMutability": "view",
      "type": "function"
    },
    {
      "inputs": [
        {
          "internalType": "uint256",
          "name": "x",
          "type": "uint256"
        },
        {
          "internalType": "uint256",
          "name": "n",
          "type": "uint256"
        }
      ],
      "name": "rpow",
      "outputs": [
        {
          "internalType": "uint256",
          "name": "z",
          "type": "uint256"
        }
      ],
      "stateMutability": "pure",
      "type": "function"
    },
    {
      "inputs": [
        {
          "components": [
            {
              "internalType": "address payable",
              "name": "bank",
              "type": "address"
            },
            {
              "internalType": "address",
              "name": "feedbase",
              "type": "address"
            },
            {
              "internalType": "address",
              "name": "rico",
              "type": "address"
            },
            {
              "internalType": "address",
              "name": "risk",
              "type": "address"
            },
            {
              "internalType": "address",
              "name": "ricodai",
              "type": "address"
            },
            {
              "internalType": "address",
              "name": "ricorisk",
              "type": "address"
            },
            {
              "internalType": "address",
              "name": "uniwrapper",
              "type": "address"
            },
            {
              "internalType": "uint256",
              "name": "par",
              "type": "uint256"
            },
            {
              "internalType": "uint256",
              "name": "ceil",
              "type": "uint256"
            },
            {
              "internalType": "uint256",
              "name": "adaptrange",
              "type": "uint256"
            },
            {
              "internalType": "uint256",
              "name": "adaptttl",
              "type": "uint256"
            },
            {
              "internalType": "uint256",
              "name": "daiusdttl",
              "type": "uint256"
            },
            {
              "internalType": "uint256",
              "name": "xauusdttl",
              "type": "uint256"
            },
            {
              "internalType": "uint256",
              "name": "platpep",
              "type": "uint256"
            },
            {
              "internalType": "uint256",
              "name": "platpop",
              "type": "uint256"
            },
            {
              "internalType": "uint256",
              "name": "plotpep",
              "type": "uint256"
            },
            {
              "internalType": "uint256",
              "name": "plotpop",
              "type": "uint256"
            },
            {
              "components": [
                {
                  "internalType": "uint256",
                  "name": "rel",
                  "type": "uint256"
                },
                {
                  "internalType": "uint256",
                  "name": "bel",
                  "type": "uint256"
                },
                {
                  "internalType": "uint256",
                  "name": "cel",
                  "type": "uint256"
                },
                {
                  "internalType": "uint256",
                  "name": "wel",
                  "type": "uint256"
                }
              ],
              "internalType": "struct Bank.Ramp",
              "name": "mintramp",
              "type": "tuple"
            },
            {
              "internalType": "address",
              "name": "DAI",
              "type": "address"
            },
            {
              "internalType": "address",
              "name": "DAI_USD_AGG",
              "type": "address"
            },
            {
              "internalType": "address",
              "name": "XAU_USD_AGG",
              "type": "address"
            }
          ],
          "internalType": "struct Ball.BallArgs",
          "name": "args",
          "type": "tuple"
        }
      ],
      "name": "setup",
      "outputs": [],
      "stateMutability": "nonpayable",
      "type": "function"
    },
    {
      "inputs": [],
      "name": "uniadapt",
      "outputs": [
        {
          "internalType": "contract UniswapV3Adapter",
          "name": "",
          "type": "address"
        }
      ],
      "stateMutability": "view",
      "type": "function"
    },
    {
      "inputs": [],
      "name": "vat",
      "outputs": [
        {
          "internalType": "contract Vat",
          "name": "",
          "type": "address"
        }
      ],
      "stateMutability": "view",
      "type": "function"
    },
    {
      "inputs": [],
      "name": "vow",
      "outputs": [
        {
          "internalType": "contract Vow",
          "name": "",
          "type": "address"
        }
      ],
      "stateMutability": "view",
      "type": "function"
    },
    {
      "inputs": [],
      "name": "vox",
      "outputs": [
        {
          "internalType": "contract Vox",
          "name": "",
          "type": "address"
        }
      ],
      "stateMutability": "view",
      "type": "function"
    },
    {
      "inputs": [
        {
          "internalType": "address",
          "name": "usr",
          "type": "address"
        },
        {
          "internalType": "bool",
          "name": "bit",
          "type": "bool"
        }
      ],
      "name": "ward",
      "outputs": [],
      "stateMutability": "nonpayable",
      "type": "function"
    },
    {
      "inputs": [
        {
          "internalType": "address",
          "name": "usr",
          "type": "address"
        }
      ],
      "name": "wards",
      "outputs": [
        {
          "internalType": "bool",
          "name": "",
          "type": "bool"
        }
      ],
      "stateMutability": "view",
      "type": "function"
    }
  ],
  "bytecode": "0x6000608081905260a060408190526200001c916001919062000b21565b503480156200002a57600080fd5b5060405162012f0338038062012f038339810160408190526200004d9162000d02565b3360008181526020818152604091829020805460ff19166001908117909155915191825230917f353b799ee5ce93aec9eee231e1301e94df3270c64f0dd606ea6823532e1d0b5d910160405180910390a3604051620000ac9062000b71565b604051809103906000f080158015620000c9573d6000803e3d6000fd5b50600280546001600160a01b0319166001600160a01b0392909216919091179055604051620000f89062000b7f565b604051809103906000f08015801562000115573d6000803e3d6000fd5b50600380546001600160a01b0319166001600160a01b0392909216919091179055604051620001449062000b8d565b604051809103906000f08015801562000161573d6000803e3d6000fd5b50600480546001600160a01b0319166001600160a01b0392909216919091179055604051620001909062000b9b565b604051809103906000f080158015620001ad573d6000803e3d6000fd5b50600e80546001600160a01b0319166001600160a01b0392909216919091179055604051620001dc9062000ba9565b604051809103906000f080158015620001f9573d6000803e3d6000fd5b50600580546001600160a01b0319166001600160a01b0392909216919091179055604051620002289062000bb7565b604051809103906000f08015801562000245573d6000803e3d6000fd5b50600680546001600160a01b0319166001600160a01b03929092169190911790556020810151604051620002799062000bc5565b6001600160a01b039091168152602001604051809103906000f080158015620002a6573d6000803e3d6000fd5b50600880546001600160a01b0319166001600160a01b0392909216919091179055602081015160c0820151604051620002df9062000bd3565b6001600160a01b03928316815291166020820152604001604051809103906000f08015801562000313573d6000803e3d6000fd5b50600980546001600160a01b0319166001600160a01b03929092169190911790556020810151604051620003479062000be1565b6001600160a01b039091168152602001604051809103906000f08015801562000374573d6000803e3d6000fd5b50600c80546001600160a01b0319166001600160a01b03929092169190911790556020810151604051620003a89062000bef565b6001600160a01b039091168152602001604051809103906000f080158015620003d5573d6000803e3d6000fd5b50600a80546001600160a01b0319166001600160a01b03929092169190911790556020810151604051620004099062000bfd565b6001600160a01b039091168152602001604051809103906000f08015801562000436573d6000803e3d6000fd5b50600b80546001600160a01b03199081166001600160a01b03938416179091558251600d80548316918416919091179055604080840151600f805484169185169190911790556060808501516010805485169186169190911790556020808601516007805490951690861617909355600c5482519182018352610280860151851682526101808601519382019384526b033b2e3c9fd0803ce8000000828401908152925163798218d560e01b8152661e185d4e9d5cd960ca1b6004820152915185166024830152925160448201529051606482015291169063798218d590608401600060405180830381600087803b1580156200053257600080fd5b505af115801562000547573d6000803e3d6000fd5b5050600c54604080516060810182526102608601516001600160a01b039081168252610160870151602083019081526b033b2e3c9fd0803ce8000000838501908152935163798218d560e01b81526619185a4e9d5cd960ca1b6004820152925182166024840152516044830152915160648201529116925063798218d59150608401600060405180830381600087803b158015620005e457600080fd5b505af1158015620005f9573d6000803e3d6000fd5b505060095460408051608080820183528601516001600160a01b03908116825261012087015160208301908152610140880151838501908152888501516102408a015190841690841610606085019081529451630aa07ddd60e11b8152677269636f3a64616960c01b60048201529351831660248501529051604484015251606483015291511515608482015291169250631540fbba915060a401600060405180830381600087803b158015620006af57600080fd5b505af1158015620006c4573d6000803e3d6000fd5b5050600b54600c546009546200071294506001600160a01b039283169350671c9a58dbce9d5cd960c21b92918216916619185a4e9d5cd960ca1b9116677269636f3a64616960c01b620009a6565b600a54600b54600c546200075c926001600160a01b0390811692673934b1b79d3932b360c11b9290821691671c9a58dbce9d5cd960c21b9116661e185d4e9d5cd960ca1b620009a6565b6009546040805160808101825260a08401516001600160a01b0390811682526101208501516020830190815261014086015183850190815286850151606080890151918516918516919091109085019081529451630aa07ddd60e11b8152687269736b3a7269636f60b81b600482015293518316602485015290516044840152516064830152915115156084820152911690631540fbba9060a401600060405180830381600087803b1580156200081257600080fd5b505af115801562000827573d6000803e3d6000fd5b505050506000604051806060016040528060016001600160401b0381111562000854576200085462000c22565b6040519080825280602002602001820160405280156200087e578160200160208202803683370190505b5081526040805160018082528183019092526020909201919081602001602082028036833750505081526001602090910152600954815180519293506001600160a01b0390911691600090620008d857620008d862000e67565b60200260200101906001600160a01b031690816001600160a01b031681525050687269736b3a7269636f60b81b81602001516000815181106200091f576200091f62000e67565b6020908102919091010152600854604051632818a28360e21b81526001600160a01b039091169063a0628a0c906200096a90687269736b3a7269636f60b81b90859060040162000ef5565b600060405180830381600087803b1580156200098557600080fd5b505af11580156200099a573d6000803e3d6000fd5b50505050505062000f9c565b604080516002808252606082018352600092602083019080368337505060408051600280825260608201835293945060009390925090602083019080368337019050509050858260008151811062000a025762000a0262000e67565b60200260200101906001600160a01b031690816001600160a01b031681525050848160008151811062000a395762000a3962000e67565b602002602001018181525050838260018151811062000a5c5762000a5c62000e67565b60200260200101906001600160a01b031690816001600160a01b031681525050828160018151811062000a935762000a9362000e67565b602002602001018181525050876001600160a01b031663162789b5886040518060400160405280868152602001858152506040518363ffffffff1660e01b815260040162000ae392919062000f50565b600060405180830381600087803b15801562000afe57600080fd5b505af115801562000b13573d6000803e3d6000fd5b505050505050505050505050565b82805482825590600052602060002090810192821562000b5f579160200282015b8281111562000b5f57825182559160200191906001019062000b42565b5062000b6d92915062000c0b565b5090565b6133328062004c1383390190565b6112dd8062007f4583390190565b6108c2806200922283390190565b610b678062009ae483390190565b611809806200a64b83390190565b612610806200be5483390190565b61114e806200e46483390190565b6110d5806200f5b283390190565b610b46806201068783390190565b610e9b80620111cd83390190565b610e9b806201206883390190565b5b8082111562000b6d576000815560010162000c0c565b634e487b7160e01b600052604160045260246000fd5b6040516102a081016001600160401b038111828210171562000c6a57634e487b7160e01b600052604160045260246000fd5b60405290565b80516001600160a01b038116811462000c8857600080fd5b919050565b60006080828403121562000ca057600080fd5b604051608081016001600160401b038111828210171562000cd157634e487b7160e01b600052604160045260246000fd5b8060405250809150825181526020830151602082015260408301516040820152606083015160608201525092915050565b6000610300828403121562000d1657600080fd5b62000d2062000c38565b62000d2b8362000c70565b815262000d3b6020840162000c70565b602082015262000d4e6040840162000c70565b604082015262000d616060840162000c70565b606082015262000d746080840162000c70565b608082015262000d8760a0840162000c70565b60a082015262000d9a60c0840162000c70565b60c082015260e08381015190820152610100808401519082015261012080840151908201526101408084015190820152610160808401519082015261018080840151908201526101a080840151908201526101c080840151908201526101e08084015190820152610200808401519082015261022062000e1d8582860162000c8d565b9082015262000e306102a0840162000c70565b61024082015262000e456102c0840162000c70565b61026082015262000e5a6102e0840162000c70565b6102808201529392505050565b634e487b7160e01b600052603260045260246000fd5b600081518084526020808501945080840160005b8381101562000eb85781516001600160a01b03168752958201959082019060010162000e91565b509495945050505050565b600081518084526020808501945080840160005b8381101562000eb85781518752958201959082019060010162000ed7565b82815260406020820152600082516060604084015262000f1960a084018262000e7d565b90506020840151603f1984830301606085015262000f38828262000ec3565b91505060408401516080840152809150509392505050565b828152604060208201526000825160408084015262000f73608084018262000e7d565b90506020840151603f1984830301606085015262000f92828262000ec3565b9695505050505050565b613c678062000fac6000396000f3fe608060405234801561001057600080fd5b506004361061018d5760003560e01c806376cdb03b116100e3578063bdf86a661161008c578063c971538a11610066578063c971538a1461035b578063daea85c51461036e578063e518acf01461038157600080fd5b8063bdf86a6614610302578063bf353dbb14610315578063c26a51661461034857600080fd5b80638b0f3251116100bd5780638b0f3251146102bb5780638f907195146102ce578063a7b97e60146102ef57600080fd5b806376cdb03b146102825780637f5a7c7b146102955780638525855d146102a857600080fd5b8063378efa3711610145578063626cb3c51161011f578063626cb3c51461024957806367550a351461025c57806367ffc2571461026f57600080fd5b8063378efa3714610210578063426a0c8814610223578063522b508a1461023657600080fd5b80631b3ed722116101765780631b3ed722146101d757806334f4ca97146101ea57806336569e77146101fd57600080fd5b806306029ec2146101925780630c9119ca146101c2575b600080fd5b600f546101a5906001600160a01b031681565b6040516001600160a01b0390911681526020015b60405180910390f35b6101d56101d0366004613594565b610394565b005b600b546101a5906001600160a01b031681565b6006546101a5906001600160a01b031681565b6002546101a5906001600160a01b031681565b600a546101a5906001600160a01b031681565b6010546101a5906001600160a01b031681565b6101d56102443660046135ad565b610ec3565b6003546101a5906001600160a01b031681565b6004546101a5906001600160a01b031681565b600c546101a5906001600160a01b031681565b600d546101a5906001600160a01b031681565b6005546101a5906001600160a01b031681565b600e546101a5906001600160a01b031681565b6101d56102c93660046135bf565b6113b3565b6102e16102dc3660046135d2565b612da1565b6040519081526020016101b9565b6101d56102fd366004613610565b612e97565b6101d561031036600461364c565b612f85565b61033861032336600461364c565b60006020819052908152604090205460ff1681565b60405190151581526020016101b9565b6007546101a5906001600160a01b031681565b6009546101a5906001600160a01b031681565b6101d561037c36600461364c565b6130ca565b6008546101a5906001600160a01b031681565b3360009081526020819052604090205460ff166103fc576040517f609f9a230000000000000000000000000000000000000000000000000000000081523360048201523060248201526001600160e01b03196000351660448201526064015b60405180910390fd5b8035600061042a827f3a726566000000000000000000000000000000000000000000000000000000006133d0565b600d546005546040517f2aa71e24000000000000000000000000000000000000000000000000000000008152600481018690526001600160a01b0391821660248201529293501690632aa71e2490604401600060405180830381600087803b15801561049557600080fd5b505af11580156104a9573d6000803e3d6000fd5b5050600d546040517f48f6410f000000000000000000000000000000000000000000000000000000008152600481018690527f63686f70000000000000000000000000000000000000000000000000000000006024820152608087013560448201526001600160a01b0390911692506348f6410f9150606401600060405180830381600087803b15801561053c57600080fd5b505af1158015610550573d6000803e3d6000fd5b5050600d546040517f48f6410f000000000000000000000000000000000000000000000000000000008152600481018690527f6475737400000000000000000000000000000000000000000000000000000000602482015260a087013560448201526001600160a01b0390911692506348f6410f9150606401600060405180830381600087803b1580156105e357600080fd5b505af11580156105f7573d6000803e3d6000fd5b5050600d546040517f48f6410f000000000000000000000000000000000000000000000000000000008152600481018690527f6665650000000000000000000000000000000000000000000000000000000000602482015260c087013560448201526001600160a01b0390911692506348f6410f9150606401600060405180830381600087803b15801561068a57600080fd5b505af115801561069e573d6000803e3d6000fd5b5050600d546040517f48f6410f000000000000000000000000000000000000000000000000000000008152600481018690527f6c696e6500000000000000000000000000000000000000000000000000000000602482015260e087013560448201526001600160a01b0390911692506348f6410f9150606401600060405180830381600087803b15801561073157600080fd5b505af1158015610745573d6000803e3d6000fd5b5050600d546040517fbfbcf1360000000000000000000000000000000000000000000000000000000081526001600160a01b03909116925063bfbcf136915061079c908590600190610100890135906004016136ae565b600060405180830381600087803b1580156107b657600080fd5b505af11580156107ca573d6000803e3d6000fd5b5050600d546001600160a01b0316915063bfbcf13690508360016107f4604088016020890161364c565b60601b6bffffffffffffffffffffffff19166040518463ffffffff1660e01b8152600401610824939291906136fd565b600060405180830381600087803b15801561083e57600080fd5b505af1158015610852573d6000803e3d6000fd5b5050600d546008546040517fbfbcf1360000000000000000000000000000000000000000000000000000000081526001600160a01b03909216935063bfbcf13692506108ce91869160019160609190911b7fffffffffffffffffffffffffffffffffffffffff000000000000000000000000169060040161373c565b600060405180830381600087803b1580156108e857600080fd5b505af11580156108fc573d6000803e3d6000fd5b5050600d546040517fbfbcf1360000000000000000000000000000000000000000000000000000000081526001600160a01b03909116925063bfbcf136915061094e908590600190869060040161377b565b600060405180830381600087803b15801561096857600080fd5b505af115801561097c573d6000803e3d6000fd5b5050600d546040517fbfbcf1360000000000000000000000000000000000000000000000000000000081526001600160a01b03909116925063bfbcf13691506109cf9085906001906002906004016137ba565b600060405180830381600087803b1580156109e957600080fd5b505af11580156109fd573d6000803e3d6000fd5b5050600d546040517fbfbcf1360000000000000000000000000000000000000000000000000000000081526001600160a01b03909116925063bfbcf1369150610a5b9085906001906b033b2e3c9fd0803ce8000000906004016137f9565b600060405180830381600087803b158015610a7557600080fd5b505af1158015610a89573d6000803e3d6000fd5b5050505060006040518060600160405280600167ffffffffffffffff811115610ab457610ab4613838565b604051908082528060200260200182016040528015610add578160200160208202803683370190505b5081526040805160018082528183019092526020909201919081602001602082028036833750505081526001602090910152600a54815180519293506001600160a01b0390911691600090610b3457610b34613867565b60200260200101906001600160a01b031690816001600160a01b031681525050818160200151600081518110610b6c57610b6c613867565b60209081029190910101526008546040517fa0628a0c0000000000000000000000000000000000000000000000000000000081526001600160a01b039091169063a0628a0c90610bc290859085906004016138ff565b600060405180830381600087803b158015610bdc57600080fd5b505af1158015610bf0573d6000803e3d6000fd5b50505050506000610c21837f3a757364000000000000000000000000000000000000000000000000000000006133d0565b905060008080610c37606088016040890161364c565b6001600160a01b031603610d2a57600c546040805160608082019092526001600160a01b039092169163798218d5918691908190610c7b9060808d01908d0161364c565b6001600160a01b0390811682526101208c01356020808401919091526b033b2e3c9fd0803ce800000060409384015282516001600160e01b031960e088901b168152600481019590955283519091166024850152820151604484015201516064820152608401600060405180830381600087803b158015610cfb57600080fd5b505af1158015610d0f573d6000803e3d6000fd5b5050600c548594506001600160a01b03169250610e78915050565b6000610d56867f3a657468000000000000000000000000000000000000000000000000000000006133d0565b600c5460408051606080820183529394506001600160a01b039092169263798218d592859290918291610d8d918e01908e0161364c565b6001600160a01b0390811682526101208d01356020808401919091526b033b2e3c9fd0803ce800000060409384015282516001600160e01b031960e088901b168152600481019590955283519091166024850152820151604484015201516064820152608401600060405180830381600087803b158015610e0d57600080fd5b505af1158015610e21573d6000803e3d6000fd5b5050600b54600c54610e6693506001600160a01b03918216925087911684817f776574683a757364000000000000000000000000000000000000000000000000613429565b600b549092506001600160a01b031690505b600a54600c54610ebb916001600160a01b0390811691879185918891167f7861753a75736400000000000000000000000000000000000000000000000000613429565b505050505050565b3360009081526020819052604090205460ff16610f26576040517f609f9a230000000000000000000000000000000000000000000000000000000081523360048201523060248201526001600160e01b03196000351660448201526064016103f3565b600d546006546040517f2aa71e24000000000000000000000000000000000000000000000000000000008152602084013560048201526001600160a01b039182166024820152911690632aa71e2490604401600060405180830381600087803b158015610f9257600080fd5b505af1158015610fa6573d6000803e3d6000fd5b5050600d546001600160a01b0316915063bfbcf136905060208301803590600190610fd1908661364c565b60601b6bffffffffffffffffffffffff19166040518463ffffffff1660e01b815260040161100193929190613974565b600060405180830381600087803b15801561101b57600080fd5b505af115801561102f573d6000803e3d6000fd5b5050600d546040517fbfbcf1360000000000000000000000000000000000000000000000000000000081526001600160a01b03909116925063bfbcf1369150611089906020850135906001906080870135906004016139b3565b600060405180830381600087803b1580156110a357600080fd5b505af11580156110b7573d6000803e3d6000fd5b5050600d546001600160a01b0316915063bfbcf1369050602083013560016110e560c0860160a0870161364c565b60601b6bffffffffffffffffffffffff19166040518463ffffffff1660e01b8152600401611115939291906139f2565b600060405180830381600087803b15801561112f57600080fd5b505af1158015611143573d6000803e3d6000fd5b5050600d54604080517f48f6410f000000000000000000000000000000000000000000000000000000008152602086013560048201527f666565000000000000000000000000000000000000000000000000000000000060248201529085013560448201526001600160a01b0390911692506348f6410f9150606401600060405180830381600087803b1580156111d957600080fd5b505af11580156111ed573d6000803e3d6000fd5b5050600d546040517f48f6410f000000000000000000000000000000000000000000000000000000008152602085013560048201527f63686f70000000000000000000000000000000000000000000000000000000006024820152606085013560448201526001600160a01b0390911692506348f6410f9150606401600060405180830381600087803b15801561128357600080fd5b505af1158015611297573d6000803e3d6000fd5b5050600d546040517fbfbcf1360000000000000000000000000000000000000000000000000000000081526001600160a01b03909116925063bfbcf13691506112ee906020850135906001906002906004016137ba565b600060405180830381600087803b15801561130857600080fd5b505af115801561131c573d6000803e3d6000fd5b5050600d546040517fbfbcf1360000000000000000000000000000000000000000000000000000000081526001600160a01b03909116925063bfbcf136915061137e906020850135906001906b033b2e3c9fd0803ce8000000906004016137f9565b600060405180830381600087803b15801561139857600080fd5b505af11580156113ac573d6000803e3d6000fd5b5050505050565b3360009081526020819052604090205460ff16611416576040517f609f9a230000000000000000000000000000000000000000000000000000000081523360048201523060248201526001600160e01b03196000351660448201526064016103f3565b60408051600480825260a08201909252600091816020015b6040805160608082018352600080835260208301529181019190915281526020019060019003908161142e57505060408051600380825260808201909252919250600091906020820160608036833750506040805160148082526102a0820190925292935060009291506020820161028080368337505060408051600680825260e0820190925292935060009291506020820160c080368337505060408051600680825260e0820190925292935060009291506020820160c0803683375050600d5486519293506001600160a01b03169163e9b674b960e01b9150869060009061151a5761151a613867565b6001600160e01b03199092166020928302919091019091015284517feb66647500000000000000000000000000000000000000000000000000000000908690600190811061156a5761156a613867565b6001600160e01b03199092166020928302919091019091015284517f06029ec20000000000000000000000000000000000000000000000000000000090869060029081106115ba576115ba613867565b6001600160e01b03199092166020928302919091019091015283517f48f6410f0000000000000000000000000000000000000000000000000000000090859060009061160857611608613867565b6001600160e01b03199092166020928302919091019091015283517fbfbcf13600000000000000000000000000000000000000000000000000000000908590600190811061165857611658613867565b6001600160e01b03199092166020928302919091019091015283517f2aa71e240000000000000000000000000000000000000000000000000000000090859060029081106116a8576116a8613867565b6001600160e01b03199092166020928302919091019091015283517fb55829190000000000000000000000000000000000000000000000000000000090859060039081106116f8576116f8613867565b6001600160e01b03199092166020928302919091019091015283517f54c87e8d00000000000000000000000000000000000000000000000000000000908590600490811061174857611748613867565b6001600160e01b03199092166020928302919091019091015283517f938bd9a700000000000000000000000000000000000000000000000000000000908590600590811061179857611798613867565b6001600160e01b03199092166020928302919091019091015283517f465b43d00000000000000000000000000000000000000000000000000000000090859060069081106117e8576117e8613867565b6001600160e01b03199092166020928302919091019091015283517f071bafb500000000000000000000000000000000000000000000000000000000908590600790811061183857611838613867565b6001600160e01b03199092166020928302919091019091015283517fd9638d3600000000000000000000000000000000000000000000000000000000908590600890811061188857611888613867565b6001600160e01b03199092166020928302919091019091015283517f2424be5c0000000000000000000000000000000000000000000000000000000090859060099081106118d8576118d8613867565b6001600160e01b03199092166020928302919091019091015283517fc0ea09d700000000000000000000000000000000000000000000000000000000908590600a90811061192857611928613867565b6001600160e01b03199092166020928302919091019091015283517f0dca59c100000000000000000000000000000000000000000000000000000000908590600b90811061197857611978613867565b6001600160e01b03199092166020928302919091019091015283517f5ed03e5700000000000000000000000000000000000000000000000000000000908590600c9081106119c8576119c8613867565b6001600160e01b03199092166020928302919091019091015283517f495d32cb00000000000000000000000000000000000000000000000000000000908590600d908110611a1857611a18613867565b6001600160e01b03199092166020928302919091019091015283517f44e2a5a800000000000000000000000000000000000000000000000000000000908590600e908110611a6857611a68613867565b6001600160e01b03199092166020928302919091019091015283517f3e36f4c700000000000000000000000000000000000000000000000000000000908590600f908110611ab857611ab8613867565b6001600160e01b03199092166020928302919091019091015283517fffe567e8000000000000000000000000000000000000000000000000000000009085906010908110611b0857611b08613867565b6001600160e01b03199092166020928302919091019091015283517fa0a7930a000000000000000000000000000000000000000000000000000000009085906011908110611b5857611b58613867565b6001600160e01b03199092166020928302919091019091015283517f72b67b99000000000000000000000000000000000000000000000000000000009085906012908110611ba857611ba8613867565b6001600160e01b03199092166020928302919091019091015283517f70aed3c7000000000000000000000000000000000000000000000000000000009085906013908110611bf857611bf8613867565b6001600160e01b03199092166020928302919091019091015282517fdf8a947800000000000000000000000000000000000000000000000000000000908490600090611c4657611c46613867565b6001600160e01b03199092166020928302919091019091015282517f9c2062ad000000000000000000000000000000000000000000000000000000009084906001908110611c9657611c96613867565b6001600160e01b03199092166020928302919091019091015282517f15d276e1000000000000000000000000000000000000000000000000000000009084906002908110611ce657611ce6613867565b6001600160e01b03199092166020928302919091019091015282517f97b67bb9000000000000000000000000000000000000000000000000000000009084906003908110611d3657611d36613867565b6001600160e01b03199092166020928302919091019091015282517fde048394000000000000000000000000000000000000000000000000000000009084906004908110611d8657611d86613867565b6001600160e01b03199092166020928302919091019091015282517fda178cb0000000000000000000000000000000000000000000000000000000009084906005908110611dd657611dd6613867565b6001600160e01b03199092166020928302919091019091015281517f1817835800000000000000000000000000000000000000000000000000000000908390600090611e2457611e24613867565b6001600160e01b03199092166020928302919091019091015281517f5d6542af000000000000000000000000000000000000000000000000000000009083906001908110611e7457611e74613867565b6001600160e01b03199092166020928302919091019091015281517f3a4a4233000000000000000000000000000000000000000000000000000000009083906002908110611ec457611ec4613867565b6001600160e01b03199092166020928302919091019091015281517f355274ea000000000000000000000000000000000000000000000000000000009083906003908110611f1457611f14613867565b6001600160e01b03199092166020928302919091019091015281517f2755cd2d000000000000000000000000000000000000000000000000000000009083906004908110611f6457611f64613867565b6001600160e01b03199092166020928302919091019091015281517fcfc4af55000000000000000000000000000000000000000000000000000000009083906005908110611fb457611fb4613867565b6001600160e01b03199092166020928302919091018201526040805160608101909152600e546001600160a01b0316815290810160008152602001868152508660008151811061200657612006613867565b60209081029190910181019190915260408051606081019091526002546001600160a01b0316815290810160008152602001858152508660018151811061204f5761204f613867565b60209081029190910181019190915260408051606081019091526003546001600160a01b0316815290810160008152602001848152508660028151811061209857612098613867565b60209081029190910181019190915260408051606081019091526004546001600160a01b031681529081016000815260200183815250866003815181106120e1576120e1613867565b6020026020010181905250806001600160a01b03166379ba50976040518163ffffffff1660e01b8152600401600060405180830381600087803b15801561212757600080fd5b505af115801561213b573d6000803e3d6000fd5b505060408051602081018252600080825291517f1f931c1c0000000000000000000000000000000000000000000000000000000081526001600160a01b0386169450631f931c1c9350612194928b929091600401613a95565b600060405180830381600087803b1580156121ae57600080fd5b505af11580156121c2573d6000803e3d6000fd5b5050600f5460405163e9b674b960e01b81527f7269636f00000000000000000000000000000000000000000000000000000000600482015260609190911b7fffffffffffffffffffffffffffffffffffffffff0000000000000000000000001660248201526001600160a01b038416925063e9b674b99150604401600060405180830381600087803b15801561225757600080fd5b505af115801561226b573d6000803e3d6000fd5b505060105460405163e9b674b960e01b81527f7269736b00000000000000000000000000000000000000000000000000000000600482015260609190911b7fffffffffffffffffffffffffffffffffffffffff0000000000000000000000001660248201526001600160a01b038416925063e9b674b99150604401600060405180830381600087803b15801561230057600080fd5b505af1158015612314573d6000803e3d6000fd5b505060075460405163e9b674b960e01b81527f6662000000000000000000000000000000000000000000000000000000000000600482015260609190911b7fffffffffffffffffffffffffffffffffffffffff0000000000000000000000001660248201526001600160a01b038416925063e9b674b99150604401600060405180830381600087803b1580156123a957600080fd5b505af11580156123bd573d6000803e3d6000fd5b505060405163e9b674b960e01b81527f7061720000000000000000000000000000000000000000000000000000000000600482015260e08a013560248201526001600160a01b038416925063e9b674b99150604401600060405180830381600087803b15801561242c57600080fd5b505af1158015612440573d6000803e3d6000fd5b505060405163e9b674b960e01b81527f6365696c0000000000000000000000000000000000000000000000000000000060048201526101008a013560248201526001600160a01b038416925063e9b674b99150604401600060405180830381600087803b1580156124b057600080fd5b505af11580156124c4573d6000803e3d6000fd5b505060405163e9b674b960e01b81527f706c61742e70657000000000000000000000000000000000000000000000000060048201526101a08a013560248201526001600160a01b038416925063e9b674b99150604401600060405180830381600087803b15801561253457600080fd5b505af1158015612548573d6000803e3d6000fd5b505060405163e9b674b960e01b81527f706c61742e706f7000000000000000000000000000000000000000000000000060048201526101c08a013560248201526001600160a01b038416925063e9b674b99150604401600060405180830381600087803b1580156125b857600080fd5b505af11580156125cc573d6000803e3d6000fd5b505060405163e9b674b960e01b81527f727564642e74616700000000000000000000000000000000000000000000000060048201527f7269736b3a7269636f000000000000000000000000000000000000000000000060248201526001600160a01b038416925063e9b674b99150604401600060405180830381600087803b15801561265757600080fd5b505af115801561266b573d6000803e3d6000fd5b505060085460405163e9b674b960e01b81527f727564642e737263000000000000000000000000000000000000000000000000600482015260609190911b7fffffffffffffffffffffffffffffffffffffffff0000000000000000000000001660248201526001600160a01b038416925063e9b674b99150604401600060405180830381600087803b15801561270057600080fd5b505af1158015612714573d6000803e3d6000fd5b505060405163e9b674b960e01b81527f706c6f742e70657000000000000000000000000000000000000000000000000060048201526101e08a013560248201526001600160a01b038416925063e9b674b99150604401600060405180830381600087803b15801561278457600080fd5b505af1158015612798573d6000803e3d6000fd5b505060405163e9b674b960e01b81527f706c6f742e706f7000000000000000000000000000000000000000000000000060048201526102008a013560248201526001600160a01b038416925063e9b674b99150604401600060405180830381600087803b15801561280857600080fd5b505af115801561281c573d6000803e3d6000fd5b505060405163e9b674b960e01b81527f72656c000000000000000000000000000000000000000000000000000000000060048201526102208a013560248201526001600160a01b038416925063e9b674b99150604401600060405180830381600087803b15801561288c57600080fd5b505af11580156128a0573d6000803e3d6000fd5b505060405163e9b674b960e01b81527f62656c000000000000000000000000000000000000000000000000000000000060048201526102408a013560248201526001600160a01b038416925063e9b674b99150604401600060405180830381600087803b15801561291057600080fd5b505af1158015612924573d6000803e3d6000fd5b505060405163e9b674b960e01b81527f63656c000000000000000000000000000000000000000000000000000000000060048201526102608a013560248201526001600160a01b038416925063e9b674b99150604401600060405180830381600087803b15801561299457600080fd5b505af11580156129a8573d6000803e3d6000fd5b505060405163e9b674b960e01b81527f77656c000000000000000000000000000000000000000000000000000000000060048201526102808a013560248201526001600160a01b038416925063e9b674b99150604401600060405180830381600087803b158015612a1857600080fd5b505af1158015612a2c573d6000803e3d6000fd5b5050600a5460405163e9b674b960e01b81527f7469702e73726300000000000000000000000000000000000000000000000000600482015260609190911b7fffffffffffffffffffffffffffffffffffffffff0000000000000000000000001660248201526001600160a01b038416925063e9b674b99150604401600060405180830381600087803b158015612ac157600080fd5b505af1158015612ad5573d6000803e3d6000fd5b505060405163e9b674b960e01b81527f7469702e7461670000000000000000000000000000000000000000000000000060048201527f7269636f3a72656600000000000000000000000000000000000000000000000060248201526001600160a01b038416925063e9b674b99150604401600060405180830381600087803b158015612b6057600080fd5b505af1158015612b74573d6000803e3d6000fd5b505060405163e9b674b960e01b81527f686f77000000000000000000000000000000000000000000000000000000000060048201526b033b2e3c9fd0838f51f70d0060248201526001600160a01b038416925063e9b674b99150604401600060405180830381600087803b158015612beb57600080fd5b505af1158015612bff573d6000803e3d6000fd5b505060405163e9b674b960e01b81527f636170000000000000000000000000000000000000000000000000000000000060048201526b033b2e3dd0b59ed5fb55000060248201526001600160a01b038416925063e9b674b99150604401600060405180830381600087803b158015612c7657600080fd5b505af1158015612c8a573d6000803e3d6000fd5b505060405163e9b674b960e01b81527f746175000000000000000000000000000000000000000000000000000000000060048201524260248201526001600160a01b038416925063e9b674b99150604401600060405180830381600087803b158015612cf557600080fd5b505af1158015612d09573d6000803e3d6000fd5b505060405163e9b674b960e01b81527f776179000000000000000000000000000000000000000000000000000000000060048201526b033b2e3c9fd0803ce800000060248201526001600160a01b038416925063e9b674b99150604401600060405180830381600087803b158015612d8057600080fd5b505af1158015612d94573d6000803e3d6000fd5b5050505050505050505050565b6000818015612e8057838015612e7557600184168015612dc357859350612dd3565b6b033b2e3c9fd0803ce800000093505b506002909304926b019d971e4fe8401e740000005b8415612e6f578586028660801c15612dff57600080fd5b81810181811015612e0f57600080fd5b6b033b2e3c9fd0803ce800000090049650506001851615612e64578584028487820414158715151615612e4157600080fd5b81810181811015612e5157600080fd5b6b033b2e3c9fd0803ce800000090049450505b600285049450612de8565b50612e7a565b600092505b50612e90565b6b033b2e3c9fd0803ce800000091505b5092915050565b3360009081526020819052604090205460ff16612efa576040517f609f9a230000000000000000000000000000000000000000000000000000000081523360048201523060248201526001600160e01b03196000351660448201526064016103f3565b60405181151581526001600160a01b0383169033907f353b799ee5ce93aec9eee231e1301e94df3270c64f0dd606ea6823532e1d0b5d9060200160405180910390a36001600160a01b0391909116600090815260208190526040902080547fffffffffffffffffffffffffffffffffffffffffffffffffffffffffffffff0016911515919091179055565b3360009081526020819052604090205460ff16612fe8576040517f609f9a230000000000000000000000000000000000000000000000000000000081523360048201523060248201526001600160e01b03196000351660448201526064016103f3565b6001600160a01b0381166000818152602081815260409182902080547fffffffffffffffffffffffffffffffffffffffffffffffffffffffffffffff00166001908117909155915191825233917f353b799ee5ce93aec9eee231e1301e94df3270c64f0dd606ea6823532e1d0b5d910160405180910390a33360008181526020818152604080832080547fffffffffffffffffffffffffffffffffffffffffffffffffffffffffffffff001690555191825282917f353b799ee5ce93aec9eee231e1301e94df3270c64f0dd606ea6823532e1d0b5d910160405180910390a350565b3360009081526020819052604090205460ff1661312d576040517f609f9a230000000000000000000000000000000000000000000000000000000081523360048201523060248201526001600160e01b03196000351660448201526064016103f3565b6008546040517fbdf86a660000000000000000000000000000000000000000000000000000000081526001600160a01b0383811660048301529091169063bdf86a6690602401600060405180830381600087803b15801561318d57600080fd5b505af11580156131a1573d6000803e3d6000fd5b5050600a546040517fbdf86a660000000000000000000000000000000000000000000000000000000081526001600160a01b038581166004830152909116925063bdf86a669150602401600060405180830381600087803b15801561320557600080fd5b505af1158015613219573d6000803e3d6000fd5b5050600b546040517fbdf86a660000000000000000000000000000000000000000000000000000000081526001600160a01b038581166004830152909116925063bdf86a669150602401600060405180830381600087803b15801561327d57600080fd5b505af1158015613291573d6000803e3d6000fd5b50506009546040517fbdf86a660000000000000000000000000000000000000000000000000000000081526001600160a01b038581166004830152909116925063bdf86a669150602401600060405180830381600087803b1580156132f557600080fd5b505af1158015613309573d6000803e3d6000fd5b5050600c546040517fbdf86a660000000000000000000000000000000000000000000000000000000081526001600160a01b038581166004830152909116925063bdf86a669150602401600060405180830381600087803b15801561336d57600080fd5b505af1158015613381573d6000803e3d6000fd5b5050600d546040517ff2fde38b0000000000000000000000000000000000000000000000000000000081526001600160a01b038581166004830152909116925063f2fde38b915060240161137e565b6000805b8381602081106133e6576133e6613867565b1a60f81b7fff000000000000000000000000000000000000000000000000000000000000001615613419576001016133d4565b60031b9190911c91909117919050565b604080516002808252606082018352600092602083019080368337505060408051600280825260608201835293945060009390925090602083019080368337019050509050858260008151811061348257613482613867565b60200260200101906001600160a01b031690816001600160a01b03168152505084816000815181106134b6576134b6613867565b60200260200101818152505083826001815181106134d6576134d6613867565b60200260200101906001600160a01b031690816001600160a01b031681525050828160018151811061350a5761350a613867565b602002602001018181525050876001600160a01b031663162789b5886040518060400160405280868152602001858152506040518363ffffffff1660e01b8152600401613558929190613bcb565b600060405180830381600087803b15801561357257600080fd5b505af1158015613586573d6000803e3d6000fd5b505050505050505050505050565b600061016082840312156135a757600080fd5b50919050565b600060c082840312156135a757600080fd5b600061030082840312156135a757600080fd5b600080604083850312156135e557600080fd5b50508035926020909101359150565b80356001600160a01b038116811461360b57600080fd5b919050565b6000806040838503121561362357600080fd5b61362c836135f4565b91506020830135801515811461364157600080fd5b809150509250929050565b60006020828403121561365e57600080fd5b613667826135f4565b9392505050565b6000815480845260208085019450836000528060002060005b838110156136a357815487529582019560019182019101613687565b509495945050505050565b8381527f6c6971720000000000000000000000000000000000000000000000000000000060208201526080604082015260006136ed608083018561366e565b9050826060830152949350505050565b8381527f67656d000000000000000000000000000000000000000000000000000000000060208201526080604082015260006136ed608083018561366e565b8381527f737263000000000000000000000000000000000000000000000000000000000060208201526080604082015260006136ed608083018561366e565b8381527f746167000000000000000000000000000000000000000000000000000000000060208201526080604082015260006136ed608083018561366e565b8381527f706570000000000000000000000000000000000000000000000000000000000060208201526080604082015260006136ed608083018561366e565b8381527f706f70000000000000000000000000000000000000000000000000000000000060208201526080604082015260006136ed608083018561366e565b7f4e487b7100000000000000000000000000000000000000000000000000000000600052604160045260246000fd5b7f4e487b7100000000000000000000000000000000000000000000000000000000600052603260045260246000fd5b600081518084526020808501945080840160005b838110156136a35781516001600160a01b0316875295820195908201906001016138aa565b600081518084526020808501945080840160005b838110156136a3578151875295820195908201906001016138e3565b82815260406020820152600082516060604084015261392160a0840182613896565b905060208401517fffffffffffffffffffffffffffffffffffffffffffffffffffffffffffffffc084830301606085015261395c82826138cf565b91505060408401516080840152809150509392505050565b8381527f6e66706d0000000000000000000000000000000000000000000000000000000060208201526080604082015260006136ed608083018561366e565b8381527f726f6f6d0000000000000000000000000000000000000000000000000000000060208201526080604082015260006136ed608083018561366e565b8381527f777261700000000000000000000000000000000000000000000000000000000060208201526080604082015260006136ed608083018561366e565b6000815180845260005b81811015613a5757602081850181015186830182015201613a3b565b5060006020828601015260207fffffffffffffffffffffffffffffffffffffffffffffffffffffffffffffffe0601f83011685010191505092915050565b60006060808301818452808751808352608092508286019150828160051b8701016020808b0160005b84811015613b9b577fffffffffffffffffffffffffffffffffffffffffffffffffffffffffffffff808a850301865281518885016001600160a01b0382511686528482015160038110613b3a577f4e487b7100000000000000000000000000000000000000000000000000000000600052602160045260246000fd5b868601526040918201519186018a905281519081905290840190600090898701905b80831015613b865783516001600160e01b0319168252928601926001929092019190860190613b5c565b50978501979550505090820190600101613abe565b50506001600160a01b038a16908801528681036040880152613bbd8189613a31565b9a9950505050505050505050565b8281526040602082015260008251604080840152613bec6080840182613896565b905060208401517fffffffffffffffffffffffffffffffffffffffffffffffffffffffffffffffc0848303016060850152613c2782826138cf565b969550505050505056fea2646970667358221220369c0ccea7b7b8623777223308cd3dd4b19b1416dabd82c0d21a1c4ee99dba8e64736f6c63430008130033608060405234801561001057600080fd5b50613312806100206000396000f3fe608060405234801561001057600080fd5b50600436106101775760003560e01c80635ed03e57116100d8578063a0a7930a1161008c578063c0ea09d711610066578063c0ea09d7146102d0578063d9638d36146102d8578063ffe567e81461036257600080fd5b8063a0a7930a14610297578063b5582919146102aa578063bfbcf136146102bd57600080fd5b806372b67b99116100bd57806372b67b991461024f5780638f90719514610262578063938bd9a71461027557600080fd5b80635ed03e571461023457806370aed3c71461023c57600080fd5b806344e2a5a81161012f57806348f6410f1161011457806348f6410f146101f9578063495d32cb1461020c57806354c87e8d1461021457600080fd5b806344e2a5a8146101de578063465b43d0146101f157600080fd5b80632424be5c116101605780632424be5c1461019f5780632aa71e24146101b25780633e36f4c7146101c757600080fd5b8063071bafb51461017c5780630dca59c114610197575b600080fd5b610184610375565b6040519081526020015b60405180910390f35b610184610388565b6101846101ad366004612b20565b61039b565b6101c56101c0366004612b20565b6103e2565b005b700100000000000000000000000000000000610184565b6101c56101ec366004612b4c565b610924565b6101846109c5565b6101c5610207366004612b65565b6109d8565b610184610d4a565b610227610222366004612b20565b610d5d565b60405161018e9190612be1565b610184611212565b61022761024a366004612c7c565b611225565b61018461025d366004612d52565b611271565b610184610270366004612da5565b611307565b610288610283366004612b20565b6113fd565b60405161018e93929190612df6565b6102276102a5366004612e87565b611628565b6101c56102b8366004612eda565b611850565b6101c56102cb366004612f3c565b612124565b6101846122db565b6102eb6102e6366004612b4c565b6122ee565b60405161018e9190600061010082019050825182526020830151602083015260408301516040830152606083015160608301526080830151608083015260a083015160a083015260c083015160c083015273ffffffffffffffffffffffffffffffffffffffff60e08401511660e083015292915050565b610227610370366004612b20565b6123d6565b600061037f612442565b60030154905090565b6000610392612442565b60050154905090565b60006103a5612442565b60008481526001919091016020908152604080832073ffffffffffffffffffffffffffffffffffffffff8616845290915290205490505b92915050565b7f8a22373512790c48b83a1fe2efdd2888d4a917bcdc24d0adf63e60f6716804605473ffffffffffffffffffffffffffffffffffffffff163314610487576040517f08c379a000000000000000000000000000000000000000000000000000000000815260206004820152601d60248201527f4f776e61626c653a2073656e646572206d757374206265206f776e657200000060448201526064015b60405180910390fd5b6000357fffffffff00000000000000000000000000000000000000000000000000000000167bffffffffffffffffffffffffffffffffffffffffffffffffffffffff19163373ffffffffffffffffffffffffffffffffffffffff167fc8b2a2dbd2bddf4ecc3e665d9828132a78820abf89df014d2ce4510f27a16061600036604051610514929190612f85565b60405180910390a36000610526612442565b60008481526020829052604090206001015490915015610572576040517f9c9f104300000000000000000000000000000000000000000000000000000000815260040160405180910390fd5b604080516101008101825260008082526b033b2e3c9fd0803ce8000000602080840182815284860184815260608601858152608087018581524260a0890190815260c0890188815273ffffffffffffffffffffffffffffffffffffffff8d811660e08c019081528f8b528d8952998c90209a518b55955160018b0155935160028a0155915160038901555160048801555160058701555160068601559251600790940180547fffffffffffffffffffffffff0000000000000000000000000000000000000000169490931693909317909155915191825284917f7261636b00000000000000000000000000000000000000000000000000000000917fa6a62c84c48e7b9441c54da7ead6df8213afddbc24649e1f6b88294160ef069f910160405180910390a36040516b033b2e3c9fd0803ce8000000815283907f6665650000000000000000000000000000000000000000000000000000000000907fa6a62c84c48e7b9441c54da7ead6df8213afddbc24649e1f6b88294160ef069f9060200160405180910390a3827f686f6f6b000000000000000000000000000000000000000000000000000000007fa6a62c84c48e7b9441c54da7ead6df8213afddbc24649e1f6b88294160ef069f8460601b6bffffffffffffffffffffffff191660405161076091815260200190565b60405180910390a360405142815283907f72686f0000000000000000000000000000000000000000000000000000000000907fa6a62c84c48e7b9441c54da7ead6df8213afddbc24649e1f6b88294160ef069f9060200160405180910390a36040516000815283907f7461727400000000000000000000000000000000000000000000000000000000907fa6a62c84c48e7b9441c54da7ead6df8213afddbc24649e1f6b88294160ef069f9060200160405180910390a36040516000815283907f63686f7000000000000000000000000000000000000000000000000000000000907fa6a62c84c48e7b9441c54da7ead6df8213afddbc24649e1f6b88294160ef069f9060200160405180910390a36040516000815283907f6c696e6500000000000000000000000000000000000000000000000000000000907fa6a62c84c48e7b9441c54da7ead6df8213afddbc24649e1f6b88294160ef069f9060200160405180910390a36040516000815283907f6475737400000000000000000000000000000000000000000000000000000000907fa6a62c84c48e7b9441c54da7ead6df8213afddbc24649e1f6b88294160ef069f9060200160405180910390a3505050565b6000357fffffffff00000000000000000000000000000000000000000000000000000000167bffffffffffffffffffffffffffffffffffffffffffffffffffffffff19163373ffffffffffffffffffffffffffffffffffffffff167fc8b2a2dbd2bddf4ecc3e665d9828132a78820abf89df014d2ce4510f27a160616000366040516109b1929190612f85565b60405180910390a36109c281612496565b50565b60006109cf612442565b60020154905090565b7f8a22373512790c48b83a1fe2efdd2888d4a917bcdc24d0adf63e60f6716804605473ffffffffffffffffffffffffffffffffffffffff163314610a78576040517f08c379a000000000000000000000000000000000000000000000000000000000815260206004820152601d60248201527f4f776e61626c653a2073656e646572206d757374206265206f776e6572000000604482015260640161047e565b6000357fffffffff00000000000000000000000000000000000000000000000000000000167bffffffffffffffffffffffffffffffffffffffffffffffffffffffff19163373ffffffffffffffffffffffffffffffffffffffff167fc8b2a2dbd2bddf4ecc3e665d9828132a78820abf89df014d2ce4510f27a16061600036604051610b05929190612f85565b60405180910390a3806000610b18612442565b60008681526020829052604090209091507f6c696e6500000000000000000000000000000000000000000000000000000000859003610b5d5760028101839055610d07565b847f647573740000000000000000000000000000000000000000000000000000000003610b905760038101839055610d07565b847f686f6f6b0000000000000000000000000000000000000000000000000000000003610bec576007810180547fffffffffffffffffffffffff000000000000000000000000000000000000000016606086901c179055610d07565b847f63686f700000000000000000000000000000000000000000000000000000000003610c1f5760068101839055610d07565b847f666565000000000000000000000000000000000000000000000000000000000003610cd5576b033b2e3c9fd0803ce8000000831015610c8c576040517f9413c34a00000000000000000000000000000000000000000000000000000000815260040160405180910390fd5b80600501544214610cc9576040517fd66c035800000000000000000000000000000000000000000000000000000000815260040160405180910390fd5b60048101839055610d07565b6040517f0b84bcb500000000000000000000000000000000000000000000000000000000815260040160405180910390fd5b85857fa6a62c84c48e7b9441c54da7ead6df8213afddbc24649e1f6b88294160ef069f86604051610d3a91815260200190565b60405180910390a3505050505050565b6000610d54612442565b60070154905090565b60606000357fffffffff00000000000000000000000000000000000000000000000000000000167bffffffffffffffffffffffffffffffffffffffffffffffffffffffff19163373ffffffffffffffffffffffffffffffffffffffff167fc8b2a2dbd2bddf4ecc3e665d9828132a78820abf89df014d2ce4510f27a16061600036604051610dec929190612f85565b60405180910390a36000610dfe612442565b90506001816008015403610e3e576040517f64bbcb9100000000000000000000000000000000000000000000000000000000815260040160405180910390fd5b60016008820155610e4e84612496565b6000806000610e5d87876113fd565b919450925090506000836002811115610e7857610e78612dc7565b14610eaf576040517fa1455f9f00000000000000000000000000000000000000000000000000000000815260040160405180910390fd5b6000610eb9612442565b60008981526020828152604080832060018501835281842073ffffffffffffffffffffffffffffffffffffffff8d168552835281842080549085905591519384529394509160608b901b7fffffffffffffffffffffffffffffffffffffffff00000000000000000000000016918c917f6172740000000000000000000000000000000000000000000000000000000000917f82bcec2bd7095ddf55d9a6327af92ab6ed14951aa1a7cce10fdfe691bb3cbed8910160405180910390a46000826001015482610f879190612fe3565b90506000610fa16b033b2e3c9fd0803ce800000083613029565b90506000610fb385600601548361275f565b905083856000016000828254610fc9919061303d565b909155505084546040519081528d907f7461727400000000000000000000000000000000000000000000000000000000907fa6a62c84c48e7b9441c54da7ead6df8213afddbc24649e1f6b88294160ef069f9060200160405180910390a38286600301600082825461103b9190613050565b909155505060038601546040519081527f73696e0000000000000000000000000000000000000000000000000000000000907f16e9c051056ea742d289d2cb753372cf432f332213ecd495b26ea8f72e3cf2e09060200160405180910390a26040805160e0810182528e815273ffffffffffffffffffffffffffffffffffffffff8e1660208201528082018390526060810184905233608082015260a081018a905260c0810189905290516111e5908f907fad9ff9ba0000000000000000000000000000000000000000000000000000000090611181908590602401600060e08201905082518252602083015173ffffffffffffffffffffffffffffffffffffffff80821660208501526040850151604085015260608501516060850152806080860151166080850152505060a083015160a083015260c083015160c083015292915050565b60408051601f198184030181529190526020810180517bffffffffffffffffffffffffffffffffffffffffffffffffffffffff167fffffffff0000000000000000000000000000000000000000000000000000000090931692909217909152612782565b8060200190518101906111f89190613063565b9b5050505050505050505050600260089091015592915050565b600061121c612442565b60060154905090565b6060333014611260576040517f13932dec00000000000000000000000000000000000000000000000000000000815260040160405180910390fd5b61126a8383612782565b9392505050565b60006112eb858587868660405160240161128e949392919061311c565b60408051601f198184030181529190526020810180517bffffffffffffffffffffffffffffffffffffffffffffffffffffffff167fd09e623f0000000000000000000000000000000000000000000000000000000017905261281c565b8060200190518101906112fe9190613146565b95945050505050565b60008180156113e6578380156113db5760018416801561132957859350611339565b6b033b2e3c9fd0803ce800000093505b506002909304926b019d971e4fe8401e740000005b84156113d5578586028660801c1561136557600080fd5b8181018181101561137557600080fd5b6b033b2e3c9fd0803ce8000000900496505060018516156113ca5785840284878204141587151516156113a757600080fd5b818101818110156113b757600080fd5b6b033b2e3c9fd0803ce800000090049450505b60028504945061134e565b506113e0565b600092505b506113f6565b6b033b2e3c9fd0803ce800000091505b5092915050565b60008060008061140b612442565b6000878152602082905260408082209051602481018a905273ffffffffffffffffffffffffffffffffffffffff89166044820152929350916114d39089907f238131ef00000000000000000000000000000000000000000000000000000000906064015b60408051601f198184030181529190526020810180517bffffffffffffffffffffffffffffffffffffffffffffffffffffffff167fffffffff000000000000000000000000000000000000000000000000000000009093169290921790915261281c565b90508051606014611510576040517ffa1ea6d200000000000000000000000000000000000000000000000000000000815260040160405180910390fd5b600080600083806020019051810190611529919061315f565b9250925092508042111561154d576001600084985098509850505050505050611621565b60006115618760070154876001015461275f565b8760010160008e815260200190815260200160002060008d73ffffffffffffffffffffffffffffffffffffffff1673ffffffffffffffffffffffffffffffffffffffff168152602001908152602001600020546115be9190612fe3565b90508281116115e95760026b033b2e3c9fd0803ce80000008599509950995050505050505050611621565b60006116016b033b2e3c9fd0803ce800000083613029565b61160b9085613029565b60009b5099509397506116219650505050505050565b9250925092565b60606000611634612442565b90506001816009015403611674576040517f64bbcb9100000000000000000000000000000000000000000000000000000000815260040160405180910390fd5b6001600982015561168361292c565b546040517f40c10f1900000000000000000000000000000000000000000000000000000000815273ffffffffffffffffffffffffffffffffffffffff87811660048301527001000000000000000000000000000000006024830152909116906340c10f1990604401600060405180830381600087803b15801561170557600080fd5b505af1158015611719573d6000803e3d6000fd5b5050505060008573ffffffffffffffffffffffffffffffffffffffff16858560405161174692919061318d565b6000604051808303816000865af19150503d8060008114611783576040519150601f19603f3d011682016040523d82523d6000602084013e611788565b606091505b50935090508061179b5761179b83612962565b6117a361292c565b546040517f9dc29fac00000000000000000000000000000000000000000000000000000000815273ffffffffffffffffffffffffffffffffffffffff8881166004830152700100000000000000000000000000000000602483015290911690639dc29fac90604401600060405180830381600087803b15801561182557600080fd5b505af1158015611839573d6000803e3d6000fd5b505050506002826009018190555050509392505050565b6000357fffffffff00000000000000000000000000000000000000000000000000000000167bffffffffffffffffffffffffffffffffffffffffffffffffffffffff19163373ffffffffffffffffffffffffffffffffffffffff167fc8b2a2dbd2bddf4ecc3e665d9828132a78820abf89df014d2ce4510f27a160616000366040516118dd929190612f85565b60405180910390a360006118ef612442565b9050600181600801540361192f576040517f64bbcb9100000000000000000000000000000000000000000000000000000000815260040160405180910390fd5b600160088201556000611940612442565b6000888152602082905260408120600181015492935091900361198f576040517f8094d0b900000000000000000000000000000000000000000000000000000000815260040160405180910390fd5b6000888152600183016020908152604080832073ffffffffffffffffffffffffffffffffffffffff8b1684529091528120546119cb908661296b565b60008a8152600185016020908152604080832073ffffffffffffffffffffffffffffffffffffffff8d168452825291829020839055905182815291925060608a901b7fffffffffffffffffffffffffffffffffffffffff00000000000000000000000016918b917f6172740000000000000000000000000000000000000000000000000000000000917f82bcec2bd7095ddf55d9a6327af92ab6ed14951aa1a7cce10fdfe691bb3cbed8910160405180910390a48154611a8b908661296b565b80835560405190815289907f7461727400000000000000000000000000000000000000000000000000000000907fa6a62c84c48e7b9441c54da7ead6df8213afddbc24649e1f6b88294160ef069f9060200160405180910390a36000611af58360010154876129fc565b90506000811315611cab576000611b186b033b2e3c9fd0803ce800000083613029565b905080856005016000828254611b2e9190613050565b909155505060058501546040519081527f6465627400000000000000000000000000000000000000000000000000000000907f16e9c051056ea742d289d2cb753372cf432f332213ecd495b26ea8f72e3cf2e09060200160405180910390a2611ba36b033b2e3c9fd0803ce80000008361319d565b856004016000828254611bb69190613050565b909155505060048501546040519081527f7265737400000000000000000000000000000000000000000000000000000000907f16e9c051056ea742d289d2cb753372cf432f332213ecd495b26ea8f72e3cf2e09060200160405180910390a2611c1d61292c565b546040517f40c10f190000000000000000000000000000000000000000000000000000000081523360048201526024810183905273ffffffffffffffffffffffffffffffffffffffff909116906340c10f1990604401600060405180830381600087803b158015611c8d57600080fd5b505af1158015611ca1573d6000803e3d6000fd5b5050505050611e79565b6000811215611e795760006b033b2e3c9fd0803ce8000000611ccc836131b1565b611cd69190613029565b611ce1906001613050565b9050611d02611cfc6b033b2e3c9fd0803ce800000083612fe3565b8361296b565b856004016000828254611d159190613050565b909155505060048501546040519081527f7265737400000000000000000000000000000000000000000000000000000000907f16e9c051056ea742d289d2cb753372cf432f332213ecd495b26ea8f72e3cf2e09060200160405180910390a280856005016000828254611d88919061303d565b909155505060058501546040519081527f6465627400000000000000000000000000000000000000000000000000000000907f16e9c051056ea742d289d2cb753372cf432f332213ecd495b26ea8f72e3cf2e09060200160405180910390a2611def61292c565b546040517f9dc29fac0000000000000000000000000000000000000000000000000000000081523360048201526024810183905273ffffffffffffffffffffffffffffffffffffffff90911690639dc29fac90604401600060405180830381600087803b158015611e5f57600080fd5b505af1158015611e73573d6000803e3d6000fd5b50505050505b60006040518060a001604052803373ffffffffffffffffffffffffffffffffffffffff1681526020018c81526020018b73ffffffffffffffffffffffffffffffffffffffff1681526020018a8a8080601f0160208091040260200160405190810160405280939291908181526020018383808284376000920182905250938552505050602090910189905260405191925090611f41908d907fd50203e200000000000000000000000000000000000000000000000000000000906111819086906024016131e9565b90508051602014611f7e576040517ffa1ea6d200000000000000000000000000000000000000000000000000000000815260040160405180910390fd5b80806020019051810190611f929190613253565b611ff5576000611fa28d8d6113fd565b5090915060029050816002811115611fbc57611fbc612dc7565b14611ff3576040517ff95c20d600000000000000000000000000000000000000000000000000000000815260040160405180910390fd5b505b8315801590612016575084600301548486600101546120149190612fe3565b105b1561204d576040517fa51f35b100000000000000000000000000000000000000000000000000000000815260040160405180910390fd5b600088131561210c5760028501546001860154865461206c9190612fe3565b11156120a4576040517fb195f50500000000000000000000000000000000000000000000000000000000815260040160405180910390fd5b85600601546b033b2e3c9fd0803ce800000087600401546120c59190613029565b87600501546120d49190613050565b111561210c576040517fb195f50500000000000000000000000000000000000000000000000000000000815260040160405180910390fd5b50505050505060028160080181905550505050505050565b7f8a22373512790c48b83a1fe2efdd2888d4a917bcdc24d0adf63e60f6716804605473ffffffffffffffffffffffffffffffffffffffff1633146121c4576040517f08c379a000000000000000000000000000000000000000000000000000000000815260206004820152601d60248201527f4f776e61626c653a2073656e646572206d757374206265206f776e6572000000604482015260640161047e565b6000357fffffffff00000000000000000000000000000000000000000000000000000000167bffffffffffffffffffffffffffffffffffffffffffffffffffffffff19163373ffffffffffffffffffffffffffffffffffffffff167fc8b2a2dbd2bddf4ecc3e665d9828132a78820abf89df014d2ce4510f27a16061600036604051612251929190612f85565b60405180910390a36122d3858587868686604051602401612276959493929190613275565b60408051601f198184030181529190526020810180517bffffffffffffffffffffffffffffffffffffffffffffffffffffffff167f81560b8800000000000000000000000000000000000000000000000000000000179052612782565b505050505050565b60006122e5612442565b60040154905090565b61234c60405180610100016040528060008152602001600081526020016000815260200160008152602001600081526020016000815260200160008152602001600073ffffffffffffffffffffffffffffffffffffffff1681525090565b612354612442565b60009283526020908152604092839020835161010081018552815481526001820154928101929092526002810154938201939093526003830154606082015260048301546080820152600583015460a0820152600683015460c082015260079092015473ffffffffffffffffffffffffffffffffffffffff1660e08301525090565b6040516024810183905273ffffffffffffffffffffffffffffffffffffffff8216604482015260609061242f9084907fffe567e8000000000000000000000000000000000000000000000000000000009060640161146f565b80602001905181019061126a9190613063565b6000807f7661742e3000000000000000000000000000000000000000000000000000000060405160200161247891815260200190565b60408051601f19818403018152919052805160209091012092915050565b60006124a0612442565b600083815260208290526040902060058101549192509042036124c257505050565b60008160010154905060006124eb8284600401548560050154426124e6919061303d565b612aca565b905060006124f9838361303d565b9050600081856000015461250d9190612fe3565b905060008187600401546125219190613050565b426005880181905560405190815290915088907f72686f0000000000000000000000000000000000000000000000000000000000907fa6a62c84c48e7b9441c54da7ead6df8213afddbc24649e1f6b88294160ef069f9060200160405180910390a36001860184905560405184815288907f7261636b00000000000000000000000000000000000000000000000000000000907fa6a62c84c48e7b9441c54da7ead6df8213afddbc24649e1f6b88294160ef069f9060200160405180910390a36125f76b033b2e3c9fd0803ce800000082613029565b87600501546126069190613050565b600588018190556040519081527f6465627400000000000000000000000000000000000000000000000000000000907f16e9c051056ea742d289d2cb753372cf432f332213ecd495b26ea8f72e3cf2e09060200160405180910390a26126786b033b2e3c9fd0803ce80000008261319d565b600488018190556040519081527f7265737400000000000000000000000000000000000000000000000000000000907f16e9c051056ea742d289d2cb753372cf432f332213ecd495b26ea8f72e3cf2e09060200160405180910390a26126ea6b033b2e3c9fd0803ce800000082613029565b87600201546126f99190613050565b600288018190556040519081527f6a6f790000000000000000000000000000000000000000000000000000000000907f16e9c051056ea742d289d2cb753372cf432f332213ecd495b26ea8f72e3cf2e09060200160405180910390a25050505050505050565b60006b033b2e3c9fd0803ce80000006127788385612fe3565b61126a9190613029565b6060600061278e612442565b600085815260209190915260409081902060070154905173ffffffffffffffffffffffffffffffffffffffff909116906127c99085906132a7565b600060405180830381855af49150503d8060008114612804576040519150601f19603f3d011682016040523d82523d6000602084013e612809565b606091505b5092509050806113f6576113f682612962565b606060003073ffffffffffffffffffffffffffffffffffffffff166370aed3c760e01b85856040516024016128529291906132c3565b60408051601f198184030181529181526020820180517bffffffffffffffffffffffffffffffffffffffffffffffffffffffff167fffffffff000000000000000000000000000000000000000000000000000000009094169390931790925290516128bd91906132a7565b600060405180830381855afa9150503d80600081146128f8576040519150601f19603f3d011682016040523d82523d6000602084013e6128fd565b606091505b5092509050806129105761291082612962565b818060200190518101906129249190613063565b949350505050565b6000807f7269636f62616e6b2e300000000000000000000000000000000000000000000060405160200161247891815260200190565b80518082602001fd5b81810160008213801561297e5750828111155b156129b5576040517fcdc2bcd700000000000000000000000000000000000000000000000000000000815260040160405180910390fd5b6000821280156129c55750828110155b156103dc576040517f9666073c00000000000000000000000000000000000000000000000000000000815260040160405180910390fd5b8181026000831215612a3a576040517f8f71065f00000000000000000000000000000000000000000000000000000000815260040160405180910390fd5b8115801590612a58575082828281612a5457612a54612ffa565b0514155b156103dc576000821315612a98576040517f8f71065f00000000000000000000000000000000000000000000000000000000815260040160405180910390fd5b6040517fb80fa08500000000000000000000000000000000000000000000000000000000815260040160405180910390fd5b60006b033b2e3c9fd0803ce8000000612ae38484611307565b612aed9086612fe3565b6129249190613029565b803573ffffffffffffffffffffffffffffffffffffffff81168114612b1b57600080fd5b919050565b60008060408385031215612b3357600080fd5b82359150612b4360208401612af7565b90509250929050565b600060208284031215612b5e57600080fd5b5035919050565b600080600060608486031215612b7a57600080fd5b505081359360208301359350604090920135919050565b60005b83811015612bac578181015183820152602001612b94565b50506000910152565b60008151808452612bcd816020860160208601612b91565b601f01601f19169290920160200192915050565b60208152600061126a6020830184612bb5565b7f4e487b7100000000000000000000000000000000000000000000000000000000600052604160045260246000fd5b604051601f8201601f1916810167ffffffffffffffff81118282101715612c4c57612c4c612bf4565b604052919050565b600067ffffffffffffffff821115612c6e57612c6e612bf4565b50601f01601f191660200190565b60008060408385031215612c8f57600080fd5b82359150602083013567ffffffffffffffff811115612cad57600080fd5b8301601f81018513612cbe57600080fd5b8035612cd1612ccc82612c54565b612c23565b818152866020838501011115612ce657600080fd5b816020840160208301376000602083830101528093505050509250929050565b60008083601f840112612d1857600080fd5b50813567ffffffffffffffff811115612d3057600080fd5b6020830191508360208260051b8501011115612d4b57600080fd5b9250929050565b60008060008060608587031215612d6857600080fd5b8435935060208501359250604085013567ffffffffffffffff811115612d8d57600080fd5b612d9987828801612d06565b95989497509550505050565b60008060408385031215612db857600080fd5b50508035926020909101359150565b7f4e487b7100000000000000000000000000000000000000000000000000000000600052602160045260246000fd5b6060810160038510612e31577f4e487b7100000000000000000000000000000000000000000000000000000000600052602160045260246000fd5b938152602081019290925260409091015290565b60008083601f840112612e5757600080fd5b50813567ffffffffffffffff811115612e6f57600080fd5b602083019150836020828501011115612d4b57600080fd5b600080600060408486031215612e9c57600080fd5b612ea584612af7565b9250602084013567ffffffffffffffff811115612ec157600080fd5b612ecd86828701612e45565b9497909650939450505050565b600080600080600060808688031215612ef257600080fd5b85359450612f0260208701612af7565b9350604086013567ffffffffffffffff811115612f1e57600080fd5b612f2a88828901612e45565b96999598509660600135949350505050565b600080600080600060808688031215612f5457600080fd5b8535945060208601359350604086013567ffffffffffffffff811115612f7957600080fd5b612f2a88828901612d06565b60208152816020820152818360408301376000818301604090810191909152601f909201601f19160101919050565b7f4e487b7100000000000000000000000000000000000000000000000000000000600052601160045260246000fd5b80820281158282048414176103dc576103dc612fb4565b7f4e487b7100000000000000000000000000000000000000000000000000000000600052601260045260246000fd5b60008261303857613038612ffa565b500490565b818103818111156103dc576103dc612fb4565b808201808211156103dc576103dc612fb4565b60006020828403121561307557600080fd5b815167ffffffffffffffff81111561308c57600080fd5b8201601f8101841361309d57600080fd5b80516130ab612ccc82612c54565b8181528560208385010111156130c057600080fd5b6112fe826020830160208601612b91565b81835260007f07ffffffffffffffffffffffffffffffffffffffffffffffffffffffffffffff83111561310357600080fd5b8260051b80836020870137939093016020019392505050565b84815283602082015260606040820152600061313c6060830184866130d1565b9695505050505050565b60006020828403121561315857600080fd5b5051919050565b60008060006060848603121561317457600080fd5b8351925060208401519150604084015190509250925092565b8183823760009101908152919050565b6000826131ac576131ac612ffa565b500690565b60007f800000000000000000000000000000000000000000000000000000000000000082036131e2576131e2612fb4565b5060000390565b60208152600073ffffffffffffffffffffffffffffffffffffffff8084511660208401526020840151604084015280604085015116606084015250606083015160a0608084015261323d60c0840182612bb5565b9050608084015160a08401528091505092915050565b60006020828403121561326557600080fd5b8151801515811461126a57600080fd5b8581528460208201526080604082015260006132956080830185876130d1565b90508260608301529695505050505050565b600082516132b9818460208701612b91565b9190910192915050565b8281526040602082015260006129246040830184612bb556fea2646970667358221220d8702a6f1cf66a8739e1a10617f5584a0e73e5b59b9d0f0488c99d523b6e8cb164736f6c63430008130033608060405234801561001057600080fd5b506112bd806100206000396000f3fe608060405234801561001057600080fd5b50600436106100885760003560e01c80639c2062ad1161005b5780639c2062ad14610133578063da178cb014610160578063de04839414610183578063df8a94781461018b57600080fd5b806315d276e11461008d578063285aaa20146100d15780638f907195146100e757806397b67bb9146100fa575b600080fd5b6100956101a0565b6040516100c891908151815260208083015190820152604080830151908201526060918201519181019190915260800190565b60405180910390f35b6100d961020a565b6040519081526020016100c8565b6100d96100f5366004611052565b61021d565b610102610313565b60408051825173ffffffffffffffffffffffffffffffffffffffff16815260209283015192810192909252016100c8565b61013b610366565b60405173ffffffffffffffffffffffffffffffffffffffff90911681526020016100c8565b61016861038c565b604080518251815260209283015192810192909252016100c8565b6101686103c9565b61019e610199366004611074565b610406565b005b6101cb6040518060800160405280600081526020016000815260200160008152602001600081525090565b6101d3610c4c565b6040805160808101825260018301548152600283015460208201526003830154918101919091526004909101546060820152919050565b6000610214610c4c565b60050154905090565b60008180156102fc578380156102f15760018416801561023f5785935061024f565b6b033b2e3c9fd0803ce800000093505b506002909304926b019d971e4fe8401e740000005b84156102eb578586028660801c1561027b57600080fd5b8181018181101561028b57600080fd5b6b033b2e3c9fd0803ce8000000900496505060018516156102e05785840284878204141587151516156102bd57600080fd5b818101818110156102cd57600080fd5b6b033b2e3c9fd0803ce800000090049450505b600285049450610264565b506102f6565b600092505b5061030c565b6b033b2e3c9fd0803ce800000091505b5092915050565b604080518082019091526000808252602082015261032f610c4c565b60408051808201909152600a82015473ffffffffffffffffffffffffffffffffffffffff168152600b909101546020820152919050565b6000610370610c4c565b5473ffffffffffffffffffffffffffffffffffffffff16919050565b60408051808201909152600080825260208201526103a8610c4c565b60408051808201909152600882015481526009909101546020820152919050565b60408051808201909152600080825260208201526103e5610c4c565b60408051808201909152600682015481526007909101546020820152919050565b6000357fffffffff00000000000000000000000000000000000000000000000000000000167bffffffffffffffffffffffffffffffffffffffffffffffffffffffff19163373ffffffffffffffffffffffffffffffffffffffff167fc8b2a2dbd2bddf4ecc3e665d9828132a78820abf89df014d2ce4510f27a160616000366040516104939291906110e9565b60405180910390a360006104a5610c4c565b905060006104b1610cbe565b905060006104bd610cf4565b905060005b8481101561054a57306344e2a5a88787848181106104e2576104e2611136565b905060200201356040518263ffffffff1660e01b815260040161050791815260200190565b600060405180830381600087803b15801561052157600080fd5b505af1158015610535573d6000803e3d6000fd5b505050508061054390611194565b90506104c2565b50805483546002840154600385015473ffffffffffffffffffffffffffffffffffffffff9384169390921691600090610590906b033b2e3c9fd0803ce8000000906111cc565b9050808211156108aa5760018111156105b9576105b66105b1600183611207565b610d2a565b91505b600586015460006105d3826105ce8682611220565b610e99565b905060006105f88a600601600101546105f3848d6006016000015461021d565b610ec3565b9050600061061461060a600188611207565b60048d0154610edc565b90506106208187611207565b60028b018190556040518181529096507f6a6f790000000000000000000000000000000000000000000000000000000000907f16e9c051056ea742d289d2cb753372cf432f332213ecd495b26ea8f72e3cf2e09060200160405180910390a2600061068d836105ce610ef1565b610698906001611220565b905060006106bc838e600501546b033b2e3c9fd0803ce80000006105f39190611207565b905060006106ca8284610ec3565b6106d5906001611220565b6040517f9dc29fac0000000000000000000000000000000000000000000000000000000081523360048201526024810182905290915073ffffffffffffffffffffffffffffffffffffffff8b1690639dc29fac90604401600060405180830381600087803b15801561074657600080fd5b505af115801561075a573d6000803e3d6000fd5b50506040517f40c10f190000000000000000000000000000000000000000000000000000000081523360048201526024810185905273ffffffffffffffffffffffffffffffffffffffff8e1692506340c10f199150604401600060405180830381600087803b1580156107cc57600080fd5b505af11580156107e0573d6000803e3d6000fd5b505050508382101561089e578a73ffffffffffffffffffffffffffffffffffffffff166340c10f19610810610ffe565b61081a8588611207565b6040517fffffffff0000000000000000000000000000000000000000000000000000000060e085901b16815273ffffffffffffffffffffffffffffffffffffffff90921660048301526024820152604401600060405180830381600087803b15801561088557600080fd5b505af1158015610899573d6000803e3d6000fd5b505050505b50505050505050610c41565b81811115610c415760006108be8383611207565b905060018311156108da576108d76105b1600185611207565b92505b600587015460006108ef826105ce8582611220565b9050600061090f8b600801600101546105f3848e6008016000015461021d565b905060006109338c60010160010154426109299190611207565b60038e0154611026565b905060006109b68d600101600001548a73ffffffffffffffffffffffffffffffffffffffff166318160ddd6040518163ffffffff1660e01b8152600401602060405180830381865afa15801561098d573d6000803e3d6000fd5b505050506040513d601f19601f820116820180604052508101906109b19190611233565b610edc565b6109c0908361124c565b9050806000036109fc576040517f8d259ec200000000000000000000000000000000000000000000000000000000815260040160405180910390fd5b6000610a13826105f3610a0d610ef1565b87610ec3565b90504287821115610a6557610a3e84610a2c8a8561103d565b6109b190670de0b6b3a7640000611207565b610a489082611207565b905081610a55898561124c565b610a5f91906111cc565b92508791505b60028f018190556040518181527f62656c0000000000000000000000000000000000000000000000000000000000907f16e9c051056ea742d289d2cb753372cf432f332213ecd495b26ea8f72e3cf2e09060200160405180910390a26040517f9dc29fac0000000000000000000000000000000000000000000000000000000081523360048201526024810183905273ffffffffffffffffffffffffffffffffffffffff8d1690639dc29fac90604401600060405180830381600087803b158015610b2f57600080fd5b505af1158015610b43573d6000803e3d6000fd5b50506040517f40c10f190000000000000000000000000000000000000000000000000000000081523360048201526024810186905273ffffffffffffffffffffffffffffffffffffffff8e1692506340c10f199150604401600060405180830381600087803b158015610bb557600080fd5b505af1158015610bc9573d6000803e3d6000fd5b50505050818a610bd99190611220565b60028f01819055604051818152909a507f6a6f790000000000000000000000000000000000000000000000000000000000907f16e9c051056ea742d289d2cb753372cf432f332213ecd495b26ea8f72e3cf2e09060200160405180910390a250505050505050505b505050505050505050565b6000807f766f772e30000000000000000000000000000000000000000000000000000000604051602001610c8291815260200190565b604080517fffffffffffffffffffffffffffffffffffffffffffffffffffffffffffffffe0818403018152919052805160209091012092915050565b6000807f7661742e30000000000000000000000000000000000000000000000000000000604051602001610c8291815260200190565b6000807f7269636f62616e6b2e3000000000000000000000000000000000000000000000604051602001610c8291815260200190565b600080610d35610cbe565b9050610d4d6b033b2e3c9fd0803ce80000008461124c565b8160030154610d5c9190611207565b600382018190556040519081527f73696e0000000000000000000000000000000000000000000000000000000000907f16e9c051056ea742d289d2cb753372cf432f332213ecd495b26ea8f72e3cf2e09060200160405180910390a2828160020154610dc89190611207565b600282018190556040518181529092507f6a6f790000000000000000000000000000000000000000000000000000000000907f16e9c051056ea742d289d2cb753372cf432f332213ecd495b26ea8f72e3cf2e09060200160405180910390a2828160050154610e379190611207565b600582018190556040519081527f6465627400000000000000000000000000000000000000000000000000000000907f16e9c051056ea742d289d2cb753372cf432f332213ecd495b26ea8f72e3cf2e09060200160405180910390a250919050565b600081610eb26b033b2e3c9fd0803ce80000008561124c565b610ebc91906111cc565b9392505050565b60006b033b2e3c9fd0803ce8000000610eb2838561124c565b6000670de0b6b3a7640000610eb2838561124c565b600080610efc610cf4565b90506000610f08610c4c565b6001830154600a820154600b8301546040517f52ba849100000000000000000000000000000000000000000000000000000000815273ffffffffffffffffffffffffffffffffffffffff92831660048201526024810191909152929350600092839291909116906352ba8491906044016040805180830381865afa158015610f94573d6000803e3d6000fd5b505050506040513d601f19601f82011682018060405250810190610fb89190611263565b9150915042811015610ff6576040517f5eeceb2a00000000000000000000000000000000000000000000000000000000815260040160405180910390fd5b509392505050565b60007f8a22373512790c48b83a1fe2efdd2888d4a917bcdc24d0adf63e60f671680460610370565b6000818311156110365781610ebc565b5090919050565b600081610eb2670de0b6b3a76400008561124c565b6000806040838503121561106557600080fd5b50508035926020909101359150565b6000806020838503121561108757600080fd5b823567ffffffffffffffff8082111561109f57600080fd5b818501915085601f8301126110b357600080fd5b8135818111156110c257600080fd5b8660208260051b85010111156110d757600080fd5b60209290920196919550909350505050565b60208152816020820152818360408301376000818301604090810191909152601f9092017fffffffffffffffffffffffffffffffffffffffffffffffffffffffffffffffe0160101919050565b7f4e487b7100000000000000000000000000000000000000000000000000000000600052603260045260246000fd5b7f4e487b7100000000000000000000000000000000000000000000000000000000600052601160045260246000fd5b60007fffffffffffffffffffffffffffffffffffffffffffffffffffffffffffffffff82036111c5576111c5611165565b5060010190565b600082611202577f4e487b7100000000000000000000000000000000000000000000000000000000600052601260045260246000fd5b500490565b8181038181111561121a5761121a611165565b92915050565b8082018082111561121a5761121a611165565b60006020828403121561124557600080fd5b5051919050565b808202811582820484141761121a5761121a611165565b6000806040838503121561127657600080fd5b50508051602090910151909290915056fea2646970667358221220c9b293e478392e17c6e60d74669a3aeeb8d284837de34bcd1c88cc63d50b0f3964736f6c63430008130033608060405234801561001057600080fd5b506108a2806100206000396000f3fe608060405234801561001057600080fd5b506004361061007d5760003560e01c80633a4a42331161005b5780633a4a4233146100e05780635d6542af146100e85780638f907195146100f0578063cfc4af551461010357600080fd5b806318178358146100825780632755cd2d1461008c578063355274ea146100ca575b600080fd5b61008a61010b565b005b610094610436565b60408051825173ffffffffffffffffffffffffffffffffffffffff16815260209283015192810192909252015b60405180910390f35b6100d2610486565b6040519081526020016100c1565b6100d2610499565b6100d26104ac565b6100d26100fe366004610745565b6104bf565b6100d26105b5565b6000357fffffffff00000000000000000000000000000000000000000000000000000000167bffffffffffffffffffffffffffffffffffffffffffffffffffffffff19163373ffffffffffffffffffffffffffffffffffffffff167fc8b2a2dbd2bddf4ecc3e665d9828132a78820abf89df014d2ce4510f27a16061600036604051610198929190610767565b60405180910390a360006101aa6105c8565b905060006101b661063a565b60048101549091504281036101ca57505050565b60006101d682426107e3565b42600485018190556040519081529091507f7461750000000000000000000000000000000000000000000000000000000000907f16e9c051056ea742d289d2cb753372cf432f332213ecd495b26ea8f72e3cf2e09060200160405180910390a26007840154600284015461024b828285610670565b600787018190556040518181529092507f7061720000000000000000000000000000000000000000000000000000000000907f16e9c051056ea742d289d2cb753372cf432f332213ecd495b26ea8f72e3cf2e09060200160405180910390a26000806102b56106a5565b6001908101548854918901546040517f52ba849100000000000000000000000000000000000000000000000000000000815273ffffffffffffffffffffffffffffffffffffffff938416600482015260248101919091529116906352ba8491906044016040805180830381865afa158015610334573d6000803e3d6000fd5b505050506040513d601f19601f8201168201806040525081019061035891906107f6565b915091508042111561036e575050505050505050565b8382101561039957610392876005015461038d858a6003015489610670565b6106db565b92506103d0565b838211156103d0576103cd6103b188600501546106f4565b6103c8856103c28b600301546106f4565b89610670565b610712565b92505b600287018390556040518381527f7761790000000000000000000000000000000000000000000000000000000000907f16e9c051056ea742d289d2cb753372cf432f332213ecd495b26ea8f72e3cf2e09060200160405180910390a25050505050505050565b604080518082019091526000808252602082015261045261063a565b60408051808201909152815473ffffffffffffffffffffffffffffffffffffffff1681526001909101546020820152919050565b600061049061063a565b60050154905090565b60006104a361063a565b60030154905090565b60006104b661063a565b60020154905090565b600081801561059e57838015610593576001841680156104e1578593506104f1565b6b033b2e3c9fd0803ce800000093505b506002909304926b019d971e4fe8401e740000005b841561058d578586028660801c1561051d57600080fd5b8181018181101561052d57600080fd5b6b033b2e3c9fd0803ce80000009004965050600185161561058257858402848782041415871515161561055f57600080fd5b8181018181101561056f57600080fd5b6b033b2e3c9fd0803ce800000090049450505b600285049450610506565b50610598565b600092505b506105ae565b6b033b2e3c9fd0803ce800000091505b5092915050565b60006105bf61063a565b60040154905090565b6000807f7661742e300000000000000000000000000000000000000000000000000000006040516020016105fe91815260200190565b604080517fffffffffffffffffffffffffffffffffffffffffffffffffffffffffffffffe0818403018152919052805160209091012092915050565b6000807f766f782e300000000000000000000000000000000000000000000000000000006040516020016105fe91815260200190565b60006b033b2e3c9fd0803ce800000061068984846104bf565b610693908661081a565b61069d9190610831565b949350505050565b6000807f7269636f62616e6b2e30000000000000000000000000000000000000000000006040516020016105fe91815260200190565b6000818311156106eb57816106ed565b825b9392505050565b600061070c6b033b2e3c9fd0803ce800000083610722565b92915050565b6000818310156106eb57816106ed565b60008161073b6b033b2e3c9fd0803ce80000008561081a565b6106ed9190610831565b6000806040838503121561075857600080fd5b50508035926020909101359150565b60208152816020820152818360408301376000818301604090810191909152601f9092017fffffffffffffffffffffffffffffffffffffffffffffffffffffffffffffffe0160101919050565b7f4e487b7100000000000000000000000000000000000000000000000000000000600052601160045260246000fd5b8181038181111561070c5761070c6107b4565b6000806040838503121561080957600080fd5b505080516020909101519092909150565b808202811582820484141761070c5761070c6107b4565b600082610867577f4e487b7100000000000000000000000000000000000000000000000000000000600052601260045260246000fd5b50049056fea2646970667358221220d0db899425c1be6ffa28b70b19a9978ce7a084a1d758e3dd699ec5d7e7aab95864736f6c63430008130033608060405234801561001057600080fd5b50610b47806100206000396000f3fe608060405234801561001057600080fd5b506004361061004c5760003560e01c806306029ec2146100515780638f90719514610083578063e9b674b9146100a4578063eb666475146100b9575b600080fd5b6100596100c1565b60405173ffffffffffffffffffffffffffffffffffffffff90911681526020015b60405180910390f35b610096610091366004610aa2565b6100e7565b60405190815260200161007a565b6100b76100b2366004610aa2565b6101dd565b005b610059610965565b60006100cb61098e565b5473ffffffffffffffffffffffffffffffffffffffff16919050565b60008180156101c6578380156101bb5760018416801561010957859350610119565b6b033b2e3c9fd0803ce800000093505b506002909304926b019d971e4fe8401e740000005b84156101b5578586028660801c1561014557600080fd5b8181018181101561015557600080fd5b6b033b2e3c9fd0803ce8000000900496505060018516156101aa57858402848782041415871515161561018757600080fd5b8181018181101561019757600080fd5b6b033b2e3c9fd0803ce800000090049450505b60028504945061012e565b506101c0565b600092505b506101d6565b6b033b2e3c9fd0803ce800000091505b5092915050565b7f8a22373512790c48b83a1fe2efdd2888d4a917bcdc24d0adf63e60f6716804605473ffffffffffffffffffffffffffffffffffffffff163314610281576040517f08c379a000000000000000000000000000000000000000000000000000000000815260206004820152601d60248201527f4f776e61626c653a2073656e646572206d757374206265206f776e6572000000604482015260640160405180910390fd5b6000357fffffffff00000000000000000000000000000000000000000000000000000000167bffffffffffffffffffffffffffffffffffffffffffffffffffffffff19163373ffffffffffffffffffffffffffffffffffffffff167fc8b2a2dbd2bddf4ecc3e665d9828132a78820abf89df014d2ce4510f27a1606160003660405161030e929190610ac4565b60405180910390a36000610320610a00565b9050600061032c610a36565b90506000610338610a6c565b9050600061034461098e565b9050857f7269636f000000000000000000000000000000000000000000000000000000000361039e5780547fffffffffffffffffffffffff000000000000000000000000000000000000000016606086901c178155610923565b857f6662000000000000000000000000000000000000000000000000000000000000036103fa576001810180547fffffffffffffffffffffffff000000000000000000000000000000000000000016606087901c179055610923565b857f6365696c000000000000000000000000000000000000000000000000000000000361042d5760068401859055610923565b857f7061720000000000000000000000000000000000000000000000000000000000036104605760078401859055610923565b857f72656c0000000000000000000000000000000000000000000000000000000000036104935760018301859055610923565b857f62656c0000000000000000000000000000000000000000000000000000000000036104c65760028301859055610923565b857f63656c0000000000000000000000000000000000000000000000000000000000036104f95760038301859055610923565b857f77656c00000000000000000000000000000000000000000000000000000000000361056e57670de0b6b3a7640000851115610562576040517fd26c831b00000000000000000000000000000000000000000000000000000000815260040160405180910390fd5b60048301859055610923565b857f746f6c6c00000000000000000000000000000000000000000000000000000000036105e7576b033b2e3c9fd0803ce80000008511156105db576040517f487fe43c00000000000000000000000000000000000000000000000000000000815260040160405180910390fd5b60058301859055610923565b857f706c6f742e7065700000000000000000000000000000000000000000000000000361061a5760088301859055610923565b857f706c61742e7065700000000000000000000000000000000000000000000000000361064d5760068301859055610923565b857f706c6f742e706f70000000000000000000000000000000000000000000000000036106805760098301859055610923565b857f706c61742e706f70000000000000000000000000000000000000000000000000036106b35760078301859055610923565b857f727564642e7372630000000000000000000000000000000000000000000000000361070f57600a830180547fffffffffffffffffffffffff000000000000000000000000000000000000000016606087901c179055610923565b857f727564642e7461670000000000000000000000000000000000000000000000000361074257600b8301859055610923565b857f7269736b000000000000000000000000000000000000000000000000000000000361079a5782547fffffffffffffffffffffffff000000000000000000000000000000000000000016606086901c178355610923565b857f7469702e73726300000000000000000000000000000000000000000000000000036107f25781547fffffffffffffffffffffffff000000000000000000000000000000000000000016606086901c178255610923565b857f7469702e74616700000000000000000000000000000000000000000000000000036108255760018201859055610923565b857f686f770000000000000000000000000000000000000000000000000000000000036108585760038201859055610923565b857f63617000000000000000000000000000000000000000000000000000000000000361088b5760058201859055610923565b857f7461750000000000000000000000000000000000000000000000000000000000036108be5760048201859055610923565b857f7761790000000000000000000000000000000000000000000000000000000000036108f15760028201859055610923565b6040517f0b84bcb500000000000000000000000000000000000000000000000000000000815260040160405180910390fd5b857f16e9c051056ea742d289d2cb753372cf432f332213ecd495b26ea8f72e3cf2e08660405161095591815260200190565b60405180910390a2505050505050565b600061096f61098e565b6001015473ffffffffffffffffffffffffffffffffffffffff16919050565b6000807f7269636f62616e6b2e30000000000000000000000000000000000000000000006040516020016109c491815260200190565b604080517fffffffffffffffffffffffffffffffffffffffffffffffffffffffffffffffe0818403018152919052805160209091012092915050565b6000807f7661742e300000000000000000000000000000000000000000000000000000006040516020016109c491815260200190565b6000807f766f772e300000000000000000000000000000000000000000000000000000006040516020016109c491815260200190565b6000807f766f782e300000000000000000000000000000000000000000000000000000006040516020016109c491815260200190565b60008060408385031215610ab557600080fd5b50508035926020909101359150565b60208152816020820152818360408301376000818301604090810191909152601f9092017fffffffffffffffffffffffffffffffffffffffffffffffffffffffffffffffe016010191905056fea26469706673582212201200785634cc4c72566d6b0a11c79e117db83f34a596045f9aca3bdd5746c8cb64736f6c63430008130033608060405234801561001057600080fd5b506117e9806100206000396000f3fe608060405234801561001057600080fd5b506004361061007d5760003560e01c8063ad9ff9ba1161005b578063ad9ff9ba146100eb578063d09e623f1461010b578063d50203e21461011e578063ffe567e81461014157600080fd5b8063238131ef1461008257806381560b88146100b55780638f907195146100ca575b600080fd5b6100956100903660046113cb565b610154565b604080519384526020840192909252908201526060015b60405180910390f35b6100c86100c3366004611443565b610298565b005b6100dd6100d836600461149e565b6104a7565b6040519081526020016100ac565b6100fe6100f93660046114c0565b61059d565b6040516100ac91906114d8565b6100dd610119366004611544565b6109ba565b61013161012c366004611597565b610b4b565b60405190151581526020016100ac565b6100fe61014f3660046113cb565b611023565b60008060008061016386611074565b90506000806101706110c7565b60010154600284015460038501546040517f52ba849100000000000000000000000000000000000000000000000000000000815273ffffffffffffffffffffffffffffffffffffffff928316600482015260248101919091529116906352ba8491906044016040805180830381865afa1580156101f1573d6000803e3d6000fd5b505050506040513d601f19601f8201168201806040525081019061021591906115d2565b73ffffffffffffffffffffffffffffffffffffffff8916600090815260208690526040902054919350915061024a9083611625565b73ffffffffffffffffffffffffffffffffffffffff8816600090815260208590526040902054600685015491975061028191611139565b61028b9083611625565b9598959750955050505050565b60006102a385611074565b9050600083900361043257857f67656d00000000000000000000000000000000000000000000000000000000000361030a576001810180547fffffffffffffffffffffffff000000000000000000000000000000000000000016606084901c179055610464565b857f737263000000000000000000000000000000000000000000000000000000000003610366576002810180547fffffffffffffffffffffffff000000000000000000000000000000000000000016606084901c179055610464565b857f7461670000000000000000000000000000000000000000000000000000000000036103995760038101829055610464565b857f6c69717200000000000000000000000000000000000000000000000000000000036103cc5760068101829055610464565b857f7065700000000000000000000000000000000000000000000000000000000000036103ff5760048101829055610464565b857f706f700000000000000000000000000000000000000000000000000000000000036104325760058101829055610464565b6040517f0b84bcb500000000000000000000000000000000000000000000000000000000815260040160405180910390fd5b84867fa6a62c84c48e7b9441c54da7ead6df8213afddbc24649e1f6b88294160ef069f8460405161049791815260200190565b60405180910390a3505050505050565b60008180156105865783801561057b576001841680156104c9578593506104d9565b6b033b2e3c9fd0803ce800000093505b506002909304926b019d971e4fe8401e740000005b8415610575578586028660801c1561050557600080fd5b8181018181101561051557600080fd5b6b033b2e3c9fd0803ce80000009004965050600185161561056a57858402848782041415871515161561054757600080fd5b8181018181101561055757600080fd5b6b033b2e3c9fd0803ce800000090049450505b6002850494506104ee565b50610580565b600092505b50610596565b6b033b2e3c9fd0803ce800000091505b5092915050565b606060006105ab8335611074565b9050600081816105c1604087016020880161163c565b73ffffffffffffffffffffffffffffffffffffffff168152602081019190915260400160009081205491506106306106096b033b2e3c9fd0803ce800000060c0880135611657565b61062b6106218860a0013587600401600001546104a7565b6005870154611163565b611163565b90508460400135811115610660578061064d604087013584611625565b6106579190611657565b91505060408401355b6106728535826060880135600061117c565b600082848261068760408a0160208b0161163c565b73ffffffffffffffffffffffffffffffffffffffff1673ffffffffffffffffffffffffffffffffffffffff168152602001908152602001600020546106cc9190611692565b9050808460006106e260408a0160208b0161163c565b73ffffffffffffffffffffffffffffffffffffffff1673ffffffffffffffffffffffffffffffffffffffff16815260200190815260200160002081905550856020016020810190610733919061163c565b60601b6bffffffffffffffffffffffff191686600001357f696e6b00000000000000000000000000000000000000000000000000000000007f4748c91b9d8e8f630aac18a71e9a654635e4de6a3df78d0471239f72d951b8928460405160200161079f91815260200190565b604080517fffffffffffffffffffffffffffffffffffffffffffffffffffffffffffffffe0818403018152908290526107d7916114d8565b60405180910390a46107e76110c7565b5473ffffffffffffffffffffffffffffffffffffffff16639dc29fac61081360a0890160808a0161163c565b6040517fffffffff0000000000000000000000000000000000000000000000000000000060e084901b16815273ffffffffffffffffffffffffffffffffffffffff909116600482015260248101859052604401600060405180830381600087803b15801561088057600080fd5b505af1158015610894573d6000803e3d6000fd5b50505050600184015473ffffffffffffffffffffffffffffffffffffffff1663a9059cbb6108c860a0890160808a0161163c565b6040517fffffffff0000000000000000000000000000000000000000000000000000000060e084901b16815273ffffffffffffffffffffffffffffffffffffffff9091166004820152602481018690526044016020604051808303816000875af115801561093a573d6000803e3d6000fd5b505050506040513d601f19601f8201168201806040525081019061095e91906116a5565b610994576040517fba83c1af00000000000000000000000000000000000000000000000000000000815260040160405180910390fd5b604080516020810185905201604051602081830303815290604052945050505050919050565b6000806109c685611074565b9050600083900361043257857f67656d000000000000000000000000000000000000000000000000000000000003610a28576001015460601b7fffffffffffffffffffffffffffffffffffffffff000000000000000000000000169050610b43565b857f737263000000000000000000000000000000000000000000000000000000000003610a7f576002015460601b7fffffffffffffffffffffffffffffffffffffffff000000000000000000000000169050610b43565b857f746167000000000000000000000000000000000000000000000000000000000003610ab157600301549050610b43565b857f6c6971720000000000000000000000000000000000000000000000000000000003610ae357600601549050610b43565b857f706570000000000000000000000000000000000000000000000000000000000003610b1557600401549050610b43565b857f706f70000000000000000000000000000000000000000000000000000000000003610432576005015490505b949350505050565b600080610b5b8360200135611074565b90506000610b6c60608501856116c7565b9050600003610b7d57506000610be2565b610b8a60608501856116c7565b9050602003610bb057610ba060608501856116c7565b610ba99161172c565b9050610be2565b6040517f7fa4063700000000000000000000000000000000000000000000000000000000815260040160405180910390fd5b60008112158015610bf857506000846080013513155b925082158015610c4f5750610c10602085018561163c565b73ffffffffffffffffffffffffffffffffffffffff16610c36606086016040870161163c565b73ffffffffffffffffffffffffffffffffffffffff1614155b15610c86576040517ff31e962a00000000000000000000000000000000000000000000000000000000815260040160405180910390fd5b6000610cde8382610c9d6060890160408a0161163c565b73ffffffffffffffffffffffffffffffffffffffff1673ffffffffffffffffffffffffffffffffffffffff16815260200190815260200160002054836112d5565b905080836000610cf46060890160408a0161163c565b73ffffffffffffffffffffffffffffffffffffffff1673ffffffffffffffffffffffffffffffffffffffff16815260200190815260200160002081905550846040016020810190610d45919061163c565b60601b6bffffffffffffffffffffffff191685602001357f696e6b00000000000000000000000000000000000000000000000000000000007f4748c91b9d8e8f630aac18a71e9a654635e4de6a3df78d0471239f72d951b89284604051602001610db191815260200190565b604080517fffffffffffffffffffffffffffffffffffffffffffffffffffffffffffffffe081840301815290829052610de9916114d8565b60405180910390a4600183015473ffffffffffffffffffffffffffffffffffffffff166000831315610f155773ffffffffffffffffffffffffffffffffffffffff81166323b872dd610e3e602089018961163c565b6040517fffffffff0000000000000000000000000000000000000000000000000000000060e084901b16815273ffffffffffffffffffffffffffffffffffffffff9091166004820152306024820152604481018690526064016020604051808303816000875af1158015610eb6573d6000803e3d6000fd5b505050506040513d601f19601f82011682018060405250810190610eda91906116a5565b610f10576040517fba83c1af00000000000000000000000000000000000000000000000000000000815260040160405180910390fd5b61101a565b600083121561101a5773ffffffffffffffffffffffffffffffffffffffff811663a9059cbb610f47602089018961163c565b610f5086611768565b6040517fffffffff0000000000000000000000000000000000000000000000000000000060e085901b16815273ffffffffffffffffffffffffffffffffffffffff909216600483015260248201526044016020604051808303816000875af1158015610fc0573d6000803e3d6000fd5b505050506040513d601f19601f82011682018060405250810190610fe491906116a5565b61101a576040517fba83c1af00000000000000000000000000000000000000000000000000000000815260040160405180910390fd5b50505050919050565b606061102e83611074565b73ffffffffffffffffffffffffffffffffffffffff8316600090815260209182526040908190205481519283015201604051602081830303815290604052905092915050565b6000808260405160200161108a91815260200190565b604080517fffffffffffffffffffffffffffffffffffffffffffffffffffffffffffffffe081840301815291905280516020909101209392505050565b6000807f7269636f62616e6b2e30000000000000000000000000000000000000000000006040516020016110fd91815260200190565b604080517fffffffffffffffffffffffffffffffffffffffffffffffffffffffffffffffe0818403018152919052805160209091012092915050565b6000816111526b033b2e3c9fd0803ce800000085611625565b61115c9190611657565b9392505050565b60006b033b2e3c9fd0803ce80000006111528385611625565b600061118661136c565b90508284101561125157600085815260208290526040812060020154906111ad8686611692565b6111c3906b033b2e3c9fd0803ce8000000611625565b905060008282116111dd576111d88284611692565b6111e0565b60005b60008981526020868152604091829020600201839055905182815291925089917f6c696e6500000000000000000000000000000000000000000000000000000000917fa6a62c84c48e7b9441c54da7ead6df8213afddbc24649e1f6b88294160ef069f910160405180910390a35050505b60008285836002015461126491906117a0565b61126e9190611692565b600283018190556040518181529091507f6a6f790000000000000000000000000000000000000000000000000000000000907f16e9c051056ea742d289d2cb753372cf432f332213ecd495b26ea8f72e3cf2e09060200160405180910390a2505050505050565b8181016000821380156112e85750828111155b1561131f576040517fcdc2bcd700000000000000000000000000000000000000000000000000000000815260040160405180910390fd5b60008212801561132f5750828110155b15611366576040517f9666073c00000000000000000000000000000000000000000000000000000000815260040160405180910390fd5b92915050565b6000807f7661742e300000000000000000000000000000000000000000000000000000006040516020016110fd91815260200190565b803573ffffffffffffffffffffffffffffffffffffffff811681146113c657600080fd5b919050565b600080604083850312156113de57600080fd5b823591506113ee602084016113a2565b90509250929050565b60008083601f84011261140957600080fd5b50813567ffffffffffffffff81111561142157600080fd5b6020830191508360208260051b850101111561143c57600080fd5b9250929050565b60008060008060006080868803121561145b57600080fd5b8535945060208601359350604086013567ffffffffffffffff81111561148057600080fd5b61148c888289016113f7565b96999598509660600135949350505050565b600080604083850312156114b157600080fd5b50508035926020909101359150565b600060e082840312156114d257600080fd5b50919050565b600060208083528351808285015260005b81811015611505578581018301518582016040015282016114e9565b5060006040828601015260407fffffffffffffffffffffffffffffffffffffffffffffffffffffffffffffffe0601f8301168501019250505092915050565b6000806000806060858703121561155a57600080fd5b8435935060208501359250604085013567ffffffffffffffff81111561157f57600080fd5b61158b878288016113f7565b95989497509550505050565b6000602082840312156115a957600080fd5b813567ffffffffffffffff8111156115c057600080fd5b820160a0818503121561115c57600080fd5b600080604083850312156115e557600080fd5b505080516020909101519092909150565b7f4e487b7100000000000000000000000000000000000000000000000000000000600052601160045260246000fd5b8082028115828204841417611366576113666115f6565b60006020828403121561164e57600080fd5b61115c826113a2565b60008261168d577f4e487b7100000000000000000000000000000000000000000000000000000000600052601260045260246000fd5b500490565b81810381811115611366576113666115f6565b6000602082840312156116b757600080fd5b8151801515811461115c57600080fd5b60008083357fffffffffffffffffffffffffffffffffffffffffffffffffffffffffffffffe18436030181126116fc57600080fd5b83018035915067ffffffffffffffff82111561171757600080fd5b60200191503681900382131561143c57600080fd5b80356020831015611366577fffffffffffffffffffffffffffffffffffffffffffffffffffffffffffffffff602084900360031b1b1692915050565b60007f80000000000000000000000000000000000000000000000000000000000000008203611799576117996115f6565b5060000390565b80820180821115611366576113666115f656fea26469706673582212202412330c780e17b81c7db89333c2a264a684de1b532c2bbffb997f7e344d088464736f6c63430008130033608060405234801561001057600080fd5b506125f0806100206000396000f3fe608060405234801561001057600080fd5b506004361061007d5760003560e01c8063ad9ff9ba1161005b578063ad9ff9ba146100eb578063d09e623f1461010b578063d50203e21461011e578063ffe567e81461014157600080fd5b8063238131ef1461008257806381560b88146100b55780638f907195146100ca575b600080fd5b610095610090366004611e9d565b610154565b604080519384526020840192909252908201526060015b60405180910390f35b6100c86100c3366004611f19565b610454565b005b6100dd6100d8366004611f74565b6107dd565b6040519081526020016100ac565b6100fe6100f9366004611f96565b6108d3565b6040516100ac9190611fae565b6100dd61011936600461201a565b610d90565b61013161012c36600461206d565b611040565b60405190151581526020016100ac565b6100fe61014f366004611e9d565b61176f565b6000806000806101626117e2565b6001015473ffffffffffffffffffffffffffffffffffffffff169050600061018987611854565b73ffffffffffffffffffffffffffffffffffffffff8716600090815260018201602052604081207fffffffffffffffffffffffffffffffffffffffffffffffffffffffffffffffff955091925080805b835481101561044757600061020a8583815481106101f9576101f96120a8565b9060005260206000200154876118a7565b805173ffffffffffffffffffffffffffffffffffffffff908116600090815260208981526040808320918501519093168252918120600280840154908201549495509293909261025991611c4d565b835460018501546040517f52ba849100000000000000000000000000000000000000000000000000000000815273ffffffffffffffffffffffffffffffffffffffff928316600482015260248101919091529192508b16906352ba8491906044016040805180830381865afa1580156102d6573d6000803e3d6000fd5b505050506040513d601f19601f820116820180604052508101906102fa91906120d7565b6040860151909c5090965061031090879061212a565b61031a908e612141565b9c506103268682611c66565b8460400151610335919061212a565b61033f908d612141565b825460018401546040517f52ba849100000000000000000000000000000000000000000000000000000000815273ffffffffffffffffffffffffffffffffffffffff92831660048201526024810191909152919d508b16906352ba8491906044016040805180830381865afa1580156103bc573d6000803e3d6000fd5b505050506040513d601f19601f820116820180604052508101906103e091906120d7565b975095506103ee8b88611c89565b6060850151909b5061040190879061212a565b61040b908e612141565b9c506104178682611c66565b8460600151610426919061212a565b610430908d612141565b9b50505050508061044090612154565b90506101d9565b5050505050509250925092565b600061045f85611854565b9050600083900361062d57857f6e66706d00000000000000000000000000000000000000000000000000000000036104c6576003810180547fffffffffffffffffffffffff000000000000000000000000000000000000000016606084901c1790556105ed565b857f726f6f6d00000000000000000000000000000000000000000000000000000000036104f957600481018290556105ed565b857f777261700000000000000000000000000000000000000000000000000000000003610555576002810180547fffffffffffffffffffffffff000000000000000000000000000000000000000016606084901c1790556105ed565b857f70657000000000000000000000000000000000000000000000000000000000000361058857600581018290556105ed565b857f706f700000000000000000000000000000000000000000000000000000000000036105bb57600681018290556105ed565b6040517f0b84bcb500000000000000000000000000000000000000000000000000000000815260040160405180910390fd5b84867fa6a62c84c48e7b9441c54da7ead6df8213afddbc24649e1f6b88294160ef069f8460405161062091815260200190565b60405180910390a36107d5565b60018390036105bb5760008484600081811061064b5761064b6120a8565b9050602002013560601c9050867f7372630000000000000000000000000000000000000000000000000000000000036106d45773ffffffffffffffffffffffffffffffffffffffff8116600090815260208390526040902080547fffffffffffffffffffffffff000000000000000000000000000000000000000016606085901c17905561077e565b867f74616700000000000000000000000000000000000000000000000000000000000361072b5773ffffffffffffffffffffffffffffffffffffffff8116600090815260208390526040902060010183905561077e565b867f6c69717200000000000000000000000000000000000000000000000000000000036105bb5773ffffffffffffffffffffffffffffffffffffffff811660009081526020839052604090206002018390555b84846000818110610791576107916120a8565b9050602002013586887f82bcec2bd7095ddf55d9a6327af92ab6ed14951aa1a7cce10fdfe691bb3cbed8866040516107cb91815260200190565b60405180910390a4505b505050505050565b60008180156108bc578380156108b1576001841680156107ff5785935061080f565b6b033b2e3c9fd0803ce800000093505b506002909304926b019d971e4fe8401e740000005b84156108ab578586028660801c1561083b57600080fd5b8181018181101561084b57600080fd5b6b033b2e3c9fd0803ce8000000900496505060018516156108a057858402848782041415871515161561087d57600080fd5b8181018181101561088d57600080fd5b6b033b2e3c9fd0803ce800000090049450505b600285049450610824565b506108b6565b600092505b506108cc565b6b033b2e3c9fd0803ce800000091505b5092915050565b606060006108e18335611854565b9050600060018201816108fa604087016020880161218c565b73ffffffffffffffffffffffffffffffffffffffff1673ffffffffffffffffffffffffffffffffffffffff16815260200190815260200160002080548060200260200160405190810160405280929190818152602001828054801561097e57602002820191906000526020600020905b81548152602001906001019080831161096a575b5050505050905081600101600085602001602081019061099e919061218c565b73ffffffffffffffffffffffffffffffffffffffff1673ffffffffffffffffffffffffffffffffffffffff16815260200190815260200160002060006109e49190611e41565b6109f4604085016020860161218c565b60601b6bffffffffffffffffffffffff191684600001357f696e6b00000000000000000000000000000000000000000000000000000000007f4748c91b9d8e8f630aac18a71e9a654635e4de6a3df78d0471239f72d951b89260405180602001604052806000815250604051610a6a9190611fae565b60405180910390a46000610ab8610a916b033b2e3c9fd0803ce800000060c08801356121d8565b610ab3610aa98860a0013587600501600001546107dd565b6006870154611c99565b611c99565b90506000610ac46117e2565b5473ffffffffffffffffffffffffffffffffffffffff16905080639dc29fac610af360a0890160808a0161218c565b6040517fffffffff0000000000000000000000000000000000000000000000000000000060e084901b16815273ffffffffffffffffffffffffffffffffffffffff909116600482015260248101859052604401600060405180830381600087803b158015610b6057600080fd5b505af1158015610b74573d6000803e3d6000fd5b50505050600086604001358311610b8c576000610b9a565b610b9a6040880135846121ec565b90508015610c545773ffffffffffffffffffffffffffffffffffffffff82166340c10f19610bce60408a0160208b0161218c565b6040517fffffffff0000000000000000000000000000000000000000000000000000000060e084901b16815273ffffffffffffffffffffffffffffffffffffffff909116600482015260248101849052604401600060405180830381600087803b158015610c3b57600080fd5b505af1158015610c4f573d6000803e3d6000fd5b505050505b610c6587358460608a013584611cb2565b835160005b6000868281518110610c7e57610c7e6120a8565b6020908102919091010151600389015490915073ffffffffffffffffffffffffffffffffffffffff166323b872dd30610cbd60a08e0160808f0161218c565b6040517fffffffff0000000000000000000000000000000000000000000000000000000060e085901b16815273ffffffffffffffffffffffffffffffffffffffff92831660048201529116602482015260448101849052606401600060405180830381600087803b158015610d3157600080fd5b505af1158015610d45573d6000803e3d6000fd5b50506001909301925050828210610d5c5750610d62565b50610c6a565b85604051602001610d7391906121ff565b604051602081830303815290604052975050505050505050919050565b600080610d9c85611854565b90506000839003610eeb57857f6e66706d0000000000000000000000000000000000000000000000000000000003610dfe576003015460601b7fffffffffffffffffffffffffffffffffffffffff000000000000000000000000169050611038565b857f726f6f6d0000000000000000000000000000000000000000000000000000000003610e3057600401549050611038565b857f777261700000000000000000000000000000000000000000000000000000000003610e87576002015460601b7fffffffffffffffffffffffffffffffffffffffff000000000000000000000000169050611038565b857f706570000000000000000000000000000000000000000000000000000000000003610eb957600501549050611038565b857f706f700000000000000000000000000000000000000000000000000000000000036105bb57600601549050611038565b60018390036105bb57600084846000818110610f0957610f096120a8565b9050602002013560601c9050867f737263000000000000000000000000000000000000000000000000000000000003610f8e5773ffffffffffffffffffffffffffffffffffffffff166000908152602091909152604090205460601b7fffffffffffffffffffffffffffffffffffffffff000000000000000000000000169050611038565b867f746167000000000000000000000000000000000000000000000000000000000003610fe55773ffffffffffffffffffffffffffffffffffffffff16600090815260209190915260409020600101549050611038565b867f6c69717200000000000000000000000000000000000000000000000000000000036105bb5773ffffffffffffffffffffffffffffffffffffffff166000908152602091909152604090206002015490505b949350505050565b6000806110508360200135611854565b905060006001820181611069606087016040880161218c565b73ffffffffffffffffffffffffffffffffffffffff168152602080820192909252604001600020915061109f6060860186612235565b6110aa92915061229a565b156110e1576040517fcdc9cb7d00000000000000000000000000000000000000000000000000000000815260040160405180910390fd5b60006110f06060860186612235565b159050611121576111046060860186612235565b611113916020916000916122ae565b61111c916122d8565b611124565b60015b90506001811415801561115757507fffffffffffffffffffffffffffffffffffffffffffffffffffffffffffffffff8114155b1561118e576040517f80e0647700000000000000000000000000000000000000000000000000000000815260040160405180910390fd5b7fffffffffffffffffffffffffffffffffffffffffffffffffffffffffffffffff8114806111c0575060008560800135135b801561121357506111d4602086018661218c565b73ffffffffffffffffffffffffffffffffffffffff166111fa606087016040880161218c565b73ffffffffffffffffffffffffffffffffffffffff1614155b1561124a576040517ff31e962a00000000000000000000000000000000000000000000000000000000815260040160405180910390fd5b600181036113d057600060808601351315935060205b61126d6060870187612235565b90508110156113ca5760006112856060880188612235565b8390611292826020612141565b9261129f939291906122ae565b6112a8916122d8565b600386015490915073ffffffffffffffffffffffffffffffffffffffff166323b872dd6112d860208a018a61218c565b6040517fffffffff0000000000000000000000000000000000000000000000000000000060e084901b16815273ffffffffffffffffffffffffffffffffffffffff909116600482015230602482015260448101849052606401600060405180830381600087803b15801561134b57600080fd5b505af115801561135f573d6000803e3d6000fd5b505085546001810187556000878152602090200183905550506004850154845411156113b7576040517f919ec7b600000000000000000000000000000000000000000000000000000000815260040160405180910390fd5b506113c3602082612141565b9050611260565b506116ad565b81546020806113e26060890189612235565b6113ed9291506121ec565b6113f791906121d8565b111561142f576040517fcdc9cb7d00000000000000000000000000000000000000000000000000000000815260040160405180910390fd5b60205b61143f6060870187612235565b905081101561158a5760006114576060880188612235565b8390611464826020612141565b92611471939291906122ae565b61147a916122d8565b90506000805b855481101561153d57600086828154811061149d5761149d6120a8565b906000526020600020015490508381149250821561152c57865487906114c5906001906121ec565b815481106114d5576114d56120a8565b90600052602060002001548783815481106114f2576114f26120a8565b90600052602060002001819055508680548061151057611510612314565b600190038181906000526020600020016000905590555061153d565b5061153681612154565b9050611480565b5080611575576040517fae9a63f500000000000000000000000000000000000000000000000000000000815260040160405180910390fd5b506115839050602082612141565b9050611432565b5060205b61159b6060870187612235565b90508110156116ab5760006115b36060880188612235565b83906115c0826020612141565b926115cd939291906122ae565b6115d6916122d8565b600386015490915073ffffffffffffffffffffffffffffffffffffffff166323b872dd3061160a60608b0160408c0161218c565b6040517fffffffff0000000000000000000000000000000000000000000000000000000060e085901b16815273ffffffffffffffffffffffffffffffffffffffff92831660048201529116602482015260448101849052606401600060405180830381600087803b15801561167e57600080fd5b505af1158015611692573d6000803e3d6000fd5b50505050506020816116a49190612141565b905061158e565b505b6116bd606086016040870161218c565b60601b6bffffffffffffffffffffffff191685602001357f696e6b00000000000000000000000000000000000000000000000000000000007f4748c91b9d8e8f630aac18a71e9a654635e4de6a3df78d0471239f72d951b892856040516020016117279190612343565b604080517fffffffffffffffffffffffffffffffffffffffffffffffffffffffffffffffe08184030181529082905261175f91611fae565b60405180910390a4505050919050565b606061177a83611854565b60010160008373ffffffffffffffffffffffffffffffffffffffff1673ffffffffffffffffffffffffffffffffffffffff1681526020019081526020016000206040516020016117ca9190612374565b60405160208183030381529060405290505b92915050565b6000807f7269636f62616e6b2e300000000000000000000000000000000000000000000060405160200161181891815260200190565b604080517fffffffffffffffffffffffffffffffffffffffffffffffffffffffffffffffe0818403018152919052805160209091012092915050565b6000808260405160200161186a91815260200190565b604080517fffffffffffffffffffffffffffffffffffffffffffffffffffffffffffffffe081840301815291905280516020909101209392505050565b604080516080810182526000808252602082018190529181018290526060810191909152604080516080810182526000808252602082018190529181018290526060810191909152600383015460028401546040517f99fbab880000000000000000000000000000000000000000000000000000000081526004810187905260009273ffffffffffffffffffffffffffffffffffffffff90811692169082906399fbab889060240161018060405180830381865afa15801561196d573d6000803e3d6000fd5b505050506040513d601f19601f820116820180604052508101906119919190612410565b50505073ffffffffffffffffffffffffffffffffffffffff9586166020808f01919091529686168d525050604080517fc45a01550000000000000000000000000000000000000000000000000000000081529051939a50600097508885169650638716c5ff95948a169463c45a01559460048084019550919350918290030181865afa158015611a25573d6000803e3d6000fd5b505050506040513d601f19601f82011682018060405250810190611a4991906124f1565b8751602089015160405160e085901b7fffffffff0000000000000000000000000000000000000000000000000000000016815273ffffffffffffffffffffffffffffffffffffffff9384166004820152918316602483015291909116604482015262ffffff87166064820152608401602060405180830381865afa158015611ad5573d6000803e3d6000fd5b505050506040513d601f19601f82011682018060405250810190611af991906124f1565b905060008173ffffffffffffffffffffffffffffffffffffffff16633850c7bd6040518163ffffffff1660e01b815260040160e060405180830381865afa158015611b48573d6000803e3d6000fd5b505050506040513d601f19601f82011682018060405250810190611b6c9190612520565b50506040517f5b6dc0920000000000000000000000000000000000000000000000000000000081529495505073ffffffffffffffffffffffffffffffffffffffff871693635b6dc0929350611bf692508891508d90869060040173ffffffffffffffffffffffffffffffffffffffff93841681526020810192909252909116604082015260600190565b6040805180830381865afa158015611c12573d6000803e3d6000fd5b505050506040513d601f19601f82011682018060405250810190611c3691906120d7565b606088015260408701525093979650505050505050565b600081831015611c5d5781611c5f565b825b9392505050565b600081611c7f6b033b2e3c9fd0803ce80000008561212a565b611c5f91906121d8565b600081831115611c5d5781611c5f565b60006b033b2e3c9fd0803ce8000000611c7f838561212a565b6000611cbc611e0b565b905082841015611d875760008581526020829052604081206002015490611ce386866121ec565b611cf9906b033b2e3c9fd0803ce800000061212a565b90506000828211611d1357611d0e82846121ec565b611d16565b60005b60008981526020868152604091829020600201839055905182815291925089917f6c696e6500000000000000000000000000000000000000000000000000000000917fa6a62c84c48e7b9441c54da7ead6df8213afddbc24649e1f6b88294160ef069f910160405180910390a35050505b600082858360020154611d9a9190612141565b611da491906121ec565b600283018190556040518181529091507f6a6f790000000000000000000000000000000000000000000000000000000000907f16e9c051056ea742d289d2cb753372cf432f332213ecd495b26ea8f72e3cf2e09060200160405180910390a2505050505050565b6000807f7661742e3000000000000000000000000000000000000000000000000000000060405160200161181891815260200190565b5080546000825590600052602060002090810190611e5f9190611e62565b50565b5b80821115611e775760008155600101611e63565b5090565b73ffffffffffffffffffffffffffffffffffffffff81168114611e5f57600080fd5b60008060408385031215611eb057600080fd5b823591506020830135611ec281611e7b565b809150509250929050565b60008083601f840112611edf57600080fd5b50813567ffffffffffffffff811115611ef757600080fd5b6020830191508360208260051b8501011115611f1257600080fd5b9250929050565b600080600080600060808688031215611f3157600080fd5b8535945060208601359350604086013567ffffffffffffffff811115611f5657600080fd5b611f6288828901611ecd565b96999598509660600135949350505050565b60008060408385031215611f8757600080fd5b50508035926020909101359150565b600060e08284031215611fa857600080fd5b50919050565b600060208083528351808285015260005b81811015611fdb57858101830151858201604001528201611fbf565b5060006040828601015260407fffffffffffffffffffffffffffffffffffffffffffffffffffffffffffffffe0601f8301168501019250505092915050565b6000806000806060858703121561203057600080fd5b8435935060208501359250604085013567ffffffffffffffff81111561205557600080fd5b61206187828801611ecd565b95989497509550505050565b60006020828403121561207f57600080fd5b813567ffffffffffffffff81111561209657600080fd5b820160a08185031215611c5f57600080fd5b7f4e487b7100000000000000000000000000000000000000000000000000000000600052603260045260246000fd5b600080604083850312156120ea57600080fd5b505080516020909101519092909150565b7f4e487b7100000000000000000000000000000000000000000000000000000000600052601160045260246000fd5b80820281158282048414176117dc576117dc6120fb565b808201808211156117dc576117dc6120fb565b60007fffffffffffffffffffffffffffffffffffffffffffffffffffffffffffffffff8203612185576121856120fb565b5060010190565b60006020828403121561219e57600080fd5b8135611c5f81611e7b565b7f4e487b7100000000000000000000000000000000000000000000000000000000600052601260045260246000fd5b6000826121e7576121e76121a9565b500490565b818103818111156117dc576117dc6120fb565b815160009082906020808601845b838110156122295781518552938201939082019060010161220d565b50929695505050505050565b60008083357fffffffffffffffffffffffffffffffffffffffffffffffffffffffffffffffe184360301811261226a57600080fd5b83018035915067ffffffffffffffff82111561228557600080fd5b602001915036819003821315611f1257600080fd5b6000826122a9576122a96121a9565b500690565b600080858511156122be57600080fd5b838611156122cb57600080fd5b5050820193919092039150565b803560208310156117dc577fffffffffffffffffffffffffffffffffffffffffffffffffffffffffffffffff602084900360031b1b1692915050565b7f4e487b7100000000000000000000000000000000000000000000000000000000600052603160045260246000fd5b60008183548391508460005260208060002060005b8381101561222957815485529382019360019182019101612358565b6020808252825482820181905260008481528281209092916040850190845b818110156123af57835483526001938401939285019201612393565b50909695505050505050565b80516123c681611e7b565b919050565b805162ffffff811681146123c657600080fd5b8051600281900b81146123c657600080fd5b80516fffffffffffffffffffffffffffffffff811681146123c657600080fd5b6000806000806000806000806000806000806101808d8f03121561243357600080fd5b8c516bffffffffffffffffffffffff8116811461244f57600080fd5b9b5061245d60208e016123bb565b9a5061246b60408e016123bb565b995061247960608e016123bb565b985061248760808e016123cb565b975061249560a08e016123de565b96506124a360c08e016123de565b95506124b160e08e016123f0565b94506101008d015193506101208d015192506124d06101408e016123f0565b91506124df6101608e016123f0565b90509295989b509295989b509295989b565b60006020828403121561250357600080fd5b8151611c5f81611e7b565b805161ffff811681146123c657600080fd5b600080600080600080600060e0888a03121561253b57600080fd5b875161254681611e7b565b9650612554602089016123de565b95506125626040890161250e565b94506125706060890161250e565b935061257e6080890161250e565b925060a088015160ff8116811461259457600080fd5b60c089015190925080151581146125aa57600080fd5b809150509295989194975092955056fea264697066735822122080c2a76f9da7981d727784f9c7bf5c719f2832679a21f61d824a8e61cd4ee46764736f6c6343000813003360a060405234801561001057600080fd5b5060405161114e38038061114e83398101604081905261002f91610091565b3360008181526020818152604091829020805460ff19166001908117909155915191825230917f353b799ee5ce93aec9eee231e1301e94df3270c64f0dd606ea6823532e1d0b5d910160405180910390a36001600160a01b03166080526100c1565b6000602082840312156100a357600080fd5b81516001600160a01b03811681146100ba57600080fd5b9392505050565b6080516110646100ea60003960008181610131015281816102e601526105eb01526110646000f3fe608060405234801561001057600080fd5b506004361061007d5760003560e01c8063a7b97e601161005b578063a7b97e60146100d3578063bdf86a66146100e6578063bf353dbb146100f9578063c26a51661461012c57600080fd5b80631504460f146100825780636dd5b69d14610097578063a0628a0c146100c0575b600080fd5b610095610090366004610aee565b610178565b005b6100aa6100a5366004610aee565b610665565b6040516100b79190610b07565b60405180910390f35b6100956100ce366004610bdc565b610772565b6100956100e1366004610c4f565b610864565b6100956100f4366004610c82565b610984565b61011c610107366004610c82565b60006020819052908152604090205460ff1681565b60405190151581526020016100b7565b6101537f000000000000000000000000000000000000000000000000000000000000000081565b60405173ffffffffffffffffffffffffffffffffffffffff90911681526020016100b7565b6000818152600160205260408120805490918190036101c3576040517fe3fdb44e00000000000000000000000000000000000000000000000000000000815260040160405180910390fd5b60008167ffffffffffffffff8111156101de576101de610ca6565b604051908082528060200260200182016040528015610207578160200160208202803683370190505b5090507fffffffffffffffffffffffffffffffffffffffffffffffffffffffffffffffff6000805b848110156104a257600086600001828154811061024e5761024e610cd5565b600091825260208220015460018901805473ffffffffffffffffffffffffffffffffffffffff9092169350908490811061028a5761028a610cd5565b60009182526020822001546040517f52ba849100000000000000000000000000000000000000000000000000000000815273ffffffffffffffffffffffffffffffffffffffff85811660048301526024820183905291935082917f000000000000000000000000000000000000000000000000000000000000000016906352ba8491906044016040805180830381865afa15801561032c573d6000803e3d6000fd5b505050506040513d601f19601f820116820180604052508101906103509190610d04565b91509150804211156103655750505050610490565b851580610395575087610379600188610d57565b8151811061038957610389610cd5565b60200260200101518210155b156103be57818887815181106103ad576103ad610cd5565b602002602001018181525050610472565b60005b8881815181106103d3576103d3610cd5565b602002602001015183106103f357806103eb81610d70565b9150506103c1565b865b818111156104505789610409600183610d57565b8151811061041957610419610cd5565b60200260200101518a828151811061043357610433610cd5565b60209081029190910101528061044881610da8565b9150506103f5565b508289828151811061046457610464610cd5565b602002602001018181525050505b8681101561047e578096505b8561048881610d70565b965050505050505b8061049a81610d70565b91505061022f565b5084600201548110156104e1576040517fe3fdb44e00000000000000000000000000000000000000000000000000000000815260040160405180910390fd5b60006104ee600283610e0c565b60000361057b576000846001610505600286610e20565b61050f9190610d57565b8151811061051f5761051f610cd5565b602002602001015160001c905060008560028561053c9190610e20565b8151811061054c5761054c610cd5565b602002602001015160001c9050600281836105679190610e34565b6105719190610e20565b92506105ae915050565b836002610589600185610d57565b6105939190610e20565b815181106105a3576105a3610cd5565b602002602001015190505b6040517f32e139470000000000000000000000000000000000000000000000000000000081526004810188905260248101829052604481018490527f000000000000000000000000000000000000000000000000000000000000000073ffffffffffffffffffffffffffffffffffffffff16906332e1394790606401600060405180830381600087803b15801561064457600080fd5b505af1158015610658573d6000803e3d6000fd5b5050505050505050505050565b61068960405180606001604052806060815260200160608152602001600081525090565b6000828152600160209081526040918290208251815460809381028201840190945260608101848152909391928492849184018282801561070057602002820191906000526020600020905b815473ffffffffffffffffffffffffffffffffffffffff1681526001909101906020018083116106d5575b505050505081526020016001820180548060200260200160405190810160405280929190818152602001828054801561075857602002820191906000526020600020905b815481526020019060010190808311610744575b505050505081526020016002820154815250509050919050565b3360009081526020819052604090205460ff166107f2576040517f609f9a230000000000000000000000000000000000000000000000000000000081523360048201523060248201527fffffffff000000000000000000000000000000000000000000000000000000006000351660448201526064015b60405180910390fd5b6107fc8180610e47565b905061080b6020830183610e47565b905014610844576040517fd540941a00000000000000000000000000000000000000000000000000000000815260040160405180910390fd5b6000828152600160205260409020819061085e8282610f5c565b50505050565b3360009081526020819052604090205460ff166108df576040517f609f9a230000000000000000000000000000000000000000000000000000000081523360048201523060248201527fffffffff000000000000000000000000000000000000000000000000000000006000351660448201526064016107e9565b604051811515815273ffffffffffffffffffffffffffffffffffffffff83169033907f353b799ee5ce93aec9eee231e1301e94df3270c64f0dd606ea6823532e1d0b5d9060200160405180910390a373ffffffffffffffffffffffffffffffffffffffff91909116600090815260208190526040902080547fffffffffffffffffffffffffffffffffffffffffffffffffffffffffffffff0016911515919091179055565b3360009081526020819052604090205460ff166109ff576040517f609f9a230000000000000000000000000000000000000000000000000000000081523360048201523060248201527fffffffff000000000000000000000000000000000000000000000000000000006000351660448201526064016107e9565b73ffffffffffffffffffffffffffffffffffffffff81166000818152602081815260409182902080547fffffffffffffffffffffffffffffffffffffffffffffffffffffffffffffff00166001908117909155915191825233917f353b799ee5ce93aec9eee231e1301e94df3270c64f0dd606ea6823532e1d0b5d910160405180910390a33360008181526020818152604080832080547fffffffffffffffffffffffffffffffffffffffffffffffffffffffffffffff001690555191825282917f353b799ee5ce93aec9eee231e1301e94df3270c64f0dd606ea6823532e1d0b5d910160405180910390a350565b600060208284031215610b0057600080fd5b5035919050565b6020808252825160608383015280516080840181905260009291820190839060a08601905b80831015610b6257835173ffffffffffffffffffffffffffffffffffffffff168252928401926001929092019190840190610b2c565b50868401518682037fffffffffffffffffffffffffffffffffffffffffffffffffffffffffffffffe00160408801528051808352908501935090840191506000905b80821015610bc45783518352928401929184019160019190910190610ba4565b50506040860151606086015280935050505092915050565b60008060408385031215610bef57600080fd5b82359150602083013567ffffffffffffffff811115610c0d57600080fd5b830160608186031215610c1f57600080fd5b809150509250929050565b73ffffffffffffffffffffffffffffffffffffffff81168114610c4c57600080fd5b50565b60008060408385031215610c6257600080fd5b8235610c6d81610c2a565b915060208301358015158114610c1f57600080fd5b600060208284031215610c9457600080fd5b8135610c9f81610c2a565b9392505050565b7f4e487b7100000000000000000000000000000000000000000000000000000000600052604160045260246000fd5b7f4e487b7100000000000000000000000000000000000000000000000000000000600052603260045260246000fd5b60008060408385031215610d1757600080fd5b505080516020909101519092909150565b7f4e487b7100000000000000000000000000000000000000000000000000000000600052601160045260246000fd5b81810381811115610d6a57610d6a610d28565b92915050565b60007fffffffffffffffffffffffffffffffffffffffffffffffffffffffffffffffff8203610da157610da1610d28565b5060010190565b600081610db757610db7610d28565b507fffffffffffffffffffffffffffffffffffffffffffffffffffffffffffffffff0190565b7f4e487b7100000000000000000000000000000000000000000000000000000000600052601260045260246000fd5b600082610e1b57610e1b610ddd565b500690565b600082610e2f57610e2f610ddd565b500490565b80820180821115610d6a57610d6a610d28565b60008083357fffffffffffffffffffffffffffffffffffffffffffffffffffffffffffffffe1843603018112610e7c57600080fd5b83018035915067ffffffffffffffff821115610e9757600080fd5b6020019150600581901b3603821315610eaf57600080fd5b9250929050565b60008135610d6a81610c2a565b67ffffffffffffffff831115610edb57610edb610ca6565b68010000000000000000831115610ef457610ef4610ca6565b805483825580841015610f2b576000828152602081208581019083015b80821015610f2757828255600182019150610f11565b5050505b5060008181526020812083915b85811015610f5457823582820155602090920191600101610f38565b505050505050565b610f668283610e47565b67ffffffffffffffff811115610f7e57610f7e610ca6565b68010000000000000000811115610f9757610f97610ca6565b825481845580821015610fce576000848152602081208381019083015b80821015610fca57828255600182019150610fb4565b5050505b5060008381526020902060005b82811015610fff57610fec84610eb6565b8282015560209390930192600101610fdb565b505050506110106020830183610e47565b61101e818360018601610ec3565b505060408201356002820155505056fea2646970667358221220b23a0983e7f01a2997ef4e15b42ae19d515a8695f338530fd7f8697a44d6fda264736f6c6343000813003360c060405234801561001057600080fd5b506040516110d53803806110d583398101604081905261002f916100af565b3360008181526020818152604091829020805460ff19166001908117909155915191825230917f353b799ee5ce93aec9eee231e1301e94df3270c64f0dd606ea6823532e1d0b5d910160405180910390a36001600160a01b039182166080521660a0526100e9565b6001600160a01b03811681146100ac57600080fd5b50565b600080604083850312156100c257600080fd5b82516100cd81610097565b60208401519092506100de81610097565b809150509250929050565b60805160a051610fc06101156000396000818161020401526105c90152600061012d0152610fc06000f3fe608060405234801561001057600080fd5b50600436106100885760003560e01c8063bf353dbb1161005b578063bf353dbb146100f5578063c26a516614610128578063ce8f607814610174578063d46eb119146101ff57600080fd5b80631540fbba1461008d57806361da1439146100a2578063a7b97e60146100cf578063bdf86a66146100e2575b600080fd5b6100a061009b366004610a17565b610226565b005b6100b56100b0366004610ac6565b610345565b604080519283526020830191909152015b60405180910390f35b6100a06100dd366004610adf565b6106d5565b6100a06100f0366004610b14565b6107f5565b610118610103366004610b14565b60006020819052908152604090205460ff1681565b60405190151581526020016100c6565b61014f7f000000000000000000000000000000000000000000000000000000000000000081565b60405173ffffffffffffffffffffffffffffffffffffffff90911681526020016100c6565b6101c6610182366004610ac6565b6001602081905260009182526040909120805491810154600282015460039092015473ffffffffffffffffffffffffffffffffffffffff9093169290919060ff1684565b6040805173ffffffffffffffffffffffffffffffffffffffff9095168552602085019390935291830152151560608201526080016100c6565b61014f7f000000000000000000000000000000000000000000000000000000000000000081565b3360009081526020819052604090205460ff166102a6576040517f609f9a230000000000000000000000000000000000000000000000000000000081523360048201523060248201527fffffffff000000000000000000000000000000000000000000000000000000006000351660448201526064015b60405180910390fd5b600091825260016020818152604093849020835181547fffffffffffffffffffffffff00000000000000000000000000000000000000001673ffffffffffffffffffffffffffffffffffffffff909116178155908301519181019190915591810151600283015560600151600390910180547fffffffffffffffffffffffffffffffffffffffffffffffffffffffffffffff0016911515919091179055565b6000818152600160205260408120805482919073ffffffffffffffffffffffffffffffffffffffff168083036103a7576040517f31ae589b00000000000000000000000000000000000000000000000000000000815260040160405180910390fd5b604080516002808252606082018352600092602083019080368337505050600184015490915063ffffffff811660000361040d576040517f1e33e1e600000000000000000000000000000000000000000000000000000000815260040160405180910390fd5b60008260008151811061042257610422610b38565b602002602001019063ffffffff16908163ffffffff1681525050808260018151811061045057610450610b38565b63ffffffff909216602092830291909101909101526040517f883bdbfd00000000000000000000000000000000000000000000000000000000815260009073ffffffffffffffffffffffffffffffffffffffff85169063883bdbfd906104ba908690600401610b67565b600060405180830381865afa1580156104d7573d6000803e3d6000fd5b505050506040513d6000823e601f3d9081017fffffffffffffffffffffffffffffffffffffffffffffffffffffffffffffffe016820160405261051d9190810190610c49565b50905060008160018151811061053557610535610b38565b602002602001015160060b8260008151811061055357610553610b38565b602002602001015160060b6105689190610d44565b9050600061057c63ffffffff851683610d9a565b6040517f986cfba3000000000000000000000000000000000000000000000000000000008152600282900b600482015290915060009073ffffffffffffffffffffffffffffffffffffffff7f0000000000000000000000000000000000000000000000000000000000000000169063986cfba390602401602060405180830381865afa158015610610573d6000803e3d6000fd5b505050506040513d601f19601f820116820180604052508101906106349190610e02565b905060006c010000000000000000000000006b033b2e3c9fd0803ce80000008161065f600286610f3d565b6106699190610f4c565b6106739190610f60565b61067d9190610f4c565b60038a015490915060ff16156106b157806106a46b033b2e3c9fd0803ce800000080610f60565b6106ae9190610f4c565b90505b6002890154909a508a906106c59042610f77565b9950505050505050505050915091565b3360009081526020819052604090205460ff16610750576040517f609f9a230000000000000000000000000000000000000000000000000000000081523360048201523060248201527fffffffff0000000000000000000000000000000000000000000000000000000060003516604482015260640161029d565b604051811515815273ffffffffffffffffffffffffffffffffffffffff83169033907f353b799ee5ce93aec9eee231e1301e94df3270c64f0dd606ea6823532e1d0b5d9060200160405180910390a373ffffffffffffffffffffffffffffffffffffffff91909116600090815260208190526040902080547fffffffffffffffffffffffffffffffffffffffffffffffffffffffffffffff0016911515919091179055565b3360009081526020819052604090205460ff16610870576040517f609f9a230000000000000000000000000000000000000000000000000000000081523360048201523060248201527fffffffff0000000000000000000000000000000000000000000000000000000060003516604482015260640161029d565b73ffffffffffffffffffffffffffffffffffffffff81166000818152602081815260409182902080547fffffffffffffffffffffffffffffffffffffffffffffffffffffffffffffff00166001908117909155915191825233917f353b799ee5ce93aec9eee231e1301e94df3270c64f0dd606ea6823532e1d0b5d910160405180910390a33360008181526020818152604080832080547fffffffffffffffffffffffffffffffffffffffffffffffffffffffffffffff001690555191825282917f353b799ee5ce93aec9eee231e1301e94df3270c64f0dd606ea6823532e1d0b5d910160405180910390a350565b7f4e487b7100000000000000000000000000000000000000000000000000000000600052604160045260246000fd5b604051601f82017fffffffffffffffffffffffffffffffffffffffffffffffffffffffffffffffe016810167ffffffffffffffff811182821017156109d5576109d561095f565b604052919050565b73ffffffffffffffffffffffffffffffffffffffff811681146109ff57600080fd5b50565b80358015158114610a1257600080fd5b919050565b60008082840360a0811215610a2b57600080fd5b8335925060807fffffffffffffffffffffffffffffffffffffffffffffffffffffffffffffffe082011215610a5f57600080fd5b506040516080810181811067ffffffffffffffff82111715610a8357610a8361095f565b6040526020840135610a94816109dd565b81526040848101356020830152606085013590820152610ab660808501610a02565b6060820152809150509250929050565b600060208284031215610ad857600080fd5b5035919050565b60008060408385031215610af257600080fd5b8235610afd816109dd565b9150610b0b60208401610a02565b90509250929050565b600060208284031215610b2657600080fd5b8135610b31816109dd565b9392505050565b7f4e487b7100000000000000000000000000000000000000000000000000000000600052603260045260246000fd5b6020808252825182820181905260009190848201906040850190845b81811015610ba557835163ffffffff1683529284019291840191600101610b83565b50909695505050505050565b600067ffffffffffffffff821115610bcb57610bcb61095f565b5060051b60200190565b600082601f830112610be657600080fd5b81516020610bfb610bf683610bb1565b61098e565b82815260059290921b84018101918181019086841115610c1a57600080fd5b8286015b84811015610c3e578051610c31816109dd565b8352918301918301610c1e565b509695505050505050565b60008060408385031215610c5c57600080fd5b825167ffffffffffffffff80821115610c7457600080fd5b818501915085601f830112610c8857600080fd5b81516020610c98610bf683610bb1565b82815260059290921b84018101918181019089841115610cb757600080fd5b948201945b83861015610ce55785518060060b8114610cd65760008081fd5b82529482019490820190610cbc565b91880151919650909350505080821115610cfe57600080fd5b50610d0b85828601610bd5565b9150509250929050565b7f4e487b7100000000000000000000000000000000000000000000000000000000600052601160045260246000fd5b8181036000831280158383131683831282161715610d6457610d64610d15565b5092915050565b7f4e487b7100000000000000000000000000000000000000000000000000000000600052601260045260246000fd5b600082610da957610da9610d6b565b7fffffffffffffffffffffffffffffffffffffffffffffffffffffffffffffffff83147f800000000000000000000000000000000000000000000000000000000000000083141615610dfd57610dfd610d15565b500590565b600060208284031215610e1457600080fd5b5051919050565b600181815b80851115610e7457817fffffffffffffffffffffffffffffffffffffffffffffffffffffffffffffffff04821115610e5a57610e5a610d15565b80851615610e6757918102915b93841c9390800290610e20565b509250929050565b600082610e8b57506001610f37565b81610e9857506000610f37565b8160018114610eae5760028114610eb857610ed4565b6001915050610f37565b60ff841115610ec957610ec9610d15565b50506001821b610f37565b5060208310610133831016604e8410600b8410161715610ef7575081810a610f37565b610f018383610e1b565b807fffffffffffffffffffffffffffffffffffffffffffffffffffffffffffffffff04821115610f3357610f33610d15565b0290505b92915050565b6000610b3160ff841683610e7c565b600082610f5b57610f5b610d6b565b500490565b8082028115828204841417610f3757610f37610d15565b80820180821115610f3757610f37610d1556fea2646970667358221220b6414429c70a27c3dca5cb2594ef1c178297f6969d12b74af23061d207ef0a5164736f6c63430008130033608060405234801561001057600080fd5b50604051610b46380380610b4683398101604081905261002f916100a5565b3360008181526020818152604091829020805460ff19166001908117909155915191825230917f353b799ee5ce93aec9eee231e1301e94df3270c64f0dd606ea6823532e1d0b5d910160405180910390a3600180546001600160a01b0319166001600160a01b03929092169190911790556100d5565b6000602082840312156100b757600080fd5b81516001600160a01b03811681146100ce57600080fd5b9392505050565b610a62806100e46000396000f3fe608060405234801561001057600080fd5b506004361061007d5760003560e01c8063bdf86a661161005b578063bdf86a66146100d7578063bf353dbb146100ea578063ce8f60781461011d578063eb6664751461019657600080fd5b806361da143914610082578063798218d5146100af578063a7b97e60146100c4575b600080fd5b6100956100903660046106ac565b6101db565b604080519283526020830191909152015b60405180910390f35b6100c26100bd3660046106c5565b610382565b005b6100c26100d2366004610740565b610422565b6100c26100e536600461077e565b610542565b61010d6100f836600461077e565b60006020819052908152604090205460ff1681565b60405190151581526020016100a6565b61016461012b3660046106ac565b600260208190526000918252604090912080546001820154919092015473ffffffffffffffffffffffffffffffffffffffff9092169183565b6040805173ffffffffffffffffffffffffffffffffffffffff90941684526020840192909252908201526060016100a6565b6001546101b69073ffffffffffffffffffffffffffffffffffffffff1681565b60405173ffffffffffffffffffffffffffffffffffffffff90911681526020016100a6565b600081815260026020526040808220805482517ffeaf968c0000000000000000000000000000000000000000000000000000000081529251849373ffffffffffffffffffffffffffffffffffffffff9092169184918291849163feaf968c9160048082019260a0929091908290030181865afa15801561025f573d6000803e3d6000fd5b505050506040513d601f19601f8201168201806040525081019061028391906107a2565b5093505092505060008212156102c5576040517fd05aa62600000000000000000000000000000000000000000000000000000000815260040160405180910390fd5b600082905060008473ffffffffffffffffffffffffffffffffffffffff1663313ce5676040518163ffffffff1660e01b8152600401602060405180830381865afa158015610317573d6000803e3d6000fd5b505050506040513d601f19601f8201168201806040525081019061033b91906107e2565b61034690600a610956565b9050808660020154836103599190610965565b610363919061097c565b600187015490985061037590846109b7565b9650505050505050915091565b3360009081526020819052604090205460ff16610402576040517f609f9a230000000000000000000000000000000000000000000000000000000081523360048201523060248201527fffffffff000000000000000000000000000000000000000000000000000000006000351660448201526064015b60405180910390fd5b6000828152600260205260409020819061041c82826109ca565b50505050565b3360009081526020819052604090205460ff1661049d576040517f609f9a230000000000000000000000000000000000000000000000000000000081523360048201523060248201527fffffffff000000000000000000000000000000000000000000000000000000006000351660448201526064016103f9565b604051811515815273ffffffffffffffffffffffffffffffffffffffff83169033907f353b799ee5ce93aec9eee231e1301e94df3270c64f0dd606ea6823532e1d0b5d9060200160405180910390a373ffffffffffffffffffffffffffffffffffffffff91909116600090815260208190526040902080547fffffffffffffffffffffffffffffffffffffffffffffffffffffffffffffff0016911515919091179055565b3360009081526020819052604090205460ff166105bd576040517f609f9a230000000000000000000000000000000000000000000000000000000081523360048201523060248201527fffffffff000000000000000000000000000000000000000000000000000000006000351660448201526064016103f9565b73ffffffffffffffffffffffffffffffffffffffff81166000818152602081815260409182902080547fffffffffffffffffffffffffffffffffffffffffffffffffffffffffffffff00166001908117909155915191825233917f353b799ee5ce93aec9eee231e1301e94df3270c64f0dd606ea6823532e1d0b5d910160405180910390a33360008181526020818152604080832080547fffffffffffffffffffffffffffffffffffffffffffffffffffffffffffffff001690555191825282917f353b799ee5ce93aec9eee231e1301e94df3270c64f0dd606ea6823532e1d0b5d910160405180910390a350565b6000602082840312156106be57600080fd5b5035919050565b60008082840360808112156106d957600080fd5b8335925060607fffffffffffffffffffffffffffffffffffffffffffffffffffffffffffffffe08201121561070d57600080fd5b506020830190509250929050565b73ffffffffffffffffffffffffffffffffffffffff8116811461073d57600080fd5b50565b6000806040838503121561075357600080fd5b823561075e8161071b565b91506020830135801515811461077357600080fd5b809150509250929050565b60006020828403121561079057600080fd5b813561079b8161071b565b9392505050565b600080600080600060a086880312156107ba57600080fd5b5050835160208501516040860151606087015160809097015192989197509594509092509050565b6000602082840312156107f457600080fd5b815160ff8116811461079b57600080fd5b7f4e487b7100000000000000000000000000000000000000000000000000000000600052601160045260246000fd5b600181815b8085111561088d57817fffffffffffffffffffffffffffffffffffffffffffffffffffffffffffffffff0482111561087357610873610805565b8085161561088057918102915b93841c9390800290610839565b509250929050565b6000826108a457506001610950565b816108b157506000610950565b81600181146108c757600281146108d1576108ed565b6001915050610950565b60ff8411156108e2576108e2610805565b50506001821b610950565b5060208310610133831016604e8410600b8410161715610910575081810a610950565b61091a8383610834565b807fffffffffffffffffffffffffffffffffffffffffffffffffffffffffffffffff0482111561094c5761094c610805565b0290505b92915050565b600061079b60ff841683610895565b808202811582820484141761095057610950610805565b6000826109b2577f4e487b7100000000000000000000000000000000000000000000000000000000600052601260045260246000fd5b500490565b8082018082111561095057610950610805565b81356109d58161071b565b73ffffffffffffffffffffffffffffffffffffffff81167fffffffffffffffffffffffff0000000000000000000000000000000000000000835416178255506020820135600182015560408201356002820155505056fea2646970667358221220736df697a227ef31e84f2623041d668f78fe12643e1c7d1dd2ad75f6659d268b64736f6c6343000813003360a060405234801561001057600080fd5b50604051610e9b380380610e9b83398101604081905261002f91610095565b3360008181526020818152604091829020805460ff19166001908117909155915191825283929130917f353b799ee5ce93aec9eee231e1301e94df3270c64f0dd606ea6823532e1d0b5d910160405180910390a36001600160a01b0316608052506100c5565b6000602082840312156100a757600080fd5b81516001600160a01b03811681146100be57600080fd5b9392505050565b608051610dad6100ee60003960008181610142015281816102e501526104040152610dad6000f3fe608060405234801561001057600080fd5b506004361061007d5760003560e01c8063a7b97e601161005b578063a7b97e60146100e4578063bdf86a66146100f7578063bf353dbb1461010a578063c26a51661461013d57600080fd5b8063162789b51461008257806361da1439146100975780636dd5b69d146100c4575b600080fd5b6100956100903660046108ed565b610189565b005b6100aa6100a536600461093b565b6102bb565b604080519283526020830191909152015b60405180910390f35b6100d76100d236600461093b565b610577565b6040516100bb9190610954565b6100956100f2366004610a42565b610663565b610095610105366004610a75565b610783565b61012d610118366004610a75565b60006020819052908152604090205460ff1681565b60405190151581526020016100bb565b6101647f000000000000000000000000000000000000000000000000000000000000000081565b60405173ffffffffffffffffffffffffffffffffffffffff90911681526020016100bb565b3360009081526020819052604090205460ff16610209576040517f609f9a230000000000000000000000000000000000000000000000000000000081523360048201523060248201527fffffffff000000000000000000000000000000000000000000000000000000006000351660448201526064015b60405180910390fd5b60006102158280610a99565b9150506002811015610253576040517f78366d5200000000000000000000000000000000000000000000000000000000815260040160405180910390fd5b806102616020840184610a99565b90501461029a576040517f3c1cb3a700000000000000000000000000000000000000000000000000000000815260040160405180910390fd5b600083815260016020526040902082906102b48282610c21565b5050505050565b6000818152600160205260408120805482919073ffffffffffffffffffffffffffffffffffffffff7f0000000000000000000000000000000000000000000000000000000000000000166352ba849183858461031957610319610ce9565b600091825260208220015460018601805473ffffffffffffffffffffffffffffffffffffffff90921692909161035157610351610ce9565b6000918252602090912001546040517fffffffff0000000000000000000000000000000000000000000000000000000060e085901b16815273ffffffffffffffffffffffffffffffffffffffff909216600483015260248201526044016040805180830381865afa1580156103ca573d6000803e3d6000fd5b505050506040513d601f19601f820116820180604052508101906103ee9190610d18565b90945092508360015b8281101561056b576000807f000000000000000000000000000000000000000000000000000000000000000073ffffffffffffffffffffffffffffffffffffffff166352ba849187600001858154811061045357610453610ce9565b60009182526020909120015460018901805473ffffffffffffffffffffffffffffffffffffffff909216918790811061048e5761048e610ce9565b6000918252602090912001546040517fffffffff0000000000000000000000000000000000000000000000000000000060e085901b16815273ffffffffffffffffffffffffffffffffffffffff909216600483015260248201526044016040805180830381865afa158015610507573d6000803e3d6000fd5b505050506040513d601f19601f8201168201806040525081019061052b9190610d18565b915091508681101561053b578096505b816105526b033b2e3c9fd0803ce800000086610b37565b61055c9190610d3c565b935082600101925050506103f7565b50959294509192505050565b60408051808201825260608082526020808301829052600085815260018252849020845181549283028101840186529485018281529394939092849284918401828280156105fb57602002820191906000526020600020905b815473ffffffffffffffffffffffffffffffffffffffff1681526001909101906020018083116105d0575b505050505081526020016001820180548060200260200160405190810160405280929190818152602001828054801561065357602002820191906000526020600020905b81548152602001906001019080831161063f575b5050505050815250509050919050565b3360009081526020819052604090205460ff166106de576040517f609f9a230000000000000000000000000000000000000000000000000000000081523360048201523060248201527fffffffff00000000000000000000000000000000000000000000000000000000600035166044820152606401610200565b604051811515815273ffffffffffffffffffffffffffffffffffffffff83169033907f353b799ee5ce93aec9eee231e1301e94df3270c64f0dd606ea6823532e1d0b5d9060200160405180910390a373ffffffffffffffffffffffffffffffffffffffff91909116600090815260208190526040902080547fffffffffffffffffffffffffffffffffffffffffffffffffffffffffffffff0016911515919091179055565b3360009081526020819052604090205460ff166107fe576040517f609f9a230000000000000000000000000000000000000000000000000000000081523360048201523060248201527fffffffff00000000000000000000000000000000000000000000000000000000600035166044820152606401610200565b73ffffffffffffffffffffffffffffffffffffffff81166000818152602081815260409182902080547fffffffffffffffffffffffffffffffffffffffffffffffffffffffffffffff00166001908117909155915191825233917f353b799ee5ce93aec9eee231e1301e94df3270c64f0dd606ea6823532e1d0b5d910160405180910390a33360008181526020818152604080832080547fffffffffffffffffffffffffffffffffffffffffffffffffffffffffffffff001690555191825282917f353b799ee5ce93aec9eee231e1301e94df3270c64f0dd606ea6823532e1d0b5d910160405180910390a350565b6000806040838503121561090057600080fd5b82359150602083013567ffffffffffffffff81111561091e57600080fd5b83016040818603121561093057600080fd5b809150509250929050565b60006020828403121561094d57600080fd5b5035919050565b6020808252825160408383015280516060840181905260009291820190839060808601905b808310156109af57835173ffffffffffffffffffffffffffffffffffffffff168252928401926001929092019190840190610979565b50868401518682037fffffffffffffffffffffffffffffffffffffffffffffffffffffffffffffffe00160408801528051808352908501935090840191506000905b80821015610a1157835183529284019291840191600191909101906109f1565b50909695505050505050565b73ffffffffffffffffffffffffffffffffffffffff81168114610a3f57600080fd5b50565b60008060408385031215610a5557600080fd5b8235610a6081610a1d565b91506020830135801515811461093057600080fd5b600060208284031215610a8757600080fd5b8135610a9281610a1d565b9392505050565b60008083357fffffffffffffffffffffffffffffffffffffffffffffffffffffffffffffffe1843603018112610ace57600080fd5b83018035915067ffffffffffffffff821115610ae957600080fd5b6020019150600581901b3603821315610b0157600080fd5b9250929050565b7f4e487b7100000000000000000000000000000000000000000000000000000000600052604160045260246000fd5b8082028115828204841417610b75577f4e487b7100000000000000000000000000000000000000000000000000000000600052601160045260246000fd5b92915050565b60008135610b7581610a1d565b67ffffffffffffffff831115610ba057610ba0610b08565b68010000000000000000831115610bb957610bb9610b08565b805483825580841015610bf0576000828152602081208581019083015b80821015610bec57828255600182019150610bd6565b5050505b5060008181526020812083915b85811015610c1957823582820155602090920191600101610bfd565b505050505050565b610c2b8283610a99565b67ffffffffffffffff811115610c4357610c43610b08565b68010000000000000000811115610c5c57610c5c610b08565b825481845580821015610c93576000848152602081208381019083015b80821015610c8f57828255600182019150610c79565b5050505b5060008381526020902060005b82811015610cc457610cb184610b7b565b8282015560209390930192600101610ca0565b50505050610cd56020830183610a99565b610ce3818360018601610b88565b50505050565b7f4e487b7100000000000000000000000000000000000000000000000000000000600052603260045260246000fd5b60008060408385031215610d2b57600080fd5b505080516020909101519092909150565b600082610d72577f4e487b7100000000000000000000000000000000000000000000000000000000600052601260045260246000fd5b50049056fea2646970667358221220d6afafd9cd5293a8cf5aff29bdf48a92331d611d57094bf5945baf750962d91564736f6c6343000813003360a060405234801561001057600080fd5b50604051610e9b380380610e9b83398101604081905261002f91610095565b3360008181526020818152604091829020805460ff19166001908117909155915191825283929130917f353b799ee5ce93aec9eee231e1301e94df3270c64f0dd606ea6823532e1d0b5d910160405180910390a36001600160a01b0316608052506100c5565b6000602082840312156100a757600080fd5b81516001600160a01b03811681146100be57600080fd5b9392505050565b608051610dad6100ee60003960008181610142015281816102e501526104040152610dad6000f3fe608060405234801561001057600080fd5b506004361061007d5760003560e01c8063a7b97e601161005b578063a7b97e60146100e4578063bdf86a66146100f7578063bf353dbb1461010a578063c26a51661461013d57600080fd5b8063162789b51461008257806361da1439146100975780636dd5b69d146100c4575b600080fd5b6100956100903660046108ed565b610189565b005b6100aa6100a536600461093b565b6102bb565b604080519283526020830191909152015b60405180910390f35b6100d76100d236600461093b565b610577565b6040516100bb9190610954565b6100956100f2366004610a42565b610663565b610095610105366004610a75565b610783565b61012d610118366004610a75565b60006020819052908152604090205460ff1681565b60405190151581526020016100bb565b6101647f000000000000000000000000000000000000000000000000000000000000000081565b60405173ffffffffffffffffffffffffffffffffffffffff90911681526020016100bb565b3360009081526020819052604090205460ff16610209576040517f609f9a230000000000000000000000000000000000000000000000000000000081523360048201523060248201527fffffffff000000000000000000000000000000000000000000000000000000006000351660448201526064015b60405180910390fd5b60006102158280610a99565b9150506002811015610253576040517f78366d5200000000000000000000000000000000000000000000000000000000815260040160405180910390fd5b806102616020840184610a99565b90501461029a576040517f3c1cb3a700000000000000000000000000000000000000000000000000000000815260040160405180910390fd5b600083815260016020526040902082906102b48282610c21565b5050505050565b6000818152600160205260408120805482919073ffffffffffffffffffffffffffffffffffffffff7f0000000000000000000000000000000000000000000000000000000000000000166352ba849183858461031957610319610ce9565b600091825260208220015460018601805473ffffffffffffffffffffffffffffffffffffffff90921692909161035157610351610ce9565b6000918252602090912001546040517fffffffff0000000000000000000000000000000000000000000000000000000060e085901b16815273ffffffffffffffffffffffffffffffffffffffff909216600483015260248201526044016040805180830381865afa1580156103ca573d6000803e3d6000fd5b505050506040513d601f19601f820116820180604052508101906103ee9190610d18565b90945092508360015b8281101561056b576000807f000000000000000000000000000000000000000000000000000000000000000073ffffffffffffffffffffffffffffffffffffffff166352ba849187600001858154811061045357610453610ce9565b60009182526020909120015460018901805473ffffffffffffffffffffffffffffffffffffffff909216918790811061048e5761048e610ce9565b6000918252602090912001546040517fffffffff0000000000000000000000000000000000000000000000000000000060e085901b16815273ffffffffffffffffffffffffffffffffffffffff909216600483015260248201526044016040805180830381865afa158015610507573d6000803e3d6000fd5b505050506040513d601f19601f8201168201806040525081019061052b9190610d18565b915091508681101561053b578096505b6b033b2e3c9fd0803ce80000006105528386610b37565b61055c9190610d3c565b935082600101925050506103f7565b50959294509192505050565b60408051808201825260608082526020808301829052600085815260018252849020845181549283028101840186529485018281529394939092849284918401828280156105fb57602002820191906000526020600020905b815473ffffffffffffffffffffffffffffffffffffffff1681526001909101906020018083116105d0575b505050505081526020016001820180548060200260200160405190810160405280929190818152602001828054801561065357602002820191906000526020600020905b81548152602001906001019080831161063f575b5050505050815250509050919050565b3360009081526020819052604090205460ff166106de576040517f609f9a230000000000000000000000000000000000000000000000000000000081523360048201523060248201527fffffffff00000000000000000000000000000000000000000000000000000000600035166044820152606401610200565b604051811515815273ffffffffffffffffffffffffffffffffffffffff83169033907f353b799ee5ce93aec9eee231e1301e94df3270c64f0dd606ea6823532e1d0b5d9060200160405180910390a373ffffffffffffffffffffffffffffffffffffffff91909116600090815260208190526040902080547fffffffffffffffffffffffffffffffffffffffffffffffffffffffffffffff0016911515919091179055565b3360009081526020819052604090205460ff166107fe576040517f609f9a230000000000000000000000000000000000000000000000000000000081523360048201523060248201527fffffffff00000000000000000000000000000000000000000000000000000000600035166044820152606401610200565b73ffffffffffffffffffffffffffffffffffffffff81166000818152602081815260409182902080547fffffffffffffffffffffffffffffffffffffffffffffffffffffffffffffff00166001908117909155915191825233917f353b799ee5ce93aec9eee231e1301e94df3270c64f0dd606ea6823532e1d0b5d910160405180910390a33360008181526020818152604080832080547fffffffffffffffffffffffffffffffffffffffffffffffffffffffffffffff001690555191825282917f353b799ee5ce93aec9eee231e1301e94df3270c64f0dd606ea6823532e1d0b5d910160405180910390a350565b6000806040838503121561090057600080fd5b82359150602083013567ffffffffffffffff81111561091e57600080fd5b83016040818603121561093057600080fd5b809150509250929050565b60006020828403121561094d57600080fd5b5035919050565b6020808252825160408383015280516060840181905260009291820190839060808601905b808310156109af57835173ffffffffffffffffffffffffffffffffffffffff168252928401926001929092019190840190610979565b50868401518682037fffffffffffffffffffffffffffffffffffffffffffffffffffffffffffffffe00160408801528051808352908501935090840191506000905b80821015610a1157835183529284019291840191600191909101906109f1565b50909695505050505050565b73ffffffffffffffffffffffffffffffffffffffff81168114610a3f57600080fd5b50565b60008060408385031215610a5557600080fd5b8235610a6081610a1d565b91506020830135801515811461093057600080fd5b600060208284031215610a8757600080fd5b8135610a9281610a1d565b9392505050565b60008083357fffffffffffffffffffffffffffffffffffffffffffffffffffffffffffffffe1843603018112610ace57600080fd5b83018035915067ffffffffffffffff821115610ae957600080fd5b6020019150600581901b3603821315610b0157600080fd5b9250929050565b7f4e487b7100000000000000000000000000000000000000000000000000000000600052604160045260246000fd5b8082028115828204841417610b75577f4e487b7100000000000000000000000000000000000000000000000000000000600052601160045260246000fd5b92915050565b60008135610b7581610a1d565b67ffffffffffffffff831115610ba057610ba0610b08565b68010000000000000000831115610bb957610bb9610b08565b805483825580841015610bf0576000828152602081208581019083015b80821015610bec57828255600182019150610bd6565b5050505b5060008181526020812083915b85811015610c1957823582820155602090920191600101610bfd565b505050505050565b610c2b8283610a99565b67ffffffffffffffff811115610c4357610c43610b08565b68010000000000000000811115610c5c57610c5c610b08565b825481845580821015610c93576000848152602081208381019083015b80821015610c8f57828255600182019150610c79565b5050505b5060008381526020902060005b82811015610cc457610cb184610b7b565b8282015560209390930192600101610ca0565b50505050610cd56020830183610a99565b610ce3818360018601610b88565b50505050565b7f4e487b7100000000000000000000000000000000000000000000000000000000600052603260045260246000fd5b60008060408385031215610d2b57600080fd5b505080516020909101519092909150565b600082610d72577f4e487b7100000000000000000000000000000000000000000000000000000000600052601260045260246000fd5b50049056fea2646970667358221220a8654247445dd4c12f7fccf898597b393543801798c989aa2ee634afb05769db64736f6c63430008130033",
  "linkReferences": {},
  "deployedLinkReferences": {}
}