{
  "_format": "hh-sol-artifact-1",
  "contractName": "NonfungibleTokenPositionDescriptor",
  "sourceName": "contracts/NonfungibleTokenPositionDescriptor.sol",
  "abi": [
    {
      "inputs": [
        {
          "internalType": "address",
          "name": "_WETH9",
          "type": "address"
        },
        {
          "internalType": "bytes32",
          "name": "_nativeCurrencyLabelBytes",
          "type": "bytes32"
        }
      ],
      "stateMutability": "nonpayable",
      "type": "constructor"
    },
    {
      "inputs": [],
      "name": "WETH9",
      "outputs": [
        {
          "internalType": "address",
          "name": "",
          "type": "address"
        }
      ],
      "stateMutability": "view",
      "type": "function"
    },
    {
      "inputs": [
        {
          "components": [
            {
              "internalType": "uint256",
              "name": "tokenId",
              "type": "uint256"
            },
            {
              "internalType": "address",
              "name": "quoteTokenAddress",
              "type": "address"
            },
            {
              "internalType": "address",
              "name": "baseTokenAddress",
              "type": "address"
            },
            {
              "internalType": "string",
              "name": "quoteTokenSymbol",
              "type": "string"
            },
            {
              "internalType": "string",
              "name": "baseTokenSymbol",
              "type": "string"
            },
            {
              "internalType": "uint8",
              "name": "quoteTokenDecimals",
              "type": "uint8"
            },
            {
              "internalType": "uint8",
              "name": "baseTokenDecimals",
              "type": "uint8"
            },
            {
              "internalType": "bool",
              "name": "flipRatio",
              "type": "bool"
            },
            {
              "internalType": "int24",
              "name": "tickLower",
              "type": "int24"
            },
            {
              "internalType": "int24",
              "name": "tickUpper",
              "type": "int24"
            },
            {
              "internalType": "int24",
              "name": "tickCurrent",
              "type": "int24"
            },
            {
              "internalType": "int24",
              "name": "tickSpacing",
              "type": "int24"
            },
            {
              "internalType": "uint24",
              "name": "fee",
              "type": "uint24"
            },
            {
              "internalType": "address",
              "name": "poolAddress",
              "type": "address"
            }
          ],
          "internalType": "struct NonfungibleTokenPositionDescriptor.ConstructTokenURIParams",
          "name": "params",
          "type": "tuple"
        }
      ],
      "name": "constructTokenURI",
      "outputs": [
        {
          "internalType": "string",
          "name": "",
          "type": "string"
        }
      ],
      "stateMutability": "pure",
      "type": "function"
    },
    {
      "inputs": [
        {
          "internalType": "address",
          "name": "token0",
          "type": "address"
        },
        {
          "internalType": "address",
          "name": "token1",
          "type": "address"
        },
        {
          "internalType": "uint256",
          "name": "chainId",
          "type": "uint256"
        }
      ],
      "name": "flipRatio",
      "outputs": [
        {
          "internalType": "bool",
          "name": "",
          "type": "bool"
        }
      ],
      "stateMutability": "view",
      "type": "function"
    },
    {
      "inputs": [],
      "name": "nativeCurrencyLabel",
      "outputs": [
        {
          "internalType": "string",
          "name": "",
          "type": "string"
        }
      ],
      "stateMutability": "view",
      "type": "function"
    },
    {
      "inputs": [],
      "name": "nativeCurrencyLabelBytes",
      "outputs": [
        {
          "internalType": "bytes32",
          "name": "",
          "type": "bytes32"
        }
      ],
      "stateMutability": "view",
      "type": "function"
    },
    {
      "inputs": [
        {
          "internalType": "address",
          "name": "token",
          "type": "address"
        },
        {
          "internalType": "uint256",
          "name": "chainId",
          "type": "uint256"
        }
      ],
      "name": "tokenRatioPriority",
      "outputs": [
        {
          "internalType": "int256",
          "name": "",
          "type": "int256"
        }
      ],
      "stateMutability": "view",
      "type": "function"
    },
    {
      "inputs": [
        {
          "internalType": "contract INonfungiblePositionManager",
          "name": "positionManager",
          "type": "address"
        },
        {
          "internalType": "uint256",
          "name": "tokenId",
          "type": "uint256"
        }
      ],
      "name": "tokenURI",
      "outputs": [
        {
          "internalType": "string",
          "name": "",
          "type": "string"
        }
      ],
      "stateMutability": "view",
      "type": "function"
    }
  ],
  "bytecode": "0x60c06040523480156200001157600080fd5b506040516200719738038062007197833981016040819052620000349162000050565b60609190911b6001600160601b03191660805260a0526200008a565b6000806040838503121562000063578182fd5b82516001600160a01b03811681146200007a578283fd5b6020939093015192949293505050565b60805160601c60a0516170cd620000ca600039806102af52806102e3528061037f525080610125528061016c528061060b528061065f52506170cd6000f3fe608060405234801561001057600080fd5b506004361061007d5760003560e01c8063a18246e21161005b578063a18246e2146100e0578063b7af3cdc146100e8578063e9dc6375146100fd578063f93a7911146101105761007d565b80634aa4a4fc146100825780637e5af771146100a05780639d7b0ea8146100c0575b600080fd5b61008a610123565b60405161009791906156bd565b60405180910390f35b6100b36100ae366004614d68565b610147565b60405161009791906156d1565b6100d36100ce366004614da8565b610168565b60405161009791906156dc565b6100d36102ad565b6100f06102d1565b60405161009791906156e5565b6100f061010b366004614da8565b6103df565b6100f061011e366004614def565b61086d565b7f000000000000000000000000000000000000000000000000000000000000000081565b60006101538383610168565b61015d8584610168565b1390505b9392505050565b60007f00000000000000000000000000000000000000000000000000000000000000006001600160a01b0316836001600160a01b031614156101ad57506063196102a7565b81600114156102a3576001600160a01b03831673a0b86991c6218b36c1d19d4a2e9eb0ce3606eb4814156101e4575061012c6102a7565b6001600160a01b03831673dac17f958d2ee523a2206206994597c13d831ec71415610211575060c86102a7565b6001600160a01b038316736b175474e89094c44da98b954eedeac495271d0f141561023e575060646102a7565b6001600160a01b038316738daebade922df735c38c80c7ebd708af50815faa141561026c575060c7196102a7565b6001600160a01b038316732260fac5e5542a773aa44fbcfedf7c193bc2c599141561029b575061012b196102a7565b5060006102a7565b5060005b92915050565b7f000000000000000000000000000000000000000000000000000000000000000081565b606060005b60208110801561031e57507f0000000000000000000000000000000000000000000000000000000000000000816020811061030d57fe5b1a60f81b6001600160f81b03191615155b1561032b576001016102d6565b60008167ffffffffffffffff8111801561034457600080fd5b506040519080825280601f01601f19166020018201604052801561036f576020820181803683370190505b50905060005b828110156103d8577f000000000000000000000000000000000000000000000000000000000000000081602081106103a957fe5b1a60f81b8282815181106103b957fe5b60200101906001600160f81b031916908160001a905350600101610375565b5091505090565b60606000806000806000876001600160a01b03166399fbab88886040518263ffffffff1660e01b815260040161041591906156dc565b6101806040518083038186803b15801561042e57600080fd5b505afa158015610442573d6000803e3d6000fd5b505050506040513d601f19601f820116820180604052508101906104669190615007565b50505050509650965096509650965050506000610524896001600160a01b031663c45a01556040518163ffffffff1660e01b815260040160206040518083038186803b1580156104b557600080fd5b505afa1580156104c9573d6000803e3d6000fd5b505050506040513d601f19601f820116820180604052508101906104ed9190614d4c565b6040518060600160405280896001600160a01b03168152602001886001600160a01b031681526020018762ffffff1681525061097a565b9050600061053587876100ae610a5e565b9050600081156105455787610547565b865b9050600082156105575787610559565b885b90506000846001600160a01b0316633850c7bd6040518163ffffffff1660e01b815260040160e06040518083038186803b15801561059657600080fd5b505afa1580156105aa573d6000803e3d6000fd5b505050506040513d601f19601f820116820180604052508101906105ce9190614f5a565b505050505091505061085c604051806101c001604052808e8152602001856001600160a01b03168152602001846001600160a01b031681526020017f00000000000000000000000000000000000000000000000000000000000000006001600160a01b0316866001600160a01b0316146106505761064b86610a62565b610658565b6106586102d1565b81526020017f00000000000000000000000000000000000000000000000000000000000000006001600160a01b0316856001600160a01b0316146106a45761069f85610a62565b6106ac565b6106ac6102d1565b8152602001856001600160a01b031663313ce5676040518163ffffffff1660e01b815260040160206040518083038186803b1580156106ea57600080fd5b505afa1580156106fe573d6000803e3d6000fd5b505050506040513d601f19601f820116820180604052508101906107229190614feb565b60ff168152602001846001600160a01b031663313ce5676040518163ffffffff1660e01b815260040160206040518083038186803b15801561076357600080fd5b505afa158015610777573d6000803e3d6000fd5b505050506040513d601f19601f8201168201806040525081019061079b9190614feb565b60ff16815260200186151581526020018960020b81526020018860020b81526020018360020b8152602001876001600160a01b031663d0c93a7c6040518163ffffffff1660e01b815260040160206040518083038186803b1580156107ff57600080fd5b505afa158015610813573d6000803e3d6000fd5b505050506040513d601f19601f820116820180604052508101906108379190614dd3565b60020b81526020018a62ffffff168152602001876001600160a01b031681525061086d565b9d9c50505050505050505050505050565b6060600061088883610883856101800151610aad565b610d0e565b905060006108bc61089c8560600151610dc8565b6108a98660800151610dc8565b6108b7876101a00151610f50565b610f66565b9050600061090a6108d08660000151610f97565b6108dd8760800151610dc8565b6108ea8860200151610f50565b6108f78960400151610f50565b6109058a6101800151610aad565b611072565b9050600061091f61091a876110a8565b6112e3565b905061094f8484848460405160200161093b9493929190615338565b6040516020818303038152906040526112e3565b60405160200161095f9190615678565b6040516020818303038152906040529450505050505b919050565b600081602001516001600160a01b031682600001516001600160a01b0316106109a257600080fd5b50805160208083015160409384015184516001600160a01b0394851681850152939091168385015262ffffff166060808401919091528351808403820181526080840185528051908301206001600160f81b031960a085015294901b6bffffffffffffffffffffffff191660a183015260b58201939093527fe34f199b19b2b4f47f68442619d555527d244f78a3297ea89325f843f87b8b5460d5808301919091528251808303909101815260f5909101909152805191012090565b4690565b60606000610a90837f95d89b4100000000000000000000000000000000000000000000000000000000611468565b90508051600014156102a757610aa5836116bd565b915050610975565b606062ffffff8216610af3575060408051808201909152600281527f30250000000000000000000000000000000000000000000000000000000000006020820152610975565b816000805b62ffffff831615610b435760ff811615610b1457600101610b2d565b600a62ffffff84160662ffffff16600014610b2d576001015b600190910190600a62ffffff8416049250610af8565b610b4b614c19565b600060058410610c405760006004610b668660ff87166116ca565b1015610b73576001610b76565b60005b60ff9081169150610b8a90851660016116ca565b610b958660056116ca565b10610bc157610bbc610bab60ff861660016116ca565b610bb68760056116ca565b906116ca565b610bc4565b60005b60ff851660808501819052909250610be390600190610bb69085611727565b60ff90811660a08501526080840151610c0a918391610c04911660016116ca565b90611727565b60ff9081166040850152610c32908290610c0490610c2b9088166001611727565b8590611727565b60ff16602084015250610cb0565b610c4b6005856116ca565b600260808401819052909150610c6990600190610bb6908490611727565b60ff90811660a0840152610c8b90610c849085166002611727565b8290611727565b60ff1660208301819052610ca09060026116ca565b60ff166040830152600160c08301525b610ccf610cc08560ff86166116ca565b62ffffff891690600a0a611781565b8252600160e083015260048411610ce7576000610cf2565b610cf28460046116ca565b60ff166060830152610d03826117e8565b979650505050505050565b606081610d1e8460600151610dc8565b610d2b8560800151610dc8565b610d648660e0015115610d4357866101200151610d4a565b8661010001515b8761016001518860c001518960a001518a60e00151611a14565b610d9d8760e0015115610d7c57876101000151610d83565b8761012001515b8861016001518960c001518a60a001518b60e00151611a14565b604051602001610db195949392919061545f565b604051602081830303815290604052905092915050565b6060816000805b82518160ff161015610e1457828160ff1681518110610dea57fe5b6020910101516001600160f81b031916601160f91b1415610e0c576001909101905b600101610dcf565b5060ff811615610f485760008160ff1683510167ffffffffffffffff81118015610e3d57600080fd5b506040519080825280601f01601f191660200182016040528015610e68576020820181803683370190505b5090506000805b84518160ff161015610f3b57848160ff1681518110610e8a57fe5b6020910101516001600160f81b031916601160f91b1415610ef0577f5c00000000000000000000000000000000000000000000000000000000000000838380600101945081518110610ed857fe5b60200101906001600160f81b031916908160001a9053505b848160ff1681518110610eff57fe5b602001015160f81c60f81b838380600101945081518110610f1c57fe5b60200101906001600160f81b031916908160001a905350600101610e6f565b5081945050505050610975565b509192915050565b60606102a76001600160a01b0383166014611b3e565b606083838386604051602001610f7f94939291906151ec565b60405160208183030381529060405290509392505050565b606081610fbc57506040805180820190915260018152600360fc1b6020820152610975565b8160005b8115610fd457600101600a82049150610fc0565b60008167ffffffffffffffff81118015610fed57600080fd5b506040519080825280601f01601f191660200182016040528015611018576020820181803683370190505b50859350905060001982015b831561106957600a840660300160f81b8282806001900393508151811061104757fe5b60200101906001600160f81b031916908160001a905350600a84049350611024565b50949350505050565b6060838584848960405160200161108d959493929190615560565b60405160208183030381529060405290505b95945050505050565b60606000604051806102a001604052806110c58560200151610f50565b81526020016110d78560400151610f50565b8152602001846101a001516001600160a01b031681526020018460600151815260200184608001518152602001611112856101800151610aad565b815260200184610100015160020b815260200184610120015160020b815260200184610160015160020b815260200161115b856101000151866101200151876101400151611cc6565b60000b81526020018460000151815260200161118585602001516001600160a01b03166088611cfd565b81526020016111a285604001516001600160a01b03166088611cfd565b81526020016111bf85602001516001600160a01b03166000611cfd565b81526020016111dc85604001516001600160a01b03166000611cfd565b815260200161120f61120186602001516001600160a01b031660108860000151611d0c565b600060ff6010610112611d2c565b815260200161124261123486604001516001600160a01b031660108860000151611d0c565b600060ff60646101e4611d2c565b815260200161126761120186602001516001600160a01b031660208860000151611d0c565b815260200161128c61123486604001516001600160a01b031660208860000151611d0c565b81526020016112b161120186602001516001600160a01b031660308860000151611d0c565b81526020016112d661123486604001516001600160a01b031660308860000151611d0c565b9052905061016181611d74565b60608151600014156113045750604080516020810190915260008152610975565b600060405180606001604052806040815260200161635b6040913990506000600384516002018161133157fe5b04600402905060008160200167ffffffffffffffff8111801561135357600080fd5b506040519080825280601f01601f19166020018201604052801561137e576020820181803683370190505b509050818152600183018586518101602084015b818310156113ec5760039283018051603f601282901c811687015160f890811b8552600c83901c8216880151811b6001860152600683901c8216880151811b60028601529116860151901b93820193909352600401611392565b60038951066001811461140657600281146114325761145a565b7f3d3d00000000000000000000000000000000000000000000000000000000000060011983015261145a565b7f3d000000000000000000000000000000000000000000000000000000000000006000198301525b509398975050505050505050565b60408051600481526024810182526020810180517bffffffffffffffffffffffffffffffffffffffffffffffffffffffff167fffffffff0000000000000000000000000000000000000000000000000000000085161781529151815160609360009384936001600160a01b03891693919290918291908083835b602083106115015780518252601f1990920191602091820191016114e2565b6001836020036101000a038019825116818451168082178552505050505050905001915050600060405180830381855afa9150503d8060008114611561576040519150601f19603f3d011682016040523d82523d6000602084013e611566565b606091505b509150915081158061157757508051155b156115955760405180602001604052806000815250925050506102a7565b8051602014156115cd5760008180602001905160208110156115b657600080fd5b505190506115c381612003565b93505050506102a7565b6040815111156116a5578080602001905160208110156115ec57600080fd5b810190808051604051939291908464010000000082111561160c57600080fd5b90830190602082018581111561162157600080fd5b825164010000000081118282018810171561163b57600080fd5b82525081516020918201929091019080838360005b83811015611668578181015183820152602001611650565b50505050905090810190601f1680156116955780820380516001836020036101000a031916815260200191505b50604052505050925050506102a7565b50506040805160208101909152600081529392505050565b60606102a7826006612122565b600082821115611721576040805162461bcd60e51b815260206004820152601e60248201527f536166654d6174683a207375627472616374696f6e206f766572666c6f770000604482015290519081900360640190fd5b50900390565b600082820183811015610161576040805162461bcd60e51b815260206004820152601b60248201527f536166654d6174683a206164646974696f6e206f766572666c6f770000000000604482015290519081900360640190fd5b60008082116117d7576040805162461bcd60e51b815260206004820152601a60248201527f536166654d6174683a206469766973696f6e206279207a65726f000000000000604482015290519081900360640190fd5b8183816117e057fe5b049392505050565b60606000826020015160ff1667ffffffffffffffff8111801561180a57600080fd5b506040519080825280601f01601f191660200182016040528015611835576020820181803683370190505b5090508260e001511561188b577f25000000000000000000000000000000000000000000000000000000000000008160018351038151811061187357fe5b60200101906001600160f81b031916908160001a9053505b8260c00151156118e857600360fc1b816000815181106118a757fe5b60200101906001600160f81b031916908160001a905350601760f91b816001815181106118d057fe5b60200101906001600160f81b031916908160001a9053505b608083015160ff165b60a08401516119049060ff166001611727565b81101561193b57603060f81b82828151811061191c57fe5b60200101906001600160f81b031916908160001a9053506001016118f1565b505b8251156102a7576000836060015160ff161180156119685750826060015160ff16836040015160ff16145b156119ab5760408301805160ff600019820181169092528251601760f91b9284921690811061199357fe5b60200101906001600160f81b031916908160001a9053505b82516119bd90603090600a9006611727565b60f81b818460400180518091906001900360ff1660ff1681525060ff16815181106119e457fe5b60200101906001600160f81b031916908160001a905350600a8360000181815181611a0b57fe5b0490525061193d565b606084600281900b620d89e71981611a2857fe5b050260020b8660020b1415611a82578115611a5e576040518060400160405280600381526020016209a82b60eb1b815250611a7b565b6040518060400160405280600381526020016226a4a760e91b8152505b905061109f565b84600281900b620d89e881611a9357fe5b050260020b8660020b1415611ae9578115611ac9576040518060400160405280600381526020016226a4a760e91b815250611a7b565b5060408051808201909152600381526209a82b60eb1b602082015261109f565b6000611af487612285565b90508215611b2b57611b2878010000000000000000000000000000000000000000000000006001600160a01b038316611781565b90505b611b368186866125d3565b91505061109f565b606060008260020260020167ffffffffffffffff81118015611b5f57600080fd5b506040519080825280601f01601f191660200182016040528015611b8a576020820181803683370190505b509050600360fc1b81600081518110611b9f57fe5b60200101906001600160f81b031916908160001a9053507f780000000000000000000000000000000000000000000000000000000000000081600181518110611be457fe5b60200101906001600160f81b031916908160001a905350600160028402015b6001811115611c72577f303132333435363738396162636465660000000000000000000000000000000085600f1660108110611c3b57fe5b1a60f81b828281518110611c4b57fe5b60200101906001600160f81b031916908160001a90535060049490941c9360001901611c03565b508315610161576040805162461bcd60e51b815260206004820181905260248201527f537472696e67733a20686578206c656e67746820696e73756666696369656e74604482015290519081900360640190fd5b60008360020b8260020b1215611cdf5750600019610161565b8260020b8260020b1315611cf557506001610161565b506000610161565b606061016183831c60036127a1565b600060ff82611d1b8686612868565b0281611d2357fe5b06949350505050565b6060611d6a611d6584610c04611d42888a6116ca565b611d5f611d4f888a6116ca565b611d598d8d6116ca565b9061286f565b90611781565b610f97565b9695505050505050565b6060611d7f826128c8565b611d9b8360000151846020015185606001518660800151612f7c565b611db2846060015185608001518660a001516132a7565b611dd08560c001518660e001518761010001518861012001516133f7565b611df0611de1876101400151610f97565b8760c001518860e0015161374a565b611e038761014001518860400151613b7b565b6040516020018087805190602001908083835b60208310611e355780518252601f199092019160209182019101611e16565b51815160209384036101000a600019018019909216911617905289519190930192890191508083835b60208310611e7d5780518252601f199092019160209182019101611e5e565b51815160209384036101000a600019018019909216911617905288519190930192880191508083835b60208310611ec55780518252601f199092019160209182019101611ea6565b51815160209384036101000a600019018019909216911617905287519190930192870191508083835b60208310611f0d5780518252601f199092019160209182019101611eee565b51815160209384036101000a600019018019909216911617905286519190930192860191508083835b60208310611f555780518252601f199092019160209182019101611f36565b51815160209384036101000a600019018019909216911617905285519190930192850191508083835b60208310611f9d5780518252601f199092019160209182019101611f7e565b5181516020939093036101000a60001901801990911692169190911790527f3c2f7376673e000000000000000000000000000000000000000000000000000092019182525060408051808303601919018152600690920190529998505050505050505050565b604080516020808252818301909252606091600091906020820181803683370190505090506000805b602081101561208d57600085826020811061204357fe5b1a60f81b90506001600160f81b0319811615612084578084848151811061206657fe5b60200101906001600160f81b031916908160001a9053506001909201915b5060010161202c565b5060008167ffffffffffffffff811180156120a757600080fd5b506040519080825280601f01601f1916602001820160405280156120d2576020820181803683370190505b50905060005b82811015611069578381815181106120ec57fe5b602001015160f81c60f81b82828151811061210357fe5b60200101906001600160f81b031916908160001a9053506001016120d8565b6060600282061580156121355750600082115b8015612142575060288211155b612193576040805162461bcd60e51b815260206004820152601e60248201527f41646472657373537472696e675574696c3a20494e56414c49445f4c454e0000604482015290519081900360640190fd5b60008267ffffffffffffffff811180156121ac57600080fd5b506040519080825280601f01601f1916602001820160405280156121d7576020820181803683370190505b5090506001600160a01b03841660005b6002850481101561227b57600860138290030282901c600f600482901c1660f08216820361221482613bf3565b86856002028151811061222357fe5b60200101906001600160f81b031916908160001a90535061224381613bf3565b86856002026001018151811061225557fe5b60200101906001600160f81b031916908160001a90535050600190920191506121e79050565b5090949350505050565b60008060008360020b1261229c578260020b6122a4565b8260020b6000035b9050620d89e88111156122fe576040805162461bcd60e51b815260206004820152600160248201527f5400000000000000000000000000000000000000000000000000000000000000604482015290519081900360640190fd5b60006001821661231257600160801b612324565b6ffffcb933bd6fad37aa2d162d1a5940015b70ffffffffffffffffffffffffffffffffff1690506002821615612358576ffff97272373d413259a46990580e213a0260801c5b6004821615612377576ffff2e50f5f656932ef12357cf3c7fdcc0260801c5b6008821615612396576fffe5caca7e10e4e61c3624eaa0941cd00260801c5b60108216156123b5576fffcb9843d60f6159c9db58835c9266440260801c5b60208216156123d4576fff973b41fa98c081472e6896dfb254c00260801c5b60408216156123f3576fff2ea16466c96a3843ec78b326b528610260801c5b6080821615612412576ffe5dee046a99a2a811c461f1969c30530260801c5b610100821615612432576ffcbe86c7900a88aedcffc83b479aa3a40260801c5b610200821615612452576ff987a7253ac413176f2b074cf7815e540260801c5b610400821615612472576ff3392b0822b70005940c7a398e4b70f30260801c5b610800821615612492576fe7159475a2c29b7443b29c7fa6e889d90260801c5b6110008216156124b2576fd097f3bdfd2022b8845ad8f792aa58250260801c5b6120008216156124d2576fa9f746462d870fdf8a65dc1f90e061e50260801c5b6140008216156124f2576f70d869a156d2a1b890bb3df62baf32f70260801c5b618000821615612512576f31be135f97d08fd981231505542fcfa60260801c5b62010000821615612533576f09aa508b5b7a84e1c677de54f3e99bc90260801c5b62020000821615612553576e5d6af8dedb81196699c329225ee6040260801c5b62040000821615612572576d2216e584f5fa1ea926041bedfe980260801c5b6208000082161561258f576b048a170391f7dc42444e8fa20260801c5b60008460020b13156125aa5780600019816125a657fe5b0490505b6401000000008106156125be5760016125c1565b60005b60ff16602082901c0192505050919050565b606060006125e2858585613c1b565b905060006125fa828368010000000000000000613d1d565b90506c010000000000000000000000008210801561263b576126348272047bf19673df52e37f2410011d100000000000600160801b613d1d565b9150612650565b61264d82620186a0600160801b613d1d565b91505b8160005b811561266857600101600a82049150612654565b600019016000806126798684613dcc565b91509150801561268a576001909201915b612692614c19565b85156126ff576126b16126a9602b60ff87166116ca565b600790611727565b60ff9081166020830152600260808301526126d790600190610c0490602b9088166116ca565b60ff90811660a083015260208201516126f2911660016116ca565b60ff166040820152612776565b60098460ff16106127485761271860ff851660046116ca565b60ff1660208201819052600560808301526127349060016116ca565b60ff1660a082015260046040820152612776565b6006602082015260056040820181905261276d90600190610c049060ff8816906116ca565b60ff1660608201525b82815285151560c0820152600060e0820152612791816117e8565b9c9b505050505050505050505050565b606060008260020267ffffffffffffffff811180156127bf57600080fd5b506040519080825280601f01601f1916602001820160405280156127ea576020820181803683370190505b5080519091505b8015612860577f303132333435363738396162636465660000000000000000000000000000000085600f166010811061282657fe5b1a60f81b82600183038151811061283957fe5b60200101906001600160f81b031916908160001a90535060049490941c93600019016127f1565b509392505050565b1c60ff1690565b60008261287e575060006102a7565b8282028284828161288b57fe5b04146101615760405162461bcd60e51b815260040180806020018281038252602181526020018061657a6021913960400191505060405180910390fd5b606061295d82610160015160405160200180806161346081913960810182805190602001908083835b602083106129105780518252601f1990920191602091820191016128f1565b6001836020036101000a038019825116818451168082178552505050505050905001806813979f1e17b9bb339f60b91b8152506009019150506040516020818303038152906040526112e3565b612ac9836101e001518461020001518561018001516040516020018080615c716063913960630184805190602001908083835b602083106129af5780518252601f199092019160209182019101612990565b51815160209384036101000a600019018019909216911617905265272063793d2760d01b919093019081528551600690910192860191508083835b60208310612a095780518252601f1990920191602091820191016129ea565b51815160209384036101000a60001901801990921691161790527f2720723d273132307078272066696c6c3d272300000000000000000000000000919093019081528451601390910192850191508083835b60208310612a7a5780518252601f199092019160209182019101612a5b565b6001836020036101000a038019825116818451168082178552505050505050905001806813979f1e17b9bb339f60b91b81525060090193505050506040516020818303038152906040526112e3565b612b1a846102200151856102400151866101a001516040516020018080615c71606391396063018480519060200190808383602083106129af5780518252601f199092019160209182019101612990565b612c39856102600151866102800151876101c001516040516020018080615c716063913960630184805190602001908083835b60208310612b6c5780518252601f199092019160209182019101612b4d565b51815160209384036101000a600019018019909216911617905265272063793d2760d01b919093019081528551600690910192860191508083835b60208310612bc65780518252601f199092019160209182019101612ba7565b51815160001960209485036101000a019081169019919091161790527f2720723d273130307078272066696c6c3d272300000000000000000000000000939091019283528451601390930192908501915080838360208310612a7a5780518252601f199092019160209182019101612a5b565b6101608601516040516020018060566159ec8239605601602c61639b82397f3c646566733e0000000000000000000000000000000000000000000000000000602c820152603201604b6160e98239604b0186805190602001908083835b60208310612cb55780518252601f199092019160209182019101612c96565b6001836020036101000a03801982511681845116808217855250505050505090500180616c21603e9139603e0185805190602001908083835b60208310612d0d5780518252601f199092019160209182019101612cee565b6001836020036101000a038019825116818451168082178552505050505050905001806161b5603e9139603e0184805190602001908083835b60208310612d655780518252601f199092019160209182019101612d46565b5181516020939093036101000a60001901801990911692169190911790527f22202f3e00000000000000000000000000000000000000000000000000000000920191825250600401603b6158e48239603b0183805190602001908083835b60208310612de25780518252601f199092019160209182019101612dc3565b6001836020036101000a03801982511681845116808217855250505050505090500180615d3160999139609901607f6167d28239607f016088616b9982396088016041615dca8239604101605d616d598239605d01607261687e8239607201604961584d823960490160be61602b823960be016071615afd8239607101607561671582396075016066615e0b823960660160a46163c7823960a4016085616c5f82397f3c6720636c69702d706174683d2275726c2823636f726e65727329223e00000060858201527f3c726563742066696c6c3d22000000000000000000000000000000000000000060a2820152825160ae9091019060208401908083835b60208310612f005780518252601f199092019160209182019101612ee1565b6001836020036101000a03801982511681845116808217855250505050505090500180615e7160319139603101604e6158968239604e01605d615cd48239605d01604161631a823960410160526161f382396052016075616ce48239607501955050505050506040516020818303038152906040529050919050565b60608382858488878a896040516020018080616e3c60259139602501607d615fae8239607d0189805190602001908083835b60208310612fcd5780518252601f199092019160209182019101612fae565b51815160209384036101000a600019018019909216911617905264010714051160dd1b919093019081528a516005909101928b0191508083835b602083106130265780518252601f199092019160209182019101613007565b6001836020036101000a03801982511681845116808217855250505050505090500180615ea2607991396079016086616db6823960860187805190602001908083835b602083106130885780518252601f199092019160209182019101613069565b51815160209384036101000a600019018019909216911617905264010714051160dd1b919093019081528851600590910192890191508083835b602083106130e15780518252601f1990920191602091820191016130c2565b6001836020036101000a03801982511681845116808217855250505050505090500180615a7860859139608501607b616a078239607b0185805190602001908083835b602083106131435780518252601f199092019160209182019101613124565b51815160209384036101000a600019018019909216911617905264010714051160dd1b919093019081528651600590910192870191508083835b6020831061319c5780518252601f19909201916020918201910161317d565b6001836020036101000a03801982511681845116808217855250505050505090500180615bc2605d9139605d0160a3616672823960a30183805190602001908083835b602083106131fe5780518252601f1990920191602091820191016131df565b51815160209384036101000a600019018019909216911617905264010714051160dd1b919093019081528451600590910192850191508083835b602083106132575780518252601f199092019160209182019101613238565b6001836020036101000a038019825116818451168082178552505050505050905001806157c2608b9139608b01985050505050505050506040516020818303038152906040529050949350505050565b6060838383604051602001808061591f60cd913960cd0184805190602001908083835b602083106132e95780518252601f1990920191602091820191016132ca565b6001836020036101000a03801982511681845116808217855250505050505090500180602f60f81b81525060010183805190602001908083835b602083106133425780518252601f199092019160209182019101613323565b6001836020036101000a03801982511681845116808217855250505050505090500180616fe56077913960770182805190602001908083835b6020831061339a5780518252601f19909201916020918201910161337b565b5181516020939093036101000a60001901801990911692169190911790526a1e17ba32bc3a1f1e17b39f60a91b920191825250600b016073616e858239607301935050505060405160208183030381529060405290509392505050565b606060008260000b600114613489578260000b6000191461344d576040518060400160405280600581526020017f236e6f6e65000000000000000000000000000000000000000000000000000000815250613484565b6040518060400160405280600a81526020017f23666164652d646f776e000000000000000000000000000000000000000000008152505b6134c0565b6040518060400160405280600881526020017f23666164652d75700000000000000000000000000000000000000000000000008152505b905060006134cf878787613e3d565b9050818183836134de8861408b565b60405160200180807f3c67206d61736b3d2275726c2800000000000000000000000000000000000000815250600d0186805190602001908083835b602083106135385780518252601f199092019160209182019101613519565b5181516020939093036101000a600019018019909116921691909117905261149160f11b920191825250600201607761646b823960770185805190602001908083835b6020831061359a5780518252601f19909201916020918201910161357b565b6001836020036101000a03801982511681845116808217855250505050505090500180615b6e60549139605401807f3c2f673e3c67206d61736b3d2275726c2800000000000000000000000000000081525060110184805190602001908083835b6020831061361a5780518252601f1990920191602091820191016135fb565b5181516020939093036101000a600019018019909116921691909117905261149160f11b92019182525060020160296164e2823960290160456165358239604501807f3c7061746820643d22000000000000000000000000000000000000000000000081525060090183805190602001908083835b602083106136ae5780518252601f19909201916020918201910161368f565b6001836020036101000a0380198251168184511680821785525050505050509050018061678a6048913960480182805190602001908083835b602083106137065780518252601f1990920191602091820191016136e7565b6001836020036101000a0380198251168184511680821785525050505050509050019550505050505060405160208183030381529060405292505050949350505050565b606060006137578461455f565b905060006137648461455f565b865183518251929350600490910191600a91820191016000806137878a8a614669565b9150915061379a85600401600702610f97565b8b6137aa86600401600702610f97565b896137ba87600401600702610f97565b8a87876040516020018080616851602d9139602d01806c1e3932b1ba103bb4b23a341e9160991b815250600d0189805190602001908083835b602083106138125780518252601f1990920191602091820191016137f3565b6001836020036101000a03801982511681845116808217855250505050505090500180616245603d9139603d01608d616ef88239608d0188805190602001908083835b602083106138745780518252601f199092019160209182019101613855565b5181516020939093036101000a60001901801990911692169190911790526a1e17ba32bc3a1f1e17b39f60a91b920191825250600b01602d6170948239602d01806c1e3932b1ba103bb4b23a341e9160991b815250600d0187805190602001908083835b602083106138f75780518252601f1990920191602091820191016138d8565b6001836020036101000a03801982511681845116808217855250505050505090500180616245603d9139603d016093615f1b823960930186805190602001908083835b602083106139595780518252601f19909201916020918201910161393a565b5181516020939093036101000a60001901801990911692169190911790526a1e17ba32bc3a1f1e17b39f60a91b920191825250600b01602d615c1f8239602d01806c1e3932b1ba103bb4b23a341e9160991b815250600d0185805190602001908083835b602083106139dc5780518252601f1990920191602091820191016139bd565b6001836020036101000a03801982511681845116808217855250505050505090500180616245603d9139603d016093616a82823960930184805190602001908083835b60208310613a3e5780518252601f199092019160209182019101613a1f565b6001836020036101000a0380198251168184511680821785525050505050509050018061705c603891396038016060616f858239606001606461660e82396064016025615c4c823960250183805190602001908083835b60208310613ab45780518252601f199092019160209182019101613a95565b51815160209384036101000a60001901801990921691161790527f70782c2000000000000000000000000000000000000000000000000000000000919093019081528451600490910192850191508083835b60208310613b255780518252601f199092019160209182019101613b06565b6001836020036101000a03801982511681845116808217855250505050505090500180615a4260369139603601985050505050505050506040516020818303038152906040529750505050505050509392505050565b6060613b878383614a9a565b15613bdd5760405160200180608d61697a8239608d01607361659b823960730160716162a98239607101608a6168f08239608a016084616b158239608401905060405160208183030381529060405290506102a7565b5060408051602081019091526000815292915050565b6000600a8260ff161015613c0e57506030810160f81b610975565b506037810160f81b610975565b600080613c36613c3160ff868116908616614afd565b614b62565b9050600081118015613c49575060128111155b15613d0a578260ff168460ff161115613cb357613c7d613c6a826002611781565b6001600160a01b03871690600a0a61286f565b91506002810660011415613cae57613cab827003298b075b4b6a5240945790619b37fd4a600160801b613d1d565b91505b613d05565b613cd4613cc1826002611781565b6001600160a01b03871690600a0a611781565b91506002810660011415613d0557613d0282600160801b7003298b075b4b6a5240945790619b37fd4a613d1d565b91505b612860565b50506001600160a01b0390921692915050565b6000808060001985870986860292508281109083900303905080613d535760008411613d4857600080fd5b508290049050610161565b808411613d5f57600080fd5b6000848688096000868103871696879004966002600389028118808a02820302808a02820302808a02820302808a02820302808a02820302808a02909103029181900381900460010186841190950394909402919094039290920491909117919091029150509392505050565b600080600060058460ff161115613df457613df18560ff600419870116600a0a611781565b94505b60006004600a8706119050613e0a86600a611781565b95508015613e19578560010195505b85620186a01415613e2f57600a86049550600191505b5084925090505b9250929050565b606060008260020b85850360020b81613e5257fe5b05905060048160020b13613e9d576040518060400160405280601a81526020017f4d312031433431203431203130352031303520313435203134350000000000008152509150612860565b60088160020b13613ee5576040518060400160405280601981526020017f4d312031433333203439203937203131332031343520313435000000000000008152509150612860565b60108160020b13613f2d576040518060400160405280601981526020017f4d312031433333203537203839203131332031343520313435000000000000008152509150612860565b60208160020b13613f75576040518060400160405280601981526020017f4d312031433235203635203831203132312031343520313435000000000000008152509150612860565b60408160020b13613fbd576040518060400160405280601981526020017f4d312031433137203733203733203132392031343520313435000000000000008152509150612860565b60808160020b13614005576040518060400160405280601881526020017f4d312031433920383120363520313337203134352031343500000000000000008152509150612860565b6101008160020b1361404e576040518060400160405280601a81526020017f4d31203143312038392035372e352031343520313435203134350000000000008152509150612860565b505060408051808201909152601881527f4d3120314331203937203439203134352031343520313435000000000000000060208201529392505050565b604080518082018252600281527f37330000000000000000000000000000000000000000000000000000000000006020808301919091528251808401845260038082527f313930000000000000000000000000000000000000000000000000000000000082840152845180860186528181527f32313700000000000000000000000000000000000000000000000000000000008185015285518087019096529085527f3333340000000000000000000000000000000000000000000000000000000000928501929092526060939091906001600087900b148061417257508560000b600019145b15614369578560000b60001914614189578161418b565b835b8660000b6000191461419d578161419f565b835b8760000b600019146141b157836141b3565b855b8860000b600019146141c557836141c7565b855b60405160200180806b1e31b4b931b6329031bc1e9160a11b815250600c0185805190602001908083835b602083106142105780518252601f1990920191602091820191016141f1565b51815160209384036101000a600019018019909216911617905267383c111031bc9e9160c11b919093019081528651600890910192870191508083835b6020831061426c5780518252601f19909201916020918201910161424d565b6001836020036101000a038019825116818451168082178552505050505050905001806162826027913960270183805190602001908083835b602083106142c45780518252601f1990920191602091820191016142a5565b51815160209384036101000a600019018019909216911617905267383c111031bc9e9160c11b919093019081528451600890910192850191508083835b602083106143205780518252601f199092019160209182019101614301565b6001836020036101000a0380198251168184511680821785525050505050509050018061650b602a9139602a019450505050506040516020818303038152906040529450614556565b8383838360405160200180806b1e31b4b931b6329031bc1e9160a11b815250600c0185805190602001908083835b602083106143b65780518252601f199092019160209182019101614397565b51815160209384036101000a600019018019909216911617905267383c111031bc9e9160c11b919093019081528651600890910192870191508083835b602083106144125780518252601f1990920191602091820191016143f3565b51815160209384036101000a60001901801990921691161790527f70782220723d22347078222066696c6c3d22776869746522202f3e0000000000919093019081526b1e31b4b931b6329031bc1e9160a11b601b8201528551602790910192860191508083835b602083106144985780518252601f199092019160209182019101614479565b51815160209384036101000a600019018019909216911617905267383c111031bc9e9160c11b919093019081528451600890910192850191508083835b602083106144f45780518252601f1990920191602091820191016144d5565b6001836020036101000a038019825116818451168082178552505050505050905001807f70782220723d22347078222066696c6c3d22776869746522202f3e0000000000815250601b0194505050505060405160208183030381529060405294505b50505050919050565b6060600060405180602001604052806000815250905060008360020b12156145a55782600019029250604051806040016040528060018152602001602d60f81b81525090505b806145b28460020b610f97565b6040516020018083805190602001908083835b602083106145e45780518252601f1990920191602091820191016145c5565b51815160209384036101000a600019018019909216911617905285519190930192850191508083835b6020831061462c5780518252601f19909201916020918201910161460d565b6001836020036101000a03801982511681845116808217855250505050505090500192505050604051602081830303815290604052915050919050565b60608060006002858501810b0590506201e847198160020b12156146e157604051806040016040528060018152602001600760fb1b8152506040518060400160405280600181526020017f37000000000000000000000000000000000000000000000000000000000000008152509250925050613e36565b620124f7198160020b121561474a57604051806040016040528060018152602001600760fb1b8152506040518060400160405280600481526020017f31302e35000000000000000000000000000000000000000000000000000000008152509250925050613e36565b6161a7198160020b12156147b257604051806040016040528060018152602001600760fb1b8152506040518060400160405280600581526020017f31342e32350000000000000000000000000000000000000000000000000000008152509250925050613e36565b611387198160020b121561481b576040518060400160405280600281526020017f313000000000000000000000000000000000000000000000000000000000000081525060405180604001604052806002815260200161062760f31b8152509250925050613e36565b60008160020b1215614882576040518060400160405280600281526020017f313100000000000000000000000000000000000000000000000000000000000081525060405180604001604052806002815260200161323160f01b8152509250925050613e36565b6113888160020b1215614905576040518060400160405280600281526020017f31330000000000000000000000000000000000000000000000000000000000008152506040518060400160405280600281526020017f32330000000000000000000000000000000000000000000000000000000000008152509250925050613e36565b6161a88160020b1215614988576040518060400160405280600281526020017f31350000000000000000000000000000000000000000000000000000000000008152506040518060400160405280600281526020017f32350000000000000000000000000000000000000000000000000000000000008152509250925050613e36565b620124f88160020b12156149f15760405180604001604052806002815260200161062760f31b8152506040518060400160405280600281526020017f32360000000000000000000000000000000000000000000000000000000000008152509250925050613e36565b6201e8488160020b1215614a3f5760405180604001604052806002815260200161323160f01b81525060405180604001604052806002815260200161323760f01b8152509250925050613e36565b6040518060400160405280600281526020017f323400000000000000000000000000000000000000000000000000000000000081525060405180604001604052806002815260200161323760f01b8152509250925050613e36565b6040805160208082018590526bffffffffffffffffffffffff19606085901b16828401528251603481840301815260549092019092528051910120600090614ae184614b79565b60020260010160ff1660001981614af457fe5b04119392505050565b6000818303818312801590614b125750838113155b80614b275750600083128015614b2757508381135b6101615760405162461bcd60e51b8152600401808060200182810382526024815260200180616e616024913960400191505060405180910390fd5b600080821215614b7557816000036102a7565b5090565b6000808211614b8757600080fd5b600160801b8210614b9a57608091821c91015b680100000000000000008210614bb257604091821c91015b6401000000008210614bc657602091821c91015b620100008210614bd857601091821c91015b6101008210614be957600891821c91015b60108210614bf957600491821c91015b60048210614c0957600291821c91015b6002821061097557600101919050565b6040805161010081018252600080825260208201819052918101829052606081018290526080810182905260a0810182905260c0810182905260e081019190915290565b80356109758161576c565b80516109758161576c565b803561097581615784565b803561097581615792565b805161097581615792565b600082601f830112614ca4578081fd5b813567ffffffffffffffff811115614cb857fe5b614ccb601f8201601f1916602001615718565b818152846020838601011115614cdf578283fd5b816020850160208301379081016020019190915292915050565b80516fffffffffffffffffffffffffffffffff8116811461097557600080fd5b805161ffff8116811461097557600080fd5b8035610975816157a1565b8051610975816157a1565b8035610975816157b2565b600060208284031215614d5d578081fd5b81516101618161576c565b600080600060608486031215614d7c578182fd5b8335614d878161576c565b92506020840135614d978161576c565b929592945050506040919091013590565b60008060408385031215614dba578182fd5b8235614dc58161576c565b946020939093013593505050565b600060208284031215614de4578081fd5b815161016181615792565b600060208284031215614e00578081fd5b813567ffffffffffffffff80821115614e17578283fd5b81840191506101c0808387031215614e2d578384fd5b614e3681615718565b905082358152614e4860208401614c5d565b6020820152614e5960408401614c5d565b6040820152606083013582811115614e6f578485fd5b614e7b87828601614c94565b606083015250608083013582811115614e92578485fd5b614e9e87828601614c94565b608083015250614eb060a08401614d41565b60a0820152614ec160c08401614d41565b60c0820152614ed260e08401614c73565b60e08201526101009150614ee7828401614c7e565b828201526101209150614efb828401614c7e565b828201526101409150614f0f828401614c7e565b828201526101609150614f23828401614c7e565b828201526101809150614f37828401614d2b565b828201526101a09150614f4b828401614c5d565b91810191909152949350505050565b600080600080600080600060e0888a031215614f74578485fd5b8751614f7f8161576c565b6020890151909750614f9081615792565b9550614f9e60408901614d19565b9450614fac60608901614d19565b9350614fba60808901614d19565b925060a0880151614fca816157b2565b60c0890151909250614fdb81615784565b8091505092959891949750929550565b600060208284031215614ffc578081fd5b8151610161816157b2565b6000806000806000806000806000806000806101808d8f031215615029578586fd5b8c516bffffffffffffffffffffffff81168114615044578687fd5b9b5061505260208e01614c68565b9a5061506060408e01614c68565b995061506e60608e01614c68565b985061507c60808e01614d36565b975061508a60a08e01614c89565b965061509860c08e01614c89565b95506150a660e08e01614cf9565b94506101008d015193506101208d015192506150c56101408e01614cf9565b91506150d46101608e01614cf9565b90509295989b509295989b509295989b565b600081516150f881856020860161573c565b9290920192915050565b7fe29aa0efb88f20444953434c41494d45523a204475652064696c6967656e636581527f20697320696d7065726174697665207768656e20617373657373696e6720746860208201527f6973204e46542e204d616b65207375726520746f6b656e20616464726573736560408201527f73206d617463682074686520657870656374656420746f6b656e732c2061732060608201527f746f6b656e2073796d626f6c73206d617920626520696d6974617465642e00006080820152609e0190565b7f5c6e5c6e00000000000000000000000000000000000000000000000000000000815260040190565b60007f54686973204e465420726570726573656e74732061206c69717569646974792082527f706f736974696f6e20696e206120556e697377617020563320000000000000006020830152855161524a816039850160208a0161573c565b602d60f81b603991840191820152855161526b81603a840160208a0161573c565b7f20706f6f6c2e2000000000000000000000000000000000000000000000000000603a92909101918201527f546865206f776e6572206f662074686973204e46542063616e206d6f6469667960418201527f206f722072656465656d2074686520706f736974696f6e2e5c6e00000000000060618201527f5c6e506f6f6c20416464726573733a2000000000000000000000000000000000607b820152845161531b81608b84016020890161573c565b612e3760f11b608b9290910191820152610d03608d8201856150e6565b60007f7b226e616d65223a22000000000000000000000000000000000000000000000082528551615370816009850160208a0161573c565b7f222c20226465736372697074696f6e223a22000000000000000000000000000060099184019182015285516153ad81601b840160208a0161573c565b85519101906153c381601b84016020890161573c565b7f222c2022696d616765223a202200000000000000000000000000000000000000601b92909101918201527f646174613a696d6167652f7376672b786d6c3b6261736536342c0000000000006028820152835161542781604284016020880161573c565b7f227d000000000000000000000000000000000000000000000000000000000000604292909101918201526044019695505050505050565b60007f556e6973776170202d20000000000000000000000000000000000000000000008252865161549781600a850160208b0161573c565b80830190507f202d20000000000000000000000000000000000000000000000000000000000080600a83015287516154d681600d850160208c0161573c565b602f60f81b600d939091019283015286516154f881600e850160208b0161573c565b600e920191820152845161551381601184016020890161573c565b7f3c3e00000000000000000000000000000000000000000000000000000000000060119290910191820152835161555181601384016020880161573c565b01601301979650505050505050565b60007f20416464726573733a2000000000000000000000000000000000000000000000808352875161559981600a860160208c0161573c565b612e3760f11b600a9185019182015287516155bb81600c840160208c0161573c565b01600c8101919091528551906155d8826016830160208a0161573c565b8181019150507f5c6e46656520546965723a2000000000000000000000000000000000000000006016820152845161561781602284016020890161573c565b7f5c6e546f6b656e2049443a20000000000000000000000000000000000000000060229290910191820152835161565581602e84016020880161573c565b61566b615666602e838501016151c3565b615102565b9998505050505050505050565b60007f646174613a6170706c69636174696f6e2f6a736f6e3b6261736536342c000000825282516156b081601d85016020870161573c565b91909101601d0192915050565b6001600160a01b0391909116815260200190565b901515815260200190565b90815260200190565b600060208252825180602084015261570481604085016020870161573c565b601f01601f19169190910160400192915050565b60405181810167ffffffffffffffff8111828210171561573457fe5b604052919050565b60005b8381101561575757818101518382015260200161573f565b83811115615766576000848401525b50505050565b6001600160a01b038116811461578157600080fd5b50565b801515811461578157600080fd5b8060020b811461578157600080fd5b62ffffff8116811461578157600080fd5b60ff8116811461578157600080fdfe203c616e696d6174652061646469746976653d2273756d22206174747269627574654e616d653d2273746172744f6666736574222066726f6d3d2230252220746f3d22313030252220626567696e3d22307322206475723d223330732220726570656174436f756e743d22696e646566696e69746522202f3e3c2f74657874506174683e3c2f746578743e3c73746f70206f66667365743d222e39222073746f702d636f6c6f723d227768697465222073746f702d6f7061636974793d223022202f3e3c2f6c696e6561724772616469656e743e3c72656374207374796c653d2266696c7465723a2075726c28236631292220783d223070782220793d22307078222077696474683d22323930707822206865696768743d22353030707822202f3e3c6665496d61676520726573756c743d2270332220786c696e6b3a687265663d22646174613a696d6167652f7376672b786d6c3b6261736536342c3c67206d61736b3d2275726c2823666164652d73796d626f6c29223e3c726563742066696c6c3d226e6f6e652220783d223070782220793d22307078222077696474683d22323930707822206865696768743d22323030707822202f3e203c7465787420793d22373070782220783d2233327078222066696c6c3d2277686974652220666f6e742d66616d696c793d2227436f7572696572204e6577272c206d6f6e6f73706163652220666f6e742d7765696768743d223230302220666f6e742d73697a653d2233367078223e3c7376672077696474683d2232393022206865696768743d22353030222076696577426f783d2230203020323930203530302220786d6c6e733d22687474703a2f2f7777772e77332e6f72672f323030302f7376672270782c2030707829222063783d22307078222063793d223070782220723d22347078222066696c6c3d227768697465222f3e3c2f673e203c616e696d6174652061646469746976653d2273756d22206174747269627574654e616d653d2273746172744f6666736574222066726f6d3d2230252220746f3d22313030252220626567696e3d22307322206475723d223330732220726570656174436f756e743d22696e646566696e69746522202f3e203c2f74657874506174683e3c6d61736b2069643d22666164652d757022206d61736b436f6e74656e74556e6974733d226f626a656374426f756e64696e67426f78223e3c726563742077696474683d223122206865696768743d2231222066696c6c3d2275726c2823677261642d75702922202f3e3c2f6d61736b3e22207374726f6b653d227267626128302c302c302c302e332922207374726f6b652d77696474683d2233327078222066696c6c3d226e6f6e6522207374726f6b652d6c696e656361703d22726f756e6422202f3e203c616e696d6174652061646469746976653d2273756d22206174747269627574654e616d653d2273746172744f6666736574222066726f6d3d2230252220746f3d22313030252220626567696e3d22307322206475723d2233307322203c67207374796c653d227472616e73666f726d3a7472616e736c61746528323970782c20343434707829223e3c636972636c65207374796c653d227472616e73666f726d3a7472616e736c6174653364283c7376672077696474683d2732393027206865696768743d27353030272076696577426f783d2730203020323930203530302720786d6c6e733d27687474703a2f2f7777772e77332e6f72672f323030302f737667273e3c636972636c652063783d27203c67207374796c653d2266696c7465723a75726c2823746f702d726567696f6e2d626c7572293b207472616e73666f726d3a7363616c6528312e35293b207472616e73666f726d2d6f726967696e3a63656e74657220746f703b223e22202f3e3c6665426c656e64206d6f64653d226f7665726c61792220696e3d2270302220696e323d22703122202f3e3c6665426c656e64206d6f64653d226578636c7573696f6e2220696e323d22703222202f3e3c6665426c656e64206d6f64653d226f7665726c61792220696e323d2270332220726573756c743d22626c656e644f757422202f3e3c6665476175737369616e426c7572203c706174682069643d226d696e696d61702220643d224d3233342034343443323334203435372e393439203234322e323120343633203235332034363322202f3e3c6d61736b2069643d226e6f6e6522206d61736b436f6e74656e74556e6974733d226f626a656374426f756e64696e67426f78223e3c726563742077696474683d223122206865696768743d2231222066696c6c3d22776869746522202f3e3c2f6d61736b3e2220783d223070782220793d22307078222077696474683d22323930707822206865696768743d22353030707822202f3e203c616e696d6174652061646469746976653d2273756d22206174747269627574654e616d653d2273746172744f6666736574222066726f6d3d2230252220746f3d22313030252220626567696e3d22307322206475723d223330732220726570656174436f756e743d22696e646566696e69746522202f3e3c7465787420783d22313270782220793d22313770782220666f6e742d66616d696c793d2227436f7572696572204e6577272c206d6f6e6f73706163652220666f6e742d73697a653d2231327078222066696c6c3d227768697465223e3c747370616e2066696c6c3d2272676261283235352c3235352c3235352c302e3629223e4d696e205469636b3a203c2f747370616e3e3c74657874506174682073746172744f66667365743d222d31303025222066696c6c3d2277686974652220666f6e742d66616d696c793d2227436f7572696572204e6577272c206d6f6e6f73706163652220666f6e742d73697a653d22313070782220786c696e6b3a687265663d2223746578742d706174682d61223e3c6c696e6561724772616469656e742069643d22677261642d646f776e222078313d2230222078323d2231222079313d2230222079323d2231223e3c73746f70206f66667365743d22302e30222073746f702d636f6c6f723d227768697465222073746f702d6f7061636974793d223122202f3e3c73746f70206f66667365743d22302e39222073746f702d636f6c6f723d227768697465222073746f702d6f7061636974793d223022202f3e3c2f6c696e6561724772616469656e743e3c66696c7465722069643d226631223e3c6665496d61676520726573756c743d2270302220786c696e6b3a687265663d22646174613a696d6167652f7376672b786d6c3b6261736536342c3c7376672077696474683d2732393027206865696768743d27353030272076696577426f783d2730203020323930203530302720786d6c6e733d27687474703a2f2f7777772e77332e6f72672f323030302f737667273e3c726563742077696474683d27323930707827206865696768743d273530307078272066696c6c3d2723222f3e3c6665496d61676520726573756c743d2270322220786c696e6b3a687265663d22646174613a696d6167652f7376672b786d6c3b6261736536342c3c656c6c697073652063783d22353025222063793d22307078222072783d223138307078222072793d223132307078222066696c6c3d222330303022206f7061636974793d22302e383522202f3e3c2f673e707822206865696768743d2232367078222072783d22387078222072793d22387078222066696c6c3d227267626128302c302c302c302e362922202f3e70782220723d22347078222066696c6c3d22776869746522202f3e3c636972636c652063783d2231312e333437384c32342031324c31342e343334312031322e363532324c32322e333932332031384c31332e373831392031332e373831394c31382032322e333932334c31322e363532322031342e343334314c31322032344c31312e333437382031342e343334314c362032322e33393c726563742066696c6c3d226e6f6e652220783d223070782220793d22307078222077696474683d22323930707822206865696768743d22353030707822202f3e4142434445464748494a4b4c4d4e4f505152535455565758595a6162636465666768696a6b6c6d6e6f707172737475767778797a303132333435363738392b2f20786d6c6e733a786c696e6b3d27687474703a2f2f7777772e77332e6f72672f313939392f786c696e6b273e3c6c696e6561724772616469656e742069643d22677261642d73796d626f6c223e3c73746f70206f66667365743d22302e37222073746f702d636f6c6f723d227768697465222073746f702d6f7061636974793d223122202f3e3c73746f70206f66667365743d222e3935222073746f702d636f6c6f723d227768697465222073746f702d6f7061636974793d223022202f3e3c2f6c696e6561724772616469656e743e207374796c653d227472616e73666f726d3a7472616e736c61746528373270782c313839707829223e3c7265637420783d222d313670782220793d222d31367078222077696474683d22313830707822206865696768743d223138307078222066696c6c3d226e6f6e6522202f3e3c7061746820643d22207374796c653d227472616e73666f726d3a7472616e736c61746528373270782c313839707829223e70782220723d2232347078222066696c6c3d226e6f6e6522207374726f6b653d22776869746522202f3e3c7265637420783d222d313670782220793d222d31367078222077696474683d22313830707822206865696768743d223138307078222066696c6c3d226e6f6e6522202f3e536166654d6174683a206d756c7469706c69636174696f6e206f766572666c6f773c673e3c70617468207374796c653d227472616e73666f726d3a7472616e736c617465283670782c367078292220643d224d313220304c31322e3635323220392e35363538374c313820312e363037374c31332e373831392031302e323138314c32322e3339323320364c31342e34333431203c70617468207374726f6b652d6c696e656361703d22726f756e642220643d224d38203943382e30303030342032322e393439342031362e32303939203238203237203238222066696c6c3d226e6f6e6522207374726f6b653d22776869746522202f3e20726570656174436f756e743d22696e646566696e69746522202f3e3c2f74657874506174683e3c74657874506174682073746172744f66667365743d222d353025222066696c6c3d2277686974652220666f6e742d66616d696c793d2227436f7572696572204e6577272c206d6f6e6f73706163652220666f6e742d73697a653d22313070782220786c696e6b3a687265663d2223746578742d706174682d61223e3c6d61736b2069643d22666164652d646f776e22206d61736b436f6e74656e74556e6974733d226f626a656374426f756e64696e67426f78223e3c726563742077696474683d223122206865696768743d2231222066696c6c3d2275726c2823677261642d646f776e2922202f3e3c2f6d61736b3e22207374726f6b653d2272676261283235352c3235352c3235352c3129222066696c6c3d226e6f6e6522207374726f6b652d6c696e656361703d22726f756e6422202f3e3c2f673e696e3d22626c656e644f75742220737464446576696174696f6e3d22343222202f3e3c2f66696c7465723e203c636c6970506174682069643d22636f726e657273223e3c726563742077696474683d2232393022206865696768743d22353030222072783d223432222072793d22343222202f3e3c2f636c6970506174683e203c67207374796c653d227472616e73666f726d3a7472616e736c61746528323970782c20333834707829223e3c6c696e6561724772616469656e742069643d22677261642d7570222078313d2231222078323d2230222079313d2231222079323d2230223e3c73746f70206f66667365743d22302e30222073746f702d636f6c6f723d227768697465222073746f702d6f7061636974793d223122202f3e32334c31302e323138312031332e373831394c312e363037372031384c392e35363538372031322e363532324c302031324c392e35363538372031312e333437384c312e3630373720364c31302e323138312031302e323138314c3620312e363037374c31312e3334373820392e35363538374c313220305a222066696c6c3d22776869746522202f3e3c67207374796c653d227472616e73666f726d3a7472616e736c6174652832323670782c20333932707829223e3c726563742077696474683d223336707822206865696768743d2233367078222072783d22387078222072793d22387078222066696c6c3d226e6f6e6522207374726f6b653d2272676261283235352c3235352c3235352c302e322922202f3e3c74657874506174682073746172744f66667365743d22353025222066696c6c3d2277686974652220666f6e742d66616d696c793d2227436f7572696572204e6577272c206d6f6e6f73706163652220666f6e742d73697a653d22313070782220786c696e6b3a687265663d2223746578742d706174682d61223e3c7465787420783d22313270782220793d22313770782220666f6e742d66616d696c793d2227436f7572696572204e6577272c206d6f6e6f73706163652220666f6e742d73697a653d2231327078222066696c6c3d227768697465223e3c747370616e2066696c6c3d2272676261283235352c3235352c3235352c302e3629223e4d6178205469636b3a203c2f747370616e3e3c616e696d6174655472616e73666f726d206174747269627574654e616d653d227472616e73666f726d2220747970653d22726f74617465222066726f6d3d22302031382031382220746f3d2233363020313820313822206475723d223130732220726570656174436f756e743d22696e646566696e697465222f3e3c2f673e3c2f673e3c706174682069643d22746578742d706174682d612220643d224d34302031322048323530204132382032382030203020312032373820343020563436302041323820323820302030203120323530203438382048343020413238203238203020302031203132203436302056343020413238203238203020302031203430203132207a22202f3e222f3e3c6665496d61676520726573756c743d2270312220786c696e6b3a687265663d22646174613a696d6167652f7376672b786d6c3b6261736536342c3c6d61736b2069643d22666164652d73796d626f6c22206d61736b436f6e74656e74556e6974733d227573657253706163654f6e557365223e3c726563742077696474683d22323930707822206865696768743d223230307078222066696c6c3d2275726c2823677261642d73796d626f6c2922202f3e3c2f6d61736b3e3c2f646566733e3c7265637420783d22302220793d2230222077696474683d2232393022206865696768743d22353030222072783d223432222072793d223432222066696c6c3d227267626128302c302c302c302922207374726f6b653d2272676261283235352c3235352c3235352c302e322922202f3e3c2f673e3c66696c7465722069643d22746f702d726567696f6e2d626c7572223e3c6665476175737369616e426c757220696e3d22536f75726365477261706869632220737464446576696174696f6e3d22323422202f3e3c2f66696c7465723e3c2f74657874506174683e203c74657874506174682073746172744f66667365743d223025222066696c6c3d2277686974652220666f6e742d66616d696c793d2227436f7572696572204e6577272c206d6f6e6f73706163652220666f6e742d73697a653d22313070782220786c696e6b3a687265663d2223746578742d706174682d61223e3c7465787420746578742d72656e646572696e673d226f7074696d697a655370656564223e5369676e6564536166654d6174683a207375627472616374696f6e206f766572666c6f773c7265637420783d2231362220793d223136222077696474683d2232353822206865696768743d22343638222072783d223236222072793d223236222066696c6c3d227267626128302c302c302c302922207374726f6b653d2272676261283235352c3235352c3235352c302e322922202f3e3c7465787420783d22313270782220793d22313770782220666f6e742d66616d696c793d2227436f7572696572204e6577272c206d6f6e6f73706163652220666f6e742d73697a653d2231327078222066696c6c3d227768697465223e3c747370616e2066696c6c3d2272676261283235352c3235352c3235352c302e3629223e49443a203c2f747370616e3e3c726563742077696474683d223336707822206865696768743d2233367078222072783d22387078222072793d22387078222066696c6c3d226e6f6e6522207374726f6b653d2272676261283235352c3235352c3235352c302e322922202f3e3c2f746578743e3c7465787420793d2231313570782220783d2233327078222066696c6c3d2277686974652220666f6e742d66616d696c793d2227436f7572696572204e6577272c206d6f6e6f73706163652220666f6e742d7765696768743d223230302220666f6e742d73697a653d2233367078223e3c2f746578743e3c2f673e3c67207374796c653d227472616e73666f726d3a7472616e736c6174652832323670782c20343333707829223e203c67207374796c653d227472616e73666f726d3a7472616e736c61746528323970782c20343134707829223ea164736f6c6343000706000a",
  "linkReferences": {},
  "deployedLinkReferences": {}
}