{
  "_format": "hh-sol-artifact-1",
  "contractName": "Ward",
  "sourceName": "lib/feedbase/src/mixin/ward.sol",
  "abi": [
    {
      "inputs": [],
      "stateMutability": "nonpayable",
      "type": "constructor"
    },
    {
      "inputs": [
        {
          "internalType": "address",
          "name": "caller",
          "type": "address"
        },
        {
          "internalType": "address",
          "name": "object",
          "type": "address"
        },
        {
          "internalType": "bytes4",
          "name": "sig",
          "type": "bytes4"
        }
      ],
      "name": "ErrWard",
      "type": "error"
    },
    {
      "anonymous": false,
      "inputs": [
        {
          "indexed": true,
          "internalType": "address",
          "name": "caller",
          "type": "address"
        },
        {
          "indexed": true,
          "internalType": "address",
          "name": "trusts",
          "type": "address"
        },
        {
          "indexed": false,
          "internalType": "bool",
          "name": "bit",
          "type": "bool"
        }
      ],
      "name": "SetWard",
      "type": "event"
    },
    {
      "inputs": [
        {
          "internalType": "address",
          "name": "usr",
          "type": "address"
        }
      ],
      "name": "give",
      "outputs": [],
      "stateMutability": "nonpayable",
      "type": "function"
    },
    {
      "inputs": [
        {
          "internalType": "address",
          "name": "usr",
          "type": "address"
        },
        {
          "internalType": "bool",
          "name": "bit",
          "type": "bool"
        }
      ],
      "name": "ward",
      "outputs": [],
      "stateMutability": "nonpayable",
      "type": "function"
    },
    {
      "inputs": [
        {
          "internalType": "address",
          "name": "usr",
          "type": "address"
        }
      ],
      "name": "wards",
      "outputs": [
        {
          "internalType": "bool",
          "name": "",
          "type": "bool"
        }
      ],
      "stateMutability": "view",
      "type": "function"
    }
  ],
  "bytecode": "0x608060405234801561001057600080fd5b503360008181526020818152604091829020805460ff19166001908117909155915191825230917f353b799ee5ce93aec9eee231e1301e94df3270c64f0dd606ea6823532e1d0b5d910160405180910390a36103f1806100716000396000f3fe608060405234801561001057600080fd5b50600436106100415760003560e01c8063a7b97e6014610046578063bdf86a661461005b578063bf353dbb1461006e575b600080fd5b61005961005436600461035d565b6100a5565b005b610059610069366004610399565b6101ca565b61009161007c366004610399565b60006020819052908152604090205460ff1681565b604051901515815260200160405180910390f35b3360009081526020819052604090205460ff16610125576040517f609f9a230000000000000000000000000000000000000000000000000000000081523360048201523060248201527fffffffff000000000000000000000000000000000000000000000000000000006000351660448201526064015b60405180910390fd5b604051811515815273ffffffffffffffffffffffffffffffffffffffff83169033907f353b799ee5ce93aec9eee231e1301e94df3270c64f0dd606ea6823532e1d0b5d9060200160405180910390a373ffffffffffffffffffffffffffffffffffffffff91909116600090815260208190526040902080547fffffffffffffffffffffffffffffffffffffffffffffffffffffffffffffff0016911515919091179055565b3360009081526020819052604090205460ff16610245576040517f609f9a230000000000000000000000000000000000000000000000000000000081523360048201523060248201527fffffffff0000000000000000000000000000000000000000000000000000000060003516604482015260640161011c565b73ffffffffffffffffffffffffffffffffffffffff81166000818152602081815260409182902080547fffffffffffffffffffffffffffffffffffffffffffffffffffffffffffffff00166001908117909155915191825233917f353b799ee5ce93aec9eee231e1301e94df3270c64f0dd606ea6823532e1d0b5d910160405180910390a33360008181526020818152604080832080547fffffffffffffffffffffffffffffffffffffffffffffffffffffffffffffff001690555191825282917f353b799ee5ce93aec9eee231e1301e94df3270c64f0dd606ea6823532e1d0b5d910160405180910390a350565b803573ffffffffffffffffffffffffffffffffffffffff8116811461035857600080fd5b919050565b6000806040838503121561037057600080fd5b61037983610334565b91506020830135801515811461038e57600080fd5b809150509250929050565b6000602082840312156103ab57600080fd5b6103b482610334565b939250505056fea2646970667358221220501104c6db3868d883031ee0b2b6cba316d5679b966b58911ebf189e97a1968b64736f6c63430008130033",
  "linkReferences": {},
  "deployedLinkReferences": {}
}