{
  "_format": "hh-sol-artifact-1",
  "contractName": "File",
  "sourceName": "src/file.sol",
  "abi": [
    {
      "inputs": [],
      "name": "ErrHighToll",
      "type": "error"
    },
    {
      "inputs": [],
      "name": "ErrHighWel",
      "type": "error"
    },
    {
      "inputs": [],
      "name": "ErrIntOver",
      "type": "error"
    },
    {
      "inputs": [],
      "name": "ErrIntUnder",
      "type": "error"
    },
    {
      "inputs": [],
      "name": "ErrUintOver",
      "type": "error"
    },
    {
      "inputs": [],
      "name": "ErrUintUnder",
      "type": "error"
    },
    {
      "inputs": [],
      "name": "ErrWrongKey",
      "type": "error"
    },
    {
      "inputs": [],
      "name": "ErrWrongUrn",
      "type": "error"
    },
    {
      "anonymous": false,
      "inputs": [
        {
          "indexed": true,
          "internalType": "address",
          "name": "caller",
          "type": "address"
        },
        {
          "indexed": true,
          "internalType": "bytes4",
          "name": "sig",
          "type": "bytes4"
        },
        {
          "indexed": false,
          "internalType": "bytes",
          "name": "data",
          "type": "bytes"
        }
      ],
      "name": "NewFlog",
      "type": "event"
    },
    {
      "anonymous": false,
      "inputs": [
        {
          "indexed": true,
          "internalType": "bytes32",
          "name": "key",
          "type": "bytes32"
        },
        {
          "indexed": false,
          "internalType": "bytes32",
          "name": "val",
          "type": "bytes32"
        }
      ],
      "name": "NewPalm0",
      "type": "event"
    },
    {
      "anonymous": false,
      "inputs": [
        {
          "indexed": true,
          "internalType": "bytes32",
          "name": "key",
          "type": "bytes32"
        },
        {
          "indexed": true,
          "internalType": "bytes32",
          "name": "idx0",
          "type": "bytes32"
        },
        {
          "indexed": false,
          "internalType": "bytes32",
          "name": "val",
          "type": "bytes32"
        }
      ],
      "name": "NewPalm1",
      "type": "event"
    },
    {
      "anonymous": false,
      "inputs": [
        {
          "indexed": true,
          "internalType": "bytes32",
          "name": "key",
          "type": "bytes32"
        },
        {
          "indexed": true,
          "internalType": "bytes32",
          "name": "idx0",
          "type": "bytes32"
        },
        {
          "indexed": true,
          "internalType": "bytes32",
          "name": "idx1",
          "type": "bytes32"
        },
        {
          "indexed": false,
          "internalType": "bytes32",
          "name": "val",
          "type": "bytes32"
        }
      ],
      "name": "NewPalm2",
      "type": "event"
    },
    {
      "anonymous": false,
      "inputs": [
        {
          "indexed": true,
          "internalType": "bytes32",
          "name": "key",
          "type": "bytes32"
        },
        {
          "indexed": true,
          "internalType": "bytes32",
          "name": "idx0",
          "type": "bytes32"
        },
        {
          "indexed": true,
          "internalType": "bytes32",
          "name": "idx1",
          "type": "bytes32"
        },
        {
          "indexed": false,
          "internalType": "bytes",
          "name": "val",
          "type": "bytes"
        }
      ],
      "name": "NewPalmBytes2",
      "type": "event"
    },
    {
      "inputs": [],
      "name": "fb",
      "outputs": [
        {
          "internalType": "contract Feedbase",
          "name": "",
          "type": "address"
        }
      ],
      "stateMutability": "view",
      "type": "function"
    },
    {
      "inputs": [
        {
          "internalType": "bytes32",
          "name": "key",
          "type": "bytes32"
        },
        {
          "internalType": "bytes32",
          "name": "val",
          "type": "bytes32"
        }
      ],
      "name": "file",
      "outputs": [],
      "stateMutability": "nonpayable",
      "type": "function"
    },
    {
      "inputs": [],
      "name": "rico",
      "outputs": [
        {
          "internalType": "contract Gem",
          "name": "",
          "type": "address"
        }
      ],
      "stateMutability": "view",
      "type": "function"
    },
    {
      "inputs": [
        {
          "internalType": "uint256",
          "name": "x",
          "type": "uint256"
        },
        {
          "internalType": "uint256",
          "name": "n",
          "type": "uint256"
        }
      ],
      "name": "rpow",
      "outputs": [
        {
          "internalType": "uint256",
          "name": "z",
          "type": "uint256"
        }
      ],
      "stateMutability": "pure",
      "type": "function"
    }
  ],
  "bytecode": "0x608060405234801561001057600080fd5b50610b47806100206000396000f3fe608060405234801561001057600080fd5b506004361061004c5760003560e01c806306029ec2146100515780638f90719514610083578063e9b674b9146100a4578063eb666475146100b9575b600080fd5b6100596100c1565b60405173ffffffffffffffffffffffffffffffffffffffff90911681526020015b60405180910390f35b610096610091366004610aa2565b6100e7565b60405190815260200161007a565b6100b76100b2366004610aa2565b6101dd565b005b610059610965565b60006100cb61098e565b5473ffffffffffffffffffffffffffffffffffffffff16919050565b60008180156101c6578380156101bb5760018416801561010957859350610119565b6b033b2e3c9fd0803ce800000093505b506002909304926b019d971e4fe8401e740000005b84156101b5578586028660801c1561014557600080fd5b8181018181101561015557600080fd5b6b033b2e3c9fd0803ce8000000900496505060018516156101aa57858402848782041415871515161561018757600080fd5b8181018181101561019757600080fd5b6b033b2e3c9fd0803ce800000090049450505b60028504945061012e565b506101c0565b600092505b506101d6565b6b033b2e3c9fd0803ce800000091505b5092915050565b7f8a22373512790c48b83a1fe2efdd2888d4a917bcdc24d0adf63e60f6716804605473ffffffffffffffffffffffffffffffffffffffff163314610281576040517f08c379a000000000000000000000000000000000000000000000000000000000815260206004820152601d60248201527f4f776e61626c653a2073656e646572206d757374206265206f776e6572000000604482015260640160405180910390fd5b6000357fffffffff00000000000000000000000000000000000000000000000000000000167bffffffffffffffffffffffffffffffffffffffffffffffffffffffff19163373ffffffffffffffffffffffffffffffffffffffff167fc8b2a2dbd2bddf4ecc3e665d9828132a78820abf89df014d2ce4510f27a1606160003660405161030e929190610ac4565b60405180910390a36000610320610a00565b9050600061032c610a36565b90506000610338610a6c565b9050600061034461098e565b9050857f7269636f000000000000000000000000000000000000000000000000000000000361039e5780547fffffffffffffffffffffffff000000000000000000000000000000000000000016606086901c178155610923565b857f6662000000000000000000000000000000000000000000000000000000000000036103fa576001810180547fffffffffffffffffffffffff000000000000000000000000000000000000000016606087901c179055610923565b857f6365696c000000000000000000000000000000000000000000000000000000000361042d5760068401859055610923565b857f7061720000000000000000000000000000000000000000000000000000000000036104605760078401859055610923565b857f72656c0000000000000000000000000000000000000000000000000000000000036104935760018301859055610923565b857f62656c0000000000000000000000000000000000000000000000000000000000036104c65760028301859055610923565b857f63656c0000000000000000000000000000000000000000000000000000000000036104f95760038301859055610923565b857f77656c00000000000000000000000000000000000000000000000000000000000361056e57670de0b6b3a7640000851115610562576040517fd26c831b00000000000000000000000000000000000000000000000000000000815260040160405180910390fd5b60048301859055610923565b857f746f6c6c00000000000000000000000000000000000000000000000000000000036105e7576b033b2e3c9fd0803ce80000008511156105db576040517f487fe43c00000000000000000000000000000000000000000000000000000000815260040160405180910390fd5b60058301859055610923565b857f706c6f742e7065700000000000000000000000000000000000000000000000000361061a5760088301859055610923565b857f706c61742e7065700000000000000000000000000000000000000000000000000361064d5760068301859055610923565b857f706c6f742e706f70000000000000000000000000000000000000000000000000036106805760098301859055610923565b857f706c61742e706f70000000000000000000000000000000000000000000000000036106b35760078301859055610923565b857f727564642e7372630000000000000000000000000000000000000000000000000361070f57600a830180547fffffffffffffffffffffffff000000000000000000000000000000000000000016606087901c179055610923565b857f727564642e7461670000000000000000000000000000000000000000000000000361074257600b8301859055610923565b857f7269736b000000000000000000000000000000000000000000000000000000000361079a5782547fffffffffffffffffffffffff000000000000000000000000000000000000000016606086901c178355610923565b857f7469702e73726300000000000000000000000000000000000000000000000000036107f25781547fffffffffffffffffffffffff000000000000000000000000000000000000000016606086901c178255610923565b857f7469702e74616700000000000000000000000000000000000000000000000000036108255760018201859055610923565b857f686f770000000000000000000000000000000000000000000000000000000000036108585760038201859055610923565b857f63617000000000000000000000000000000000000000000000000000000000000361088b5760058201859055610923565b857f7461750000000000000000000000000000000000000000000000000000000000036108be5760048201859055610923565b857f7761790000000000000000000000000000000000000000000000000000000000036108f15760028201859055610923565b6040517f0b84bcb500000000000000000000000000000000000000000000000000000000815260040160405180910390fd5b857f16e9c051056ea742d289d2cb753372cf432f332213ecd495b26ea8f72e3cf2e08660405161095591815260200190565b60405180910390a2505050505050565b600061096f61098e565b6001015473ffffffffffffffffffffffffffffffffffffffff16919050565b6000807f7269636f62616e6b2e30000000000000000000000000000000000000000000006040516020016109c491815260200190565b604080517fffffffffffffffffffffffffffffffffffffffffffffffffffffffffffffffe0818403018152919052805160209091012092915050565b6000807f7661742e300000000000000000000000000000000000000000000000000000006040516020016109c491815260200190565b6000807f766f772e300000000000000000000000000000000000000000000000000000006040516020016109c491815260200190565b6000807f766f782e300000000000000000000000000000000000000000000000000000006040516020016109c491815260200190565b60008060408385031215610ab557600080fd5b50508035926020909101359150565b60208152816020820152818360408301376000818301604090810191909152601f9092017fffffffffffffffffffffffffffffffffffffffffffffffffffffffffffffffe016010191905056fea26469706673582212201200785634cc4c72566d6b0a11c79e117db83f34a596045f9aca3bdd5746c8cb64736f6c63430008130033",
  "linkReferences": {},
  "deployedLinkReferences": {}
}