{
  "_format": "hh-sol-artifact-1",
  "contractName": "UniNFTHook",
  "sourceName": "src/hook/nfpm/UniV3NFTHook.sol",
  "abi": [
    {
      "inputs": [],
      "name": "ErrDinkLength",
      "type": "error"
    },
    {
      "inputs": [],
      "name": "ErrDir",
      "type": "error"
    },
    {
      "inputs": [],
      "name": "ErrFull",
      "type": "error"
    },
    {
      "inputs": [],
      "name": "ErrIntOver",
      "type": "error"
    },
    {
      "inputs": [],
      "name": "ErrIntUnder",
      "type": "error"
    },
    {
      "inputs": [],
      "name": "ErrNotFound",
      "type": "error"
    },
    {
      "inputs": [],
      "name": "ErrUintOver",
      "type": "error"
    },
    {
      "inputs": [],
      "name": "ErrUintUnder",
      "type": "error"
    },
    {
      "inputs": [],
      "name": "ErrWrongKey",
      "type": "error"
    },
    {
      "inputs": [],
      "name": "ErrWrongUrn",
      "type": "error"
    },
    {
      "anonymous": false,
      "inputs": [
        {
          "indexed": true,
          "internalType": "address",
          "name": "caller",
          "type": "address"
        },
        {
          "indexed": true,
          "internalType": "bytes4",
          "name": "sig",
          "type": "bytes4"
        },
        {
          "indexed": false,
          "internalType": "bytes",
          "name": "data",
          "type": "bytes"
        }
      ],
      "name": "NewFlog",
      "type": "event"
    },
    {
      "anonymous": false,
      "inputs": [
        {
          "indexed": true,
          "internalType": "bytes32",
          "name": "key",
          "type": "bytes32"
        },
        {
          "indexed": false,
          "internalType": "bytes32",
          "name": "val",
          "type": "bytes32"
        }
      ],
      "name": "NewPalm0",
      "type": "event"
    },
    {
      "anonymous": false,
      "inputs": [
        {
          "indexed": true,
          "internalType": "bytes32",
          "name": "key",
          "type": "bytes32"
        },
        {
          "indexed": true,
          "internalType": "bytes32",
          "name": "idx0",
          "type": "bytes32"
        },
        {
          "indexed": false,
          "internalType": "bytes32",
          "name": "val",
          "type": "bytes32"
        }
      ],
      "name": "NewPalm1",
      "type": "event"
    },
    {
      "anonymous": false,
      "inputs": [
        {
          "indexed": true,
          "internalType": "bytes32",
          "name": "key",
          "type": "bytes32"
        },
        {
          "indexed": true,
          "internalType": "bytes32",
          "name": "idx0",
          "type": "bytes32"
        },
        {
          "indexed": true,
          "internalType": "bytes32",
          "name": "idx1",
          "type": "bytes32"
        },
        {
          "indexed": false,
          "internalType": "bytes32",
          "name": "val",
          "type": "bytes32"
        }
      ],
      "name": "NewPalm2",
      "type": "event"
    },
    {
      "anonymous": false,
      "inputs": [
        {
          "indexed": true,
          "internalType": "bytes32",
          "name": "key",
          "type": "bytes32"
        },
        {
          "indexed": true,
          "internalType": "bytes32",
          "name": "idx0",
          "type": "bytes32"
        },
        {
          "indexed": true,
          "internalType": "bytes32",
          "name": "idx1",
          "type": "bytes32"
        },
        {
          "indexed": false,
          "internalType": "bytes",
          "name": "val",
          "type": "bytes"
        }
      ],
      "name": "NewPalmBytes2",
      "type": "event"
    },
    {
      "inputs": [
        {
          "components": [
            {
              "internalType": "bytes32",
              "name": "i",
              "type": "bytes32"
            },
            {
              "internalType": "address",
              "name": "u",
              "type": "address"
            },
            {
              "internalType": "uint256",
              "name": "bill",
              "type": "uint256"
            },
            {
              "internalType": "uint256",
              "name": "owed",
              "type": "uint256"
            },
            {
              "internalType": "address",
              "name": "keeper",
              "type": "address"
            },
            {
              "internalType": "uint256",
              "name": "deal",
              "type": "uint256"
            },
            {
              "internalType": "uint256",
              "name": "tot",
              "type": "uint256"
            }
          ],
          "internalType": "struct Hook.BHParams",
          "name": "p",
          "type": "tuple"
        }
      ],
      "name": "bailhook",
      "outputs": [
        {
          "internalType": "bytes",
          "name": "",
          "type": "bytes"
        }
      ],
      "stateMutability": "nonpayable",
      "type": "function"
    },
    {
      "inputs": [
        {
          "internalType": "bytes32",
          "name": "key",
          "type": "bytes32"
        },
        {
          "internalType": "bytes32",
          "name": "i",
          "type": "bytes32"
        },
        {
          "internalType": "bytes32[]",
          "name": "xs",
          "type": "bytes32[]"
        },
        {
          "internalType": "bytes32",
          "name": "val",
          "type": "bytes32"
        }
      ],
      "name": "file",
      "outputs": [],
      "stateMutability": "nonpayable",
      "type": "function"
    },
    {
      "inputs": [
        {
          "components": [
            {
              "internalType": "address",
              "name": "sender",
              "type": "address"
            },
            {
              "internalType": "bytes32",
              "name": "i",
              "type": "bytes32"
            },
            {
              "internalType": "address",
              "name": "u",
              "type": "address"
            },
            {
              "internalType": "bytes",
              "name": "dink",
              "type": "bytes"
            },
            {
              "internalType": "int256",
              "name": "dart",
              "type": "int256"
            }
          ],
          "internalType": "struct Hook.FHParams",
          "name": "p",
          "type": "tuple"
        }
      ],
      "name": "frobhook",
      "outputs": [
        {
          "internalType": "bool",
          "name": "safer",
          "type": "bool"
        }
      ],
      "stateMutability": "nonpayable",
      "type": "function"
    },
    {
      "inputs": [
        {
          "internalType": "bytes32",
          "name": "key",
          "type": "bytes32"
        },
        {
          "internalType": "bytes32",
          "name": "i",
          "type": "bytes32"
        },
        {
          "internalType": "bytes32[]",
          "name": "xs",
          "type": "bytes32[]"
        }
      ],
      "name": "get",
      "outputs": [
        {
          "internalType": "bytes32",
          "name": "",
          "type": "bytes32"
        }
      ],
      "stateMutability": "view",
      "type": "function"
    },
    {
      "inputs": [
        {
          "internalType": "bytes32",
          "name": "i",
          "type": "bytes32"
        },
        {
          "internalType": "address",
          "name": "u",
          "type": "address"
        }
      ],
      "name": "ink",
      "outputs": [
        {
          "internalType": "bytes",
          "name": "",
          "type": "bytes"
        }
      ],
      "stateMutability": "view",
      "type": "function"
    },
    {
      "inputs": [
        {
          "internalType": "uint256",
          "name": "x",
          "type": "uint256"
        },
        {
          "internalType": "uint256",
          "name": "n",
          "type": "uint256"
        }
      ],
      "name": "rpow",
      "outputs": [
        {
          "internalType": "uint256",
          "name": "z",
          "type": "uint256"
        }
      ],
      "stateMutability": "pure",
      "type": "function"
    },
    {
      "inputs": [
        {
          "internalType": "bytes32",
          "name": "i",
          "type": "bytes32"
        },
        {
          "internalType": "address",
          "name": "u",
          "type": "address"
        }
      ],
      "name": "safehook",
      "outputs": [
        {
          "internalType": "uint256",
          "name": "tot",
          "type": "uint256"
        },
        {
          "internalType": "uint256",
          "name": "cut",
          "type": "uint256"
        },
        {
          "internalType": "uint256",
          "name": "minttl",
          "type": "uint256"
        }
      ],
      "stateMutability": "view",
      "type": "function"
    }
  ],
  "bytecode": "0x608060405234801561001057600080fd5b506125f0806100206000396000f3fe608060405234801561001057600080fd5b506004361061007d5760003560e01c8063ad9ff9ba1161005b578063ad9ff9ba146100eb578063d09e623f1461010b578063d50203e21461011e578063ffe567e81461014157600080fd5b8063238131ef1461008257806381560b88146100b55780638f907195146100ca575b600080fd5b610095610090366004611e9d565b610154565b604080519384526020840192909252908201526060015b60405180910390f35b6100c86100c3366004611f19565b610454565b005b6100dd6100d8366004611f74565b6107dd565b6040519081526020016100ac565b6100fe6100f9366004611f96565b6108d3565b6040516100ac9190611fae565b6100dd61011936600461201a565b610d90565b61013161012c36600461206d565b611040565b60405190151581526020016100ac565b6100fe61014f366004611e9d565b61176f565b6000806000806101626117e2565b6001015473ffffffffffffffffffffffffffffffffffffffff169050600061018987611854565b73ffffffffffffffffffffffffffffffffffffffff8716600090815260018201602052604081207fffffffffffffffffffffffffffffffffffffffffffffffffffffffffffffffff955091925080805b835481101561044757600061020a8583815481106101f9576101f96120a8565b9060005260206000200154876118a7565b805173ffffffffffffffffffffffffffffffffffffffff908116600090815260208981526040808320918501519093168252918120600280840154908201549495509293909261025991611c4d565b835460018501546040517f52ba849100000000000000000000000000000000000000000000000000000000815273ffffffffffffffffffffffffffffffffffffffff928316600482015260248101919091529192508b16906352ba8491906044016040805180830381865afa1580156102d6573d6000803e3d6000fd5b505050506040513d601f19601f820116820180604052508101906102fa91906120d7565b6040860151909c5090965061031090879061212a565b61031a908e612141565b9c506103268682611c66565b8460400151610335919061212a565b61033f908d612141565b825460018401546040517f52ba849100000000000000000000000000000000000000000000000000000000815273ffffffffffffffffffffffffffffffffffffffff92831660048201526024810191909152919d508b16906352ba8491906044016040805180830381865afa1580156103bc573d6000803e3d6000fd5b505050506040513d601f19601f820116820180604052508101906103e091906120d7565b975095506103ee8b88611c89565b6060850151909b5061040190879061212a565b61040b908e612141565b9c506104178682611c66565b8460600151610426919061212a565b610430908d612141565b9b50505050508061044090612154565b90506101d9565b5050505050509250925092565b600061045f85611854565b9050600083900361062d57857f6e66706d00000000000000000000000000000000000000000000000000000000036104c6576003810180547fffffffffffffffffffffffff000000000000000000000000000000000000000016606084901c1790556105ed565b857f726f6f6d00000000000000000000000000000000000000000000000000000000036104f957600481018290556105ed565b857f777261700000000000000000000000000000000000000000000000000000000003610555576002810180547fffffffffffffffffffffffff000000000000000000000000000000000000000016606084901c1790556105ed565b857f70657000000000000000000000000000000000000000000000000000000000000361058857600581018290556105ed565b857f706f700000000000000000000000000000000000000000000000000000000000036105bb57600681018290556105ed565b6040517f0b84bcb500000000000000000000000000000000000000000000000000000000815260040160405180910390fd5b84867fa6a62c84c48e7b9441c54da7ead6df8213afddbc24649e1f6b88294160ef069f8460405161062091815260200190565b60405180910390a36107d5565b60018390036105bb5760008484600081811061064b5761064b6120a8565b9050602002013560601c9050867f7372630000000000000000000000000000000000000000000000000000000000036106d45773ffffffffffffffffffffffffffffffffffffffff8116600090815260208390526040902080547fffffffffffffffffffffffff000000000000000000000000000000000000000016606085901c17905561077e565b867f74616700000000000000000000000000000000000000000000000000000000000361072b5773ffffffffffffffffffffffffffffffffffffffff8116600090815260208390526040902060010183905561077e565b867f6c69717200000000000000000000000000000000000000000000000000000000036105bb5773ffffffffffffffffffffffffffffffffffffffff811660009081526020839052604090206002018390555b84846000818110610791576107916120a8565b9050602002013586887f82bcec2bd7095ddf55d9a6327af92ab6ed14951aa1a7cce10fdfe691bb3cbed8866040516107cb91815260200190565b60405180910390a4505b505050505050565b60008180156108bc578380156108b1576001841680156107ff5785935061080f565b6b033b2e3c9fd0803ce800000093505b506002909304926b019d971e4fe8401e740000005b84156108ab578586028660801c1561083b57600080fd5b8181018181101561084b57600080fd5b6b033b2e3c9fd0803ce8000000900496505060018516156108a057858402848782041415871515161561087d57600080fd5b8181018181101561088d57600080fd5b6b033b2e3c9fd0803ce800000090049450505b600285049450610824565b506108b6565b600092505b506108cc565b6b033b2e3c9fd0803ce800000091505b5092915050565b606060006108e18335611854565b9050600060018201816108fa604087016020880161218c565b73ffffffffffffffffffffffffffffffffffffffff1673ffffffffffffffffffffffffffffffffffffffff16815260200190815260200160002080548060200260200160405190810160405280929190818152602001828054801561097e57602002820191906000526020600020905b81548152602001906001019080831161096a575b5050505050905081600101600085602001602081019061099e919061218c565b73ffffffffffffffffffffffffffffffffffffffff1673ffffffffffffffffffffffffffffffffffffffff16815260200190815260200160002060006109e49190611e41565b6109f4604085016020860161218c565b60601b6bffffffffffffffffffffffff191684600001357f696e6b00000000000000000000000000000000000000000000000000000000007f4748c91b9d8e8f630aac18a71e9a654635e4de6a3df78d0471239f72d951b89260405180602001604052806000815250604051610a6a9190611fae565b60405180910390a46000610ab8610a916b033b2e3c9fd0803ce800000060c08801356121d8565b610ab3610aa98860a0013587600501600001546107dd565b6006870154611c99565b611c99565b90506000610ac46117e2565b5473ffffffffffffffffffffffffffffffffffffffff16905080639dc29fac610af360a0890160808a0161218c565b6040517fffffffff0000000000000000000000000000000000000000000000000000000060e084901b16815273ffffffffffffffffffffffffffffffffffffffff909116600482015260248101859052604401600060405180830381600087803b158015610b6057600080fd5b505af1158015610b74573d6000803e3d6000fd5b50505050600086604001358311610b8c576000610b9a565b610b9a6040880135846121ec565b90508015610c545773ffffffffffffffffffffffffffffffffffffffff82166340c10f19610bce60408a0160208b0161218c565b6040517fffffffff0000000000000000000000000000000000000000000000000000000060e084901b16815273ffffffffffffffffffffffffffffffffffffffff909116600482015260248101849052604401600060405180830381600087803b158015610c3b57600080fd5b505af1158015610c4f573d6000803e3d6000fd5b505050505b610c6587358460608a013584611cb2565b835160005b6000868281518110610c7e57610c7e6120a8565b6020908102919091010151600389015490915073ffffffffffffffffffffffffffffffffffffffff166323b872dd30610cbd60a08e0160808f0161218c565b6040517fffffffff0000000000000000000000000000000000000000000000000000000060e085901b16815273ffffffffffffffffffffffffffffffffffffffff92831660048201529116602482015260448101849052606401600060405180830381600087803b158015610d3157600080fd5b505af1158015610d45573d6000803e3d6000fd5b50506001909301925050828210610d5c5750610d62565b50610c6a565b85604051602001610d7391906121ff565b604051602081830303815290604052975050505050505050919050565b600080610d9c85611854565b90506000839003610eeb57857f6e66706d0000000000000000000000000000000000000000000000000000000003610dfe576003015460601b7fffffffffffffffffffffffffffffffffffffffff000000000000000000000000169050611038565b857f726f6f6d0000000000000000000000000000000000000000000000000000000003610e3057600401549050611038565b857f777261700000000000000000000000000000000000000000000000000000000003610e87576002015460601b7fffffffffffffffffffffffffffffffffffffffff000000000000000000000000169050611038565b857f706570000000000000000000000000000000000000000000000000000000000003610eb957600501549050611038565b857f706f700000000000000000000000000000000000000000000000000000000000036105bb57600601549050611038565b60018390036105bb57600084846000818110610f0957610f096120a8565b9050602002013560601c9050867f737263000000000000000000000000000000000000000000000000000000000003610f8e5773ffffffffffffffffffffffffffffffffffffffff166000908152602091909152604090205460601b7fffffffffffffffffffffffffffffffffffffffff000000000000000000000000169050611038565b867f746167000000000000000000000000000000000000000000000000000000000003610fe55773ffffffffffffffffffffffffffffffffffffffff16600090815260209190915260409020600101549050611038565b867f6c69717200000000000000000000000000000000000000000000000000000000036105bb5773ffffffffffffffffffffffffffffffffffffffff166000908152602091909152604090206002015490505b949350505050565b6000806110508360200135611854565b905060006001820181611069606087016040880161218c565b73ffffffffffffffffffffffffffffffffffffffff168152602080820192909252604001600020915061109f6060860186612235565b6110aa92915061229a565b156110e1576040517fcdc9cb7d00000000000000000000000000000000000000000000000000000000815260040160405180910390fd5b60006110f06060860186612235565b159050611121576111046060860186612235565b611113916020916000916122ae565b61111c916122d8565b611124565b60015b90506001811415801561115757507fffffffffffffffffffffffffffffffffffffffffffffffffffffffffffffffff8114155b1561118e576040517f80e0647700000000000000000000000000000000000000000000000000000000815260040160405180910390fd5b7fffffffffffffffffffffffffffffffffffffffffffffffffffffffffffffffff8114806111c0575060008560800135135b801561121357506111d4602086018661218c565b73ffffffffffffffffffffffffffffffffffffffff166111fa606087016040880161218c565b73ffffffffffffffffffffffffffffffffffffffff1614155b1561124a576040517ff31e962a00000000000000000000000000000000000000000000000000000000815260040160405180910390fd5b600181036113d057600060808601351315935060205b61126d6060870187612235565b90508110156113ca5760006112856060880188612235565b8390611292826020612141565b9261129f939291906122ae565b6112a8916122d8565b600386015490915073ffffffffffffffffffffffffffffffffffffffff166323b872dd6112d860208a018a61218c565b6040517fffffffff0000000000000000000000000000000000000000000000000000000060e084901b16815273ffffffffffffffffffffffffffffffffffffffff909116600482015230602482015260448101849052606401600060405180830381600087803b15801561134b57600080fd5b505af115801561135f573d6000803e3d6000fd5b505085546001810187556000878152602090200183905550506004850154845411156113b7576040517f919ec7b600000000000000000000000000000000000000000000000000000000815260040160405180910390fd5b506113c3602082612141565b9050611260565b506116ad565b81546020806113e26060890189612235565b6113ed9291506121ec565b6113f791906121d8565b111561142f576040517fcdc9cb7d00000000000000000000000000000000000000000000000000000000815260040160405180910390fd5b60205b61143f6060870187612235565b905081101561158a5760006114576060880188612235565b8390611464826020612141565b92611471939291906122ae565b61147a916122d8565b90506000805b855481101561153d57600086828154811061149d5761149d6120a8565b906000526020600020015490508381149250821561152c57865487906114c5906001906121ec565b815481106114d5576114d56120a8565b90600052602060002001548783815481106114f2576114f26120a8565b90600052602060002001819055508680548061151057611510612314565b600190038181906000526020600020016000905590555061153d565b5061153681612154565b9050611480565b5080611575576040517fae9a63f500000000000000000000000000000000000000000000000000000000815260040160405180910390fd5b506115839050602082612141565b9050611432565b5060205b61159b6060870187612235565b90508110156116ab5760006115b36060880188612235565b83906115c0826020612141565b926115cd939291906122ae565b6115d6916122d8565b600386015490915073ffffffffffffffffffffffffffffffffffffffff166323b872dd3061160a60608b0160408c0161218c565b6040517fffffffff0000000000000000000000000000000000000000000000000000000060e085901b16815273ffffffffffffffffffffffffffffffffffffffff92831660048201529116602482015260448101849052606401600060405180830381600087803b15801561167e57600080fd5b505af1158015611692573d6000803e3d6000fd5b50505050506020816116a49190612141565b905061158e565b505b6116bd606086016040870161218c565b60601b6bffffffffffffffffffffffff191685602001357f696e6b00000000000000000000000000000000000000000000000000000000007f4748c91b9d8e8f630aac18a71e9a654635e4de6a3df78d0471239f72d951b892856040516020016117279190612343565b604080517fffffffffffffffffffffffffffffffffffffffffffffffffffffffffffffffe08184030181529082905261175f91611fae565b60405180910390a4505050919050565b606061177a83611854565b60010160008373ffffffffffffffffffffffffffffffffffffffff1673ffffffffffffffffffffffffffffffffffffffff1681526020019081526020016000206040516020016117ca9190612374565b60405160208183030381529060405290505b92915050565b6000807f7269636f62616e6b2e300000000000000000000000000000000000000000000060405160200161181891815260200190565b604080517fffffffffffffffffffffffffffffffffffffffffffffffffffffffffffffffe0818403018152919052805160209091012092915050565b6000808260405160200161186a91815260200190565b604080517fffffffffffffffffffffffffffffffffffffffffffffffffffffffffffffffe081840301815291905280516020909101209392505050565b604080516080810182526000808252602082018190529181018290526060810191909152604080516080810182526000808252602082018190529181018290526060810191909152600383015460028401546040517f99fbab880000000000000000000000000000000000000000000000000000000081526004810187905260009273ffffffffffffffffffffffffffffffffffffffff90811692169082906399fbab889060240161018060405180830381865afa15801561196d573d6000803e3d6000fd5b505050506040513d601f19601f820116820180604052508101906119919190612410565b50505073ffffffffffffffffffffffffffffffffffffffff9586166020808f01919091529686168d525050604080517fc45a01550000000000000000000000000000000000000000000000000000000081529051939a50600097508885169650638716c5ff95948a169463c45a01559460048084019550919350918290030181865afa158015611a25573d6000803e3d6000fd5b505050506040513d601f19601f82011682018060405250810190611a4991906124f1565b8751602089015160405160e085901b7fffffffff0000000000000000000000000000000000000000000000000000000016815273ffffffffffffffffffffffffffffffffffffffff9384166004820152918316602483015291909116604482015262ffffff87166064820152608401602060405180830381865afa158015611ad5573d6000803e3d6000fd5b505050506040513d601f19601f82011682018060405250810190611af991906124f1565b905060008173ffffffffffffffffffffffffffffffffffffffff16633850c7bd6040518163ffffffff1660e01b815260040160e060405180830381865afa158015611b48573d6000803e3d6000fd5b505050506040513d601f19601f82011682018060405250810190611b6c9190612520565b50506040517f5b6dc0920000000000000000000000000000000000000000000000000000000081529495505073ffffffffffffffffffffffffffffffffffffffff871693635b6dc0929350611bf692508891508d90869060040173ffffffffffffffffffffffffffffffffffffffff93841681526020810192909252909116604082015260600190565b6040805180830381865afa158015611c12573d6000803e3d6000fd5b505050506040513d601f19601f82011682018060405250810190611c3691906120d7565b606088015260408701525093979650505050505050565b600081831015611c5d5781611c5f565b825b9392505050565b600081611c7f6b033b2e3c9fd0803ce80000008561212a565b611c5f91906121d8565b600081831115611c5d5781611c5f565b60006b033b2e3c9fd0803ce8000000611c7f838561212a565b6000611cbc611e0b565b905082841015611d875760008581526020829052604081206002015490611ce386866121ec565b611cf9906b033b2e3c9fd0803ce800000061212a565b90506000828211611d1357611d0e82846121ec565b611d16565b60005b60008981526020868152604091829020600201839055905182815291925089917f6c696e6500000000000000000000000000000000000000000000000000000000917fa6a62c84c48e7b9441c54da7ead6df8213afddbc24649e1f6b88294160ef069f910160405180910390a35050505b600082858360020154611d9a9190612141565b611da491906121ec565b600283018190556040518181529091507f6a6f790000000000000000000000000000000000000000000000000000000000907f16e9c051056ea742d289d2cb753372cf432f332213ecd495b26ea8f72e3cf2e09060200160405180910390a2505050505050565b6000807f7661742e3000000000000000000000000000000000000000000000000000000060405160200161181891815260200190565b5080546000825590600052602060002090810190611e5f9190611e62565b50565b5b80821115611e775760008155600101611e63565b5090565b73ffffffffffffffffffffffffffffffffffffffff81168114611e5f57600080fd5b60008060408385031215611eb057600080fd5b823591506020830135611ec281611e7b565b809150509250929050565b60008083601f840112611edf57600080fd5b50813567ffffffffffffffff811115611ef757600080fd5b6020830191508360208260051b8501011115611f1257600080fd5b9250929050565b600080600080600060808688031215611f3157600080fd5b8535945060208601359350604086013567ffffffffffffffff811115611f5657600080fd5b611f6288828901611ecd565b96999598509660600135949350505050565b60008060408385031215611f8757600080fd5b50508035926020909101359150565b600060e08284031215611fa857600080fd5b50919050565b600060208083528351808285015260005b81811015611fdb57858101830151858201604001528201611fbf565b5060006040828601015260407fffffffffffffffffffffffffffffffffffffffffffffffffffffffffffffffe0601f8301168501019250505092915050565b6000806000806060858703121561203057600080fd5b8435935060208501359250604085013567ffffffffffffffff81111561205557600080fd5b61206187828801611ecd565b95989497509550505050565b60006020828403121561207f57600080fd5b813567ffffffffffffffff81111561209657600080fd5b820160a08185031215611c5f57600080fd5b7f4e487b7100000000000000000000000000000000000000000000000000000000600052603260045260246000fd5b600080604083850312156120ea57600080fd5b505080516020909101519092909150565b7f4e487b7100000000000000000000000000000000000000000000000000000000600052601160045260246000fd5b80820281158282048414176117dc576117dc6120fb565b808201808211156117dc576117dc6120fb565b60007fffffffffffffffffffffffffffffffffffffffffffffffffffffffffffffffff8203612185576121856120fb565b5060010190565b60006020828403121561219e57600080fd5b8135611c5f81611e7b565b7f4e487b7100000000000000000000000000000000000000000000000000000000600052601260045260246000fd5b6000826121e7576121e76121a9565b500490565b818103818111156117dc576117dc6120fb565b815160009082906020808601845b838110156122295781518552938201939082019060010161220d565b50929695505050505050565b60008083357fffffffffffffffffffffffffffffffffffffffffffffffffffffffffffffffe184360301811261226a57600080fd5b83018035915067ffffffffffffffff82111561228557600080fd5b602001915036819003821315611f1257600080fd5b6000826122a9576122a96121a9565b500690565b600080858511156122be57600080fd5b838611156122cb57600080fd5b5050820193919092039150565b803560208310156117dc577fffffffffffffffffffffffffffffffffffffffffffffffffffffffffffffffff602084900360031b1b1692915050565b7f4e487b7100000000000000000000000000000000000000000000000000000000600052603160045260246000fd5b60008183548391508460005260208060002060005b8381101561222957815485529382019360019182019101612358565b6020808252825482820181905260008481528281209092916040850190845b818110156123af57835483526001938401939285019201612393565b50909695505050505050565b80516123c681611e7b565b919050565b805162ffffff811681146123c657600080fd5b8051600281900b81146123c657600080fd5b80516fffffffffffffffffffffffffffffffff811681146123c657600080fd5b6000806000806000806000806000806000806101808d8f03121561243357600080fd5b8c516bffffffffffffffffffffffff8116811461244f57600080fd5b9b5061245d60208e016123bb565b9a5061246b60408e016123bb565b995061247960608e016123bb565b985061248760808e016123cb565b975061249560a08e016123de565b96506124a360c08e016123de565b95506124b160e08e016123f0565b94506101008d015193506101208d015192506124d06101408e016123f0565b91506124df6101608e016123f0565b90509295989b509295989b509295989b565b60006020828403121561250357600080fd5b8151611c5f81611e7b565b805161ffff811681146123c657600080fd5b600080600080600080600060e0888a03121561253b57600080fd5b875161254681611e7b565b9650612554602089016123de565b95506125626040890161250e565b94506125706060890161250e565b935061257e6080890161250e565b925060a088015160ff8116811461259457600080fd5b60c089015190925080151581146125aa57600080fd5b809150509295989194975092955056fea264697066735822122080c2a76f9da7981d727784f9c7bf5c719f2832679a21f61d824a8e61cd4ee46764736f6c63430008130033",
  "linkReferences": {},
  "deployedLinkReferences": {}
}