{
  "_format": "hh-sol-artifact-1",
  "contractName": "Medianizer",
  "sourceName": "lib/feedbase/src/Medianizer.sol",
  "abi": [
    {
      "inputs": [
        {
          "internalType": "address",
          "name": "fb",
          "type": "address"
        }
      ],
      "stateMutability": "nonpayable",
      "type": "constructor"
    },
    {
      "inputs": [],
      "name": "ErrConfig",
      "type": "error"
    },
    {
      "inputs": [],
      "name": "ErrQuorum",
      "type": "error"
    },
    {
      "inputs": [
        {
          "internalType": "address",
          "name": "caller",
          "type": "address"
        },
        {
          "internalType": "address",
          "name": "object",
          "type": "address"
        },
        {
          "internalType": "bytes4",
          "name": "sig",
          "type": "bytes4"
        }
      ],
      "name": "ErrWard",
      "type": "error"
    },
    {
      "anonymous": false,
      "inputs": [
        {
          "indexed": true,
          "internalType": "address",
          "name": "caller",
          "type": "address"
        },
        {
          "indexed": true,
          "internalType": "address",
          "name": "trusts",
          "type": "address"
        },
        {
          "indexed": false,
          "internalType": "bool",
          "name": "bit",
          "type": "bool"
        }
      ],
      "name": "SetWard",
      "type": "event"
    },
    {
      "inputs": [],
      "name": "feedbase",
      "outputs": [
        {
          "internalType": "contract Feedbase",
          "name": "",
          "type": "address"
        }
      ],
      "stateMutability": "view",
      "type": "function"
    },
    {
      "inputs": [
        {
          "internalType": "bytes32",
          "name": "dtag",
          "type": "bytes32"
        }
      ],
      "name": "getConfig",
      "outputs": [
        {
          "components": [
            {
              "internalType": "address[]",
              "name": "srcs",
              "type": "address[]"
            },
            {
              "internalType": "bytes32[]",
              "name": "tags",
              "type": "bytes32[]"
            },
            {
              "internalType": "uint256",
              "name": "quorum",
              "type": "uint256"
            }
          ],
          "internalType": "struct Medianizer.Config",
          "name": "",
          "type": "tuple"
        }
      ],
      "stateMutability": "view",
      "type": "function"
    },
    {
      "inputs": [
        {
          "internalType": "address",
          "name": "usr",
          "type": "address"
        }
      ],
      "name": "give",
      "outputs": [],
      "stateMutability": "nonpayable",
      "type": "function"
    },
    {
      "inputs": [
        {
          "internalType": "bytes32",
          "name": "dtag",
          "type": "bytes32"
        }
      ],
      "name": "poke",
      "outputs": [],
      "stateMutability": "nonpayable",
      "type": "function"
    },
    {
      "inputs": [
        {
          "internalType": "bytes32",
          "name": "dtag",
          "type": "bytes32"
        },
        {
          "components": [
            {
              "internalType": "address[]",
              "name": "srcs",
              "type": "address[]"
            },
            {
              "internalType": "bytes32[]",
              "name": "tags",
              "type": "bytes32[]"
            },
            {
              "internalType": "uint256",
              "name": "quorum",
              "type": "uint256"
            }
          ],
          "internalType": "struct Medianizer.Config",
          "name": "_config",
          "type": "tuple"
        }
      ],
      "name": "setConfig",
      "outputs": [],
      "stateMutability": "nonpayable",
      "type": "function"
    },
    {
      "inputs": [
        {
          "internalType": "address",
          "name": "usr",
          "type": "address"
        },
        {
          "internalType": "bool",
          "name": "bit",
          "type": "bool"
        }
      ],
      "name": "ward",
      "outputs": [],
      "stateMutability": "nonpayable",
      "type": "function"
    },
    {
      "inputs": [
        {
          "internalType": "address",
          "name": "usr",
          "type": "address"
        }
      ],
      "name": "wards",
      "outputs": [
        {
          "internalType": "bool",
          "name": "",
          "type": "bool"
        }
      ],
      "stateMutability": "view",
      "type": "function"
    }
  ],
  "bytecode": "0x60a060405234801561001057600080fd5b5060405161114e38038061114e83398101604081905261002f91610091565b3360008181526020818152604091829020805460ff19166001908117909155915191825230917f353b799ee5ce93aec9eee231e1301e94df3270c64f0dd606ea6823532e1d0b5d910160405180910390a36001600160a01b03166080526100c1565b6000602082840312156100a357600080fd5b81516001600160a01b03811681146100ba57600080fd5b9392505050565b6080516110646100ea60003960008181610131015281816102e601526105eb01526110646000f3fe608060405234801561001057600080fd5b506004361061007d5760003560e01c8063a7b97e601161005b578063a7b97e60146100d3578063bdf86a66146100e6578063bf353dbb146100f9578063c26a51661461012c57600080fd5b80631504460f146100825780636dd5b69d14610097578063a0628a0c146100c0575b600080fd5b610095610090366004610aee565b610178565b005b6100aa6100a5366004610aee565b610665565b6040516100b79190610b07565b60405180910390f35b6100956100ce366004610bdc565b610772565b6100956100e1366004610c4f565b610864565b6100956100f4366004610c82565b610984565b61011c610107366004610c82565b60006020819052908152604090205460ff1681565b60405190151581526020016100b7565b6101537f000000000000000000000000000000000000000000000000000000000000000081565b60405173ffffffffffffffffffffffffffffffffffffffff90911681526020016100b7565b6000818152600160205260408120805490918190036101c3576040517fe3fdb44e00000000000000000000000000000000000000000000000000000000815260040160405180910390fd5b60008167ffffffffffffffff8111156101de576101de610ca6565b604051908082528060200260200182016040528015610207578160200160208202803683370190505b5090507fffffffffffffffffffffffffffffffffffffffffffffffffffffffffffffffff6000805b848110156104a257600086600001828154811061024e5761024e610cd5565b600091825260208220015460018901805473ffffffffffffffffffffffffffffffffffffffff9092169350908490811061028a5761028a610cd5565b60009182526020822001546040517f52ba849100000000000000000000000000000000000000000000000000000000815273ffffffffffffffffffffffffffffffffffffffff85811660048301526024820183905291935082917f000000000000000000000000000000000000000000000000000000000000000016906352ba8491906044016040805180830381865afa15801561032c573d6000803e3d6000fd5b505050506040513d601f19601f820116820180604052508101906103509190610d04565b91509150804211156103655750505050610490565b851580610395575087610379600188610d57565b8151811061038957610389610cd5565b60200260200101518210155b156103be57818887815181106103ad576103ad610cd5565b602002602001018181525050610472565b60005b8881815181106103d3576103d3610cd5565b602002602001015183106103f357806103eb81610d70565b9150506103c1565b865b818111156104505789610409600183610d57565b8151811061041957610419610cd5565b60200260200101518a828151811061043357610433610cd5565b60209081029190910101528061044881610da8565b9150506103f5565b508289828151811061046457610464610cd5565b602002602001018181525050505b8681101561047e578096505b8561048881610d70565b965050505050505b8061049a81610d70565b91505061022f565b5084600201548110156104e1576040517fe3fdb44e00000000000000000000000000000000000000000000000000000000815260040160405180910390fd5b60006104ee600283610e0c565b60000361057b576000846001610505600286610e20565b61050f9190610d57565b8151811061051f5761051f610cd5565b602002602001015160001c905060008560028561053c9190610e20565b8151811061054c5761054c610cd5565b602002602001015160001c9050600281836105679190610e34565b6105719190610e20565b92506105ae915050565b836002610589600185610d57565b6105939190610e20565b815181106105a3576105a3610cd5565b602002602001015190505b6040517f32e139470000000000000000000000000000000000000000000000000000000081526004810188905260248101829052604481018490527f000000000000000000000000000000000000000000000000000000000000000073ffffffffffffffffffffffffffffffffffffffff16906332e1394790606401600060405180830381600087803b15801561064457600080fd5b505af1158015610658573d6000803e3d6000fd5b5050505050505050505050565b61068960405180606001604052806060815260200160608152602001600081525090565b6000828152600160209081526040918290208251815460809381028201840190945260608101848152909391928492849184018282801561070057602002820191906000526020600020905b815473ffffffffffffffffffffffffffffffffffffffff1681526001909101906020018083116106d5575b505050505081526020016001820180548060200260200160405190810160405280929190818152602001828054801561075857602002820191906000526020600020905b815481526020019060010190808311610744575b505050505081526020016002820154815250509050919050565b3360009081526020819052604090205460ff166107f2576040517f609f9a230000000000000000000000000000000000000000000000000000000081523360048201523060248201527fffffffff000000000000000000000000000000000000000000000000000000006000351660448201526064015b60405180910390fd5b6107fc8180610e47565b905061080b6020830183610e47565b905014610844576040517fd540941a00000000000000000000000000000000000000000000000000000000815260040160405180910390fd5b6000828152600160205260409020819061085e8282610f5c565b50505050565b3360009081526020819052604090205460ff166108df576040517f609f9a230000000000000000000000000000000000000000000000000000000081523360048201523060248201527fffffffff000000000000000000000000000000000000000000000000000000006000351660448201526064016107e9565b604051811515815273ffffffffffffffffffffffffffffffffffffffff83169033907f353b799ee5ce93aec9eee231e1301e94df3270c64f0dd606ea6823532e1d0b5d9060200160405180910390a373ffffffffffffffffffffffffffffffffffffffff91909116600090815260208190526040902080547fffffffffffffffffffffffffffffffffffffffffffffffffffffffffffffff0016911515919091179055565b3360009081526020819052604090205460ff166109ff576040517f609f9a230000000000000000000000000000000000000000000000000000000081523360048201523060248201527fffffffff000000000000000000000000000000000000000000000000000000006000351660448201526064016107e9565b73ffffffffffffffffffffffffffffffffffffffff81166000818152602081815260409182902080547fffffffffffffffffffffffffffffffffffffffffffffffffffffffffffffff00166001908117909155915191825233917f353b799ee5ce93aec9eee231e1301e94df3270c64f0dd606ea6823532e1d0b5d910160405180910390a33360008181526020818152604080832080547fffffffffffffffffffffffffffffffffffffffffffffffffffffffffffffff001690555191825282917f353b799ee5ce93aec9eee231e1301e94df3270c64f0dd606ea6823532e1d0b5d910160405180910390a350565b600060208284031215610b0057600080fd5b5035919050565b6020808252825160608383015280516080840181905260009291820190839060a08601905b80831015610b6257835173ffffffffffffffffffffffffffffffffffffffff168252928401926001929092019190840190610b2c565b50868401518682037fffffffffffffffffffffffffffffffffffffffffffffffffffffffffffffffe00160408801528051808352908501935090840191506000905b80821015610bc45783518352928401929184019160019190910190610ba4565b50506040860151606086015280935050505092915050565b60008060408385031215610bef57600080fd5b82359150602083013567ffffffffffffffff811115610c0d57600080fd5b830160608186031215610c1f57600080fd5b809150509250929050565b73ffffffffffffffffffffffffffffffffffffffff81168114610c4c57600080fd5b50565b60008060408385031215610c6257600080fd5b8235610c6d81610c2a565b915060208301358015158114610c1f57600080fd5b600060208284031215610c9457600080fd5b8135610c9f81610c2a565b9392505050565b7f4e487b7100000000000000000000000000000000000000000000000000000000600052604160045260246000fd5b7f4e487b7100000000000000000000000000000000000000000000000000000000600052603260045260246000fd5b60008060408385031215610d1757600080fd5b505080516020909101519092909150565b7f4e487b7100000000000000000000000000000000000000000000000000000000600052601160045260246000fd5b81810381811115610d6a57610d6a610d28565b92915050565b60007fffffffffffffffffffffffffffffffffffffffffffffffffffffffffffffffff8203610da157610da1610d28565b5060010190565b600081610db757610db7610d28565b507fffffffffffffffffffffffffffffffffffffffffffffffffffffffffffffffff0190565b7f4e487b7100000000000000000000000000000000000000000000000000000000600052601260045260246000fd5b600082610e1b57610e1b610ddd565b500690565b600082610e2f57610e2f610ddd565b500490565b80820180821115610d6a57610d6a610d28565b60008083357fffffffffffffffffffffffffffffffffffffffffffffffffffffffffffffffe1843603018112610e7c57600080fd5b83018035915067ffffffffffffffff821115610e9757600080fd5b6020019150600581901b3603821315610eaf57600080fd5b9250929050565b60008135610d6a81610c2a565b67ffffffffffffffff831115610edb57610edb610ca6565b68010000000000000000831115610ef457610ef4610ca6565b805483825580841015610f2b576000828152602081208581019083015b80821015610f2757828255600182019150610f11565b5050505b5060008181526020812083915b85811015610f5457823582820155602090920191600101610f38565b505050505050565b610f668283610e47565b67ffffffffffffffff811115610f7e57610f7e610ca6565b68010000000000000000811115610f9757610f97610ca6565b825481845580821015610fce576000848152602081208381019083015b80821015610fca57828255600182019150610fb4565b5050505b5060008381526020902060005b82811015610fff57610fec84610eb6565b8282015560209390930192600101610fdb565b505050506110106020830183610e47565b61101e818360018601610ec3565b505060408201356002820155505056fea2646970667358221220b23a0983e7f01a2997ef4e15b42ae19d515a8695f338530fd7f8697a44d6fda264736f6c63430008130033",
  "linkReferences": {},
  "deployedLinkReferences": {}
}