{
  "_format": "hh-sol-artifact-1",
  "contractName": "Vox",
  "sourceName": "src/vox.sol",
  "abi": [
    {
      "inputs": [],
      "name": "ErrIntOver",
      "type": "error"
    },
    {
      "inputs": [],
      "name": "ErrIntUnder",
      "type": "error"
    },
    {
      "inputs": [],
      "name": "ErrUintOver",
      "type": "error"
    },
    {
      "inputs": [],
      "name": "ErrUintUnder",
      "type": "error"
    },
    {
      "inputs": [],
      "name": "ErrWrongKey",
      "type": "error"
    },
    {
      "inputs": [],
      "name": "ErrWrongUrn",
      "type": "error"
    },
    {
      "anonymous": false,
      "inputs": [
        {
          "indexed": true,
          "internalType": "address",
          "name": "caller",
          "type": "address"
        },
        {
          "indexed": true,
          "internalType": "bytes4",
          "name": "sig",
          "type": "bytes4"
        },
        {
          "indexed": false,
          "internalType": "bytes",
          "name": "data",
          "type": "bytes"
        }
      ],
      "name": "NewFlog",
      "type": "event"
    },
    {
      "anonymous": false,
      "inputs": [
        {
          "indexed": true,
          "internalType": "bytes32",
          "name": "key",
          "type": "bytes32"
        },
        {
          "indexed": false,
          "internalType": "bytes32",
          "name": "val",
          "type": "bytes32"
        }
      ],
      "name": "NewPalm0",
      "type": "event"
    },
    {
      "anonymous": false,
      "inputs": [
        {
          "indexed": true,
          "internalType": "bytes32",
          "name": "key",
          "type": "bytes32"
        },
        {
          "indexed": true,
          "internalType": "bytes32",
          "name": "idx0",
          "type": "bytes32"
        },
        {
          "indexed": false,
          "internalType": "bytes32",
          "name": "val",
          "type": "bytes32"
        }
      ],
      "name": "NewPalm1",
      "type": "event"
    },
    {
      "anonymous": false,
      "inputs": [
        {
          "indexed": true,
          "internalType": "bytes32",
          "name": "key",
          "type": "bytes32"
        },
        {
          "indexed": true,
          "internalType": "bytes32",
          "name": "idx0",
          "type": "bytes32"
        },
        {
          "indexed": true,
          "internalType": "bytes32",
          "name": "idx1",
          "type": "bytes32"
        },
        {
          "indexed": false,
          "internalType": "bytes32",
          "name": "val",
          "type": "bytes32"
        }
      ],
      "name": "NewPalm2",
      "type": "event"
    },
    {
      "anonymous": false,
      "inputs": [
        {
          "indexed": true,
          "internalType": "bytes32",
          "name": "key",
          "type": "bytes32"
        },
        {
          "indexed": true,
          "internalType": "bytes32",
          "name": "idx0",
          "type": "bytes32"
        },
        {
          "indexed": true,
          "internalType": "bytes32",
          "name": "idx1",
          "type": "bytes32"
        },
        {
          "indexed": false,
          "internalType": "bytes",
          "name": "val",
          "type": "bytes"
        }
      ],
      "name": "NewPalmBytes2",
      "type": "event"
    },
    {
      "inputs": [],
      "name": "cap",
      "outputs": [
        {
          "internalType": "uint256",
          "name": "",
          "type": "uint256"
        }
      ],
      "stateMutability": "view",
      "type": "function"
    },
    {
      "inputs": [],
      "name": "how",
      "outputs": [
        {
          "internalType": "uint256",
          "name": "",
          "type": "uint256"
        }
      ],
      "stateMutability": "view",
      "type": "function"
    },
    {
      "inputs": [],
      "name": "poke",
      "outputs": [],
      "stateMutability": "nonpayable",
      "type": "function"
    },
    {
      "inputs": [
        {
          "internalType": "uint256",
          "name": "x",
          "type": "uint256"
        },
        {
          "internalType": "uint256",
          "name": "n",
          "type": "uint256"
        }
      ],
      "name": "rpow",
      "outputs": [
        {
          "internalType": "uint256",
          "name": "z",
          "type": "uint256"
        }
      ],
      "stateMutability": "pure",
      "type": "function"
    },
    {
      "inputs": [],
      "name": "tau",
      "outputs": [
        {
          "internalType": "uint256",
          "name": "",
          "type": "uint256"
        }
      ],
      "stateMutability": "view",
      "type": "function"
    },
    {
      "inputs": [],
      "name": "tip",
      "outputs": [
        {
          "components": [
            {
              "internalType": "address",
              "name": "src",
              "type": "address"
            },
            {
              "internalType": "bytes32",
              "name": "tag",
              "type": "bytes32"
            }
          ],
          "internalType": "struct Bank.Rudd",
          "name": "",
          "type": "tuple"
        }
      ],
      "stateMutability": "view",
      "type": "function"
    },
    {
      "inputs": [],
      "name": "way",
      "outputs": [
        {
          "internalType": "uint256",
          "name": "",
          "type": "uint256"
        }
      ],
      "stateMutability": "view",
      "type": "function"
    }
  ],
  "bytecode": "0x608060405234801561001057600080fd5b506108a2806100206000396000f3fe608060405234801561001057600080fd5b506004361061007d5760003560e01c80633a4a42331161005b5780633a4a4233146100e05780635d6542af146100e85780638f907195146100f0578063cfc4af551461010357600080fd5b806318178358146100825780632755cd2d1461008c578063355274ea146100ca575b600080fd5b61008a61010b565b005b610094610436565b60408051825173ffffffffffffffffffffffffffffffffffffffff16815260209283015192810192909252015b60405180910390f35b6100d2610486565b6040519081526020016100c1565b6100d2610499565b6100d26104ac565b6100d26100fe366004610745565b6104bf565b6100d26105b5565b6000357fffffffff00000000000000000000000000000000000000000000000000000000167bffffffffffffffffffffffffffffffffffffffffffffffffffffffff19163373ffffffffffffffffffffffffffffffffffffffff167fc8b2a2dbd2bddf4ecc3e665d9828132a78820abf89df014d2ce4510f27a16061600036604051610198929190610767565b60405180910390a360006101aa6105c8565b905060006101b661063a565b60048101549091504281036101ca57505050565b60006101d682426107e3565b42600485018190556040519081529091507f7461750000000000000000000000000000000000000000000000000000000000907f16e9c051056ea742d289d2cb753372cf432f332213ecd495b26ea8f72e3cf2e09060200160405180910390a26007840154600284015461024b828285610670565b600787018190556040518181529092507f7061720000000000000000000000000000000000000000000000000000000000907f16e9c051056ea742d289d2cb753372cf432f332213ecd495b26ea8f72e3cf2e09060200160405180910390a26000806102b56106a5565b6001908101548854918901546040517f52ba849100000000000000000000000000000000000000000000000000000000815273ffffffffffffffffffffffffffffffffffffffff938416600482015260248101919091529116906352ba8491906044016040805180830381865afa158015610334573d6000803e3d6000fd5b505050506040513d601f19601f8201168201806040525081019061035891906107f6565b915091508042111561036e575050505050505050565b8382101561039957610392876005015461038d858a6003015489610670565b6106db565b92506103d0565b838211156103d0576103cd6103b188600501546106f4565b6103c8856103c28b600301546106f4565b89610670565b610712565b92505b600287018390556040518381527f7761790000000000000000000000000000000000000000000000000000000000907f16e9c051056ea742d289d2cb753372cf432f332213ecd495b26ea8f72e3cf2e09060200160405180910390a25050505050505050565b604080518082019091526000808252602082015261045261063a565b60408051808201909152815473ffffffffffffffffffffffffffffffffffffffff1681526001909101546020820152919050565b600061049061063a565b60050154905090565b60006104a361063a565b60030154905090565b60006104b661063a565b60020154905090565b600081801561059e57838015610593576001841680156104e1578593506104f1565b6b033b2e3c9fd0803ce800000093505b506002909304926b019d971e4fe8401e740000005b841561058d578586028660801c1561051d57600080fd5b8181018181101561052d57600080fd5b6b033b2e3c9fd0803ce80000009004965050600185161561058257858402848782041415871515161561055f57600080fd5b8181018181101561056f57600080fd5b6b033b2e3c9fd0803ce800000090049450505b600285049450610506565b50610598565b600092505b506105ae565b6b033b2e3c9fd0803ce800000091505b5092915050565b60006105bf61063a565b60040154905090565b6000807f7661742e300000000000000000000000000000000000000000000000000000006040516020016105fe91815260200190565b604080517fffffffffffffffffffffffffffffffffffffffffffffffffffffffffffffffe0818403018152919052805160209091012092915050565b6000807f766f782e300000000000000000000000000000000000000000000000000000006040516020016105fe91815260200190565b60006b033b2e3c9fd0803ce800000061068984846104bf565b610693908661081a565b61069d9190610831565b949350505050565b6000807f7269636f62616e6b2e30000000000000000000000000000000000000000000006040516020016105fe91815260200190565b6000818311156106eb57816106ed565b825b9392505050565b600061070c6b033b2e3c9fd0803ce800000083610722565b92915050565b6000818310156106eb57816106ed565b60008161073b6b033b2e3c9fd0803ce80000008561081a565b6106ed9190610831565b6000806040838503121561075857600080fd5b50508035926020909101359150565b60208152816020820152818360408301376000818301604090810191909152601f9092017fffffffffffffffffffffffffffffffffffffffffffffffffffffffffffffffe0160101919050565b7f4e487b7100000000000000000000000000000000000000000000000000000000600052601160045260246000fd5b8181038181111561070c5761070c6107b4565b6000806040838503121561080957600080fd5b505080516020909101519092909150565b808202811582820484141761070c5761070c6107b4565b600082610867577f4e487b7100000000000000000000000000000000000000000000000000000000600052601260045260246000fd5b50049056fea2646970667358221220d0db899425c1be6ffa28b70b19a9978ce7a084a1d758e3dd699ec5d7e7aab95864736f6c63430008130033",
  "linkReferences": {},
  "deployedLinkReferences": {}
}