{
  "_format": "hh-sol-artifact-1",
  "contractName": "GemFab",
  "sourceName": "lib/gemfab/src/gem.sol",
  "abi": [
    {
      "anonymous": false,
      "inputs": [
        {
          "indexed": true,
          "internalType": "address",
          "name": "caller",
          "type": "address"
        },
        {
          "indexed": true,
          "internalType": "address",
          "name": "gem",
          "type": "address"
        }
      ],
      "name": "Build",
      "type": "event"
    },
    {
      "inputs": [
        {
          "internalType": "bytes32",
          "name": "name",
          "type": "bytes32"
        },
        {
          "internalType": "bytes32",
          "name": "symbol",
          "type": "bytes32"
        }
      ],
      "name": "build",
      "outputs": [
        {
          "internalType": "contract Gem",
          "name": "gem",
          "type": "address"
        }
      ],
      "stateMutability": "payable",
      "type": "function"
    },
    {
      "inputs": [
        {
          "internalType": "address",
          "name": "",
          "type": "address"
        }
      ],
      "name": "built",
      "outputs": [
        {
          "internalType": "bool",
          "name": "",
          "type": "bool"
        }
      ],
      "stateMutability": "view",
      "type": "function"
    }
  ],
  "bytecode": "0x608060405234801561001057600080fd5b50611337806100206000396000f3fe6080604052600436106100295760003560e01c80632cc23e841461002e57806330b654f814610073575b600080fd5b34801561003a57600080fd5b5061005e61004936600461027c565b60006020819052908152604090205460ff1681565b60405190151581526020015b60405180910390f35b6100866100813660046102b9565b6100ab565b60405173ffffffffffffffffffffffffffffffffffffffff909116815260200161006a565b600082826040516100bb9061026f565b9182526020820152604001604051809103906000f0801580156100e2573d6000803e3d6000fd5b5073ffffffffffffffffffffffffffffffffffffffff811660008181526020819052604080822080547fffffffffffffffffffffffffffffffffffffffffffffffffffffffffffffff0016600117905551929350909133917f7dc7288b571724fc253653469146b103ac7feda79b8525a533f3c008a94ba96391a36040517fa7b97e600000000000000000000000000000000000000000000000000000000081523360048201526001602482015273ffffffffffffffffffffffffffffffffffffffff82169063a7b97e6090604401600060405180830381600087803b1580156101cb57600080fd5b505af11580156101df573d6000803e3d6000fd5b50506040517fa7b97e600000000000000000000000000000000000000000000000000000000081523060048201526000602482015273ffffffffffffffffffffffffffffffffffffffff8416925063a7b97e609150604401600060405180830381600087803b15801561025157600080fd5b505af1158015610265573d6000803e3d6000fd5b5050505092915050565b611026806102dc83390190565b60006020828403121561028e57600080fd5b813573ffffffffffffffffffffffffffffffffffffffff811681146102b257600080fd5b9392505050565b600080604083850312156102cc57600080fd5b5050803592602090910135915056fe608060405260405161102638038061102683398101604081905261002291610081565b600082815560018281553380835260066020908152604093849020805460ff19168417905592519182529182917f224e941ec27f8c0db169ae803f73b047a21adfc62838c1a168434ecfe1b07245910160405180910390a350506100a5565b6000806040838503121561009457600080fd5b505080516020909101519092909150565b610f72806100b46000396000f3fe6080604052600436106100f35760003560e01c80637ecebe001161008a578063a9059cbb11610059578063a9059cbb146102f4578063bf353dbb14610307578063d505accf14610337578063dd62ed3e1461034a57600080fd5b80637ecebe001461028b57806395d89b41146102b85780639dc29fac146102ce578063a7b97e60146102e157600080fd5b8063313ce567116100c6578063313ce5671461016d5780633644e5151461019457806340c10f191461024957806370a082311461025e57600080fd5b806306fdde03146100f8578063095ea7b31461012157806318160ddd1461014457806323b872dd1461015a575b600080fd5b34801561010457600080fd5b5061010e60005481565b6040519081526020015b60405180910390f35b61013461012f366004610dd2565b610382565b6040519015158152602001610118565b34801561015057600080fd5b5061010e60025481565b610134610168366004610dfc565b6103f1565b34801561017957600080fd5b50610182601281565b60405160ff9091168152602001610118565b3480156101a057600080fd5b5061010e604080517f8b73c3c69bb8fe3d512ecc4cf759cc79239f7b179b0ffacaa9a75d522b39400f60208201527f7e93b3de711138b10fadfa22024b96a0a3a08f812d3afdf331786949e62c5c5a918101919091527f044852b2a670ade5407e78fb2863c51de9fcb96542a07186fe3aeda6bb8a116d60608201524660808201523060a082015260009060c00160405160208183030381529060405280519060200120905090565b61025c610257366004610dd2565b61060a565b005b34801561026a57600080fd5b5061010e610279366004610e38565b60036020526000908152604090205481565b34801561029757600080fd5b5061010e6102a6366004610e38565b60056020526000908152604090205481565b3480156102c457600080fd5b5061010e60015481565b61025c6102dc366004610dd2565b610747565b61025c6102ef366004610e5a565b610836565b610134610302366004610dd2565b61090b565b34801561031357600080fd5b50610134610322366004610e38565b60066020526000908152604090205460ff1681565b61025c610345366004610e96565b610a0d565b34801561035657600080fd5b5061010e610365366004610f09565b600460209081526000928352604080842090915290825290205481565b33600081815260046020908152604080832073ffffffffffffffffffffffffffffffffffffffff87168085529083529281902085905551848152600193917f8c5be1e5ebec7d5bd14f71427d1e84f3dd0314c0f7b2291e5b200ac8c7c3b925910160405180910390a392915050565b73ffffffffffffffffffffffffffffffffffffffff8084166000818152600360209081526040808320805487810390915594871683528083208054870190559282526004815282822033835290522054600191907fffffffffffffffffffffffffffffffffffffffffffffffffffffffffffffffff81146105135773ffffffffffffffffffffffffffffffffffffffff8616600081815260046020908152604080832033808552908352928190208886039081905590519081529192917f8c5be1e5ebec7d5bd14f71427d1e84f3dd0314c0f7b2291e5b200ac8c7c3b925910160405180910390a383811015610513576040517f8481f1c200000000000000000000000000000000000000000000000000000000815260040160405180910390fd5b8473ffffffffffffffffffffffffffffffffffffffff168673ffffffffffffffffffffffffffffffffffffffff167fddf252ad1be2c89b69c2b068fc378daa952ba7f163c4a11628f55a4df523b3ef8660405161057291815260200190565b60405180910390a3838210156105b4576040517f8481f1c200000000000000000000000000000000000000000000000000000000815260040160405180910390fd5b73ffffffffffffffffffffffffffffffffffffffff8516610601576040517f27fabe0500000000000000000000000000000000000000000000000000000000815260040160405180910390fd5b50509392505050565b3360009081526006602052604090205460ff16610653576040517f7999b8d100000000000000000000000000000000000000000000000000000000815260040160405180910390fd5b600254818101811115610692576040517f7627f44a00000000000000000000000000000000000000000000000000000000815260040160405180910390fd5b73ffffffffffffffffffffffffffffffffffffffff83166000818152600360209081526040808320805487019055848601600255518581527fddf252ad1be2c89b69c2b068fc378daa952ba7f163c4a11628f55a4df523b3ef910160405180910390a373ffffffffffffffffffffffffffffffffffffffff8316610742576040517f27fabe0500000000000000000000000000000000000000000000000000000000815260040160405180910390fd5b505050565b3360009081526006602052604090205460ff16610790576040517f7999b8d100000000000000000000000000000000000000000000000000000000815260040160405180910390fd5b73ffffffffffffffffffffffffffffffffffffffff82166000818152600360209081526040808320805486810390915560028054879003905590518581529093917fddf252ad1be2c89b69c2b068fc378daa952ba7f163c4a11628f55a4df523b3ef910160405180910390a381811015610742576040517f8481f1c200000000000000000000000000000000000000000000000000000000815260040160405180910390fd5b3360009081526006602052604090205460ff1661087f576040517f7999b8d100000000000000000000000000000000000000000000000000000000815260040160405180910390fd5b73ffffffffffffffffffffffffffffffffffffffff821660008181526006602090815260409182902080547fffffffffffffffffffffffffffffffffffffffffffffffffffffffffffffff0016851515908117909155915191825233917f224e941ec27f8c0db169ae803f73b047a21adfc62838c1a168434ecfe1b07245910160405180910390a35050565b336000818152600360209081526040808320805486810390915573ffffffffffffffffffffffffffffffffffffffff87168085529382902080548701905590518581526001949193927fddf252ad1be2c89b69c2b068fc378daa952ba7f163c4a11628f55a4df523b3ef910160405180910390a3828110156109b9576040517f8481f1c200000000000000000000000000000000000000000000000000000000815260040160405180910390fd5b73ffffffffffffffffffffffffffffffffffffffff8416610a06576040517f27fabe0500000000000000000000000000000000000000000000000000000000815260040160405180910390fd5b5092915050565b73ffffffffffffffffffffffffffffffffffffffff8781166000818152600460209081526040808320948b168084529482529182902089905590518881527f8c5be1e5ebec7d5bd14f71427d1e84f3dd0314c0f7b2291e5b200ac8c7c3b925910160405180910390a3604080517f8b73c3c69bb8fe3d512ecc4cf759cc79239f7b179b0ffacaa9a75d522b39400f60208201527f7e93b3de711138b10fadfa22024b96a0a3a08f812d3afdf331786949e62c5c5a918101919091527f044852b2a670ade5407e78fb2863c51de9fcb96542a07186fe3aeda6bb8a116d60608201524660808201523060a082015260009060019060c001604080518083037fffffffffffffffffffffffffffffffffffffffffffffffffffffffffffffffe0018152828252805160209182012073ffffffffffffffffffffffffffffffffffffffff8d81166000818152600585528590208054600181019091557f6e71edae12b1b97f4d1f60370fef10105fa2faae0126114a169c64845d6126c99487019490945293850193909352918b166060840152608083018a905260a083015260c082018890529060e00160405160208183030381529060405280519060200120604051602001610c0c9291907f190100000000000000000000000000000000000000000000000000000000000081526002810192909252602282015260420190565b604080517fffffffffffffffffffffffffffffffffffffffffffffffffffffffffffffffe08184030181528282528051602091820120600084529083018083525260ff871690820152606081018590526080810184905260a0016020604051602081039080840390855afa158015610c88573d6000803e3d6000fd5b50506040517fffffffffffffffffffffffffffffffffffffffffffffffffffffffffffffffe0015191505073ffffffffffffffffffffffffffffffffffffffff8116610d00576040517f341d31d400000000000000000000000000000000000000000000000000000000815260040160405180910390fd5b8073ffffffffffffffffffffffffffffffffffffffff168873ffffffffffffffffffffffffffffffffffffffff1614610d65576040517f341d31d400000000000000000000000000000000000000000000000000000000815260040160405180910390fd5b84421115610d9f576040517f0c60ec3a00000000000000000000000000000000000000000000000000000000815260040160405180910390fd5b5050505050505050565b803573ffffffffffffffffffffffffffffffffffffffff81168114610dcd57600080fd5b919050565b60008060408385031215610de557600080fd5b610dee83610da9565b946020939093013593505050565b600080600060608486031215610e1157600080fd5b610e1a84610da9565b9250610e2860208501610da9565b9150604084013590509250925092565b600060208284031215610e4a57600080fd5b610e5382610da9565b9392505050565b60008060408385031215610e6d57600080fd5b610e7683610da9565b915060208301358015158114610e8b57600080fd5b809150509250929050565b600080600080600080600060e0888a031215610eb157600080fd5b610eba88610da9565b9650610ec860208901610da9565b95506040880135945060608801359350608088013560ff81168114610eec57600080fd5b9699959850939692959460a0840135945060c09093013592915050565b60008060408385031215610f1c57600080fd5b610f2583610da9565b9150610f3360208401610da9565b9050925092905056fea2646970667358221220b8307b5a82d7e75664ab94d18a0721213ad448be4d17a22e03cc72ba484fde5864736f6c63430008130033a26469706673582212208b611a716be4f7ddf1c1907d4f26c7f60d0f644fbf42e3aac7b03d55b24e14f764736f6c63430008130033",
  "linkReferences": {},
  "deployedLinkReferences": {}
}