{
  "_format": "hh-sol-artifact-1",
  "contractName": "ERC20Hook",
  "sourceName": "src/hook/ERC20hook.sol",
  "abi": [
    {
      "inputs": [],
      "name": "ErrDinkSize",
      "type": "error"
    },
    {
      "inputs": [],
      "name": "ErrIntOver",
      "type": "error"
    },
    {
      "inputs": [],
      "name": "ErrIntUnder",
      "type": "error"
    },
    {
      "inputs": [],
      "name": "ErrTransfer",
      "type": "error"
    },
    {
      "inputs": [],
      "name": "ErrUintOver",
      "type": "error"
    },
    {
      "inputs": [],
      "name": "ErrUintUnder",
      "type": "error"
    },
    {
      "inputs": [],
      "name": "ErrWrongKey",
      "type": "error"
    },
    {
      "inputs": [],
      "name": "ErrWrongUrn",
      "type": "error"
    },
    {
      "anonymous": false,
      "inputs": [
        {
          "indexed": true,
          "internalType": "address",
          "name": "caller",
          "type": "address"
        },
        {
          "indexed": true,
          "internalType": "bytes4",
          "name": "sig",
          "type": "bytes4"
        },
        {
          "indexed": false,
          "internalType": "bytes",
          "name": "data",
          "type": "bytes"
        }
      ],
      "name": "NewFlog",
      "type": "event"
    },
    {
      "anonymous": false,
      "inputs": [
        {
          "indexed": true,
          "internalType": "bytes32",
          "name": "key",
          "type": "bytes32"
        },
        {
          "indexed": false,
          "internalType": "bytes32",
          "name": "val",
          "type": "bytes32"
        }
      ],
      "name": "NewPalm0",
      "type": "event"
    },
    {
      "anonymous": false,
      "inputs": [
        {
          "indexed": true,
          "internalType": "bytes32",
          "name": "key",
          "type": "bytes32"
        },
        {
          "indexed": true,
          "internalType": "bytes32",
          "name": "idx0",
          "type": "bytes32"
        },
        {
          "indexed": false,
          "internalType": "bytes32",
          "name": "val",
          "type": "bytes32"
        }
      ],
      "name": "NewPalm1",
      "type": "event"
    },
    {
      "anonymous": false,
      "inputs": [
        {
          "indexed": true,
          "internalType": "bytes32",
          "name": "key",
          "type": "bytes32"
        },
        {
          "indexed": true,
          "internalType": "bytes32",
          "name": "idx0",
          "type": "bytes32"
        },
        {
          "indexed": true,
          "internalType": "bytes32",
          "name": "idx1",
          "type": "bytes32"
        },
        {
          "indexed": false,
          "internalType": "bytes32",
          "name": "val",
          "type": "bytes32"
        }
      ],
      "name": "NewPalm2",
      "type": "event"
    },
    {
      "anonymous": false,
      "inputs": [
        {
          "indexed": true,
          "internalType": "bytes32",
          "name": "key",
          "type": "bytes32"
        },
        {
          "indexed": true,
          "internalType": "bytes32",
          "name": "idx0",
          "type": "bytes32"
        },
        {
          "indexed": true,
          "internalType": "bytes32",
          "name": "idx1",
          "type": "bytes32"
        },
        {
          "indexed": false,
          "internalType": "bytes",
          "name": "val",
          "type": "bytes"
        }
      ],
      "name": "NewPalmBytes2",
      "type": "event"
    },
    {
      "inputs": [
        {
          "components": [
            {
              "internalType": "bytes32",
              "name": "i",
              "type": "bytes32"
            },
            {
              "internalType": "address",
              "name": "u",
              "type": "address"
            },
            {
              "internalType": "uint256",
              "name": "bill",
              "type": "uint256"
            },
            {
              "internalType": "uint256",
              "name": "owed",
              "type": "uint256"
            },
            {
              "internalType": "address",
              "name": "keeper",
              "type": "address"
            },
            {
              "internalType": "uint256",
              "name": "deal",
              "type": "uint256"
            },
            {
              "internalType": "uint256",
              "name": "tot",
              "type": "uint256"
            }
          ],
          "internalType": "struct Hook.BHParams",
          "name": "p",
          "type": "tuple"
        }
      ],
      "name": "bailhook",
      "outputs": [
        {
          "internalType": "bytes",
          "name": "",
          "type": "bytes"
        }
      ],
      "stateMutability": "nonpayable",
      "type": "function"
    },
    {
      "inputs": [
        {
          "internalType": "bytes32",
          "name": "key",
          "type": "bytes32"
        },
        {
          "internalType": "bytes32",
          "name": "i",
          "type": "bytes32"
        },
        {
          "internalType": "bytes32[]",
          "name": "xs",
          "type": "bytes32[]"
        },
        {
          "internalType": "bytes32",
          "name": "val",
          "type": "bytes32"
        }
      ],
      "name": "file",
      "outputs": [],
      "stateMutability": "nonpayable",
      "type": "function"
    },
    {
      "inputs": [
        {
          "components": [
            {
              "internalType": "address",
              "name": "sender",
              "type": "address"
            },
            {
              "internalType": "bytes32",
              "name": "i",
              "type": "bytes32"
            },
            {
              "internalType": "address",
              "name": "u",
              "type": "address"
            },
            {
              "internalType": "bytes",
              "name": "dink",
              "type": "bytes"
            },
            {
              "internalType": "int256",
              "name": "dart",
              "type": "int256"
            }
          ],
          "internalType": "struct Hook.FHParams",
          "name": "p",
          "type": "tuple"
        }
      ],
      "name": "frobhook",
      "outputs": [
        {
          "internalType": "bool",
          "name": "safer",
          "type": "bool"
        }
      ],
      "stateMutability": "nonpayable",
      "type": "function"
    },
    {
      "inputs": [
        {
          "internalType": "bytes32",
          "name": "key",
          "type": "bytes32"
        },
        {
          "internalType": "bytes32",
          "name": "i",
          "type": "bytes32"
        },
        {
          "internalType": "bytes32[]",
          "name": "xs",
          "type": "bytes32[]"
        }
      ],
      "name": "get",
      "outputs": [
        {
          "internalType": "bytes32",
          "name": "",
          "type": "bytes32"
        }
      ],
      "stateMutability": "view",
      "type": "function"
    },
    {
      "inputs": [
        {
          "internalType": "bytes32",
          "name": "i",
          "type": "bytes32"
        },
        {
          "internalType": "address",
          "name": "u",
          "type": "address"
        }
      ],
      "name": "ink",
      "outputs": [
        {
          "internalType": "bytes",
          "name": "data",
          "type": "bytes"
        }
      ],
      "stateMutability": "view",
      "type": "function"
    },
    {
      "inputs": [
        {
          "internalType": "uint256",
          "name": "x",
          "type": "uint256"
        },
        {
          "internalType": "uint256",
          "name": "n",
          "type": "uint256"
        }
      ],
      "name": "rpow",
      "outputs": [
        {
          "internalType": "uint256",
          "name": "z",
          "type": "uint256"
        }
      ],
      "stateMutability": "pure",
      "type": "function"
    },
    {
      "inputs": [
        {
          "internalType": "bytes32",
          "name": "i",
          "type": "bytes32"
        },
        {
          "internalType": "address",
          "name": "u",
          "type": "address"
        }
      ],
      "name": "safehook",
      "outputs": [
        {
          "internalType": "uint256",
          "name": "tot",
          "type": "uint256"
        },
        {
          "internalType": "uint256",
          "name": "cut",
          "type": "uint256"
        },
        {
          "internalType": "uint256",
          "name": "ttl",
          "type": "uint256"
        }
      ],
      "stateMutability": "view",
      "type": "function"
    }
  ],
  "bytecode": "0x608060405234801561001057600080fd5b506117e9806100206000396000f3fe608060405234801561001057600080fd5b506004361061007d5760003560e01c8063ad9ff9ba1161005b578063ad9ff9ba146100eb578063d09e623f1461010b578063d50203e21461011e578063ffe567e81461014157600080fd5b8063238131ef1461008257806381560b88146100b55780638f907195146100ca575b600080fd5b6100956100903660046113cb565b610154565b604080519384526020840192909252908201526060015b60405180910390f35b6100c86100c3366004611443565b610298565b005b6100dd6100d836600461149e565b6104a7565b6040519081526020016100ac565b6100fe6100f93660046114c0565b61059d565b6040516100ac91906114d8565b6100dd610119366004611544565b6109ba565b61013161012c366004611597565b610b4b565b60405190151581526020016100ac565b6100fe61014f3660046113cb565b611023565b60008060008061016386611074565b90506000806101706110c7565b60010154600284015460038501546040517f52ba849100000000000000000000000000000000000000000000000000000000815273ffffffffffffffffffffffffffffffffffffffff928316600482015260248101919091529116906352ba8491906044016040805180830381865afa1580156101f1573d6000803e3d6000fd5b505050506040513d601f19601f8201168201806040525081019061021591906115d2565b73ffffffffffffffffffffffffffffffffffffffff8916600090815260208690526040902054919350915061024a9083611625565b73ffffffffffffffffffffffffffffffffffffffff8816600090815260208590526040902054600685015491975061028191611139565b61028b9083611625565b9598959750955050505050565b60006102a385611074565b9050600083900361043257857f67656d00000000000000000000000000000000000000000000000000000000000361030a576001810180547fffffffffffffffffffffffff000000000000000000000000000000000000000016606084901c179055610464565b857f737263000000000000000000000000000000000000000000000000000000000003610366576002810180547fffffffffffffffffffffffff000000000000000000000000000000000000000016606084901c179055610464565b857f7461670000000000000000000000000000000000000000000000000000000000036103995760038101829055610464565b857f6c69717200000000000000000000000000000000000000000000000000000000036103cc5760068101829055610464565b857f7065700000000000000000000000000000000000000000000000000000000000036103ff5760048101829055610464565b857f706f700000000000000000000000000000000000000000000000000000000000036104325760058101829055610464565b6040517f0b84bcb500000000000000000000000000000000000000000000000000000000815260040160405180910390fd5b84867fa6a62c84c48e7b9441c54da7ead6df8213afddbc24649e1f6b88294160ef069f8460405161049791815260200190565b60405180910390a3505050505050565b60008180156105865783801561057b576001841680156104c9578593506104d9565b6b033b2e3c9fd0803ce800000093505b506002909304926b019d971e4fe8401e740000005b8415610575578586028660801c1561050557600080fd5b8181018181101561051557600080fd5b6b033b2e3c9fd0803ce80000009004965050600185161561056a57858402848782041415871515161561054757600080fd5b8181018181101561055757600080fd5b6b033b2e3c9fd0803ce800000090049450505b6002850494506104ee565b50610580565b600092505b50610596565b6b033b2e3c9fd0803ce800000091505b5092915050565b606060006105ab8335611074565b9050600081816105c1604087016020880161163c565b73ffffffffffffffffffffffffffffffffffffffff168152602081019190915260400160009081205491506106306106096b033b2e3c9fd0803ce800000060c0880135611657565b61062b6106218860a0013587600401600001546104a7565b6005870154611163565b611163565b90508460400135811115610660578061064d604087013584611625565b6106579190611657565b91505060408401355b6106728535826060880135600061117c565b600082848261068760408a0160208b0161163c565b73ffffffffffffffffffffffffffffffffffffffff1673ffffffffffffffffffffffffffffffffffffffff168152602001908152602001600020546106cc9190611692565b9050808460006106e260408a0160208b0161163c565b73ffffffffffffffffffffffffffffffffffffffff1673ffffffffffffffffffffffffffffffffffffffff16815260200190815260200160002081905550856020016020810190610733919061163c565b60601b6bffffffffffffffffffffffff191686600001357f696e6b00000000000000000000000000000000000000000000000000000000007f4748c91b9d8e8f630aac18a71e9a654635e4de6a3df78d0471239f72d951b8928460405160200161079f91815260200190565b604080517fffffffffffffffffffffffffffffffffffffffffffffffffffffffffffffffe0818403018152908290526107d7916114d8565b60405180910390a46107e76110c7565b5473ffffffffffffffffffffffffffffffffffffffff16639dc29fac61081360a0890160808a0161163c565b6040517fffffffff0000000000000000000000000000000000000000000000000000000060e084901b16815273ffffffffffffffffffffffffffffffffffffffff909116600482015260248101859052604401600060405180830381600087803b15801561088057600080fd5b505af1158015610894573d6000803e3d6000fd5b50505050600184015473ffffffffffffffffffffffffffffffffffffffff1663a9059cbb6108c860a0890160808a0161163c565b6040517fffffffff0000000000000000000000000000000000000000000000000000000060e084901b16815273ffffffffffffffffffffffffffffffffffffffff9091166004820152602481018690526044016020604051808303816000875af115801561093a573d6000803e3d6000fd5b505050506040513d601f19601f8201168201806040525081019061095e91906116a5565b610994576040517fba83c1af00000000000000000000000000000000000000000000000000000000815260040160405180910390fd5b604080516020810185905201604051602081830303815290604052945050505050919050565b6000806109c685611074565b9050600083900361043257857f67656d000000000000000000000000000000000000000000000000000000000003610a28576001015460601b7fffffffffffffffffffffffffffffffffffffffff000000000000000000000000169050610b43565b857f737263000000000000000000000000000000000000000000000000000000000003610a7f576002015460601b7fffffffffffffffffffffffffffffffffffffffff000000000000000000000000169050610b43565b857f746167000000000000000000000000000000000000000000000000000000000003610ab157600301549050610b43565b857f6c6971720000000000000000000000000000000000000000000000000000000003610ae357600601549050610b43565b857f706570000000000000000000000000000000000000000000000000000000000003610b1557600401549050610b43565b857f706f70000000000000000000000000000000000000000000000000000000000003610432576005015490505b949350505050565b600080610b5b8360200135611074565b90506000610b6c60608501856116c7565b9050600003610b7d57506000610be2565b610b8a60608501856116c7565b9050602003610bb057610ba060608501856116c7565b610ba99161172c565b9050610be2565b6040517f7fa4063700000000000000000000000000000000000000000000000000000000815260040160405180910390fd5b60008112158015610bf857506000846080013513155b925082158015610c4f5750610c10602085018561163c565b73ffffffffffffffffffffffffffffffffffffffff16610c36606086016040870161163c565b73ffffffffffffffffffffffffffffffffffffffff1614155b15610c86576040517ff31e962a00000000000000000000000000000000000000000000000000000000815260040160405180910390fd5b6000610cde8382610c9d6060890160408a0161163c565b73ffffffffffffffffffffffffffffffffffffffff1673ffffffffffffffffffffffffffffffffffffffff16815260200190815260200160002054836112d5565b905080836000610cf46060890160408a0161163c565b73ffffffffffffffffffffffffffffffffffffffff1673ffffffffffffffffffffffffffffffffffffffff16815260200190815260200160002081905550846040016020810190610d45919061163c565b60601b6bffffffffffffffffffffffff191685602001357f696e6b00000000000000000000000000000000000000000000000000000000007f4748c91b9d8e8f630aac18a71e9a654635e4de6a3df78d0471239f72d951b89284604051602001610db191815260200190565b604080517fffffffffffffffffffffffffffffffffffffffffffffffffffffffffffffffe081840301815290829052610de9916114d8565b60405180910390a4600183015473ffffffffffffffffffffffffffffffffffffffff166000831315610f155773ffffffffffffffffffffffffffffffffffffffff81166323b872dd610e3e602089018961163c565b6040517fffffffff0000000000000000000000000000000000000000000000000000000060e084901b16815273ffffffffffffffffffffffffffffffffffffffff9091166004820152306024820152604481018690526064016020604051808303816000875af1158015610eb6573d6000803e3d6000fd5b505050506040513d601f19601f82011682018060405250810190610eda91906116a5565b610f10576040517fba83c1af00000000000000000000000000000000000000000000000000000000815260040160405180910390fd5b61101a565b600083121561101a5773ffffffffffffffffffffffffffffffffffffffff811663a9059cbb610f47602089018961163c565b610f5086611768565b6040517fffffffff0000000000000000000000000000000000000000000000000000000060e085901b16815273ffffffffffffffffffffffffffffffffffffffff909216600483015260248201526044016020604051808303816000875af1158015610fc0573d6000803e3d6000fd5b505050506040513d601f19601f82011682018060405250810190610fe491906116a5565b61101a576040517fba83c1af00000000000000000000000000000000000000000000000000000000815260040160405180910390fd5b50505050919050565b606061102e83611074565b73ffffffffffffffffffffffffffffffffffffffff8316600090815260209182526040908190205481519283015201604051602081830303815290604052905092915050565b6000808260405160200161108a91815260200190565b604080517fffffffffffffffffffffffffffffffffffffffffffffffffffffffffffffffe081840301815291905280516020909101209392505050565b6000807f7269636f62616e6b2e30000000000000000000000000000000000000000000006040516020016110fd91815260200190565b604080517fffffffffffffffffffffffffffffffffffffffffffffffffffffffffffffffe0818403018152919052805160209091012092915050565b6000816111526b033b2e3c9fd0803ce800000085611625565b61115c9190611657565b9392505050565b60006b033b2e3c9fd0803ce80000006111528385611625565b600061118661136c565b90508284101561125157600085815260208290526040812060020154906111ad8686611692565b6111c3906b033b2e3c9fd0803ce8000000611625565b905060008282116111dd576111d88284611692565b6111e0565b60005b60008981526020868152604091829020600201839055905182815291925089917f6c696e6500000000000000000000000000000000000000000000000000000000917fa6a62c84c48e7b9441c54da7ead6df8213afddbc24649e1f6b88294160ef069f910160405180910390a35050505b60008285836002015461126491906117a0565b61126e9190611692565b600283018190556040518181529091507f6a6f790000000000000000000000000000000000000000000000000000000000907f16e9c051056ea742d289d2cb753372cf432f332213ecd495b26ea8f72e3cf2e09060200160405180910390a2505050505050565b8181016000821380156112e85750828111155b1561131f576040517fcdc2bcd700000000000000000000000000000000000000000000000000000000815260040160405180910390fd5b60008212801561132f5750828110155b15611366576040517f9666073c00000000000000000000000000000000000000000000000000000000815260040160405180910390fd5b92915050565b6000807f7661742e300000000000000000000000000000000000000000000000000000006040516020016110fd91815260200190565b803573ffffffffffffffffffffffffffffffffffffffff811681146113c657600080fd5b919050565b600080604083850312156113de57600080fd5b823591506113ee602084016113a2565b90509250929050565b60008083601f84011261140957600080fd5b50813567ffffffffffffffff81111561142157600080fd5b6020830191508360208260051b850101111561143c57600080fd5b9250929050565b60008060008060006080868803121561145b57600080fd5b8535945060208601359350604086013567ffffffffffffffff81111561148057600080fd5b61148c888289016113f7565b96999598509660600135949350505050565b600080604083850312156114b157600080fd5b50508035926020909101359150565b600060e082840312156114d257600080fd5b50919050565b600060208083528351808285015260005b81811015611505578581018301518582016040015282016114e9565b5060006040828601015260407fffffffffffffffffffffffffffffffffffffffffffffffffffffffffffffffe0601f8301168501019250505092915050565b6000806000806060858703121561155a57600080fd5b8435935060208501359250604085013567ffffffffffffffff81111561157f57600080fd5b61158b878288016113f7565b95989497509550505050565b6000602082840312156115a957600080fd5b813567ffffffffffffffff8111156115c057600080fd5b820160a0818503121561115c57600080fd5b600080604083850312156115e557600080fd5b505080516020909101519092909150565b7f4e487b7100000000000000000000000000000000000000000000000000000000600052601160045260246000fd5b8082028115828204841417611366576113666115f6565b60006020828403121561164e57600080fd5b61115c826113a2565b60008261168d577f4e487b7100000000000000000000000000000000000000000000000000000000600052601260045260246000fd5b500490565b81810381811115611366576113666115f6565b6000602082840312156116b757600080fd5b8151801515811461115c57600080fd5b60008083357fffffffffffffffffffffffffffffffffffffffffffffffffffffffffffffffe18436030181126116fc57600080fd5b83018035915067ffffffffffffffff82111561171757600080fd5b60200191503681900382131561143c57600080fd5b80356020831015611366577fffffffffffffffffffffffffffffffffffffffffffffffffffffffffffffffff602084900360031b1b1692915050565b60007f80000000000000000000000000000000000000000000000000000000000000008203611799576117996115f6565b5060000390565b80820180821115611366576113666115f656fea26469706673582212202412330c780e17b81c7db89333c2a264a684de1b532c2bbffb997f7e344d088464736f6c63430008130033",
  "linkReferences": {},
  "deployedLinkReferences": {}
}