{
  "_format": "hh-sol-artifact-1",
  "contractName": "BankDiamond",
  "sourceName": "src/diamond.sol",
  "abi": [
    {
      "anonymous": false,
      "inputs": [
        {
          "components": [
            {
              "internalType": "address",
              "name": "target",
              "type": "address"
            },
            {
              "internalType": "enum IDiamondCuttable.FacetCutAction",
              "name": "action",
              "type": "uint8"
            },
            {
              "internalType": "bytes4[]",
              "name": "selectors",
              "type": "bytes4[]"
            }
          ],
          "indexed": false,
          "internalType": "struct IDiamondCuttable.FacetCut[]",
          "name": "facetCuts",
          "type": "tuple[]"
        },
        {
          "indexed": false,
          "internalType": "address",
          "name": "target",
          "type": "address"
        },
        {
          "indexed": false,
          "internalType": "bytes",
          "name": "data",
          "type": "bytes"
        }
      ],
      "name": "DiamondCut",
      "type": "event"
    },
    {
      "anonymous": false,
      "inputs": [
        {
          "indexed": true,
          "internalType": "address",
          "name": "previousOwner",
          "type": "address"
        },
        {
          "indexed": true,
          "internalType": "address",
          "name": "newOwner",
          "type": "address"
        }
      ],
      "name": "OwnershipTransferred",
      "type": "event"
    },
    {
      "stateMutability": "payable",
      "type": "fallback"
    },
    {
      "inputs": [],
      "name": "acceptOwnership",
      "outputs": [],
      "stateMutability": "nonpayable",
      "type": "function"
    },
    {
      "inputs": [
        {
          "components": [
            {
              "internalType": "address",
              "name": "target",
              "type": "address"
            },
            {
              "internalType": "enum IDiamondCuttable.FacetCutAction",
              "name": "action",
              "type": "uint8"
            },
            {
              "internalType": "bytes4[]",
              "name": "selectors",
              "type": "bytes4[]"
            }
          ],
          "internalType": "struct IDiamondCuttable.FacetCut[]",
          "name": "facetCuts",
          "type": "tuple[]"
        },
        {
          "internalType": "address",
          "name": "target",
          "type": "address"
        },
        {
          "internalType": "bytes",
          "name": "data",
          "type": "bytes"
        }
      ],
      "name": "diamondCut",
      "outputs": [],
      "stateMutability": "nonpayable",
      "type": "function"
    },
    {
      "inputs": [
        {
          "internalType": "bytes4",
          "name": "selector",
          "type": "bytes4"
        }
      ],
      "name": "facetAddress",
      "outputs": [
        {
          "internalType": "address",
          "name": "facet",
          "type": "address"
        }
      ],
      "stateMutability": "view",
      "type": "function"
    },
    {
      "inputs": [],
      "name": "facetAddresses",
      "outputs": [
        {
          "internalType": "address[]",
          "name": "addresses",
          "type": "address[]"
        }
      ],
      "stateMutability": "view",
      "type": "function"
    },
    {
      "inputs": [
        {
          "internalType": "address",
          "name": "facet",
          "type": "address"
        }
      ],
      "name": "facetFunctionSelectors",
      "outputs": [
        {
          "internalType": "bytes4[]",
          "name": "selectors",
          "type": "bytes4[]"
        }
      ],
      "stateMutability": "view",
      "type": "function"
    },
    {
      "inputs": [],
      "name": "facets",
      "outputs": [
        {
          "components": [
            {
              "internalType": "address",
              "name": "target",
              "type": "address"
            },
            {
              "internalType": "bytes4[]",
              "name": "selectors",
              "type": "bytes4[]"
            }
          ],
          "internalType": "struct IDiamondLoupe.Facet[]",
          "name": "diamondFacets",
          "type": "tuple[]"
        }
      ],
      "stateMutability": "view",
      "type": "function"
    },
    {
      "inputs": [],
      "name": "getFallbackAddress",
      "outputs": [
        {
          "internalType": "address",
          "name": "",
          "type": "address"
        }
      ],
      "stateMutability": "view",
      "type": "function"
    },
    {
      "inputs": [],
      "name": "nomineeOwner",
      "outputs": [
        {
          "internalType": "address",
          "name": "",
          "type": "address"
        }
      ],
      "stateMutability": "view",
      "type": "function"
    },
    {
      "inputs": [],
      "name": "owner",
      "outputs": [
        {
          "internalType": "address",
          "name": "",
          "type": "address"
        }
      ],
      "stateMutability": "view",
      "type": "function"
    },
    {
      "inputs": [
        {
          "internalType": "address",
          "name": "fallbackAddress",
          "type": "address"
        }
      ],
      "name": "setFallbackAddress",
      "outputs": [],
      "stateMutability": "nonpayable",
      "type": "function"
    },
    {
      "inputs": [
        {
          "internalType": "bytes4",
          "name": "interfaceId",
          "type": "bytes4"
        }
      ],
      "name": "supportsInterface",
      "outputs": [
        {
          "internalType": "bool",
          "name": "",
          "type": "bool"
        }
      ],
      "stateMutability": "view",
      "type": "function"
    },
    {
      "inputs": [
        {
          "internalType": "address",
          "name": "account",
          "type": "address"
        }
      ],
      "name": "transferOwnership",
      "outputs": [],
      "stateMutability": "nonpayable",
      "type": "function"
    },
    {
      "stateMutability": "payable",
      "type": "receive"
    }
  ],
  "bytecode": "0x60806040523480156200001157600080fd5b5060408051600c8082526101a082019092527f326d0c59a7612f6a9919e2a8ee333c80ba689d8ba2634de89c85cbb04832e70591600091906020820161018080368337019050509050631f931c1c60e01b8160008151811062000078576200007862000f1f565b6001600160e01b031990921660209283029190910190910152620000a6826307e4c70760e21b60016200044a565b637a0ed62760e01b81600181518110620000c457620000c462000f1f565b6001600160e01b03199092166020928302919091019091015280516356fe50af60e11b9082906002908110620000fe57620000fe62000f1f565b6001600160e01b03199092166020928302919091019091015280516314bbdacb60e21b908290600390811062000138576200013862000f1f565b6001600160e01b03199092166020928302919091019091015280516366ffd66360e11b908290600490811062000172576200017262000f1f565b6001600160e01b031990921660209283029190910190910152620001a0826348e2b09360e01b60016200044a565b6301ffc9a760e01b81600581518110620001be57620001be62000f1f565b6001600160e01b031990921660209283029190910190910152620001ec826301ffc9a760e01b60016200044a565b638da5cb5b60e01b816006815181106200020a576200020a62000f1f565b6001600160e01b031990921660209283029190910190910152805163455a8a8560e11b908290600790811062000244576200024462000f1f565b6001600160e01b031990921660209283029190910190910152805163f2fde38b60e01b90829060089081106200027e576200027e62000f1f565b6001600160e01b03199092166020928302919091019091015280516379ba509760e01b9082906009908110620002b857620002b862000f1f565b6001600160e01b031990921660209283029190910190910152620002e6826307f5828d60e41b60016200044a565b632c40805960e01b81600a8151811062000304576200030462000f1f565b6001600160e01b0319909216602092830291909101909101528051639142376560e01b908290600b9081106200033e576200033e62000f1f565b6001600160e01b03199290921660209283029190910190910152604080516001808252818301909252600091816020015b604080516060808201835260008083526020830152918101919091528152602001906001900390816200036f57905050604080516060810190915230815290915060208101600081526020018381525081600081518110620003d557620003d562000f1f565b6020026020010181905250620004108160006040518060200160405280600081525062000407620004d860201b60201c565b929190620004fc565b7f8a22373512790c48b83a1fe2efdd2888d4a917bcdc24d0adf63e60f67168046080546001600160a01b03191633179055505050620010c4565b6001600160e01b03198083169003620004aa5760405162461bcd60e51b815260206004820152601c60248201527f4552433136353a20696e76616c696420696e746572666163652069640000000060448201526064015b60405180910390fd5b6001600160e01b03199190911660009081526020929092526040909120805460ff1916911515919091179055565b7f177481ac65e4292921c69f62d1cc7f57541261e5d61c8175cf4e36a01c9bfc9390565b600184015461ffff8116908190600090600716156200052d5750600381901c60009081526002870160205260409020545b60005b86518110156200065c57600087828151811062000551576200055162000f1f565b60200260200101519050600081602001519050600082604001515111620005c75760405162461bcd60e51b815260206004820152602360248201527f4469616d6f6e64426173653a206e6f2073656c6563746f7273207370656369666044820152621a595960ea1b6064820152608401620004a1565b6000816002811115620005de57620005de62000f35565b03620005fd57620005f28a868685620006ee565b909550935062000651565b600281600281111562000614576200061462000f35565b036200062857620005f28a868685620008ac565b60018160028111156200063f576200063f62000f35565b036200065157620006518a8362000b7a565b505060010162000530565b50828214620006795760018701805461ffff191661ffff84161790555b60078216156200069c57600382901c600090815260028801602052604090208190555b7f8faa70878671ccd212d20771b795c50af8fd3ff6cf27f4bde57e5d4de0aeb673868686604051620006d19392919062000f9f565b60405180910390a1620006e5858562000da4565b50505050505050565b805160009081906001600160a01b031630148062000716575082516001600160a01b03163b15155b620007705760405162461bcd60e51b815260206004820152602360248201527f4469616d6f6e64426173653a204144442074617267657420686173206e6f20636044820152626f646560e81b6064820152608401620004a1565b60005b8360400151518110156200089f576000846040015182815181106200079c576200079c62000f1f565b6020908102919091018101516001600160e01b031981166000908152918a9052604090912054909150606081901c15620008255760405162461bcd60e51b815260206004820152602360248201527f4469616d6f6e64426173653a2073656c6563746f7220616c726561647920616460448201526219195960ea1b6064820152608401620004a1565b85516001600160e01b0319838116600081815260208d90526040902060609390931b6001600160601b0319168b1790925560058a901b60e090811692831c91831c199990991617978190036200088f57600389901c600090815260028b0160205260408120989098555b5050506001958601950162000773565b5093959294509192505050565b805160009081906001600160a01b031615620009235760405162461bcd60e51b815260206004820152602f60248201527f4469616d6f6e64426173653a2052454d4f564520746172676574206d7573742060448201526e6265207a65726f206164647265737360881b6064820152608401620004a1565b600385901c6007861660005b85604001515181101562000b665760008660400151828151811062000958576200095862000f1f565b6020908102919091018101516001600160e01b031981166000908152918c9052604090912054909150606081901c620009d45760405162461bcd60e51b815260206004820152601f60248201527f4469616d6f6e64426173653a2073656c6563746f72206e6f7420666f756e64006044820152606401620004a1565b30606082901c0362000a235760405162461bcd60e51b81526020600482015260226024820152600080516020620038538339815191526044820152616c6560f01b6064820152608401620004a1565b600089900362000a5157600019909401600081815260028c0160205260409020549850936007935062000a59565b600019909301925b600584901b89901b6000806001600160e01b03198084169086161462000aac576001600160e01b03198316600090815260208f90526040902080546001600160601b0319166001600160601b0386161790555b50506001600160e01b03198316600090815260208d90526040812055611fff600383901c1660e0600584901b1687821462000b1157600082815260028f016020526040902080546001600160e01b031980841c19909116908516831c17905562000b35565b80836001600160e01b031916901c816001600160e01b031960001b901c198d16179b505b8660000362000b5457600088815260028f01602052604081208190559b505b5050600190930192506200092f915050565b5060039190911b1796939550929350505050565b80516001600160a01b03163b62000be45760405162461bcd60e51b815260206004820152602760248201527f4469616d6f6e64426173653a205245504c4143452074617267657420686173206044820152666e6f20636f646560c81b6064820152608401620004a1565b60005b81604001515181101562000d9f5760008260400151828151811062000c105762000c1062000f1f565b6020908102919091018101516001600160e01b03198116600090815291869052604090912054909150606081901c8062000c8d5760405162461bcd60e51b815260206004820152601f60248201527f4469616d6f6e64426173653a2073656c6563746f72206e6f7420666f756e64006044820152606401620004a1565b306001600160a01b0382160362000ce15760405162461bcd60e51b81526020600482015260226024820152600080516020620038538339815191526044820152616c6560f01b6064820152608401620004a1565b84600001516001600160a01b0316816001600160a01b03160362000d595760405162461bcd60e51b815260206004820152602860248201527f4469616d6f6e64426173653a205245504c41434520746172676574206973206960448201526719195b9d1a58d85b60c21b6064820152608401620004a1565b5083516001600160e01b031992909216600090815260208690526040902060609290921b6001600160601b0319166001600160601b039190911617905560010162000be7565b505050565b8051156001600160a01b038316151462000e185760405162461bcd60e51b815260206004820152602e60248201527f4469616d6f6e64426173653a20696e76616c696420696e697469616c697a617460448201526d696f6e20706172616d657465727360901b6064820152608401620004a1565b6001600160a01b0382161562000f1b576001600160a01b038216301462000ea9576001600160a01b0382163b62000ea95760405162461bcd60e51b815260206004820152602e60248201527f4469616d6f6e64426173653a20696e697469616c697a6174696f6e207461726760448201526d657420686173206e6f20636f646560901b6064820152608401620004a1565b6000826001600160a01b03168260405162000ec59190620010a6565b600060405180830381855af49150503d806000811462000f02576040519150601f19603f3d011682016040523d82523d6000602084013e62000f07565b606091505b505090508062000d9f573d6000803e3d6000fd5b5050565b634e487b7160e01b600052603260045260246000fd5b634e487b7160e01b600052602160045260246000fd5b60005b8381101562000f6857818101518382015260200162000f4e565b50506000910152565b6000815180845262000f8b81602086016020860162000f4b565b601f01601f19169290920160200192915050565b60006060808301818452808751808352608092508286019150828160051b8701016020808b0160005b848110156200107457898403607f19018652815180516001600160a01b031685528381015189860190600381106200101057634e487b7160e01b600052602160045260246000fd5b868601526040918201519186018a905281519081905290840190600090898701905b808310156200105e5783516001600160e01b031916825292860192600192909201919086019062001032565b5097850197955050509082019060010162000fc8565b50506001600160a01b038a1690880152868103604088015262001098818962000f71565b9a9950505050505050505050565b60008251620010ba81846020870162000f4b565b9190910192915050565b61277f80620010d46000396000f3fe6080604052600436106100cb5760003560e01c80638ab5150a11610074578063adfca15e1161004e578063adfca15e14610347578063cdffacc614610374578063f2fde38b146103e5576100d2565b80638ab5150a146102fd5780638da5cb5b146103125780639142376514610327576100d2565b806352ef6b2c116100a557806352ef6b2c146102a457806379ba5097146102c65780637a0ed627146102db576100d2565b806301ffc9a7146101935780631f931c1c146102195780632c40805914610239576100d2565b366100d257005b60006100dc610405565b905073ffffffffffffffffffffffffffffffffffffffff81163b61016d5760405162461bcd60e51b815260206004820152602660248201527f50726f78793a20696d706c656d656e746174696f6e206d75737420626520636f60448201527f6e7472616374000000000000000000000000000000000000000000000000000060648201526084015b60405180910390fd5b3660008037600080366000845af43d6000803e80801561018c573d6000f35b3d6000fd5b005b34801561019f57600080fd5b506102046101ae366004611fb4565b7fffffffff000000000000000000000000000000000000000000000000000000001660009081527f326d0c59a7612f6a9919e2a8ee333c80ba689d8ba2634de89c85cbb04832e705602052604090205460ff1690565b60405190151581526020015b60405180910390f35b34801561022557600080fd5b5061019161023436600461203c565b6104f8565b34801561024557600080fd5b507f177481ac65e4292921c69f62d1cc7f57541261e5d61c8175cf4e36a01c9bfc965473ffffffffffffffffffffffffffffffffffffffff165b60405173ffffffffffffffffffffffffffffffffffffffff9091168152602001610210565b3480156102b057600080fd5b506102b96105db565b60405161021091906120ee565b3480156102d257600080fd5b506101916107f0565b3480156102e757600080fd5b506102f0610996565b60405161021091906121a5565b34801561030957600080fd5b5061027f610e84565b34801561031e57600080fd5b5061027f610ec4565b34801561033357600080fd5b5061019161034236600461224d565b610eec565b34801561035357600080fd5b5061036761036236600461224d565b610fd8565b6040516102109190612268565b34801561038057600080fd5b5061027f61038f366004611fb4565b7fffffffff000000000000000000000000000000000000000000000000000000001660009081527f177481ac65e4292921c69f62d1cc7f57541261e5d61c8175cf4e36a01c9bfc93602052604090205460601c90565b3480156103f157600080fd5b5061019161040036600461224d565b611194565b600080357fffffffff000000000000000000000000000000000000000000000000000000001681527f177481ac65e4292921c69f62d1cc7f57541261e5d61c8175cf4e36a01c9bfc9360208190526040822054819060601c806104f15750600382015473ffffffffffffffffffffffffffffffffffffffff16806104f15760405162461bcd60e51b815260206004820152603260248201527f4469616d6f6e64426173653a206e6f20666163657420666f756e6420666f722060448201527f66756e6374696f6e207369676e617475726500000000000000000000000000006064820152608401610164565b9392505050565b7f8a22373512790c48b83a1fe2efdd2888d4a917bcdc24d0adf63e60f6716804605473ffffffffffffffffffffffffffffffffffffffff16331461057e5760405162461bcd60e51b815260206004820152601d60248201527f4f776e61626c653a2073656e646572206d757374206265206f776e65720000006044820152606401610164565b6105d461058b858761238d565b8484848080601f0160208091040260200160405190810160405280939291908181526020018383808284376000920191909152506105cc9250611244915050565b929190611268565b5050505050565b7f177481ac65e4292921c69f62d1cc7f57541261e5d61c8175cf4e36a01c9bfc94546060907f177481ac65e4292921c69f62d1cc7f57541261e5d61c8175cf4e36a01c9bfc939061ffff1667ffffffffffffffff81111561063e5761063e6122c2565b604051908082528060200260200182016040528015610667578160200160208202803683370190505b50915060008060005b600184015461ffff168210156107e8576000818152600285016020526040812054905b60088110156107d357836106a6816124f0565b600188015490955061ffff16851190506107d357600581901b82901b7fffffffff00000000000000000000000000000000000000000000000000000000811660009081526020889052604081205460601c90805b88811015610769578a818151811061071457610714612528565b602002602001015173ffffffffffffffffffffffffffffffffffffffff168373ffffffffffffffffffffffffffffffffffffffff16036107575760019150610769565b80610761816124f0565b9150506106fa565b508015610778575050506107c1565b818a898151811061078b5761078b612528565b73ffffffffffffffffffffffffffffffffffffffff90921660209283029190910190910152876107ba816124f0565b9850505050505b806107cb816124f0565b915050610693565b505080806107e0906124f0565b915050610670565b505082525090565b7f24aa1f7b31fd188a8d3ecfb06bc55c806040e59b03bd4396283442fce66178905473ffffffffffffffffffffffffffffffffffffffff16331461089c5760405162461bcd60e51b815260206004820152602960248201527f536166654f776e61626c653a2073656e646572206d757374206265206e6f6d6960448201527f6e6565206f776e657200000000000000000000000000000000000000000000006064820152608401610164565b7f8a22373512790c48b83a1fe2efdd2888d4a917bcdc24d0adf63e60f6716804608054604051339173ffffffffffffffffffffffffffffffffffffffff16907f8be0079c531659141344cd1fd0a4f28419497f9722a3daafe3b4186f6b6457e090600090a380547fffffffffffffffffffffffff0000000000000000000000000000000000000000163317815561099360007f24aa1f7b31fd188a8d3ecfb06bc55c806040e59b03bd4396283442fce66178905b9081547fffffffffffffffffffffffff00000000000000000000000000000000000000001673ffffffffffffffffffffffffffffffffffffffff91909116179055565b50565b7f177481ac65e4292921c69f62d1cc7f57541261e5d61c8175cf4e36a01c9bfc94546060907f177481ac65e4292921c69f62d1cc7f57541261e5d61c8175cf4e36a01c9bfc939061ffff1667ffffffffffffffff8111156109f9576109f96122c2565b604051908082528060200260200182016040528015610a3f57816020015b604080518082019091526000815260606020820152815260200190600190039081610a175790505b50600182015490925060009061ffff1667ffffffffffffffff811115610a6757610a676122c2565b604051908082528060200260200182016040528015610a90578160200160208202803683370190505b50905060008060005b600185015461ffff16821015610e12576000818152600286016020526040812054905b6008811015610dfd5783610acf816124f0565b600189015490955061ffff1685119050610dfd57600581901b82901b7fffffffff00000000000000000000000000000000000000000000000000000000811660009081526020899052604081205460601c90805b88811015610c84578273ffffffffffffffffffffffffffffffffffffffff168c8281518110610b5457610b54612528565b60200260200101516000015173ffffffffffffffffffffffffffffffffffffffff1603610c7257838c8281518110610b8e57610b8e612528565b6020026020010151602001518b8381518110610bac57610bac612528565b602002602001015160ff1681518110610bc757610bc7612528565b60200260200101907bffffffffffffffffffffffffffffffffffffffffffffffffffffffff191690817bffffffffffffffffffffffffffffffffffffffffffffffffffffffff19168152505060ff8a8281518110610c2757610c27612528565b602002602001015160ff1610610c3c57600080fd5b898181518110610c4e57610c4e612528565b602002602001018051809190610c6390612557565b60ff1690525060019150610c84565b80610c7c816124f0565b915050610b23565b508015610c9357505050610deb565b818b8981518110610ca657610ca6612528565b602090810291909101015173ffffffffffffffffffffffffffffffffffffffff909116905260018a015461ffff1667ffffffffffffffff811115610cec57610cec6122c2565b604051908082528060200260200182016040528015610d15578160200160208202803683370190505b508b8981518110610d2857610d28612528565b602002602001015160200181905250828b8981518110610d4a57610d4a612528565b602002602001015160200151600081518110610d6857610d68612528565b60200260200101907bffffffffffffffffffffffffffffffffffffffffffffffffffffffff191690817bffffffffffffffffffffffffffffffffffffffffffffffffffffffff1916815250506001898981518110610dc857610dc8612528565b60ff9092166020928302919091019091015287610de4816124f0565b9850505050505b80610df5816124f0565b915050610abc565b50508080610e0a906124f0565b915050610a99565b5060005b82811015610e79576000848281518110610e3257610e32612528565b602002602001015160ff1690506000878381518110610e5357610e53612528565b602002602001015160200151905081815250508080610e71906124f0565b915050610e16565b508185525050505090565b60007f24aa1f7b31fd188a8d3ecfb06bc55c806040e59b03bd4396283442fce66178905b5473ffffffffffffffffffffffffffffffffffffffff16919050565b60007f8a22373512790c48b83a1fe2efdd2888d4a917bcdc24d0adf63e60f671680460610ea8565b7f8a22373512790c48b83a1fe2efdd2888d4a917bcdc24d0adf63e60f6716804605473ffffffffffffffffffffffffffffffffffffffff163314610f725760405162461bcd60e51b815260206004820152601d60248201527f4f776e61626c653a2073656e646572206d757374206265206f776e65720000006044820152606401610164565b7f177481ac65e4292921c69f62d1cc7f57541261e5d61c8175cf4e36a01c9bfc9680547fffffffffffffffffffffffff00000000000000000000000000000000000000001673ffffffffffffffffffffffffffffffffffffffff92909216919091179055565b7f177481ac65e4292921c69f62d1cc7f57541261e5d61c8175cf4e36a01c9bfc94546060907f177481ac65e4292921c69f62d1cc7f57541261e5d61c8175cf4e36a01c9bfc939061ffff1667ffffffffffffffff81111561103b5761103b6122c2565b604051908082528060200260200182016040528015611064578160200160208202803683370190505b50915060008060005b600184015461ffff1682101561118a576000818152600285016020526040812054905b600881101561117557836110a3816124f0565b600188015490955061ffff168511905061117557600581901b82901b7fffffffff00000000000000000000000000000000000000000000000000000000811660009081526020889052604090205460601c73ffffffffffffffffffffffffffffffffffffffff8a1603611162578088878151811061112357611123612528565b7fffffffff00000000000000000000000000000000000000000000000000000000909216602092830291909101909101528561115e816124f0565b9650505b508061116d816124f0565b915050611090565b50508080611182906124f0565b91505061106d565b5050825250919050565b7f8a22373512790c48b83a1fe2efdd2888d4a917bcdc24d0adf63e60f6716804605473ffffffffffffffffffffffffffffffffffffffff16331461121a5760405162461bcd60e51b815260206004820152601d60248201527f4f776e61626c653a2073656e646572206d757374206265206f776e65720000006044820152606401610164565b610993817f24aa1f7b31fd188a8d3ecfb06bc55c806040e59b03bd4396283442fce6617890610950565b7f177481ac65e4292921c69f62d1cc7f57541261e5d61c8175cf4e36a01c9bfc9390565b600184015461ffff8116908190600090600716156112985750600381901c60009081526002870160205260409020545b60005b86518110156113c75760008782815181106112b8576112b8612528565b602002602001015190506000816020015190506000826040015151116113465760405162461bcd60e51b815260206004820152602360248201527f4469616d6f6e64426173653a206e6f2073656c6563746f72732073706563696660448201527f69656400000000000000000000000000000000000000000000000000000000006064820152608401610164565b600081600281111561135a5761135a612576565b036113755761136b8a868685611470565b90955093506113bd565b600281600281111561138957611389612576565b0361139a5761136b8a8686856116b9565b60018160028111156113ae576113ae612576565b036113bd576113bd8a83611abb565b505060010161129b565b50828214611400576001870180547fffffffffffffffffffffffffffffffffffffffffffffffffffffffffffff00001661ffff84161790555b600782161561142257600382901c600090815260028801602052604090208190555b7f8faa70878671ccd212d20771b795c50af8fd3ff6cf27f4bde57e5d4de0aeb67386868660405161145593929190612613565b60405180910390a16114678585611db0565b50505050505050565b8051600090819073ffffffffffffffffffffffffffffffffffffffff163014806114b15750825173ffffffffffffffffffffffffffffffffffffffff163b15155b6115235760405162461bcd60e51b815260206004820152602360248201527f4469616d6f6e64426173653a204144442074617267657420686173206e6f206360448201527f6f646500000000000000000000000000000000000000000000000000000000006064820152608401610164565b60005b8360400151518110156116ac5760008460400151828151811061154b5761154b612528565b6020908102919091018101517fffffffff0000000000000000000000000000000000000000000000000000000081166000908152918a9052604090912054909150606081901c156116045760405162461bcd60e51b815260206004820152602360248201527f4469616d6f6e64426173653a2073656c6563746f7220616c726561647920616460448201527f64656400000000000000000000000000000000000000000000000000000000006064820152608401610164565b85517fffffffff00000000000000000000000000000000000000000000000000000000838116600081815260208d90526040902060609390931b7fffffffffffffffffffffffffffffffffffffffff000000000000000000000000168b1790925560058a901b60e090811692831c91831c1999909916179781900361169d57600389901c600090815260028b0160205260408120989098555b50505060019586019501611526565b5093959294509192505050565b8051600090819073ffffffffffffffffffffffffffffffffffffffff16156117495760405162461bcd60e51b815260206004820152602f60248201527f4469616d6f6e64426173653a2052454d4f564520746172676574206d7573742060448201527f6265207a65726f206164647265737300000000000000000000000000000000006064820152608401610164565b600385901c6007861660005b856040015151811015611aa75760008660400151828151811061177a5761177a612528565b6020908102919091018101517fffffffff0000000000000000000000000000000000000000000000000000000081166000908152918c9052604090912054909150606081901c61180c5760405162461bcd60e51b815260206004820152601f60248201527f4469616d6f6e64426173653a2073656c6563746f72206e6f7420666f756e64006044820152606401610164565b30606082901c036118855760405162461bcd60e51b815260206004820152602260248201527f4469616d6f6e64426173653a2073656c6563746f7220697320696d6d7574616260448201527f6c650000000000000000000000000000000000000000000000000000000000006064820152608401610164565b60008990036118cf577fffffffffffffffffffffffffffffffffffffffffffffffffffffffffffffffff909401600081815260028c016020526040902054985093600793506118f5565b7fffffffffffffffffffffffffffffffffffffffffffffffffffffffffffffffff909301925b600584901b89901b6000807fffffffff0000000000000000000000000000000000000000000000000000000080841690861614611994577fffffffff000000000000000000000000000000000000000000000000000000008316600090815260208f90526040902080547fffffffffffffffffffffffffffffffffffffffff000000000000000000000000166bffffffffffffffffffffffff86161790555b50507fffffffff000000000000000000000000000000000000000000000000000000008316600090815260208d90526040812055611fff600383901c1660e0600584901b16878214611a2757600082815260028f016020526040902080547fffffffff0000000000000000000000000000000000000000000000000000000080841c19909116908516831c179055611a78565b80837bffffffffffffffffffffffffffffffffffffffffffffffffffffffff1916901c817fffffffff0000000000000000000000000000000000000000000000000000000060001b901c198d16179b505b86600003611a9657600088815260028f01602052604081208190559b505b505060019093019250611755915050565b5060039190911b1796939550929350505050565b805173ffffffffffffffffffffffffffffffffffffffff163b611b465760405162461bcd60e51b815260206004820152602760248201527f4469616d6f6e64426173653a205245504c41434520746172676574206861732060448201527f6e6f20636f6465000000000000000000000000000000000000000000000000006064820152608401610164565b60005b816040015151811015611dab57600082604001518281518110611b6e57611b6e612528565b6020908102919091018101517fffffffff000000000000000000000000000000000000000000000000000000008116600090815291869052604090912054909150606081901c80611c015760405162461bcd60e51b815260206004820152601f60248201527f4469616d6f6e64426173653a2073656c6563746f72206e6f7420666f756e64006044820152606401610164565b3073ffffffffffffffffffffffffffffffffffffffff821603611c8c5760405162461bcd60e51b815260206004820152602260248201527f4469616d6f6e64426173653a2073656c6563746f7220697320696d6d7574616260448201527f6c650000000000000000000000000000000000000000000000000000000000006064820152608401610164565b846000015173ffffffffffffffffffffffffffffffffffffffff168173ffffffffffffffffffffffffffffffffffffffff1603611d315760405162461bcd60e51b815260206004820152602860248201527f4469616d6f6e64426173653a205245504c41434520746172676574206973206960448201527f64656e746963616c0000000000000000000000000000000000000000000000006064820152608401610164565b5083517fffffffff0000000000000000000000000000000000000000000000000000000092909216600090815260208690526040902060609290921b7fffffffffffffffffffffffffffffffffffffffff000000000000000000000000166bffffffffffffffffffffffff91909116179055600101611b49565b505050565b80511573ffffffffffffffffffffffffffffffffffffffff83161514611e3e5760405162461bcd60e51b815260206004820152602e60248201527f4469616d6f6e64426173653a20696e76616c696420696e697469616c697a617460448201527f696f6e20706172616d65746572730000000000000000000000000000000000006064820152608401610164565b73ffffffffffffffffffffffffffffffffffffffff821615611f7b5773ffffffffffffffffffffffffffffffffffffffff82163014611f015773ffffffffffffffffffffffffffffffffffffffff82163b611f015760405162461bcd60e51b815260206004820152602e60248201527f4469616d6f6e64426173653a20696e697469616c697a6174696f6e207461726760448201527f657420686173206e6f20636f64650000000000000000000000000000000000006064820152608401610164565b60008273ffffffffffffffffffffffffffffffffffffffff1682604051611f28919061272d565b600060405180830381855af49150503d8060008114611f63576040519150601f19603f3d011682016040523d82523d6000602084013e611f68565b606091505b5050905080611dab573d6000803e3d6000fd5b5050565b80357fffffffff0000000000000000000000000000000000000000000000000000000081168114611faf57600080fd5b919050565b600060208284031215611fc657600080fd5b6104f182611f7f565b803573ffffffffffffffffffffffffffffffffffffffff81168114611faf57600080fd5b60008083601f84011261200557600080fd5b50813567ffffffffffffffff81111561201d57600080fd5b60208301915083602082850101111561203557600080fd5b9250929050565b60008060008060006060868803121561205457600080fd5b853567ffffffffffffffff8082111561206c57600080fd5b818801915088601f83011261208057600080fd5b81358181111561208f57600080fd5b8960208260051b85010111156120a457600080fd5b602083019750809650506120ba60208901611fcf565b945060408801359150808211156120d057600080fd5b506120dd88828901611ff3565b969995985093965092949392505050565b6020808252825182820181905260009190848201906040850190845b8181101561213c57835173ffffffffffffffffffffffffffffffffffffffff168352928401929184019160010161210a565b50909695505050505050565b600081518084526020808501945080840160005b8381101561219a5781517fffffffff00000000000000000000000000000000000000000000000000000000168752958201959082019060010161215c565b509495945050505050565b60006020808301818452808551808352604092508286019150828160051b87010184880160005b8381101561223f578883037fffffffffffffffffffffffffffffffffffffffffffffffffffffffffffffffc00185528151805173ffffffffffffffffffffffffffffffffffffffff16845287015187840187905261222c87850182612148565b95880195935050908601906001016121cc565b509098975050505050505050565b60006020828403121561225f57600080fd5b6104f182611fcf565b6020808252825182820181905260009190848201906040850190845b8181101561213c5783517fffffffff000000000000000000000000000000000000000000000000000000001683529284019291840191600101612284565b7f4e487b7100000000000000000000000000000000000000000000000000000000600052604160045260246000fd5b6040516060810167ffffffffffffffff81118282101715612314576123146122c2565b60405290565b604051601f82017fffffffffffffffffffffffffffffffffffffffffffffffffffffffffffffffe016810167ffffffffffffffff81118282101715612361576123616122c2565b604052919050565b600067ffffffffffffffff821115612383576123836122c2565b5060051b60200190565b60006123a061239b84612369565b61231a565b83815260208082019190600586811b8601368111156123be57600080fd5b865b818110156124b457803567ffffffffffffffff808211156123e15760008081fd5b818a019150606082360312156123f75760008081fd5b6123ff6122f1565b61240883611fcf565b8152868301356003811061241c5760008081fd5b81880152604083810135838111156124345760008081fd5b939093019236601f85011261244b57600092508283fd5b8335925061245b61239b84612369565b83815292871b840188019288810190368511156124785760008081fd5b948901945b8486101561249d5761248e86611f7f565b8252948901949089019061247d565b9183019190915250885250509483019483016123c0565b5092979650505050505050565b7f4e487b7100000000000000000000000000000000000000000000000000000000600052601160045260246000fd5b60007fffffffffffffffffffffffffffffffffffffffffffffffffffffffffffffffff8203612521576125216124c1565b5060010190565b7f4e487b7100000000000000000000000000000000000000000000000000000000600052603260045260246000fd5b600060ff821660ff810361256d5761256d6124c1565b60010192915050565b7f4e487b7100000000000000000000000000000000000000000000000000000000600052602160045260246000fd5b60005b838110156125c05781810151838201526020016125a8565b50506000910152565b600081518084526125e18160208601602086016125a5565b601f017fffffffffffffffffffffffffffffffffffffffffffffffffffffffffffffffe0169290920160200192915050565b6000606080830181845280875180835260808601915060808160051b87010192506020808a016000805b848110156126f0577fffffffffffffffffffffffffffffffffffffffffffffffffffffffffffffff808a8803018652825173ffffffffffffffffffffffffffffffffffffffff815116885284810151600381106126c1577f4e487b710000000000000000000000000000000000000000000000000000000084526021600452602484fd5b888601526040908101519088018990526126dd89890182612148565b975050948301949183019160010161263d565b50505073ffffffffffffffffffffffffffffffffffffffff8916908701525050838103604085015261272281866125c9565b979650505050505050565b6000825161273f8184602087016125a5565b919091019291505056fea2646970667358221220a467ae46d274e6c68dcfde871537f6eb2ba6394582ef4561a021d2c869d0485864736f6c634300081300334469616d6f6e64426173653a2073656c6563746f7220697320696d6d75746162",
  "linkReferences": {},
  "deployedLinkReferences": {}
}