{
  "_format": "hh-sol-artifact-1",
  "contractName": "Vat",
  "sourceName": "src/vat.sol",
  "abi": [
    {
      "inputs": [],
      "name": "ErrDebtCeil",
      "type": "error"
    },
    {
      "inputs": [],
      "name": "ErrFeeMin",
      "type": "error"
    },
    {
      "inputs": [],
      "name": "ErrFeeRho",
      "type": "error"
    },
    {
      "inputs": [],
      "name": "ErrHookCallerNotBank",
      "type": "error"
    },
    {
      "inputs": [],
      "name": "ErrHookData",
      "type": "error"
    },
    {
      "inputs": [],
      "name": "ErrIlkInit",
      "type": "error"
    },
    {
      "inputs": [],
      "name": "ErrIntOver",
      "type": "error"
    },
    {
      "inputs": [],
      "name": "ErrIntUnder",
      "type": "error"
    },
    {
      "inputs": [],
      "name": "ErrLock",
      "type": "error"
    },
    {
      "inputs": [],
      "name": "ErrMultiIlk",
      "type": "error"
    },
    {
      "inputs": [],
      "name": "ErrNotSafe",
      "type": "error"
    },
    {
      "inputs": [],
      "name": "ErrSafeBail",
      "type": "error"
    },
    {
      "inputs": [],
      "name": "ErrUintOver",
      "type": "error"
    },
    {
      "inputs": [],
      "name": "ErrUintUnder",
      "type": "error"
    },
    {
      "inputs": [],
      "name": "ErrUrnDust",
      "type": "error"
    },
    {
      "inputs": [],
      "name": "ErrWrongKey",
      "type": "error"
    },
    {
      "inputs": [],
      "name": "ErrWrongUrn",
      "type": "error"
    },
    {
      "anonymous": false,
      "inputs": [
        {
          "indexed": true,
          "internalType": "address",
          "name": "caller",
          "type": "address"
        },
        {
          "indexed": true,
          "internalType": "bytes4",
          "name": "sig",
          "type": "bytes4"
        },
        {
          "indexed": false,
          "internalType": "bytes",
          "name": "data",
          "type": "bytes"
        }
      ],
      "name": "NewFlog",
      "type": "event"
    },
    {
      "anonymous": false,
      "inputs": [
        {
          "indexed": true,
          "internalType": "bytes32",
          "name": "key",
          "type": "bytes32"
        },
        {
          "indexed": false,
          "internalType": "bytes32",
          "name": "val",
          "type": "bytes32"
        }
      ],
      "name": "NewPalm0",
      "type": "event"
    },
    {
      "anonymous": false,
      "inputs": [
        {
          "indexed": true,
          "internalType": "bytes32",
          "name": "key",
          "type": "bytes32"
        },
        {
          "indexed": true,
          "internalType": "bytes32",
          "name": "idx0",
          "type": "bytes32"
        },
        {
          "indexed": false,
          "internalType": "bytes32",
          "name": "val",
          "type": "bytes32"
        }
      ],
      "name": "NewPalm1",
      "type": "event"
    },
    {
      "anonymous": false,
      "inputs": [
        {
          "indexed": true,
          "internalType": "bytes32",
          "name": "key",
          "type": "bytes32"
        },
        {
          "indexed": true,
          "internalType": "bytes32",
          "name": "idx0",
          "type": "bytes32"
        },
        {
          "indexed": true,
          "internalType": "bytes32",
          "name": "idx1",
          "type": "bytes32"
        },
        {
          "indexed": false,
          "internalType": "bytes32",
          "name": "val",
          "type": "bytes32"
        }
      ],
      "name": "NewPalm2",
      "type": "event"
    },
    {
      "anonymous": false,
      "inputs": [
        {
          "indexed": true,
          "internalType": "bytes32",
          "name": "key",
          "type": "bytes32"
        },
        {
          "indexed": true,
          "internalType": "bytes32",
          "name": "idx0",
          "type": "bytes32"
        },
        {
          "indexed": true,
          "internalType": "bytes32",
          "name": "idx1",
          "type": "bytes32"
        },
        {
          "indexed": false,
          "internalType": "bytes",
          "name": "val",
          "type": "bytes"
        }
      ],
      "name": "NewPalmBytes2",
      "type": "event"
    },
    {
      "inputs": [],
      "name": "MINT",
      "outputs": [
        {
          "internalType": "uint256",
          "name": "",
          "type": "uint256"
        }
      ],
      "stateMutability": "pure",
      "type": "function"
    },
    {
      "inputs": [
        {
          "internalType": "bytes32",
          "name": "i",
          "type": "bytes32"
        },
        {
          "internalType": "address",
          "name": "u",
          "type": "address"
        }
      ],
      "name": "bail",
      "outputs": [
        {
          "internalType": "bytes",
          "name": "",
          "type": "bytes"
        }
      ],
      "stateMutability": "nonpayable",
      "type": "function"
    },
    {
      "inputs": [],
      "name": "ceil",
      "outputs": [
        {
          "internalType": "uint256",
          "name": "",
          "type": "uint256"
        }
      ],
      "stateMutability": "view",
      "type": "function"
    },
    {
      "inputs": [],
      "name": "debt",
      "outputs": [
        {
          "internalType": "uint256",
          "name": "",
          "type": "uint256"
        }
      ],
      "stateMutability": "view",
      "type": "function"
    },
    {
      "inputs": [
        {
          "internalType": "bytes32",
          "name": "i",
          "type": "bytes32"
        }
      ],
      "name": "drip",
      "outputs": [],
      "stateMutability": "nonpayable",
      "type": "function"
    },
    {
      "inputs": [
        {
          "internalType": "bytes32",
          "name": "ilk",
          "type": "bytes32"
        },
        {
          "internalType": "bytes32",
          "name": "key",
          "type": "bytes32"
        },
        {
          "internalType": "bytes32[]",
          "name": "xs",
          "type": "bytes32[]"
        },
        {
          "internalType": "bytes32",
          "name": "val",
          "type": "bytes32"
        }
      ],
      "name": "filh",
      "outputs": [],
      "stateMutability": "nonpayable",
      "type": "function"
    },
    {
      "inputs": [
        {
          "internalType": "bytes32",
          "name": "ilk",
          "type": "bytes32"
        },
        {
          "internalType": "bytes32",
          "name": "key",
          "type": "bytes32"
        },
        {
          "internalType": "bytes32",
          "name": "val",
          "type": "bytes32"
        }
      ],
      "name": "filk",
      "outputs": [],
      "stateMutability": "nonpayable",
      "type": "function"
    },
    {
      "inputs": [
        {
          "internalType": "address",
          "name": "code",
          "type": "address"
        },
        {
          "internalType": "bytes",
          "name": "data",
          "type": "bytes"
        }
      ],
      "name": "flash",
      "outputs": [
        {
          "internalType": "bytes",
          "name": "result",
          "type": "bytes"
        }
      ],
      "stateMutability": "nonpayable",
      "type": "function"
    },
    {
      "inputs": [
        {
          "internalType": "bytes32",
          "name": "i",
          "type": "bytes32"
        },
        {
          "internalType": "address",
          "name": "u",
          "type": "address"
        },
        {
          "internalType": "bytes",
          "name": "dink",
          "type": "bytes"
        },
        {
          "internalType": "int256",
          "name": "dart",
          "type": "int256"
        }
      ],
      "name": "frob",
      "outputs": [],
      "stateMutability": "nonpayable",
      "type": "function"
    },
    {
      "inputs": [
        {
          "internalType": "bytes32",
          "name": "ilk",
          "type": "bytes32"
        },
        {
          "internalType": "bytes32",
          "name": "key",
          "type": "bytes32"
        },
        {
          "internalType": "bytes32[]",
          "name": "xs",
          "type": "bytes32[]"
        }
      ],
      "name": "geth",
      "outputs": [
        {
          "internalType": "bytes32",
          "name": "",
          "type": "bytes32"
        }
      ],
      "stateMutability": "view",
      "type": "function"
    },
    {
      "inputs": [
        {
          "internalType": "bytes32",
          "name": "i",
          "type": "bytes32"
        },
        {
          "internalType": "bytes",
          "name": "indata",
          "type": "bytes"
        }
      ],
      "name": "hookcallext",
      "outputs": [
        {
          "internalType": "bytes",
          "name": "",
          "type": "bytes"
        }
      ],
      "stateMutability": "nonpayable",
      "type": "function"
    },
    {
      "inputs": [
        {
          "internalType": "bytes32",
          "name": "i",
          "type": "bytes32"
        }
      ],
      "name": "ilks",
      "outputs": [
        {
          "components": [
            {
              "internalType": "uint256",
              "name": "tart",
              "type": "uint256"
            },
            {
              "internalType": "uint256",
              "name": "rack",
              "type": "uint256"
            },
            {
              "internalType": "uint256",
              "name": "line",
              "type": "uint256"
            },
            {
              "internalType": "uint256",
              "name": "dust",
              "type": "uint256"
            },
            {
              "internalType": "uint256",
              "name": "fee",
              "type": "uint256"
            },
            {
              "internalType": "uint256",
              "name": "rho",
              "type": "uint256"
            },
            {
              "internalType": "uint256",
              "name": "chop",
              "type": "uint256"
            },
            {
              "internalType": "address",
              "name": "hook",
              "type": "address"
            }
          ],
          "internalType": "struct Bank.Ilk",
          "name": "",
          "type": "tuple"
        }
      ],
      "stateMutability": "view",
      "type": "function"
    },
    {
      "inputs": [
        {
          "internalType": "bytes32",
          "name": "ilk",
          "type": "bytes32"
        },
        {
          "internalType": "address",
          "name": "hook",
          "type": "address"
        }
      ],
      "name": "init",
      "outputs": [],
      "stateMutability": "nonpayable",
      "type": "function"
    },
    {
      "inputs": [
        {
          "internalType": "bytes32",
          "name": "i",
          "type": "bytes32"
        },
        {
          "internalType": "address",
          "name": "u",
          "type": "address"
        }
      ],
      "name": "ink",
      "outputs": [
        {
          "internalType": "bytes",
          "name": "",
          "type": "bytes"
        }
      ],
      "stateMutability": "view",
      "type": "function"
    },
    {
      "inputs": [],
      "name": "joy",
      "outputs": [
        {
          "internalType": "uint256",
          "name": "",
          "type": "uint256"
        }
      ],
      "stateMutability": "view",
      "type": "function"
    },
    {
      "inputs": [],
      "name": "par",
      "outputs": [
        {
          "internalType": "uint256",
          "name": "",
          "type": "uint256"
        }
      ],
      "stateMutability": "view",
      "type": "function"
    },
    {
      "inputs": [],
      "name": "rest",
      "outputs": [
        {
          "internalType": "uint256",
          "name": "",
          "type": "uint256"
        }
      ],
      "stateMutability": "view",
      "type": "function"
    },
    {
      "inputs": [
        {
          "internalType": "uint256",
          "name": "x",
          "type": "uint256"
        },
        {
          "internalType": "uint256",
          "name": "n",
          "type": "uint256"
        }
      ],
      "name": "rpow",
      "outputs": [
        {
          "internalType": "uint256",
          "name": "z",
          "type": "uint256"
        }
      ],
      "stateMutability": "pure",
      "type": "function"
    },
    {
      "inputs": [
        {
          "internalType": "bytes32",
          "name": "i",
          "type": "bytes32"
        },
        {
          "internalType": "address",
          "name": "u",
          "type": "address"
        }
      ],
      "name": "safe",
      "outputs": [
        {
          "internalType": "enum Vat.Spot",
          "name": "",
          "type": "uint8"
        },
        {
          "internalType": "uint256",
          "name": "",
          "type": "uint256"
        },
        {
          "internalType": "uint256",
          "name": "",
          "type": "uint256"
        }
      ],
      "stateMutability": "view",
      "type": "function"
    },
    {
      "inputs": [],
      "name": "sin",
      "outputs": [
        {
          "internalType": "uint256",
          "name": "",
          "type": "uint256"
        }
      ],
      "stateMutability": "view",
      "type": "function"
    },
    {
      "inputs": [
        {
          "internalType": "bytes32",
          "name": "i",
          "type": "bytes32"
        },
        {
          "internalType": "address",
          "name": "u",
          "type": "address"
        }
      ],
      "name": "urns",
      "outputs": [
        {
          "internalType": "uint256",
          "name": "",
          "type": "uint256"
        }
      ],
      "stateMutability": "view",
      "type": "function"
    }
  ],
  "bytecode": "0x608060405234801561001057600080fd5b50613312806100206000396000f3fe608060405234801561001057600080fd5b50600436106101775760003560e01c80635ed03e57116100d8578063a0a7930a1161008c578063c0ea09d711610066578063c0ea09d7146102d0578063d9638d36146102d8578063ffe567e81461036257600080fd5b8063a0a7930a14610297578063b5582919146102aa578063bfbcf136146102bd57600080fd5b806372b67b99116100bd57806372b67b991461024f5780638f90719514610262578063938bd9a71461027557600080fd5b80635ed03e571461023457806370aed3c71461023c57600080fd5b806344e2a5a81161012f57806348f6410f1161011457806348f6410f146101f9578063495d32cb1461020c57806354c87e8d1461021457600080fd5b806344e2a5a8146101de578063465b43d0146101f157600080fd5b80632424be5c116101605780632424be5c1461019f5780632aa71e24146101b25780633e36f4c7146101c757600080fd5b8063071bafb51461017c5780630dca59c114610197575b600080fd5b610184610375565b6040519081526020015b60405180910390f35b610184610388565b6101846101ad366004612b20565b61039b565b6101c56101c0366004612b20565b6103e2565b005b700100000000000000000000000000000000610184565b6101c56101ec366004612b4c565b610924565b6101846109c5565b6101c5610207366004612b65565b6109d8565b610184610d4a565b610227610222366004612b20565b610d5d565b60405161018e9190612be1565b610184611212565b61022761024a366004612c7c565b611225565b61018461025d366004612d52565b611271565b610184610270366004612da5565b611307565b610288610283366004612b20565b6113fd565b60405161018e93929190612df6565b6102276102a5366004612e87565b611628565b6101c56102b8366004612eda565b611850565b6101c56102cb366004612f3c565b612124565b6101846122db565b6102eb6102e6366004612b4c565b6122ee565b60405161018e9190600061010082019050825182526020830151602083015260408301516040830152606083015160608301526080830151608083015260a083015160a083015260c083015160c083015273ffffffffffffffffffffffffffffffffffffffff60e08401511660e083015292915050565b610227610370366004612b20565b6123d6565b600061037f612442565b60030154905090565b6000610392612442565b60050154905090565b60006103a5612442565b60008481526001919091016020908152604080832073ffffffffffffffffffffffffffffffffffffffff8616845290915290205490505b92915050565b7f8a22373512790c48b83a1fe2efdd2888d4a917bcdc24d0adf63e60f6716804605473ffffffffffffffffffffffffffffffffffffffff163314610487576040517f08c379a000000000000000000000000000000000000000000000000000000000815260206004820152601d60248201527f4f776e61626c653a2073656e646572206d757374206265206f776e657200000060448201526064015b60405180910390fd5b6000357fffffffff00000000000000000000000000000000000000000000000000000000167bffffffffffffffffffffffffffffffffffffffffffffffffffffffff19163373ffffffffffffffffffffffffffffffffffffffff167fc8b2a2dbd2bddf4ecc3e665d9828132a78820abf89df014d2ce4510f27a16061600036604051610514929190612f85565b60405180910390a36000610526612442565b60008481526020829052604090206001015490915015610572576040517f9c9f104300000000000000000000000000000000000000000000000000000000815260040160405180910390fd5b604080516101008101825260008082526b033b2e3c9fd0803ce8000000602080840182815284860184815260608601858152608087018581524260a0890190815260c0890188815273ffffffffffffffffffffffffffffffffffffffff8d811660e08c019081528f8b528d8952998c90209a518b55955160018b0155935160028a0155915160038901555160048801555160058701555160068601559251600790940180547fffffffffffffffffffffffff0000000000000000000000000000000000000000169490931693909317909155915191825284917f7261636b00000000000000000000000000000000000000000000000000000000917fa6a62c84c48e7b9441c54da7ead6df8213afddbc24649e1f6b88294160ef069f910160405180910390a36040516b033b2e3c9fd0803ce8000000815283907f6665650000000000000000000000000000000000000000000000000000000000907fa6a62c84c48e7b9441c54da7ead6df8213afddbc24649e1f6b88294160ef069f9060200160405180910390a3827f686f6f6b000000000000000000000000000000000000000000000000000000007fa6a62c84c48e7b9441c54da7ead6df8213afddbc24649e1f6b88294160ef069f8460601b6bffffffffffffffffffffffff191660405161076091815260200190565b60405180910390a360405142815283907f72686f0000000000000000000000000000000000000000000000000000000000907fa6a62c84c48e7b9441c54da7ead6df8213afddbc24649e1f6b88294160ef069f9060200160405180910390a36040516000815283907f7461727400000000000000000000000000000000000000000000000000000000907fa6a62c84c48e7b9441c54da7ead6df8213afddbc24649e1f6b88294160ef069f9060200160405180910390a36040516000815283907f63686f7000000000000000000000000000000000000000000000000000000000907fa6a62c84c48e7b9441c54da7ead6df8213afddbc24649e1f6b88294160ef069f9060200160405180910390a36040516000815283907f6c696e6500000000000000000000000000000000000000000000000000000000907fa6a62c84c48e7b9441c54da7ead6df8213afddbc24649e1f6b88294160ef069f9060200160405180910390a36040516000815283907f6475737400000000000000000000000000000000000000000000000000000000907fa6a62c84c48e7b9441c54da7ead6df8213afddbc24649e1f6b88294160ef069f9060200160405180910390a3505050565b6000357fffffffff00000000000000000000000000000000000000000000000000000000167bffffffffffffffffffffffffffffffffffffffffffffffffffffffff19163373ffffffffffffffffffffffffffffffffffffffff167fc8b2a2dbd2bddf4ecc3e665d9828132a78820abf89df014d2ce4510f27a160616000366040516109b1929190612f85565b60405180910390a36109c281612496565b50565b60006109cf612442565b60020154905090565b7f8a22373512790c48b83a1fe2efdd2888d4a917bcdc24d0adf63e60f6716804605473ffffffffffffffffffffffffffffffffffffffff163314610a78576040517f08c379a000000000000000000000000000000000000000000000000000000000815260206004820152601d60248201527f4f776e61626c653a2073656e646572206d757374206265206f776e6572000000604482015260640161047e565b6000357fffffffff00000000000000000000000000000000000000000000000000000000167bffffffffffffffffffffffffffffffffffffffffffffffffffffffff19163373ffffffffffffffffffffffffffffffffffffffff167fc8b2a2dbd2bddf4ecc3e665d9828132a78820abf89df014d2ce4510f27a16061600036604051610b05929190612f85565b60405180910390a3806000610b18612442565b60008681526020829052604090209091507f6c696e6500000000000000000000000000000000000000000000000000000000859003610b5d5760028101839055610d07565b847f647573740000000000000000000000000000000000000000000000000000000003610b905760038101839055610d07565b847f686f6f6b0000000000000000000000000000000000000000000000000000000003610bec576007810180547fffffffffffffffffffffffff000000000000000000000000000000000000000016606086901c179055610d07565b847f63686f700000000000000000000000000000000000000000000000000000000003610c1f5760068101839055610d07565b847f666565000000000000000000000000000000000000000000000000000000000003610cd5576b033b2e3c9fd0803ce8000000831015610c8c576040517f9413c34a00000000000000000000000000000000000000000000000000000000815260040160405180910390fd5b80600501544214610cc9576040517fd66c035800000000000000000000000000000000000000000000000000000000815260040160405180910390fd5b60048101839055610d07565b6040517f0b84bcb500000000000000000000000000000000000000000000000000000000815260040160405180910390fd5b85857fa6a62c84c48e7b9441c54da7ead6df8213afddbc24649e1f6b88294160ef069f86604051610d3a91815260200190565b60405180910390a3505050505050565b6000610d54612442565b60070154905090565b60606000357fffffffff00000000000000000000000000000000000000000000000000000000167bffffffffffffffffffffffffffffffffffffffffffffffffffffffff19163373ffffffffffffffffffffffffffffffffffffffff167fc8b2a2dbd2bddf4ecc3e665d9828132a78820abf89df014d2ce4510f27a16061600036604051610dec929190612f85565b60405180910390a36000610dfe612442565b90506001816008015403610e3e576040517f64bbcb9100000000000000000000000000000000000000000000000000000000815260040160405180910390fd5b60016008820155610e4e84612496565b6000806000610e5d87876113fd565b919450925090506000836002811115610e7857610e78612dc7565b14610eaf576040517fa1455f9f00000000000000000000000000000000000000000000000000000000815260040160405180910390fd5b6000610eb9612442565b60008981526020828152604080832060018501835281842073ffffffffffffffffffffffffffffffffffffffff8d168552835281842080549085905591519384529394509160608b901b7fffffffffffffffffffffffffffffffffffffffff00000000000000000000000016918c917f6172740000000000000000000000000000000000000000000000000000000000917f82bcec2bd7095ddf55d9a6327af92ab6ed14951aa1a7cce10fdfe691bb3cbed8910160405180910390a46000826001015482610f879190612fe3565b90506000610fa16b033b2e3c9fd0803ce800000083613029565b90506000610fb385600601548361275f565b905083856000016000828254610fc9919061303d565b909155505084546040519081528d907f7461727400000000000000000000000000000000000000000000000000000000907fa6a62c84c48e7b9441c54da7ead6df8213afddbc24649e1f6b88294160ef069f9060200160405180910390a38286600301600082825461103b9190613050565b909155505060038601546040519081527f73696e0000000000000000000000000000000000000000000000000000000000907f16e9c051056ea742d289d2cb753372cf432f332213ecd495b26ea8f72e3cf2e09060200160405180910390a26040805160e0810182528e815273ffffffffffffffffffffffffffffffffffffffff8e1660208201528082018390526060810184905233608082015260a081018a905260c0810189905290516111e5908f907fad9ff9ba0000000000000000000000000000000000000000000000000000000090611181908590602401600060e08201905082518252602083015173ffffffffffffffffffffffffffffffffffffffff80821660208501526040850151604085015260608501516060850152806080860151166080850152505060a083015160a083015260c083015160c083015292915050565b60408051601f198184030181529190526020810180517bffffffffffffffffffffffffffffffffffffffffffffffffffffffff167fffffffff0000000000000000000000000000000000000000000000000000000090931692909217909152612782565b8060200190518101906111f89190613063565b9b5050505050505050505050600260089091015592915050565b600061121c612442565b60060154905090565b6060333014611260576040517f13932dec00000000000000000000000000000000000000000000000000000000815260040160405180910390fd5b61126a8383612782565b9392505050565b60006112eb858587868660405160240161128e949392919061311c565b60408051601f198184030181529190526020810180517bffffffffffffffffffffffffffffffffffffffffffffffffffffffff167fd09e623f0000000000000000000000000000000000000000000000000000000017905261281c565b8060200190518101906112fe9190613146565b95945050505050565b60008180156113e6578380156113db5760018416801561132957859350611339565b6b033b2e3c9fd0803ce800000093505b506002909304926b019d971e4fe8401e740000005b84156113d5578586028660801c1561136557600080fd5b8181018181101561137557600080fd5b6b033b2e3c9fd0803ce8000000900496505060018516156113ca5785840284878204141587151516156113a757600080fd5b818101818110156113b757600080fd5b6b033b2e3c9fd0803ce800000090049450505b60028504945061134e565b506113e0565b600092505b506113f6565b6b033b2e3c9fd0803ce800000091505b5092915050565b60008060008061140b612442565b6000878152602082905260408082209051602481018a905273ffffffffffffffffffffffffffffffffffffffff89166044820152929350916114d39089907f238131ef00000000000000000000000000000000000000000000000000000000906064015b60408051601f198184030181529190526020810180517bffffffffffffffffffffffffffffffffffffffffffffffffffffffff167fffffffff000000000000000000000000000000000000000000000000000000009093169290921790915261281c565b90508051606014611510576040517ffa1ea6d200000000000000000000000000000000000000000000000000000000815260040160405180910390fd5b600080600083806020019051810190611529919061315f565b9250925092508042111561154d576001600084985098509850505050505050611621565b60006115618760070154876001015461275f565b8760010160008e815260200190815260200160002060008d73ffffffffffffffffffffffffffffffffffffffff1673ffffffffffffffffffffffffffffffffffffffff168152602001908152602001600020546115be9190612fe3565b90508281116115e95760026b033b2e3c9fd0803ce80000008599509950995050505050505050611621565b60006116016b033b2e3c9fd0803ce800000083613029565b61160b9085613029565b60009b5099509397506116219650505050505050565b9250925092565b60606000611634612442565b90506001816009015403611674576040517f64bbcb9100000000000000000000000000000000000000000000000000000000815260040160405180910390fd5b6001600982015561168361292c565b546040517f40c10f1900000000000000000000000000000000000000000000000000000000815273ffffffffffffffffffffffffffffffffffffffff87811660048301527001000000000000000000000000000000006024830152909116906340c10f1990604401600060405180830381600087803b15801561170557600080fd5b505af1158015611719573d6000803e3d6000fd5b5050505060008573ffffffffffffffffffffffffffffffffffffffff16858560405161174692919061318d565b6000604051808303816000865af19150503d8060008114611783576040519150601f19603f3d011682016040523d82523d6000602084013e611788565b606091505b50935090508061179b5761179b83612962565b6117a361292c565b546040517f9dc29fac00000000000000000000000000000000000000000000000000000000815273ffffffffffffffffffffffffffffffffffffffff8881166004830152700100000000000000000000000000000000602483015290911690639dc29fac90604401600060405180830381600087803b15801561182557600080fd5b505af1158015611839573d6000803e3d6000fd5b505050506002826009018190555050509392505050565b6000357fffffffff00000000000000000000000000000000000000000000000000000000167bffffffffffffffffffffffffffffffffffffffffffffffffffffffff19163373ffffffffffffffffffffffffffffffffffffffff167fc8b2a2dbd2bddf4ecc3e665d9828132a78820abf89df014d2ce4510f27a160616000366040516118dd929190612f85565b60405180910390a360006118ef612442565b9050600181600801540361192f576040517f64bbcb9100000000000000000000000000000000000000000000000000000000815260040160405180910390fd5b600160088201556000611940612442565b6000888152602082905260408120600181015492935091900361198f576040517f8094d0b900000000000000000000000000000000000000000000000000000000815260040160405180910390fd5b6000888152600183016020908152604080832073ffffffffffffffffffffffffffffffffffffffff8b1684529091528120546119cb908661296b565b60008a8152600185016020908152604080832073ffffffffffffffffffffffffffffffffffffffff8d168452825291829020839055905182815291925060608a901b7fffffffffffffffffffffffffffffffffffffffff00000000000000000000000016918b917f6172740000000000000000000000000000000000000000000000000000000000917f82bcec2bd7095ddf55d9a6327af92ab6ed14951aa1a7cce10fdfe691bb3cbed8910160405180910390a48154611a8b908661296b565b80835560405190815289907f7461727400000000000000000000000000000000000000000000000000000000907fa6a62c84c48e7b9441c54da7ead6df8213afddbc24649e1f6b88294160ef069f9060200160405180910390a36000611af58360010154876129fc565b90506000811315611cab576000611b186b033b2e3c9fd0803ce800000083613029565b905080856005016000828254611b2e9190613050565b909155505060058501546040519081527f6465627400000000000000000000000000000000000000000000000000000000907f16e9c051056ea742d289d2cb753372cf432f332213ecd495b26ea8f72e3cf2e09060200160405180910390a2611ba36b033b2e3c9fd0803ce80000008361319d565b856004016000828254611bb69190613050565b909155505060048501546040519081527f7265737400000000000000000000000000000000000000000000000000000000907f16e9c051056ea742d289d2cb753372cf432f332213ecd495b26ea8f72e3cf2e09060200160405180910390a2611c1d61292c565b546040517f40c10f190000000000000000000000000000000000000000000000000000000081523360048201526024810183905273ffffffffffffffffffffffffffffffffffffffff909116906340c10f1990604401600060405180830381600087803b158015611c8d57600080fd5b505af1158015611ca1573d6000803e3d6000fd5b5050505050611e79565b6000811215611e795760006b033b2e3c9fd0803ce8000000611ccc836131b1565b611cd69190613029565b611ce1906001613050565b9050611d02611cfc6b033b2e3c9fd0803ce800000083612fe3565b8361296b565b856004016000828254611d159190613050565b909155505060048501546040519081527f7265737400000000000000000000000000000000000000000000000000000000907f16e9c051056ea742d289d2cb753372cf432f332213ecd495b26ea8f72e3cf2e09060200160405180910390a280856005016000828254611d88919061303d565b909155505060058501546040519081527f6465627400000000000000000000000000000000000000000000000000000000907f16e9c051056ea742d289d2cb753372cf432f332213ecd495b26ea8f72e3cf2e09060200160405180910390a2611def61292c565b546040517f9dc29fac0000000000000000000000000000000000000000000000000000000081523360048201526024810183905273ffffffffffffffffffffffffffffffffffffffff90911690639dc29fac90604401600060405180830381600087803b158015611e5f57600080fd5b505af1158015611e73573d6000803e3d6000fd5b50505050505b60006040518060a001604052803373ffffffffffffffffffffffffffffffffffffffff1681526020018c81526020018b73ffffffffffffffffffffffffffffffffffffffff1681526020018a8a8080601f0160208091040260200160405190810160405280939291908181526020018383808284376000920182905250938552505050602090910189905260405191925090611f41908d907fd50203e200000000000000000000000000000000000000000000000000000000906111819086906024016131e9565b90508051602014611f7e576040517ffa1ea6d200000000000000000000000000000000000000000000000000000000815260040160405180910390fd5b80806020019051810190611f929190613253565b611ff5576000611fa28d8d6113fd565b5090915060029050816002811115611fbc57611fbc612dc7565b14611ff3576040517ff95c20d600000000000000000000000000000000000000000000000000000000815260040160405180910390fd5b505b8315801590612016575084600301548486600101546120149190612fe3565b105b1561204d576040517fa51f35b100000000000000000000000000000000000000000000000000000000815260040160405180910390fd5b600088131561210c5760028501546001860154865461206c9190612fe3565b11156120a4576040517fb195f50500000000000000000000000000000000000000000000000000000000815260040160405180910390fd5b85600601546b033b2e3c9fd0803ce800000087600401546120c59190613029565b87600501546120d49190613050565b111561210c576040517fb195f50500000000000000000000000000000000000000000000000000000000815260040160405180910390fd5b50505050505060028160080181905550505050505050565b7f8a22373512790c48b83a1fe2efdd2888d4a917bcdc24d0adf63e60f6716804605473ffffffffffffffffffffffffffffffffffffffff1633146121c4576040517f08c379a000000000000000000000000000000000000000000000000000000000815260206004820152601d60248201527f4f776e61626c653a2073656e646572206d757374206265206f776e6572000000604482015260640161047e565b6000357fffffffff00000000000000000000000000000000000000000000000000000000167bffffffffffffffffffffffffffffffffffffffffffffffffffffffff19163373ffffffffffffffffffffffffffffffffffffffff167fc8b2a2dbd2bddf4ecc3e665d9828132a78820abf89df014d2ce4510f27a16061600036604051612251929190612f85565b60405180910390a36122d3858587868686604051602401612276959493929190613275565b60408051601f198184030181529190526020810180517bffffffffffffffffffffffffffffffffffffffffffffffffffffffff167f81560b8800000000000000000000000000000000000000000000000000000000179052612782565b505050505050565b60006122e5612442565b60040154905090565b61234c60405180610100016040528060008152602001600081526020016000815260200160008152602001600081526020016000815260200160008152602001600073ffffffffffffffffffffffffffffffffffffffff1681525090565b612354612442565b60009283526020908152604092839020835161010081018552815481526001820154928101929092526002810154938201939093526003830154606082015260048301546080820152600583015460a0820152600683015460c082015260079092015473ffffffffffffffffffffffffffffffffffffffff1660e08301525090565b6040516024810183905273ffffffffffffffffffffffffffffffffffffffff8216604482015260609061242f9084907fffe567e8000000000000000000000000000000000000000000000000000000009060640161146f565b80602001905181019061126a9190613063565b6000807f7661742e3000000000000000000000000000000000000000000000000000000060405160200161247891815260200190565b60408051601f19818403018152919052805160209091012092915050565b60006124a0612442565b600083815260208290526040902060058101549192509042036124c257505050565b60008160010154905060006124eb8284600401548560050154426124e6919061303d565b612aca565b905060006124f9838361303d565b9050600081856000015461250d9190612fe3565b905060008187600401546125219190613050565b426005880181905560405190815290915088907f72686f0000000000000000000000000000000000000000000000000000000000907fa6a62c84c48e7b9441c54da7ead6df8213afddbc24649e1f6b88294160ef069f9060200160405180910390a36001860184905560405184815288907f7261636b00000000000000000000000000000000000000000000000000000000907fa6a62c84c48e7b9441c54da7ead6df8213afddbc24649e1f6b88294160ef069f9060200160405180910390a36125f76b033b2e3c9fd0803ce800000082613029565b87600501546126069190613050565b600588018190556040519081527f6465627400000000000000000000000000000000000000000000000000000000907f16e9c051056ea742d289d2cb753372cf432f332213ecd495b26ea8f72e3cf2e09060200160405180910390a26126786b033b2e3c9fd0803ce80000008261319d565b600488018190556040519081527f7265737400000000000000000000000000000000000000000000000000000000907f16e9c051056ea742d289d2cb753372cf432f332213ecd495b26ea8f72e3cf2e09060200160405180910390a26126ea6b033b2e3c9fd0803ce800000082613029565b87600201546126f99190613050565b600288018190556040519081527f6a6f790000000000000000000000000000000000000000000000000000000000907f16e9c051056ea742d289d2cb753372cf432f332213ecd495b26ea8f72e3cf2e09060200160405180910390a25050505050505050565b60006b033b2e3c9fd0803ce80000006127788385612fe3565b61126a9190613029565b6060600061278e612442565b600085815260209190915260409081902060070154905173ffffffffffffffffffffffffffffffffffffffff909116906127c99085906132a7565b600060405180830381855af49150503d8060008114612804576040519150601f19603f3d011682016040523d82523d6000602084013e612809565b606091505b5092509050806113f6576113f682612962565b606060003073ffffffffffffffffffffffffffffffffffffffff166370aed3c760e01b85856040516024016128529291906132c3565b60408051601f198184030181529181526020820180517bffffffffffffffffffffffffffffffffffffffffffffffffffffffff167fffffffff000000000000000000000000000000000000000000000000000000009094169390931790925290516128bd91906132a7565b600060405180830381855afa9150503d80600081146128f8576040519150601f19603f3d011682016040523d82523d6000602084013e6128fd565b606091505b5092509050806129105761291082612962565b818060200190518101906129249190613063565b949350505050565b6000807f7269636f62616e6b2e300000000000000000000000000000000000000000000060405160200161247891815260200190565b80518082602001fd5b81810160008213801561297e5750828111155b156129b5576040517fcdc2bcd700000000000000000000000000000000000000000000000000000000815260040160405180910390fd5b6000821280156129c55750828110155b156103dc576040517f9666073c00000000000000000000000000000000000000000000000000000000815260040160405180910390fd5b8181026000831215612a3a576040517f8f71065f00000000000000000000000000000000000000000000000000000000815260040160405180910390fd5b8115801590612a58575082828281612a5457612a54612ffa565b0514155b156103dc576000821315612a98576040517f8f71065f00000000000000000000000000000000000000000000000000000000815260040160405180910390fd5b6040517fb80fa08500000000000000000000000000000000000000000000000000000000815260040160405180910390fd5b60006b033b2e3c9fd0803ce8000000612ae38484611307565b612aed9086612fe3565b6129249190613029565b803573ffffffffffffffffffffffffffffffffffffffff81168114612b1b57600080fd5b919050565b60008060408385031215612b3357600080fd5b82359150612b4360208401612af7565b90509250929050565b600060208284031215612b5e57600080fd5b5035919050565b600080600060608486031215612b7a57600080fd5b505081359360208301359350604090920135919050565b60005b83811015612bac578181015183820152602001612b94565b50506000910152565b60008151808452612bcd816020860160208601612b91565b601f01601f19169290920160200192915050565b60208152600061126a6020830184612bb5565b7f4e487b7100000000000000000000000000000000000000000000000000000000600052604160045260246000fd5b604051601f8201601f1916810167ffffffffffffffff81118282101715612c4c57612c4c612bf4565b604052919050565b600067ffffffffffffffff821115612c6e57612c6e612bf4565b50601f01601f191660200190565b60008060408385031215612c8f57600080fd5b82359150602083013567ffffffffffffffff811115612cad57600080fd5b8301601f81018513612cbe57600080fd5b8035612cd1612ccc82612c54565b612c23565b818152866020838501011115612ce657600080fd5b816020840160208301376000602083830101528093505050509250929050565b60008083601f840112612d1857600080fd5b50813567ffffffffffffffff811115612d3057600080fd5b6020830191508360208260051b8501011115612d4b57600080fd5b9250929050565b60008060008060608587031215612d6857600080fd5b8435935060208501359250604085013567ffffffffffffffff811115612d8d57600080fd5b612d9987828801612d06565b95989497509550505050565b60008060408385031215612db857600080fd5b50508035926020909101359150565b7f4e487b7100000000000000000000000000000000000000000000000000000000600052602160045260246000fd5b6060810160038510612e31577f4e487b7100000000000000000000000000000000000000000000000000000000600052602160045260246000fd5b938152602081019290925260409091015290565b60008083601f840112612e5757600080fd5b50813567ffffffffffffffff811115612e6f57600080fd5b602083019150836020828501011115612d4b57600080fd5b600080600060408486031215612e9c57600080fd5b612ea584612af7565b9250602084013567ffffffffffffffff811115612ec157600080fd5b612ecd86828701612e45565b9497909650939450505050565b600080600080600060808688031215612ef257600080fd5b85359450612f0260208701612af7565b9350604086013567ffffffffffffffff811115612f1e57600080fd5b612f2a88828901612e45565b96999598509660600135949350505050565b600080600080600060808688031215612f5457600080fd5b8535945060208601359350604086013567ffffffffffffffff811115612f7957600080fd5b612f2a88828901612d06565b60208152816020820152818360408301376000818301604090810191909152601f909201601f19160101919050565b7f4e487b7100000000000000000000000000000000000000000000000000000000600052601160045260246000fd5b80820281158282048414176103dc576103dc612fb4565b7f4e487b7100000000000000000000000000000000000000000000000000000000600052601260045260246000fd5b60008261303857613038612ffa565b500490565b818103818111156103dc576103dc612fb4565b808201808211156103dc576103dc612fb4565b60006020828403121561307557600080fd5b815167ffffffffffffffff81111561308c57600080fd5b8201601f8101841361309d57600080fd5b80516130ab612ccc82612c54565b8181528560208385010111156130c057600080fd5b6112fe826020830160208601612b91565b81835260007f07ffffffffffffffffffffffffffffffffffffffffffffffffffffffffffffff83111561310357600080fd5b8260051b80836020870137939093016020019392505050565b84815283602082015260606040820152600061313c6060830184866130d1565b9695505050505050565b60006020828403121561315857600080fd5b5051919050565b60008060006060848603121561317457600080fd5b8351925060208401519150604084015190509250925092565b8183823760009101908152919050565b6000826131ac576131ac612ffa565b500690565b60007f800000000000000000000000000000000000000000000000000000000000000082036131e2576131e2612fb4565b5060000390565b60208152600073ffffffffffffffffffffffffffffffffffffffff8084511660208401526020840151604084015280604085015116606084015250606083015160a0608084015261323d60c0840182612bb5565b9050608084015160a08401528091505092915050565b60006020828403121561326557600080fd5b8151801515811461126a57600080fd5b8581528460208201526080604082015260006132956080830185876130d1565b90508260608301529695505050505050565b600082516132b9818460208701612b91565b9190910192915050565b8281526040602082015260006129246040830184612bb556fea2646970667358221220d8702a6f1cf66a8739e1a10617f5584a0e73e5b59b9d0f0488c99d523b6e8cb164736f6c63430008130033",
  "linkReferences": {},
  "deployedLinkReferences": {}
}