{
  "_format": "hh-sol-artifact-1",
  "contractName": "Vow",
  "sourceName": "src/vow.sol",
  "abi": [
    {
      "inputs": [],
      "name": "ErrIntOver",
      "type": "error"
    },
    {
      "inputs": [],
      "name": "ErrIntUnder",
      "type": "error"
    },
    {
      "inputs": [],
      "name": "ErrOutDated",
      "type": "error"
    },
    {
      "inputs": [],
      "name": "ErrReflop",
      "type": "error"
    },
    {
      "inputs": [],
      "name": "ErrUintOver",
      "type": "error"
    },
    {
      "inputs": [],
      "name": "ErrUintUnder",
      "type": "error"
    },
    {
      "inputs": [],
      "name": "ErrWrongKey",
      "type": "error"
    },
    {
      "inputs": [],
      "name": "ErrWrongUrn",
      "type": "error"
    },
    {
      "anonymous": false,
      "inputs": [
        {
          "indexed": true,
          "internalType": "address",
          "name": "caller",
          "type": "address"
        },
        {
          "indexed": true,
          "internalType": "bytes4",
          "name": "sig",
          "type": "bytes4"
        },
        {
          "indexed": false,
          "internalType": "bytes",
          "name": "data",
          "type": "bytes"
        }
      ],
      "name": "NewFlog",
      "type": "event"
    },
    {
      "anonymous": false,
      "inputs": [
        {
          "indexed": true,
          "internalType": "bytes32",
          "name": "key",
          "type": "bytes32"
        },
        {
          "indexed": false,
          "internalType": "bytes32",
          "name": "val",
          "type": "bytes32"
        }
      ],
      "name": "NewPalm0",
      "type": "event"
    },
    {
      "anonymous": false,
      "inputs": [
        {
          "indexed": true,
          "internalType": "bytes32",
          "name": "key",
          "type": "bytes32"
        },
        {
          "indexed": true,
          "internalType": "bytes32",
          "name": "idx0",
          "type": "bytes32"
        },
        {
          "indexed": false,
          "internalType": "bytes32",
          "name": "val",
          "type": "bytes32"
        }
      ],
      "name": "NewPalm1",
      "type": "event"
    },
    {
      "anonymous": false,
      "inputs": [
        {
          "indexed": true,
          "internalType": "bytes32",
          "name": "key",
          "type": "bytes32"
        },
        {
          "indexed": true,
          "internalType": "bytes32",
          "name": "idx0",
          "type": "bytes32"
        },
        {
          "indexed": true,
          "internalType": "bytes32",
          "name": "idx1",
          "type": "bytes32"
        },
        {
          "indexed": false,
          "internalType": "bytes32",
          "name": "val",
          "type": "bytes32"
        }
      ],
      "name": "NewPalm2",
      "type": "event"
    },
    {
      "anonymous": false,
      "inputs": [
        {
          "indexed": true,
          "internalType": "bytes32",
          "name": "key",
          "type": "bytes32"
        },
        {
          "indexed": true,
          "internalType": "bytes32",
          "name": "idx0",
          "type": "bytes32"
        },
        {
          "indexed": true,
          "internalType": "bytes32",
          "name": "idx1",
          "type": "bytes32"
        },
        {
          "indexed": false,
          "internalType": "bytes",
          "name": "val",
          "type": "bytes"
        }
      ],
      "name": "NewPalmBytes2",
      "type": "event"
    },
    {
      "inputs": [],
      "name": "RISK",
      "outputs": [
        {
          "internalType": "contract Gem",
          "name": "",
          "type": "address"
        }
      ],
      "stateMutability": "view",
      "type": "function"
    },
    {
      "inputs": [
        {
          "internalType": "bytes32[]",
          "name": "ilks",
          "type": "bytes32[]"
        }
      ],
      "name": "keep",
      "outputs": [],
      "stateMutability": "nonpayable",
      "type": "function"
    },
    {
      "inputs": [],
      "name": "plat",
      "outputs": [
        {
          "components": [
            {
              "internalType": "uint256",
              "name": "pep",
              "type": "uint256"
            },
            {
              "internalType": "uint256",
              "name": "pop",
              "type": "uint256"
            }
          ],
          "internalType": "struct Bank.Plx",
          "name": "",
          "type": "tuple"
        }
      ],
      "stateMutability": "view",
      "type": "function"
    },
    {
      "inputs": [],
      "name": "plot",
      "outputs": [
        {
          "components": [
            {
              "internalType": "uint256",
              "name": "pep",
              "type": "uint256"
            },
            {
              "internalType": "uint256",
              "name": "pop",
              "type": "uint256"
            }
          ],
          "internalType": "struct Bank.Plx",
          "name": "",
          "type": "tuple"
        }
      ],
      "stateMutability": "view",
      "type": "function"
    },
    {
      "inputs": [],
      "name": "ramp",
      "outputs": [
        {
          "components": [
            {
              "internalType": "uint256",
              "name": "rel",
              "type": "uint256"
            },
            {
              "internalType": "uint256",
              "name": "bel",
              "type": "uint256"
            },
            {
              "internalType": "uint256",
              "name": "cel",
              "type": "uint256"
            },
            {
              "internalType": "uint256",
              "name": "wel",
              "type": "uint256"
            }
          ],
          "internalType": "struct Bank.Ramp",
          "name": "",
          "type": "tuple"
        }
      ],
      "stateMutability": "view",
      "type": "function"
    },
    {
      "inputs": [
        {
          "internalType": "uint256",
          "name": "x",
          "type": "uint256"
        },
        {
          "internalType": "uint256",
          "name": "n",
          "type": "uint256"
        }
      ],
      "name": "rpow",
      "outputs": [
        {
          "internalType": "uint256",
          "name": "z",
          "type": "uint256"
        }
      ],
      "stateMutability": "pure",
      "type": "function"
    },
    {
      "inputs": [],
      "name": "rudd",
      "outputs": [
        {
          "components": [
            {
              "internalType": "address",
              "name": "src",
              "type": "address"
            },
            {
              "internalType": "bytes32",
              "name": "tag",
              "type": "bytes32"
            }
          ],
          "internalType": "struct Bank.Rudd",
          "name": "",
          "type": "tuple"
        }
      ],
      "stateMutability": "view",
      "type": "function"
    },
    {
      "inputs": [],
      "name": "toll",
      "outputs": [
        {
          "internalType": "uint256",
          "name": "",
          "type": "uint256"
        }
      ],
      "stateMutability": "view",
      "type": "function"
    }
  ],
  "bytecode": "0x608060405234801561001057600080fd5b506112bd806100206000396000f3fe608060405234801561001057600080fd5b50600436106100885760003560e01c80639c2062ad1161005b5780639c2062ad14610133578063da178cb014610160578063de04839414610183578063df8a94781461018b57600080fd5b806315d276e11461008d578063285aaa20146100d15780638f907195146100e757806397b67bb9146100fa575b600080fd5b6100956101a0565b6040516100c891908151815260208083015190820152604080830151908201526060918201519181019190915260800190565b60405180910390f35b6100d961020a565b6040519081526020016100c8565b6100d96100f5366004611052565b61021d565b610102610313565b60408051825173ffffffffffffffffffffffffffffffffffffffff16815260209283015192810192909252016100c8565b61013b610366565b60405173ffffffffffffffffffffffffffffffffffffffff90911681526020016100c8565b61016861038c565b604080518251815260209283015192810192909252016100c8565b6101686103c9565b61019e610199366004611074565b610406565b005b6101cb6040518060800160405280600081526020016000815260200160008152602001600081525090565b6101d3610c4c565b6040805160808101825260018301548152600283015460208201526003830154918101919091526004909101546060820152919050565b6000610214610c4c565b60050154905090565b60008180156102fc578380156102f15760018416801561023f5785935061024f565b6b033b2e3c9fd0803ce800000093505b506002909304926b019d971e4fe8401e740000005b84156102eb578586028660801c1561027b57600080fd5b8181018181101561028b57600080fd5b6b033b2e3c9fd0803ce8000000900496505060018516156102e05785840284878204141587151516156102bd57600080fd5b818101818110156102cd57600080fd5b6b033b2e3c9fd0803ce800000090049450505b600285049450610264565b506102f6565b600092505b5061030c565b6b033b2e3c9fd0803ce800000091505b5092915050565b604080518082019091526000808252602082015261032f610c4c565b60408051808201909152600a82015473ffffffffffffffffffffffffffffffffffffffff168152600b909101546020820152919050565b6000610370610c4c565b5473ffffffffffffffffffffffffffffffffffffffff16919050565b60408051808201909152600080825260208201526103a8610c4c565b60408051808201909152600882015481526009909101546020820152919050565b60408051808201909152600080825260208201526103e5610c4c565b60408051808201909152600682015481526007909101546020820152919050565b6000357fffffffff00000000000000000000000000000000000000000000000000000000167bffffffffffffffffffffffffffffffffffffffffffffffffffffffff19163373ffffffffffffffffffffffffffffffffffffffff167fc8b2a2dbd2bddf4ecc3e665d9828132a78820abf89df014d2ce4510f27a160616000366040516104939291906110e9565b60405180910390a360006104a5610c4c565b905060006104b1610cbe565b905060006104bd610cf4565b905060005b8481101561054a57306344e2a5a88787848181106104e2576104e2611136565b905060200201356040518263ffffffff1660e01b815260040161050791815260200190565b600060405180830381600087803b15801561052157600080fd5b505af1158015610535573d6000803e3d6000fd5b505050508061054390611194565b90506104c2565b50805483546002840154600385015473ffffffffffffffffffffffffffffffffffffffff9384169390921691600090610590906b033b2e3c9fd0803ce8000000906111cc565b9050808211156108aa5760018111156105b9576105b66105b1600183611207565b610d2a565b91505b600586015460006105d3826105ce8682611220565b610e99565b905060006105f88a600601600101546105f3848d6006016000015461021d565b610ec3565b9050600061061461060a600188611207565b60048d0154610edc565b90506106208187611207565b60028b018190556040518181529096507f6a6f790000000000000000000000000000000000000000000000000000000000907f16e9c051056ea742d289d2cb753372cf432f332213ecd495b26ea8f72e3cf2e09060200160405180910390a2600061068d836105ce610ef1565b610698906001611220565b905060006106bc838e600501546b033b2e3c9fd0803ce80000006105f39190611207565b905060006106ca8284610ec3565b6106d5906001611220565b6040517f9dc29fac0000000000000000000000000000000000000000000000000000000081523360048201526024810182905290915073ffffffffffffffffffffffffffffffffffffffff8b1690639dc29fac90604401600060405180830381600087803b15801561074657600080fd5b505af115801561075a573d6000803e3d6000fd5b50506040517f40c10f190000000000000000000000000000000000000000000000000000000081523360048201526024810185905273ffffffffffffffffffffffffffffffffffffffff8e1692506340c10f199150604401600060405180830381600087803b1580156107cc57600080fd5b505af11580156107e0573d6000803e3d6000fd5b505050508382101561089e578a73ffffffffffffffffffffffffffffffffffffffff166340c10f19610810610ffe565b61081a8588611207565b6040517fffffffff0000000000000000000000000000000000000000000000000000000060e085901b16815273ffffffffffffffffffffffffffffffffffffffff90921660048301526024820152604401600060405180830381600087803b15801561088557600080fd5b505af1158015610899573d6000803e3d6000fd5b505050505b50505050505050610c41565b81811115610c415760006108be8383611207565b905060018311156108da576108d76105b1600185611207565b92505b600587015460006108ef826105ce8582611220565b9050600061090f8b600801600101546105f3848e6008016000015461021d565b905060006109338c60010160010154426109299190611207565b60038e0154611026565b905060006109b68d600101600001548a73ffffffffffffffffffffffffffffffffffffffff166318160ddd6040518163ffffffff1660e01b8152600401602060405180830381865afa15801561098d573d6000803e3d6000fd5b505050506040513d601f19601f820116820180604052508101906109b19190611233565b610edc565b6109c0908361124c565b9050806000036109fc576040517f8d259ec200000000000000000000000000000000000000000000000000000000815260040160405180910390fd5b6000610a13826105f3610a0d610ef1565b87610ec3565b90504287821115610a6557610a3e84610a2c8a8561103d565b6109b190670de0b6b3a7640000611207565b610a489082611207565b905081610a55898561124c565b610a5f91906111cc565b92508791505b60028f018190556040518181527f62656c0000000000000000000000000000000000000000000000000000000000907f16e9c051056ea742d289d2cb753372cf432f332213ecd495b26ea8f72e3cf2e09060200160405180910390a26040517f9dc29fac0000000000000000000000000000000000000000000000000000000081523360048201526024810183905273ffffffffffffffffffffffffffffffffffffffff8d1690639dc29fac90604401600060405180830381600087803b158015610b2f57600080fd5b505af1158015610b43573d6000803e3d6000fd5b50506040517f40c10f190000000000000000000000000000000000000000000000000000000081523360048201526024810186905273ffffffffffffffffffffffffffffffffffffffff8e1692506340c10f199150604401600060405180830381600087803b158015610bb557600080fd5b505af1158015610bc9573d6000803e3d6000fd5b50505050818a610bd99190611220565b60028f01819055604051818152909a507f6a6f790000000000000000000000000000000000000000000000000000000000907f16e9c051056ea742d289d2cb753372cf432f332213ecd495b26ea8f72e3cf2e09060200160405180910390a250505050505050505b505050505050505050565b6000807f766f772e30000000000000000000000000000000000000000000000000000000604051602001610c8291815260200190565b604080517fffffffffffffffffffffffffffffffffffffffffffffffffffffffffffffffe0818403018152919052805160209091012092915050565b6000807f7661742e30000000000000000000000000000000000000000000000000000000604051602001610c8291815260200190565b6000807f7269636f62616e6b2e3000000000000000000000000000000000000000000000604051602001610c8291815260200190565b600080610d35610cbe565b9050610d4d6b033b2e3c9fd0803ce80000008461124c565b8160030154610d5c9190611207565b600382018190556040519081527f73696e0000000000000000000000000000000000000000000000000000000000907f16e9c051056ea742d289d2cb753372cf432f332213ecd495b26ea8f72e3cf2e09060200160405180910390a2828160020154610dc89190611207565b600282018190556040518181529092507f6a6f790000000000000000000000000000000000000000000000000000000000907f16e9c051056ea742d289d2cb753372cf432f332213ecd495b26ea8f72e3cf2e09060200160405180910390a2828160050154610e379190611207565b600582018190556040519081527f6465627400000000000000000000000000000000000000000000000000000000907f16e9c051056ea742d289d2cb753372cf432f332213ecd495b26ea8f72e3cf2e09060200160405180910390a250919050565b600081610eb26b033b2e3c9fd0803ce80000008561124c565b610ebc91906111cc565b9392505050565b60006b033b2e3c9fd0803ce8000000610eb2838561124c565b6000670de0b6b3a7640000610eb2838561124c565b600080610efc610cf4565b90506000610f08610c4c565b6001830154600a820154600b8301546040517f52ba849100000000000000000000000000000000000000000000000000000000815273ffffffffffffffffffffffffffffffffffffffff92831660048201526024810191909152929350600092839291909116906352ba8491906044016040805180830381865afa158015610f94573d6000803e3d6000fd5b505050506040513d601f19601f82011682018060405250810190610fb89190611263565b9150915042811015610ff6576040517f5eeceb2a00000000000000000000000000000000000000000000000000000000815260040160405180910390fd5b509392505050565b60007f8a22373512790c48b83a1fe2efdd2888d4a917bcdc24d0adf63e60f671680460610370565b6000818311156110365781610ebc565b5090919050565b600081610eb2670de0b6b3a76400008561124c565b6000806040838503121561106557600080fd5b50508035926020909101359150565b6000806020838503121561108757600080fd5b823567ffffffffffffffff8082111561109f57600080fd5b818501915085601f8301126110b357600080fd5b8135818111156110c257600080fd5b8660208260051b85010111156110d757600080fd5b60209290920196919550909350505050565b60208152816020820152818360408301376000818301604090810191909152601f9092017fffffffffffffffffffffffffffffffffffffffffffffffffffffffffffffffe0160101919050565b7f4e487b7100000000000000000000000000000000000000000000000000000000600052603260045260246000fd5b7f4e487b7100000000000000000000000000000000000000000000000000000000600052601160045260246000fd5b60007fffffffffffffffffffffffffffffffffffffffffffffffffffffffffffffffff82036111c5576111c5611165565b5060010190565b600082611202577f4e487b7100000000000000000000000000000000000000000000000000000000600052601260045260246000fd5b500490565b8181038181111561121a5761121a611165565b92915050565b8082018082111561121a5761121a611165565b60006020828403121561124557600080fd5b5051919050565b808202811582820484141761121a5761121a611165565b6000806040838503121561127657600080fd5b50508051602090910151909290915056fea2646970667358221220c9b293e478392e17c6e60d74669a3aeeb8d284837de34bcd1c88cc63d50b0f3964736f6c63430008130033",
  "linkReferences": {},
  "deployedLinkReferences": {}
}